:1000000041C1000070C100006EC100006CC1000061
:100010006AC1000068C1000066C1000064C1000040
:1000200062C1000060C100005EC100005CC1000050
:100030005AC1000058C1000056C1000054C1000060
:1000400052C1000050C100004EC100004CC1000070
:100050004AC1000048C1000046C100000C945B0A80
:1000600042C1000061C3000036C300003CC1000073
:100070003AC1000038C1000036C1000034C10000A0
:1000800032C1000030C100002EC100002CC10000B0
:100090002AC1000028C1000026C100007BC3000067
:1000A00022C1000020C100001EC100001CC10000D0
:1000B0001AC1000018C1000016C1000014C10000E0
:1000C00012C1000010C100000EC100000CC10000F0
:1000D0000AC1000008C1000006C1000004C1000000
:1000E00002C10000D706DA06C906CD06D3061107FD
:1000F000DE06E206E806EC06F006F606FA06FE065E
:100100001107040708070C0708000000BE922449E5
:10011000123EABAAAA2ABECDCCCC4C3E0000008039
:10012000BEABAAAAAA3E00000000BF000000803FAC
:100130000000000000084178D3BB4387D1133D196C
:100140000E3CC3BD4282AD2B3E68EC8276BED98F99
:10015000E1A93E4C80EFFFBE01C4FF7F3F000000DD
:10016000000000002100240027002A002D0030009C
:10017000330001010000040107010A010000220010
:10018000250028002B002E00310034000201000061
:10019000050108010B0100002000230026002900B2
:1001A0002C002F00320000010000030106010901AC
:1001B00005050505070508080808020202020A0AE3
:1001C0000808040404040101010101010101030301
:1001D000030303030303040707070C0C0C0C0C0CAC
:1001E0000C0C0202020206060606060606060B0BA9
:1001F0000B0B0B0B0B0B01021020200808102040EA
:1002000010204080020102010804020101020408DA
:100210001020408080402010080402018004020168
:1002200080402010080402010804020101020408B1
:1002300010204080010204081020408000000A0BBA
:1002400002090C0D0E080703040100000000000065
:10025000000000000000000000000000000000009E
:10026000000000000000000012111000000000005B
:10027000000000000000000000000000000000007E
:100280000000CF1511241FBECFEFD1E2DEBFCDBFDE
:1002900000E00CBF13E0A0E0B2E0EAE3F2E300E02C
:1002A0000BBF02C007900D92A03EB107D9F725E021
:1002B000A0EEB3E001C01D92AF37B207E1F711E045
:1002C000C2E4D1E000E006C021970109802FFE01C1
:1002D0000E940F19C134D10780E00807A9F70E94D6
:1002E000A50A0C941B198CCECF92DF92EF92FF924D
:1002F0000F931F93CF93DF936C017A018B01C0E0C2
:10030000D0E0CE15DF0581F0D8016D918D01D601C9
:10031000ED91FC910190F081E02DC6011995892B9A
:1003200011F02196EECF7E01C701DF91CF911F9191
:100330000F91FF90EF90DF90CF900895FC01538DC7
:10034000448D252F30E0842F90E0821B930B5417AF
:1003500010F0CF96089501970895FC01918D828D3C
:10036000981761F0828DDF01A80FB11D5D968C9109
:10037000928D9F5F9F73928F90E008958FEF9FEF14
:100380000895FC01918D828D981731F0828DE80FD0
:10039000F11D858D90E008958FEF9FEF0895FC018A
:1003A000918D228D892F90E0805C9F4F821B910957
:1003B0008F73992708958BEB94E0F1DF21E0892B6F
:1003C00009F420E0822F0895FC01848DDF01A80F3D
:1003D000B11DA35ABF4F2C91848D90E001968F736D
:1003E0009927848FA689B7892C93A089B1898C918C
:1003F000837080648C93938D848D981306C00288DB
:10040000F389E02D80818F7D80830895EF92FF92A4
:100410000F931F93CF93DF93EC0181E0888F9B8D27
:100420008C8D981305C0E889F989808185FD25C0E8
:10043000F62E0B8D10E00F5F1F4F0F731127E02E6C
:100440008C8DE8120BC00FB607FCFACFE889F9894A
:10045000808185FFF5CFCE01B7DFF2CF8B8DFE0116
:10046000E80FF11DE35AFF4FF0829FB7F8940B8F0E
:10047000EA89FB89808180620AC09FB7F894EE897F
:10048000FF896083E889F989808183708064808333
:100490009FBF81E090E0DF91CF911F910F91FF907E
:1004A000EF900895CF93DF93EC01888D8823C1F0FE
:1004B000EA89FB89808185FD05C0A889B9898C916D
:1004C00086FD0EC00FB607FCF5CF808185FFF2CF09
:1004D000A889B9898C9185FFEDCFCE0175DFE8CF72
:1004E000DF91CF91089580E090E0892B19F063DFD0
:1004F000811125C080E090E0892B41F080E090E000
:10050000892B21F00E94000081111CC080E090E046
:10051000892B41F080E090E0892B21F00E940000BF
:10052000811113C080E090E0892BA1F080E090E081
:10053000892B81F00E94000081110AC008950E9459
:100540000000D8CF0E940000E1CF0E940000EACF57
:100550000C940000089585ED8093BC008091BC0050
:1005600084FDFCCF10929604089540914504262FF7
:1005700030E0240F311D21323105DCF42091960446
:100580002430C9F4FC0180E090E0861758F43091E3
:1005900045042191DC01AB5DBB4FA30FB11D2C9332
:1005A0000196F3CF80914504680F6093450480E085
:1005B000089581E0089582E00895089508950895CA
:1005C000E091E5038091E403E81730F4F0E0EB5F9D
:1005D000FB4F808190E008958FEF9FEF08959091F9
:1005E000E5038091E403981750F4E92FF0E0EB5F06
:1005F000FB4F208130E09F5F9093E50302C02FEF17
:100600003FEFC90108958091E40390E02091E50354
:10061000821B91090895CF92DF92EF92FF920F9380
:100620001F93CF93DF937C01CB018A012091970424
:10063000222389F0EB016B01C40ED51ECC15DD051C
:1006400061F06991D701ED91FC910190F081E02D6D
:10065000C7011995F3CF642F88DFC801DF91CF91CF
:100660001F910F91FF90EF90DF90CF900895CF935F
:10067000DF931F92CDB7DEB76983209197042223C1
:10068000D1F02091BA04203240F021E030E0FC01AA
:100690003383228380E090E014C080919804E82F97
:1006A000F0E0E756FB4F998190838F5F8093980429
:1006B0008093BA0404C061E0CE01019656DF81E068
:1006C00090E00F90DF91CF910895089580E090E041
:1006D00008950E9417191F920F920FB60F921124BE
:1006E0000BB60F922F933F934F935F936F937F932C
:1006F0008F939F93AF93BF93EF93FF938BEB94E014
:1007000063DEFF91EF91BF91AF919F918F917F91A8
:100710006F915F914F913F912F910F900BBE0F9072
:100720000FBE0F901F9018951F920F920FB60F9249
:1007300011240BB60F922F938F939F93EF93FF93F8
:10074000E091CB04F091CC048081E091D104F09150
:10075000D20482FD12C090818091D4048F5F8F7388
:100760002091D504821751F0E091D404F0E0E554D3
:10077000FB4F958F8093D40401C08081FF91EF914E
:100780009F918F912F910F900BBE0F900FBE0F90E6
:100790001F9018951F920F920FB60F9211240BB64F
:1007A0000F922F933F934F935F936F937F938F930A
:1007B0009F93AF93BF93EF93FF938091B900887F8E
:1007C000803609F49CC068F5883209F45BC090F467
:1007D000803109F454C038F4882309F4F6C0883015
:1007E00009F44DC0F5C0883109F44CC0803209F4D9
:1007F0005DC0EEC0803409F468C048F4803309F469
:1008000055C0883309F0E4C080939404D8C0803583
:1008100009F44FC0883509F45DC0883409F0D8C0A8
:10082000D6C0883909F4C7C0A8F4883709F467C06E
:1008300038F4883609F463C0803709F460C0C8C052
:10084000883809F4B8C0803909F45FC0803809F0ED
:10085000BFC05BC0803B09F486C038F4803A09F41D
:1008600066C0883A09F47FC0B3C0803C09F4A7C0D1
:10087000883C09F4A4C0883B09F48AC0A9C08091CF
:10088000710410C09091930480919204981770F5B0
:10089000E091930481E08E0F80939304F0E0EE5892
:1008A000FB4F80818093BB0085EC86C080939404CD
:1008B0008EC0E091930481E08E0F80939304809129
:1008C000BB00F0E0EE58FB4F808390919304809141
:1008D00092046EC0E091930481E08E0F80939304A4
:1008E0008091BB00F0E0EE58FB4F8083809195042F
:1008F00081116DC081E08093700484EA61C083E05F
:100900008093960410926704CFCF80916704803261
:1009100008F051C0E091670481E08E0F8093670476
:100920008091BB00F0E0E95BFB4F8083BDCF85EC9D
:100930008093BC001092960480916704803230F45A
:10094000E0916704F0E0E95BFB4F1082609167047F
:1009500070E0E091E003F091E10387E494E0199501
:100960001092670435C084E0809396041092460488
:1009700010924504E091E203F091E3031995809110
:100980004504811105C081E080934504109225043F
:10099000E091460481E08E0F80934604F0E0EB5D29
:1009A000FB4F80818093BB00909146048091450469
:1009B000981708F479CF85E88093BC0009C085ECCE
:1009C0008093BC001092960403C010929404C3DD7F
:1009D000FF91EF91BF91AF919F918F917F916F9117
:1009E0005F914F913F912F910F900BBE0F900FBED3
:1009F0000F901F9018951F93CF93DF93EC01162F44
:100A00000E942C16181739F0612FCE01DF91CF917B
:100A10001F910C943416DF91CF911F9108950C947F
:100A20002C16CF93DF93EC0160E08CE177D4209714
:100A300029F461E08CE172D460E007C0C130D105D7
:100A400059F460E08CE16AD461E08AE167D460E047
:100A500088E164D460E022C0C230D10541F460E096
:100A60008CE15CD460E08AE159D461E0F1CFC3301D
:100A7000D10541F460E08CE151D460E08AE14ED4CC
:100A800060E009C0249771F460E08CE147D461E034
:100A90008AE144D461E088E141D461E086E1DF91FC
:100AA000CF913CC4DF91CF9108954F925F926F92A6
:100AB0007F928F929F92AF92BF92CF92DF92EF92EE
:100AC000FF9286E395D4BC01990F880B990B0E9485
:100AD00046172AE038E240EA5BE30E943F189B0198
:100AE000AC0160E070E080EA90E40E94AB1620E088
:100AF00030E040E85FE30E94421620E030E44CE939
:100B000055E40E943F180E94FF174B015C0187E3E8
:100B10006FD4BC01990F880B990B0E9446172AE0ED
:100B200038E240EA5BE30E943F189B01AC0160E0C1
:100B300070E080EA90E40E94AB1620E030E040E8EC
:100B40005FE30E94421620E030E44CE955E40E9445
:100B50003F180E94FF176B017C01A5019401C5019C
:100B6000B4010E943F18A50194010E943F182FEF85
:100B70003EE34FE754E30E943F182B013C0129E577
:100B800033E746E559E3C501B4010E943F1822EC62
:100B90003DE141EC5AE30E9443169B01AC01C301C5
:100BA000B2010E9443169B01AC0160E070E080E856
:100BB0009FE30E94AB1623E333E948E853E40E9425
:100BC00042164B015C01A7019601C701B6010E94C4
:100BD0003F18A70196010E943F182FEF3EE34FE711
:100BE00054E30E943F182B013C0129E533E746E519
:100BF00059E3C701B6010E943F1822EC3DE141ECE8
:100C00005AE30E9443169B01AC01C301B2010E944A
:100C100043169B01AC0160E070E080E89FE30E9416
:100C2000AB1623E333E948E853E40E9442169B01E4
:100C3000AC01C501B4010E94431620E030E040E061
:100C40005FE30E943F186B017C0181EC93E094D13B
:100C50008091060290910702019799F542E0C70141
:100C6000B601E7D189E993E0D8D1C701B6010E9466
:100C700013176B017C01EAE0F0E0CB01BF010E9499
:100C8000D9189C01CB01BF010E94D918FC01E25F79
:100C9000FD4F808190E09093650580936405F90194
:100CA000E25FFD4F808190E0909367058093660539
:100CB00083E690E090936B0580936A0589E390E06A
:100CC00047C08091060290910702029709F047C041
:100CD00026E636E646EE5FE3C701B6010E943F18FE
:100CE00020E030E040E052E40E9443166B017C01BA
:100CF00042E09FD185E993E090D1C701B6010E94FF
:100D000013176B017C01EAE0F0E0CB01BF010E9408
:100D1000D9189C01CB01BF010E94D918FC01E25FE8
:100D2000FD4F808190E09093650580936405F90103
:100D3000E25FFD4F808190E09093670580936605A8
:100D400083E690E090936B0580936A0581E790E0DD
:100D500090936D0580936C05E6D0C60100C0FF90AE
:100D6000EF90DF90CF90BF90AF909F908F907F904B
:100D70006F905F904F90089590E0FC013197E231C1
:100D8000F10508F04EC08827EE58FF4F8F4F0C94A6
:100D90000F19809180008F7703C0809180008F7D34
:100DA00080938000089580918000877FF9CF84B57B
:100DB0008F7702C084B58F7D84BD08958091B00087
:100DC0008F7703C08091B0008F7D8093B00008952D
:100DD000809190008F7707C0809190008F7D03C035
:100DE00080919000877F8093900008958091A0006B
:100DF0008F7707C08091A0008F7D03C08091A000F5
:100E0000877F8093A0000895809120018F7707C08D
:100E1000809120018F7D03C080912001877F809386
:100E2000200108953FB7F89480916C0490916D046F
:100E3000A0916E04B0916F0426B5A89B05C02F3F0A
:100E400019F00196A11DB11D3FBFBA2FA92F982FF0
:100E50008827820F911DA11DB11DBC01CD0142E06B
:100E6000660F771F881F991F4A95D1F70895309113
:100E7000BA04313208F04BC0809196048111FCCF46
:100E80009091B90422E02093960421E020939504E8
:100E90002FEF209394041092930430939204E9E985
:100EA000F4E0A2E7B4E020E0321721F041914D9345
:100EB0002F5FFACF1092710420917104990F922B39
:100EC0009093710490917004913061F410927004C9
:100ED000909171049093BB009091BC0093FDF8CF6A
:100EE00095EC01C095EE9093BC00909196049230E1
:100EF000E1F3909194049F3F79F0809194048032C3
:100F000041F080919404803331F084E005C081E0A9
:100F100003C082E001C083E0109298041092BA04EA
:100F20001092970408950F931F93CF93DF938091AE
:100F3000740591E0909397048093B90410929804FB
:100F40001092BA0460E088E595E091DBC4E6D5E054
:100F50008E01688188E595E08ADB2296F80161813F
:100F600088E595E084DBF5E0C437DF0789F7DF919A
:100F7000CF911F910F917BCF009761F0FC01019001
:100F80000020E9F73197AF01481B590BBC018BEBEF
:100F900094E0AAC980E090E008958F929F92AF926A
:100FA000BF920F931F93CF93DF93CDB7DEB7A19777
:100FB0000FB6F894DEBF0FBECDBF19A2423008F4C1
:100FC0004AE08E010F5D1F4F842E912CA12CB12C75
:100FD000A50194010E94ED18E62FB901CA01015044
:100FE0001109EA3014F4E05D01C0E95CD801EC932A
:100FF000232B242B252B61F7C801BEDFA1960FB64A
:10100000F894DEBF0FBECDBFDF91CF911F910F913E
:10101000BF90AF909F908F900895CF93DF93ACDFF8
:10102000EC0181ED93E0A8DF8C0F9D1FDF91CF9144
:1010300008958F929F92AF92BF92CF92DF92EF92DC
:10104000FF920F931F93CF93DF936B017C01142FBB
:101050009B01AC010E94A218882319F084ED93E053
:1010600027C046015701E894B7F82FEF3FEF4FE74D
:101070005FE7C501B4010E94A21881110DC02FEFD6
:101080003FEF4FE75FE7C501B4010E94A7161816AE
:101090001CF488ED93E00CC02FEF3FEF4FE75FE4C7
:1010A000C701B6010E94F61718167CF48CED93E088
:1010B000DF91CF911F910F91FF90EF90DF90CF9034
:1010C000BF90AF909F908F9057CF2FEF3FEF4FE79C
:1010D0005FECC701B6010E94A71687FDE7CF20E0AD
:1010E00030E0A901C701B6010E94A71687FF0AC018
:1010F0006DE28BEB94E08AD9EC01F7FAF094F7F803
:10110000F09402C0C0E0D0E000E060E070E080E079
:101110009FE3101741F020E030E040E251E40E94EC
:10112000AB160F5FF6CFA70196010E9443166B0125
:101130007C010E9418174B015C014AE02EDFC80FAA
:10114000D91F1123A9F1C501B4010E9444179B01C5
:10115000AC01C701B6010E9442166B017C016EE230
:101160008BEB94E053D9C80FD91F20E030E040E268
:1011700051E4C701B6010E943F184B015C010E9477
:1011800018176B01E12CF12C4AE0C701B60105DF0D
:10119000C80FD91FC701B6010E9444179B01AC01BB
:1011A000C501B4010E9442166B017C011150E9F6A1
:1011B000CE01DF91CF911F910F91FF90EF90DF90C3
:1011C000CF90BF90AF909F908F900895CF93DF9373
:1011D00040E02FDFEC0181ED93E0CEDE8C0F9D1F10
:1011E000DF91CF9108959091740521E020939704A9
:1011F0009093B904109298041092BA04843008F0C5
:1012000080E0682F70E0660F771F616888E595E0E1
:101210002EDA2DCEE4E6F5E01192119285E0E43766
:10122000F807D1F70895CF92DF92EF92FF92CF9314
:10123000DF936C01990FEE08FF08F7FE11C06DE215
:101240008BEB94E0E3D8EC0166277727CB016C1990
:101250007D098E099F094AE0A0DEC80FD91F05C08D
:101260004AE0C701B60199DEEC0181ED93E084DE2E
:101270008C0F9D1FDF91CF91FF90EF90DF90CF906B
:1012800008959091740521E0209397049093B904F8
:10129000109298041092BA04803108F08FE0682F01
:1012A000606E88E595E0E3D9E2CDCF93DF93682FB8
:1012B00070E080E090E04AE070DEEC0181ED93E0C8
:1012C0005BDE8C0F9D1FDF91CF910895CF93DF934D
:1012D000282F30E0F901E45CFD4F8491F901EA50D8
:1012E000FE4FD491F901E055FE4FC491CC2389F013
:1012F000811142DDEC2FF0E0EE0FFF1FEA56FE4FAA
:10130000A591B491EC91ED2381E090E021F480E08F
:1013100002C080E090E0DF91CF9108951F93CF93BA
:10132000DF93282F30E0F901E45CFD4F8491F9014F
:10133000EA50FE4FD491F901E055FE4FC491CC2301
:10134000B9F0162F811118DDEC2FF0E0EE0FFF1F22
:10135000E458FE4FA591B4919FB7F894111104C0C1
:101360008C91D095D82302C0EC91DE2BDC939FBFEB
:10137000DF91CF911F910895CF93DF9390E0FC010F
:10138000EA50FE4F2491FC01E055FE4F84918823E2
:1013900061F190E0880F991FFC01EE59FE4FC59155
:1013A000D491FC01E458FE4FA591B491611109C09C
:1013B0009FB7F8948881209582238883EC912E230F
:1013C0000BC0623061F49FB7F8948881322F30955A
:1013D00083238883EC912E2B2C939FBF06C08FB75D
:1013E000F894E8812E2B28838FBFDF91CF91089549
:1013F000863308F0865390917B00282F2870977FC2
:10140000922B90937B008770806480937C00809106
:101410007A00806480937A0080917A0086FDFCCF08
:10142000809178002091790090E0922B08958F921E
:101430009F92AF92BF92CF92DF92EF92FF926B0199
:101440007C01F0DC4B015C01C114D104E104F10426
:10145000E9F0E8DCDC01CB0188199909AA09BB098C
:10146000883E9340A105B10578F321E0C21AD10866
:10147000E108F10888EE880E83E0981EA11CB11CDB
:10148000C114D104E104F10421F7DECFFF90EF9005
:10149000DF90CF90BF90AF909F908F9008952FB71F
:1014A000F894609168047091690480916A04909145
:1014B0006B042FBF08951F920F920FB60F92112445
:1014C0002F933F938F939F93AF93BF938091680423
:1014D00090916904A0916A04B0916B0430917E05EB
:1014E00023E0230F2D3720F40196A11DB11D05C067
:1014F00026E8230F0296A11DB11D20937E0580933F
:10150000680490936904A0936A04B0936B0480917B
:101510006C0490916D04A0916E04B0916F040196DB
:10152000A11DB11D80936C0490936D04A0936E0473
:10153000B0936F04BF91AF919F918F913F912F9185
:101540000F900FBE0F901F901895CF93DF9300D090
:101550001F92CDB7DEB7789484B5826084BD84B520
:10156000816084BD85B5826085BD85B5816085BD9E
:1015700080916E00816080936E0010928100809156
:1015800081008260809381008091810081608093DE
:101590008100809180008160809380008091B10003
:1015A00084608093B1008091B00081608093B0002E
:1015B0008091910082608093910080919100816080
:1015C0008093910080919000816080939000809141
:1015D000A10082608093A1008091A100816080932E
:1015E000A1008091A00081608093A00080912101E2
:1015F000826080932101809121018160809321018B
:101600008091200181608093200180917A00846024
:1016100080937A0080917A00826080937A00809132
:101620007A00816080937A0080917A00806880934C
:101630007A001092C100E091CB04F091CC0482E0DA
:101640008083E091C704F091C8041082E091C9043E
:10165000F091CA0480E180831092D304E091CF041A
:10166000F091D00486E08083E091CD04F091CE0427
:10167000808180618083E091CD04F091CE048081EF
:1016800088608083E091CD04F091CE0480818068F1
:101690008083E091CD04F091CE0480818F7D8083A2
:1016A00062E088E269DE62E084E266DE62E08AE2AD
:1016B00063DE62E082E360DE60E086E35DDE60E0E0
:1016C00087E35ADE61E08DE257DE61E08AE154DEB5
:1016D00061E086E151DE61E088E14EDE61E08CE1AF
:1016E0004BDE60E08CE11ADE60E08AE117DE60E04C
:1016F00088E114DE60E086E111DE82E3E7DD019738
:1017000031F484E090E08DD982E492E086DC85E0DB
:1017100090E085D9883009F065C08CE492E07DDCEA
:1017200080E090E07CD98983853698F4682F70E05A
:1017300080E090E00E9444176093E8037093E9030F
:101740008093EA039093EB038EE592E015DC8981A8
:10175000ACDD81E090E063D98983853698F4682F09
:1017600070E080E090E00E94441760930002709364
:101770000102809302029093030280E792E0FCDB77
:10178000898193DD82E090E04AD98983853650F4DF
:1017900090E09093F7038093F60384E892E0ECDB0B
:1017A000898183DD83E090E03AD98983853650F4DE
:1017B00090E0909307028093060284E992E0DCDBDC
:1017C000898173DD84E090E02AD98983853650F4DD
:1017D00090E090930B0280930A0284EA92E0CCDBC3
:1017E000898163DD68E085E090E005D980E780933A
:1017F00074051092E5031092E4031092980410927D
:10180000BA041092960421E020939504109270047B
:1018100061E084E183DD61E085E180DD8091B900F4
:101820008E7F8093B9008091B9008D7F8093B9003D
:1018300088E48093B80085E48093BC008DED92E04D
:101840009093E3038093E2038EED92E09093E103A3
:101850008093E0038091740531E030939704809386
:10186000B904109298041092BA0461E288E595E0F8
:101870000E943703FCDACEDC56DB80E0B4DC8FE07C
:1018800000DD13D903E610E099E3892E912C21E7BE
:10189000A22EB12C04DEC0900104D0900204E0908E
:1018A0000304F09004049B01AC012C193D094E097E
:1018B0005F0969017A0138EEC31633E0D306E1040B
:1018C000F10408F455C160930104709302048093FD
:1018D000030490930404E9D8BC01990F880B990B79
:1018E0000E9446176B017C018091060290910702CD
:1018F000019709F0A1C02091E8033091E9034091DC
:10190000EA035091EB03C701B6010E94421620E0A2
:1019100030E0A9010E94F61787FD06C081E08093A0
:10192000E70389EB92E018C02091E8033091E903C6
:101930004091EA035091EB03C701B6010E944216A1
:1019400020E030E040EA50EC0E94A71687FF15C067
:101950001092E70381EC92E060DB8091E70388233B
:1019600041F08091E603882391F08091E603811194
:101970002EC08091E70381115FC061E08DE2FCDC45
:1019800060E08DE2CBDC8BED92E047DBF1C061E003
:101990008DE2F2DC61E08DE2C1DC2091E803309160
:1019A000E9034091EA035091EB03C701B6010E949D
:1019B000421620E030E040E85FEB0E94A71681115C
:1019C00003C081E08093E6038FED92E033C061E0D5
:1019D0008DE2D2DC60E08DE2A1DC2091E803309161
:1019E000E9034091EA035091EB03C701B6010E945D
:1019F000421620E030E040E85FE30E94A71688230B
:101A000011F40C9441152091E8033091E9034091C1
:101A1000EA035091EB03C701B6010E94421620E091
:101A200030E0A9010E94F61787FD02C00C94411511
:101A30008AEF92E0F2DA9DCF809106029091070240
:101A4000029709F095C02091000230910102409167
:101A5000020250910302C701B6010E94421620E023
:101A600030E0A9010E94F61787FD06C081E080934F
:101A7000E70389EB92E018C0209100023091010247
:101A80004091020250910302C701B6010E94421622
:101A900020E030E040E251EC0E94A71687FF6DCFB6
:101AA0001092E70388E193E0B8DA8091E703882396
:101AB00009F459C08091E603811120C061E08DE2F4
:101AC0005BDC61E08DE22ADC2091000230910102B2
:101AD0004091020250910302C701B6010E944216D2
:101AE00020E030E040E85FEB0E94A716811103C0C0
:101AF00081E08093E6038FED92E034C08091E603AD
:101B0000882389F161E08DE237DC60E08DE206DC5C
:101B10002091000230910102409102025091030293
:101B2000C701B6010E94421620E030E040E85FE3C2
:101B30000E94A716882309F4A8C7209100023091BB
:101B400001024091020250910302C701B6010E94B6
:101B5000421620E030E0A9010E94F61787FF95C7E2
:101B60008AEF92E05ADA8091E703882309F405CFDF
:101B700084E2ACDB892B09F05DC784E2A7DB90939C
:101B800000048093FF032091FD033091FE038091B8
:101B90000C0290910D022817390789F080DC6093C0
:101BA000F9037093FA038093FB039093FC038091F5
:101BB000FD039091FE0390930D0280930C026FDC65
:101BC000C090F903D090FA03E090FB03F090FC037F
:101BD0006C197D098E099F090E94441720E030E0AE
:101BE00040E05FE30E94F61718160CF023C780E26E
:101BF00093E013DA54DC6B017C0141E04C8351E04B
:101C00005B8381E08A8391E0998386E8282E312CDA
:101C100084E25CDB892B09F04AC041DCDC01CB01AA
:101C20008C199D09AE09BF09893E9340A105B105F4
:101C300080F43981332309F436C085E293E0EDD98D
:101C4000E9DA71D930926705209266056CD919825C
:101C50002AC025DCDC01CB018C199D09AE09BF0926
:101C6000813D9740A105B10508F012C718DCDC01E1
:101C7000CB018C199D09AE09BF09893E9340A1058E
:101C8000B10508F405C75A81552369F08EE293E047
:101C9000C4D9C0DA48D98BED90E090936705809362
:101CA000660541D91A82FBDB2B013C01B1CFD30180
:101CB000C2018C199D09AE09BF09893E23E0920734
:101CC000A105B10508F0A6C26AEF70E080E090E0DF
:101CD000AEDBA0DA82E087DA26D980910602909105
:101CE0000702019781F56091E8037091E903809103
:101CF000EA039091EB030E941317CB016AE070E0B6
:101D00000E94D9189C01CB016AE070E00E94D918AA
:101D1000FC01E25FFD4F808190E090936505809328
:101D20006405F901E25FFD4F808190E090936705C3
:101D30008093660510936B0500936A0590926D057C
:101D400080926C0535C0809106029091070202973F
:101D500081F56091000270910102809102029091E0
:101D600003020E941317CB016AE070E00E94D918A9
:101D70009C01CB016AE070E00E94D918FC01E25F8F
:101D8000FD4F808190E09093650580936405F90193
:101D9000E25FFD4F808190E0909367058093660538
:101DA00010936B0500936A05B0926D05A0926C05C7
:101DB000BAD884E28BDA019709F0E5C188E286DAC5
:101DC0009093FE038093FD038AE280DA9093F303FD
:101DD0008093F2038091FD039091FE03892B09F01B
:101DE000FDC02091FD033091FE0380910C02909183
:101DF0000D022817390789F052DB6093F9037093BD
:101E0000FA038093FB039093FC038091FD03909170
:101E1000FE0390930D0280930C0241DBC090F90306
:101E2000D090FA03E090FB03F090FC036C197D095D
:101E30008E099F090E94441720E030E040E05FE3F4
:101E40000E94F61718160CF0C9C0809106029091F6
:101E50000702019709F05DC06091E8037091E90302
:101E60008091EA039091EB0320E030E040EA52E4F5
:101E70006ED7882309F4B2C06091E8037091E9033A
:101E80008091EA039091EB0320E030E040E85FE3CB
:101E9000FAD66093E8037093E9038093EA03909382
:101EA000EB036091E8037091E9038091EA0390915C
:101EB000EB038CD96091E8037091E9038091EA0308
:101EC0009091EB03B0D7CB016AE070E00E94D91883
:101ED0009C01CB016AE070E00E94D918FC01E25F2E
:101EE000FD4F808190E09093650580936405F90132
:101EF000E25FFD4F808190E09093670580936605D7
:101F000010936B0500936A0590926D0580926C05A5
:101F100063C08091060290910702029709F05EC0AB
:101F2000609100027091010280910202909103027F
:101F300020E030E040E353E40AD7882309F44EC0A0
:101F4000609100027091010280910202909103025F
:101F500020E030E040E85FE396D6609300027093A3
:101F6000010280930202909303026091000270913B
:101F70000102809102029091030228D9609100022F
:101F80007091010280910202909103024CD7CB0123
:101F90006AE070E00E94D9189C01CB016AE070E011
:101FA0000E94D918FC01E25FFD4F808190E0909380
:101FB000650580936405F901E25FFD4F808190E043
:101FC000909367058093660510936B0500936A05EF
:101FD000B0926D05A0926C050E9493078091F20368
:101FE0009091F303892B09F0C8C08091060290916B
:101FF0000702019709F05CC06091E8037091E90362
:102000008091EA039091EB0320E030E0A9019FD694
:10201000882309F4B2C06091E8037091E9038091CC
:10202000EA039091EB0320E030E040E85FE32AD63A
:102030006093E8037093E9038093EA039093EB03C2
:102040006091E8037091E9038091EA039091EB03BA
:10205000BDD86091E8037091E9038091EA03909103
:10206000EB03E1D6CB016AE070E00E94D9189C0135
:10207000CB016AE070E00E94D918FC01E25FFD4FDD
:10208000808190E09093650580936405F901E25F9B
:10209000FD4F808190E090936705809366051093D3
:1020A0006B0500936A0590926D0580926C0563C084
:1020B0008091060290910702029709F05EC060913C
:1020C000000270910102809102029091030220E0CF
:1020D00030E040E052E43BD6882309F44EC06091E2
:1020E000000270910102809102029091030220E0AF
:1020F00030E040E85FE3C6D56093000270930102D0
:102100008093020290930302609100027091010299
:10211000809102029091030259D86091000270915F
:10212000010280910202909103027DD6CB016AE008
:1021300070E00E94D9189C01CB016AE070E00E9417
:10214000D918FC01E25FFD4F808190E09093650516
:1021500080936405F901E25FFD4F808190E09093E8
:1021600067058093660510936B0500936A05B0922E
:102170006D05A0926C050E9493076AEF70E080E005
:1021800090E055D916CE8BD92091EC033091ED0318
:10219000DC01CB01821B930BA109B1090B97A105AF
:1021A000B10508F442C4809106029091070201979C
:1021B000A9F46091E8037091E9038091EA0390919A
:1021C000EB0336D680E090E00E94FB0468D9709360
:1021D000ED036093EC0382E593E025C48091060251
:1021E00090910702029709F020C46091000270915B
:1021F000010280910202909103021AD681E090E0E0
:102200000E94FB044CD97093ED036093EC0387E6C6
:1022100093E009C4AC01BD01495E534061097109F5
:10222000483E53406105710508F01FC16AEF70E038
:1022300080E090E0FCD80E940A0982E00E94F30846
:10224000E091F603F091F703FF27E25FFD4F8081F5
:1022500090E090936D0580936C050E94930784E253
:1022600035D8019709F0D8C088E230D89093FE03A2
:102270008093FD038AE22AD89093F3038093F203BC
:102280008091FD039091FE03892B11F0F12C57C032
:102290002091FD033091FE0380910C0290910D027C
:1022A0002817390789F0FBD86093F9037093FA0374
:1022B0008093FB039093FC038091FD039091FE03B8
:1022C00090930D0280930C02EAD8C090F903D0904D
:1022D000FA03E090FB03F090FC036C197D098E0972
:1022E0009F09D2D520E030E040E05FE37FD61816AA
:1022F0006CF68091F6039091F703049739F2809180
:10230000F6039091F70301969093F7038093F603F9
:10231000E091F603F091F703FF27E25FFD4F808124
:1023200090E090936D0580936C050E9493078091D7
:10233000F6039091F7030E941309FF24F394809110
:10234000F2039091F303892B09F057C02091F20317
:102350003091F30380910802909109022817390700
:1023600089F09DD86093EE037093EF038093F003A0
:102370009093F1038091F2039091F30390930902FB
:10238000809308028CD82091EE033091EF034091A6
:10239000F0035091F103621B730B840B950B74D502
:1023A00020E030E040E05FE321D6181634F580915C
:1023B000F6039091F703892B01F18091F603909138
:1023C000F70301979093F7038093F603E091F603E8
:1023D000F091F703FF27E25FFD4F808190E090933B
:1023E0006D0580936C050E9493078091F603909190
:1023F000F7030E941309FF24F3946AEF70E080E072
:1024000090E015D8FF2009F42ACF8091F60390912F
:10241000F7030E94110523CF42D82091EC0330919D
:10242000ED03DC01CB01821B930BA109B1090B97D2
:10243000A105B10588F06091F6037091F70382E081
:1024400090E00E94FB042BD87093ED036093EC03A3
:102450008EE793E00E940D088091F6039091F703B8
:102460009093F5038093F403E0C2815D9740A10946
:10247000B109883E9340A105B10508F069C16AEF32
:1024800070E080E090E00E94170A0E940A0982E052
:102490000E94F3088091060290910702019749F487
:1024A00010936B0500936A0590926D0580926C0500
:1024B0000EC08091060290910702029741F410939A
:1024C0006B0500936A05B0926D05A0926C050E94A1
:1024D000930784E20E946609019709F0C3C088E26D
:1024E0000E9466099093FE038093FD038AE20E9496
:1024F00066099093F3038093F2038091FD0390911A
:10250000FE03892B09F050C02091FD033091FE039A
:1025100080910C0290910D022817390791F00E94CA
:102520004F0A6093F9037093FA038093FB0390932F
:10253000FC038091FD039091FE0390930D02809324
:102540000C020E944F0AC090F903D090FA03E09069
:10255000FB03F090FC036C197D098E099F0994D44C
:1025600020E030E040E05FE341D51816ECF48091C4
:102570000602909107020297B9F0809106029091AD
:1025800007020196909307028093060285E993E083
:102590000E940D0810936B0500936A05B0926D05BB
:1025A000A0926C050E9493078091F2039091F3032F
:1025B000892B09F050C02091F2033091F3038091F0
:1025C0000802909109022817390791F00E944F0ADA
:1025D0006093EE037093EF038093F0039093F10305
:1025E0008091F2039091F303909309028093080283
:1025F0000E944F0AC090EE03D090EF03E090F003EA
:10260000F090F1036C197D098E099F093DD420E0FB
:1026100030E040E05FE3EAD41816ECF48091060263
:10262000909107020197B9F08091060290910702FC
:102630000197909307028093060289E993E00E9434
:102640000D0810936B0500936A0590926D058092BA
:102650006C050E9493076AEF70E080E090E00E94B2
:10266000170A37CF8091060290910702019709F06F
:1026700055C28091040290910502029709F04EC262
:102680006091000270910102809102029091030218
:1026900020E030E040E052E4F5D224EE38E34EE0B2
:1026A0005FE3EDD46093E8037093E9038093EA035A
:1026B0009093EB038091060290910702909305029C
:1026C000809304020E944F0A2091EC033091ED03A5
:1026D000DC01CB01821B930BA109B1090B97A1056A
:1026E000B10508F4A2C1609106027091070283E06F
:1026F00090E00E94FB046AE070E080E090E00E94BD
:10270000170A6091E8037091E9038091EA039091C0
:10271000EB038ED380E090E00E94FB046AE070E05F
:1027200080E090E00E94170A60910002709101021F
:1027300080910202909103027BD381E090E00E949D
:10274000FB040E944F0A7093ED036093EC036DC18C
:102750006AEF70E080E090E00E94170A0E940A0988
:1027600082E00E94F30880910A0290910B026AE0D5
:1027700070E01FD5CB016AE070E01BD59C01809111
:102780000A0290910B026AE070E013D52115310521
:1027900049F0F901E25FFD4F208130E030936B0595
:1027A00020936A05FC01E25FFD4F808190E09093E9
:1027B0006D0580936C050E94930784E20E94660970
:1027C000019709F010C188E20E9466099093FE0308
:1027D0008093FD038AE20E9466099093F30380933D
:1027E000F2038091FD039091FE03892B11F0F12CEF
:1027F00071C02091FD033091FE0380910C029091F5
:102800000D022817390791F00E944F0A6093F903CF
:102810007093FA038093FB039093FC038091FD0374
:102820009091FE0390930D0280930C020E944F0A38
:10283000C090F903D090FA03E090FB03F090FC0302
:102840006C197D098E099F091FD320E030E040E01C
:102850005FE3CCD318165CF680910A0290910B02CC
:102860000F9729F280910A0290910B0201969093A2
:102870000B0280930A0280910A0290910B02209130
:102880000A0230910B026AE070E093D4CB016AE057
:1028900070E08FD4FC01E25FFD4F808190E0909367
:1028A0006B0580936A05C9016AE070E082D4FC017F
:1028B000E25FFD4F808190E090936D0580936C0501
:1028C0000E94930780910A0290910B020E941309C3
:1028D000FF24F3948091F2039091F303892B09F084
:1028E00072C02091F2033091F3038091080290911D
:1028F00009022817390791F00E944F0A6093EE03EE
:102900007093EF038093F0039093F1038091F203AF
:102910009091F30390930902809308020E944F0A5A
:102920002091EE033091EF034091F0035091F103B9
:10293000621B730B840B950BA7D220E030E040E0C4
:102940005FE354D318160CF03EC080910A029091B8
:102950000B02892BC1F180910A0290910B02019721
:1029600090930B0280930A0280910A0290910B02CD
:1029700020910A0230910B026AE070E01AD4CB0178
:102980006AE070E016D4FC01E25FFD4F808190E0C8
:1029900090936B0580936A05C9016AE070E009D4E1
:1029A000FC01E25FFD4F808190E090936D05809384
:1029B0006C050E94930780910A0290910B020E947D
:1029C0001309FF24F3946AEF70E080E090E00E9426
:1029D000170AFF2009F4F1CE80910A0290910B02B0
:1029E0000E944109EACE0E944F0A2091EC033091E7
:1029F000ED03DC01CB01821B930BA109B1090B97FD
:102A0000A105B10590F060910A0270910B0284E07B
:102A100090E00E94FB040E944F0A7093ED036093C4
:102A2000EC038DE993E00E940D0880E00E94F3081A
:102A30000E944F0A82E30E946609019709F097C03D
:102A40008091F803811193C08091F6039091F70370
:102A50009093F5038093F40384E090E00E941105C5
:102A600082E492E00E940D0881E08093F80364EF15
:102A700071E080E090E00E94170A0E9473020C94BB
:102A80004A0C1092E6030C94180D1092E60368C8E5
:102A90000E944F0ADC01CB018C199D09AE09BF09C8
:102AA000893B9B40A105B10518F50E944F0ADC0146
:102AB000CB018C199D09AE09BF09813D9740A10545
:102AC000B105B0F03B81332309F4EDC889E393E00D
:102AD0000E940D080E940A090E9493074FEC50E0E3
:102AE00050936705409366050E9493071B82DBC8DD
:102AF0004C81442309F4D7C883E493E00E940D0875
:102B00000E940A090E94930786EE90E09093670561
:102B1000809366050E9493071C82C5C880910602B7
:102B200090910702029709F0C5CD8091040290911F
:102B30000502019709F0BECD6091E8037091E903A9
:102B40008091EA039091EB0326E636E646EE5FE3DA
:102B500096D220E030E040E052E495D0609300024D
:102B6000709301028093020290930302A3CD82E34B
:102B70000E946609892B09F07ACF8091F803882397
:102B800009F475CF1092F8038091F4039091F50346
:102B90000E94110585EB93E00E940D0868CFCF934A
:102BA000DF93EBEBF4E01382128288EE93E0A0E077
:102BB000B0E084839583A683B78322E232E0318339
:102BC000208325EC30E03587248724EC30E03787FC
:102BD000268720EC30E0318B208B21EC30E0338BEA
:102BE000228B22EC30E0358B248B26EC30E0378BC7
:102BF000268B118E128E138E148EE8E5F5E013826B
:102C0000128284839583A683B78384E392E09183C1
:102C10008083C6E7D5E08AE190E09983888388E1E4
:102C200090E09B838A8386E190E09D838C8381E0A2
:102C300090E09F838E8361E08AE10E94BC0961E09D
:102C40008A810E94BC0961E08C810E94BC091092BB
:102C50007505DF91CF910895F999FECF92BD81BDA1
:102C6000F89A992780B50895262FF999FECF1FBAB3
:102C700092BD81BD20BD0FB6F894FA9AF99A0FBEA5
:102C8000019608955058BB27AA270ED075C166D16A
:102C900030F06BD120F031F49F3F11F41EF45BC192
:102CA0000EF4E095E7FB51C1E92F77D180F3BA1715
:102CB000620773078407950718F071F49EF58FC1BA
:102CC0000EF4E0950B2EBA2FA02D0B01B901900147
:102CD0000C01CA01A0011124FF27591B99F0593F8B
:102CE00050F4503E68F11A16F040A22F232F342FD3
:102CF0004427585FF3CF469537952795A795F04021
:102D00005395C9F77EF41F16BA0B620B730B840B35
:102D1000BAF09150A1F0FF0FBB1F661F771F881FED
:102D2000C2F70EC0BA0F621F731F841F48F4879545
:102D300077956795B795F7959E3F08F0B3CF939534
:102D4000880F08F09927EE0F979587950895D9D0A9
:102D500008F481E008950CD00FC107D140F0FED0F7
:102D600030F021F45F3F19F0F0C0511139C1F3C0C8
:102D700014D198F39923C9F35523B1F3951B550B3F
:102D8000BB27AA2762177307840738F09F5F5F4F3E
:102D9000220F331F441FAA1FA9F333D00E2E3AF07F
:102DA000E0E830D091505040E695001CCAF729D099
:102DB000FE2F27D0660F771F881FBB1F26173707E8
:102DC0004807AB07B0E809F0BB0B802DBF01FF2718
:102DD00093585F4F2AF09E3F510568F0B6C000C17E
:102DE0005F3FECF3983EDCF3869577956795B79552
:102DF000F7959F5FC9F7880F911D9695879597F96D
:102E00000895E1E0660F771F881FBB1F62177307E5
:102E10008407BA0720F0621B730B840BBA0BEE1FFA
:102E200088F7E095089504D06894B111D9C0089549
:102E3000BCD088F09F5790F0B92F9927B751A0F0D8
:102E4000D1F0660F771F881F991F1AF0BA95C9F73E
:102E500012C0B13081F0C3D0B1E00895C0C0672F77
:102E6000782F8827B85F39F0B93FCCF386957795EE
:102E70006795B395D9F73EF49095809570956195D7
:102E80007F4F8F4F9F4F0895E89409C097FB3EF402
:102E900090958095709561957F4F8F4F9F4F9923A7
:102EA000A9F0F92F96E9BB279395F6958795779525
:102EB0006795B795F111F8CFFAF4BB0F11F460FFE5
:102EC0001BC06F5F7F4F8F4F9F4F16C0882311F03D
:102ED00096E911C0772321F09EE8872F762F05C051
:102EE000662371F096E8862F70E060E02AF09A95EC
:102EF000660F771F881FDAF7880F9695879597F9E1
:102F00000895990F0008550FAA0BE0E8FEEF16167A
:102F10001706E807F907C0F012161306E407F507CD
:102F200098F0621B730B840B950B39F40A2661F041
:102F3000232B242B252B21F408950A2609F4A140E4
:102F4000A6958FEF811D811D089597F99F6780E8F1
:102F500070E060E008959FEF80EC089500240A94EB
:102F60001616170618060906089500240A94121664
:102F70001306140605060895092E0394000C11F497
:102F8000882352F0BB0F40F4BF2B11F460FF04C044
:102F90006F5F7F4F8F4F9F4F089557FD9058440F9D
:102FA000551F59F05F3F71F04795880F97FB991FA8
:102FB00061F09F3F79F08795089512161306140665
:102FC000551FF2CF4695F1DF08C0161617061806F2
:102FD000991FF1CF86957105610508940895E894CD
:102FE000BB2766277727CB0197F908958ADF08F476
:102FF0008FEF08950EF0AAC0AECF6894A6CFD5DFAC
:10300000C8F39923D1F3C6F3DF93CF931F930F93A4
:10301000FF92C92FDD2788232AF02197660F771F9B
:10302000881FDAF720E030E040E85FEB9FE3883963
:1030300020F0803E30F021968F7725DEE8E0F1E049
:1030400003C021DEE5E3F1E08FD08B01BE01EC018E
:10305000FB2E6F5771097595771F880B990B16DF3B
:1030600028E132E741E35FE316D0AF2D9801AE01CE
:10307000FF900F911F91CF91DF9116DE7DCF0BD086
:103080007BCF6CDF28F071DF18F0952309F05DCF5E
:1030900062CF1124A5CF81DFA0F3959FD1F3950FC7
:1030A00050E0551F629FF001729FBB27F00DB11DCC
:1030B000639FAA27F00DB11DAA1F649F6627B00D5C
:1030C000A11D661F829F2227B00DA11D621F739F45
:1030D000B00DA11D621F839FA00D611D221F749F53
:1030E0003327A00D611D231F849F600D211D822F9A
:1030F000762F6A2F11249F5750408AF0E1F08823E1
:103100004AF0EE0FFF1FBB1F661F771F881F9150ED
:103110005040A9F79E3F510570F017CF61CF5F3F38
:10312000ECF3983EDCF3869577956795B795F79520
:10313000E7959F5FC1F7FE2B880F911D96958795A8
:1031400097F90895DEDE880B990B08959F3F31F0C3
:10315000915020F4879577956795B795880F911DC5
:103160009695879597F90895DF93CF931F930F93C3
:10317000FF92EF92DF927B018C01689405C0DA2EFA
:10318000EF0189DFFE01E894A591259135914591E4
:103190005591AEF3EF0188DDFE019701A801DA94A5
:1031A00079F7DF90EF90FF900F911F91CF91DF9112
:1031B0000895AA1BBB1B51E107C0AA1FBB1FA6177E
:1031C000B70710F0A61BB70B881F991F5A95A9F7D0
:1031D00080959095BC01CD010895A1E21A2EAA1BFD
:1031E000BB1BFD010DC0AA1FBB1FEE1FFF1FA217B7
:1031F000B307E407F50720F0A21BB30BE40BF50BB4
:10320000661F771F881F991F1A9469F7609570953C
:10321000809590959B01AC01BD01CF010895EE0F03
:10322000FF1F881F8BBF0790F691E02D199481E056
:0A32300090E0F89400C0F894FFCF7E
:10323A00000000420100010001000F0001003F06EA
:10324A005B4F666D7D077F6F777C395E7971000011
:10325A000000060274019E015202CF01AD01C101B4
:10326A000000000037030B036603DF020303EF02CB
:10327A00E002446F6F72204F70656E004E6F7420CB
:10328A006669727374207374617274757000507217
:10329A00657365742043656C63697573203D20000E
:1032AA0050726573657420466172656E68656974EB
:1032BA00203D2000507265736574204C69676874FC
:1032CA00203D200050726573657420556E697473D1
:1032DA00203D2000507265736574204272696768E8
:1032EA00746E657373203D2000436F6F6C696E675F
:1032FA000048656174696E6720686173206265655C
:10330A006E2064697361626C6564004F666600438F
:10331A006F6F6C696E6720446F776E20746F2053ED
:10332A006574706F696E742D31005475726E696EB2
:10333A0067204F666620756E74696C2053657470D9
:10334A006F696E74202B310048656174696E67007D
:10335A004D656E75005365742054656D7000536534
:10336A0074204C69676874730053657420556E69DC
:10337A00747300536574204272696768746E65736A
:10338A007300454550524F4D2053746F7265204368
:10339A00656C6369757300454550524F4D205374EF
:1033AA006F726520466172656E686569740045458D
:1033BA0050524F4D2053746F7265204C6967687480
:1033CA004D6F646500C2B04600C2B0430045455027
:1033DA00524F4D2053746F72652042726967687448
:1033EA006E65737300446F6F7220436C6F7365640C
:1033FA000043757272656E742054656D70203D20AD
:10340A00000D0A006E616E00696E66006F766600D6
:020000023000CC
:10E000000D9489F10D94B2F10D94B2F10D94B2F129
:10E010000D94B2F10D94B2F10D94B2F10D94B2F1F0
:10E020000D94B2F10D94B2F10D94B2F10D94B2F1E0
:10E030000D94B2F10D94B2F10D94B2F10D94B2F1D0
:10E040000D94B2F10D94B2F10D94B2F10D94B2F1C0
:10E050000D94B2F10D94B2F10D94B2F10D94B2F1B0
:10E060000D94B2F10D94B2F10D94B2F10D94B2F1A0
:10E070000D94B2F10D94B2F10D94B2F10D94B2F190
:10E080000D94B2F10D94B2F10D94B2F10D94B2F180
:10E090000D94B2F10D94B2F10D94B2F10D94B2F170
:10E0A0000D94B2F10D94B2F10D94B2F10D94B2F160
:10E0B0000D94B2F10D94B2F10D94B2F10D94B2F150
:10E0C0000D94B2F10D94B2F10D94B2F10D94B2F140
:10E0D0000D94B2F10D94B2F10D94B2F10D94B2F130
:10E0E0000D94B2F141546D656761323536300041AF
:10E0F000726475696E6F206578706C6F72657220DE
:10E1000073746B3530305632206279204D4C530099
:10E11000426F6F746C6F616465723E004875683F52
:10E1200000436F6D70696C6564206F6E203D200048
:10E130004350552054797065202020203D20005FF9
:10E140005F4156525F415243485F5F3D2000415658
:10E1500052204C696243205665723D20004743437C
:10E160002056657273696F6E203D20004350552024
:10E1700049442020202020203D20004C6F7720663D
:10E18000757365202020203D20004869676820665F
:10E190007573652020203D200045787420667573D6
:10E1A00065202020203D20004C6F636B2066757336
:10E1B000652020203D20004D617220203720323024
:10E1C000313300312E362E3800342E332E350056A2
:10E1D00023202020414444522020206F7020636F70
:10E1E00064652020202020696E73747275637469E1
:10E1F0006F6E2061646472202020496E74657272B3
:10E20000757074006E6F20766563746F7200726A49
:10E210006D702020006A6D70200057686174207056
:10E220006F72743A00506F7274206E6F7420737541
:10E2300070706F72746564004D7573742062652030
:10E2400061206C6574746572002000577269747483
:10E25000696E672045450052656164696E672045B7
:10E26000450045452065727220636E743D00504F35
:10E27000525400303D5A65726F2061646472003FF1
:10E280003D43505520737461747300403D454550C3
:10E29000524F4D207465737400423D426C696E6B41
:10E2A000204C454400453D44756D70204545505215
:10E2B0004F4D00463D44756D7020464C415348001B
:10E2C000483D48656C70004C3D4C69737420492F83
:10E2D0004F20506F72747300513D51756974005234
:10E2E0003D44756D702052414D00563D73686F7707
:10E2F00020696E7465727275707420566563746FF0
:10E30000727300593D506F727420626C696E6B00BD
:10E310002A0011241FBECFEFD1E2DEBFCDBF01E046
:10E320000CBF12E0A0E0B2E0EEE1FDEF03E00BBFB6
:10E3300002C007900D92A030B107D9F712E0A0E01B
:10E34000B2E001C01D92AE30B107E1F70F9460F367
:10E350000D948DFE01E20EBF0FEF0DBF11241FBE05
:10E360000D9460F30D9400F020E030E040ED57E0B4
:10E3700005C0FA013197F1F72F5F3F4F2817390792
:10E38000C0F308959C01260F311DC901A0E0B0E043
:10E390002F5F3F4FABBFFC018791882361F08093D3
:10E3A000C6008091C00086FFFCCF8091C0008064D1
:10E3B0008093C000EACF08958DE08093C6008091DD
:10E3C000C00086FFFCCF8091C00080648093C000B5
:10E3D0008AE08093C6008091C00086FFFCCF8091C8
:10E3E000C00080648093C00008950F94C2F10F9420
:10E3F000DCF10895FC019081992359F09093C600B7
:10E400008091C00086FFFCCF8091C0008064809323
:10E41000C0003196992379F70895282F982F929567
:10E420009F70892F805D8A3308F0895F8093C600D2
:10E430008091C00086FFFCCF8091C00080648093F3
:10E44000C000822F8F70982F905D9A3308F0995FEB
:10E450009093C6008091C00086FFFCCF8091C000E1
:10E4600080648093C00008959C01FB01853691056E
:10E470001CF46330710594F0C90164E670E00F94F8
:10E480002EFE605D7F4F6093C6008091C00086FFC6
:10E49000FCCF8091C00080648093C0002B30310598
:10E4A00014F43297B4F0C90164E670E00F942EFEC4
:10E4B0006AE070E00F942EFE605D7F4F6093C600AF
:10E4C0008091C00086FFFCCF8091C0008064809363
:10E4D000C000C9016AE070E00F942EFEC0968093E0
:10E4E000C6008091C00086FFFCCF8091C000806490
:10E4F0008093C00008951F93182F8EE692EE60E07F
:10E500000F94C2F11093C6008091C00086FFFCCF2B
:10E510008091C00080648093C0000F94DCF11F9153
:10E5200008952F923F924F925F926F927F928F92B7
:10E530009F92AF92BF92CF92DF92EF92FF920F9392
:10E540001F93DF93CF93CDB7DEB762970FB6F894E2
:10E55000DEBF0FBECDBF382E622ECA01DB015C01CB
:10E560006D01772420E2222E2E010894411C511CBB
:10E570008BC081E0A81680E0B80681E0C80680E084
:10E58000D80628F0C601AA27BB270F940DF2BB2797
:10E59000AD2D9C2D8B2D0F940DF28A2D0F940DF225
:10E5A0002092C6008091C00086FFFCCF8091C00001
:10E5B00080648093C0009DE29093C6008091C0006B
:10E5C00086FFFCCF8091C00080648093C0002092C1
:10E5D000C6008091C00086FFFCCF8091C00080649F
:10E5E0008093C00019828601750188249924A1E0D6
:10E5F0003A1651F03A1620F0B2E03B1661F409C029
:10E600000BBFF701779007C0C7010F9477FE782EF4
:10E6100002C0F7017080872D0F940DF22092C60082
:10E620008091C00086FFFCCF8091C0008064809301
:10E63000C000872D8052F401EF70F0708F3520F408
:10E64000E40DF51D708204C0E40DF51D8EE280839B
:10E650000894E11CF11C011D111D0894811C911CE2
:10E6600090E18916910409F0C2CF80E190E0A0E02A
:10E67000B0E0A80EB91ECA1EDB1E198AC2010F9493
:10E68000FAF10F94DCF16A94662009F072CF629679
:10E690000FB6F894DEBF0FBECDBFCF91DF911F91B3
:10E6A0000F91FF90EF90DF90CF90BF90AF909F9031
:10E6B0008F907F906F905F904F903F902F90089534
:10E6C0002F923F924F925F926F927F928F929F9282
:10E6D000AF92BF92CF92DF92EF92FF920F931F9370
:10E6E000DF93CF93CDB7DEB7CD53D1400FB6F894BB
:10E6F000DEBF0FBECDBF01E20EBF0FEF0DBF94B75F
:10E70000F894A89514BE80916000886180936000A1
:10E7100010926000789493FF05C0E0910002F091A0
:10E7200001021995279A2F9A8091C00082608093E8
:10E73000C00080E18093C40088E18093C1000000A4
:10E74000EE24FF24870144E0A42EB12CCC24DD2448
:10E7500024C0C5010197F1F70894E11CF11C011DCB
:10E76000111D21E2E2162EE4F20620E0020720E06D
:10E77000120718F031E0C32ED12CC801B70127ECE5
:10E780003BE140E050E00F9441FE611571058105C9
:10E79000910519F485B1805885B98091C00087FD35
:10E7A00003C0C114D104A9F2A6014F5F5F4FC25E3E
:10E7B000DE4F59834883CE51D140C25EDE4F8881FF
:10E7C0009981CE51D140019711F00D9410FEC05D9A
:10E7D000DE4F19821882C053D14060E0C15DDE4F28
:10E7E0001882CF52D14088249924C35DDE4F19820C
:10E7F0001882CD52D140C05EDE4F188219821A8233
:10E800001B82C052D140CE5CDE4F188219821A8220
:10E810001B82C253D140EE24FF2487010BBFF701B6
:10E8200007911691C45CDE4F19830883CC53D14005
:10E830000D940BFEC25EDE4F28813981CE51D1404E
:10E840002130310509F52091C600C25EDE4F1982E4
:10E850001882CE51D14022C02F5F3F4F4F4F5F4FA4
:10E86000213082E138078AE7480780E0580780F0C6
:10E87000C45CDE4FE881F981CC53D140EF5FFF4F9C
:10E8800019F0EE27FF27099420E030E040E050E047
:10E890008091C00087FFE0CF2091C600C35DDE4FAE
:10E8A00048815981CD52D1404F5F5F4FC35DDE4FEC
:10E8B00059834883CD52D140213209F063C64A3092
:10E8C000510508F05FC60894811C911C53E0851621
:10E8D000910409F059C600E010E018C081E280936D
:10E8E000C6008091C00086FFFCCF8091C00080648C
:10E8F0008093C0002F5F3F4F2931310579F70F9486
:10E90000DCF10F5F1F4F0530110519F020E030E0FA
:10E91000E5CF10920A0210920B0210920C02109294
:10E920000D02109206021092070210920802109235
:10E930000902109202021092030210920402109235
:10E9400005028FEE90EE60E00F94F5F180E191EE1C
:10E9500060E00F94C2F18091C00087FFFCCF9091DE
:10E96000C600903608F09F759032B8F09093C600BC
:10E970008091C00086FFFCCF8091C00080648093AE
:10E98000C000A0E2A093C6008091C00086FFFCCF2B
:10E990008091C00080648093C000983409F4D7C18E
:10E9A0009934B8F4923409F459C1933458F490333B
:10E9B00019F1903308F4E3C59F33A1F1903409F0C5
:10E9C000DEC5BDC0953409F470C1963409F0D7C5D1
:10E9D00098C1923509F42BC2933538F49C3409F46C
:10E9E000F5C1913509F0CBC518C2963509F445C279
:10E9F000993509F0C4C567C483E792EE62E00F94CD
:10EA0000F5F110920602109207021092080210927D
:10EA1000090210920A0210920B0210920C0210923C
:10EA20000D0213C18FE792EE62E00F94F5F18FEEC5
:10EA300090EE60E00F94F5F181E291EE60E00F94CA
:10EA4000C2F187EB91EE60E00F94F5F180E391EE77
:10EA500060E00F94C2F184EE90EE60E00F94F5F167
:10EA60008FE391EE60E00F94C2F186E090E061E008
:10EA700070E00F9434F20F94DCF18DE591EE60E0DC
:10EA80000F94C2F189EC91EE60E00F94F5F18EE401
:10EA900091EE60E00F94C2F183EC91EE60E00F9490
:10EAA000F5F18CE691EE60E00F94C2F18EE10F94E7
:10EAB0000DF288E90F940DF281E00F940DF20F949E
:10EAC000DCF18BE791EE60E00F94C2F119E0E0E039
:10EAD000F0E010935700E4918E2F0F940DF20F94F5
:10EAE000DCF18AE891EE60E00F94C2F1E3E0F0E03F
:10EAF00010935700E4918E2F0F940DF20F94DCF1D8
:10EB000089E991EE60E00F94C2F1E2E0F0E0109349
:10EB10005700E4918E2F0F940DF20F94DCF188EAE8
:10EB200091EE60E00F94C2F1E1E0F0E01093570045
:10EB30001491812F0F940DF20F94DCF107CF8BE825
:10EB400092EE62E00F94F5F18BE492EE60E00F94A8
:10EB5000F5F10F94DCF100E010E019C0C8016F2D51
:10EB60000F947FFEFF2031F489E492EE60E00F9471
:10EB7000C2F10BC0F092C6008091C00086FFFCCFAE
:10EB80008091C00080648093C0000F5F1F4FC80158
:10EB900081519F41A0E0B0E0ABBFFC01F790BAE229
:10EBA000FB1621F0E2E000301E07C1F60F94DCF105
:10EBB0000F94DCF187E592EE60E00F94F5F10F948D
:10EBC000DCF1CC24DD2400E010E01EC0C8010F946D
:10EBD00077FEF82E882331F489E492EE60E00F94FA
:10EBE000C2F10BC08093C6008091C00086FFFCCFAD
:10EBF0008091C00080648093C000FE1419F00894D6
:10EC0000C11CD11C0F5F1F4FC80181519F41A0E063
:10EC1000B0E0ABBFFC01E790FAE2EF1621F022E092
:10EC20000030120799F60F94DCF10F94DCF182E6C4
:10EC300092EE60E00F94C2F1C60161E070E00F94C3
:10EC400034F20F94DCF10F94DCF110920202109276
:10EC50000302109204021092050278CE89E992EE26
:10EC600062E00F94F5F1279A2F9A16C02F9880E052
:10EC700090E0E0EDF7E03197F1F7019684369105E9
:10EC8000C1F72F9A80E090E0E0EDF7E03197F1F7DF
:10EC9000019684369105C1F78091C00087FFE6CFC9
:10ECA0008091C00087FFFCCF64C485EA92EE62E0E9
:10ECB0000F94F5F140910202509103026091040219
:10ECC0007091050281E020E10F9491F2809102029F
:10ECD00090910302A0910402B091050280509F4FD1
:10ECE000AF4FBF4F8093020290930302A0930402A0
:10ECF000B093050280509041A040B04008F426CE69
:10ED0000A4CF83EB92EE62E00F94F5F140910602FE
:10ED100050910702609108027091090280E020E1A1
:10ED20000F9491F28091060290910702A09108023F
:10ED3000B091090280509F4FAF4FBF4F80930602A2
:10ED400090930702A0930802B0930902FFCD80ECD4
:10ED500092EE62E00F94F5F183E792EE60E00F949B
:10ED6000F5F18FE792EE60E00F94F5F18BE892EE0B
:10ED700060E00F94F5F189E992EE60E00F94F5F10F
:10ED800085EA92EE60E00F94F5F183EB92EE60E09D
:10ED90000F94F5F180EC92EE60E00F94F5F187ECC2
:10EDA00092EE60E00F94F5F188ED92EE60E00F9442
:10EDB000F5F18FED92EE60E00F94F5F18AEE92EEB0
:10EDC00060E00F94F5F183E093EEBDCD87EC92EE19
:10EDD00062E00F94F5F181E40F947BF282E40F94EA
:10EDE0007BF283E40F947BF284E40F947BF285E45E
:10EDF0000F947BF286E40F947BF287E40F947BF20E
:10EE000088E40F947BF28AE40F947BF28BE40F94F6
:10EE10007BF28CE40F947BF299CD88ED92EE62E068
:10EE20000F94F5F1772473948824992409C48FED05
:10EE300092EE62E00F94F5F140910A0250910B02BC
:10EE400060910C0270910D0282E020E10F9491F22A
:10EE500080910A0290910B02A0910C02B0910D02D8
:10EE600080509F4FAF4FBF4F80930A0290930B0289
:10EE7000A0930C02B0930D0269CD8AEE92EE62E08F
:10EE80000F94F5F184EE90EE60E00F94F5F18FECC5
:10EE900091EE60E00F94F5F1662477244301CC5D98
:10EEA000DE4F19821882C452D140D401C301B695F5
:10EEB000A79597958795CA5DDE4F88839983AA8326
:10EEC000BB83C652D140CC5DDE4FA881B981C4520C
:10EED000D1401196CC5DDE4FB983A883C452D14096
:10EEE000CD0162E070E00F9434F2B0E2B093C6005E
:10EEF0008091C00086FFFCCF8091C0008064809329
:10EF0000C000EDE2E093C6008091C00086FFFCCF18
:10EF10008091C00080648093C000F0E2F093C6004E
:10EF20008091C00086FFFCCF8091C00080648093F8
:10EF3000C000CA5DDE4FE880F9800A811B81C6529D
:10EF4000D140BB27A12F902F8F2D0F940DF2CA5DBA
:10EF5000DE4F8881C652D1400F940DF2B0E2FB2EF5
:10EF6000F092C6008091C00086FFFCCF8091C00067
:10EF700080648093C0000DE30093C6008091C000C0
:10EF800086FFFCCF8091C00080648093C00010E2B7
:10EF90001093C6008091C00086FFFCCF8091C00016
:10EFA00080648093C0008BBEF3012791C65DDE4F65
:10EFB0002883CA52D140A22EBB24CC24DD2408943D
:10EFC000611C711C811C911C8BBEF3018791282E42
:10EFD0003324442455240894611C711C811C911C09
:10EFE0008BBEF3013791C55DDE4F3883CB52D140E4
:10EFF0000894611C711C811C911C8BBEF30147910C
:10F00000C45DDE4F4883CC52D140ADEFEA2EAFEF66
:10F01000FA2EAFEF0A2FAFEF1A2F6E0C7F1C801E57
:10F02000911E142D032DF22CEE24EA0CFB1C0C1D5A
:10F030001D1D0F940DF220E22093C6008091C000A8
:10F0400086FFFCCF8091C00080648093C000C65DC5
:10F05000DE4F8881CA52D1400F940DF230E23093D6
:10F06000C6008091C00086FFFCCF8091C000806404
:10F070008093C000C45DDE4F8881CC52D1400F9494
:10F080000DF240E24093C6008091C00086FFFCCFA5
:10F090008091C00080648093C000C55DDE4F888190
:10F0A000CB52D1400F940DF250E25093C6008091A4
:10F0B000C00086FFFCCF8091C00080648093C000B8
:10F0C0008FEFE8168FEFF80680E0080780E018075A
:10F0D00031F484E092EE60E00F94C2F1DFC0D80119
:10F0E000C7018070907CA070B0708050904CA040A0
:10F0F000B040D1F52FEF3FE340E050E0E222F322B1
:10F1000004231523CA5DDE4FA880B980CA80DB8046
:10F11000C652D140AE0CBF1CC01ED11EAA0CBB1CD7
:10F12000CC1CDD1C8EE092EE60E00F94C2F1BB2798
:10F13000A12F902F8F2D0F940DF28E2D0F940DF285
:10F1400030E23093C6008091C00086FFFCCF8091F2
:10F15000C00080648093C0004EE34093C60080915D
:10F16000C00086FFFCCF87C08EE09EEFA0E0B0E03D
:10F17000E822F9220A231B239CE0E91694E9F90608
:10F1800090E0090790E0190709F088C0C45DDE4FE0
:10F19000A881CC52D140EA2EFF2400E010E0102FCD
:10F1A0000F2DFE2CEE24C55DDE4FB881CB52D14031
:10F1B000EB0EF11C011D111DD601C501817090706F
:10F1C000A070B070DC0199278827E80EF91E0A1F8D
:10F1D0001B1F20EF30E040E050E0A222B322C42207
:10F1E000D52241E1AA0CBB1CCC1CDD1C4A95D1F7F1
:10F1F000EA0CFB1C0C1D1D1D81E090E0A0E0B0E0BE
:10F20000282239224A225B2235E1220C331C441C7D
:10F21000551C3A95D1F7E20CF31C041D151D57013E
:10F220006801AA0CBB1CCC1CDD1C85E192EE60E0E1
:10F230000F94C2F1C801AA27BB270F940DF2BB2778
:10F24000A12F902F8F2D0F940DF28E2D0F940DF274
:10F2500090E29093C6008091C00086FFFCCF809121
:10F26000C00080648093C000AEE3A093C60080918C
:10F27000C00086FFFCCF8091C00080648093C000F6
:10F28000C601AA27BB270F940DF2BB27AD2D9C2DDD
:10F290008B2D0F940DF28A2D0F940DF20F94DCF14B
:10F2A000CC5DDE4FE881F981C452D140F99709F471
:10F2B0004DCBF4E0EF2EF12C012D112D6E0C7F1CA7
:10F2C000801E911EF2CD83E093EE62E00F94F5F183
:10F2D0008AE192EE60E00F94C2F18091C00087FF56
:10F2E000FCCF1091C6001F751093C6008091C0001E
:10F2F00086FFFCCF8091C00080648093C0000F9493
:10F30000DCF1812F81548A3108F036C1163409F4BA
:10F3100095C0173490F4133409F44EC0143430F40B
:10F320001134F1F0123409F01DC130C0143409F465
:10F3300059C0153409F016C16BC01A3409F4C4C0A1
:10F340001B3438F4173409F48FC0183409F00AC19B
:10F35000A1C01B3409F4D2C01C3409F003C1E8C0B9
:10F360008FEF81B90DC082B1809582B980E090E0C5
:10F37000E0EDF7E03197F1F70196883C9105C1F790
:10F380008091C00087FFEFCF12B8EFC08FEF84B934
:10F390000DC085B1809585B980E090E0E0EDF7E0A3
:10F3A0003197F1F70196883C9105C1F78091C00033
:10F3B00087FFEFCF15B8D9C08FEF87B90DC088B1DF
:10F3C000809588B980E090E0E0EDF7E03197F1F7C3
:10F3D0000196883C9105C1F78091C00087FFEFCF6F
:10F3E00018B8C3C08FEF8AB90DC08BB180958BB9A7
:10F3F00080E090E0E0EDF7E03197F1F70196883C8E
:10F400009105C1F78091C00087FFEFCF1BB8ADC059
:10F410008FEF8DB90DC08EB180958EB980E090E0F0
:10F42000E0EDF7E03197F1F70196883C9105C1F7DF
:10F430008091C00087FFEFCF1EB897C08FEF80BBD1
:10F440000DC081B3809581BB80E090E0E0EDF7E0F6
:10F450003197F1F70196883C9105C1F78091C00082
:10F4600087FFEFCF11BA81C08FEF83BB0DC084B38C
:10F47000809584BB80E090E0E0EDF7E03197F1F714
:10F480000196883C9105C1F78091C00087FFEFCFBE
:10F4900014BA6BC08FEF809301010FC080910201FD
:10F4A00080958093020180E090E0E0EDF7E03197F5
:10F4B000F1F70196883C9105C1F78091C00087FF64
:10F4C000EDCF1092020151C08FEF809304010FC065
:10F4D0008091050180958093050180E090E0E0ED4A
:10F4E000F7E03197F1F70196883C9105C1F78091DB
:10F4F000C00087FFEDCF1092050137C08FEF8093DA
:10F5000007010FC08091080180958093080180E079
:10F5100090E0E0EDF7E03197F1F70196883C910536
:10F52000C1F78091C00087FFEDCF109208011DC088
:10F530008FEF80930A010FC080910B01809580931B
:10F540000B0180E090E0E0EDF7E03197F1F70196F4
:10F55000883C9105C1F78091C00087FFEDCF1092E4
:10F560000B0103C085E292EEEEC98091C00087FFD7
:10F57000FCCF8091C600EAC988E392EEE4C98CE131
:10F5800091EEE1C988249924933011F1943028F444
:10F59000913089F09230B8F408C0953061F195301F
:10F5A000F0F0963009F048C043C02B3109F042C951
:10F5B00091E06BE13FC96227C15DDE4F2883CF52E6
:10F5C000D14092E037C9B22FA0E0622793E032C960
:10F5D000822F90E0A82BB92B622794E02BC92E3004
:10F5E00009F039C3622795E0C05DDE4F19821882A9
:10F5F000C053D1401FC9E1E0F0E0EC0FFD1FC05D3A
:10F60000DE4F08811981C053D140E00FF11F2083E4
:10F610000F5F1F4FC05DDE4F19830883C053D14079
:10F6200062270A171B0709F005C9D80196E002C92D
:10F63000261709F010C303C0973009F0FBC87724E0
:10F640009981933109F412C19431C8F4963009F4C8
:10F65000D8C0973050F4923009F406C1933009F4C1
:10F660006DC0913009F059C253C0913109F477C08F
:10F67000923108F0BBC0903109F04FC2F5C098310B
:10F6800009F487C0993150F4953109F4EFC09531F0
:10F6900008F4C6C1963109F040C2C2C19A3109F4DA
:10F6A0006CC09A3108F491C09B3109F45BC09D3164
:10F6B00009F033C29D81903359F48F81882311F46E
:10F6C0009EE11CC0813011F091E018C098E916C08D
:10F6D000892F807591F0903539F4E0E0F0E089E011
:10F6E0008093570094910AC0983539F4E3E0F0E034
:10F6F00089E080935700949101C090E01A821B82A8
:10F700008D818C831D829E831F8227E030E009C299
:10F710001A8288E08B8381E48C8386E58D8382E581
:10F720008E8389E48F8383E5888780E589878FE5E9
:10F730008A8782E38B872BE030E0F3C18A818139AD
:10F7400041F0823941F0803911F48FE005C080E04A
:10F7500003C082E001C08AE01A828B8344C0772410
:10F76000739482C08D81882311F48EE12CC0813086
:10F7700011F081E028C088E926C01A82E1E0F0E0BB
:10F7800089E08093570084918B831C8224E030E0D1
:10F79000C8C18B81803589F48C81883039F4E2E0EE
:10F7A000F0E089E08093570084910DC0E0E0F0E044
:10F7B00089E080935700849106C0E3E0F0E089E09F
:10F7C0008093570084911A82DFCF8D81836C99E0FA
:10F7D000E1E0F0E0082E90935700E89507B600FCB2
:10F7E000FDCF1A821B8223E030E09BC180EC8A832C
:10F7F000CE5CDE4F188219821A821B82C253D1401E
:10F800008EC18A8190E0A0E0B0E0582F44273327D2
:10F8100022278B8190E0A0E0B0E0DC0199278827C7
:10F82000282B392B4A2B5B2B8D8190E0A0E0B0E098
:10F83000282B392B4A2B5B2B8C8190E0A0E0B0E089
:10F84000BA2FA92F982F8827282B392B4A2B5B2BCF
:10F85000220F331F441F551FC05EDE4F288339839C
:10F860004A835B83C052D1401A8259C13A81C95C34
:10F87000DE4F3883C753D140CA5CDE4F1882C6536F
:10F88000D1408B81C82EDD24CA5CDE4F488159816E
:10F89000C653D140C42AD52A933109F082C0CE5C28
:10F8A000DE4F88819981AA81BB81C253D1408050AB
:10F8B000904CA340B04030F583E0CE5CDE4FE88052
:10F8C000F9800A811B81C253D140F70100935B008C
:10F8D00080935700E89507B600FCFDCFCE5CDE4F65
:10F8E000088119812A813B81C253D14000501F4FAA
:10F8F0002F4F3F4FCE5CDE4F088319832A833B8313
:10F90000C253D140C05EDE4F488159816A817B81FC
:10F91000C052D140DE011B9631E08C9111962C91A2
:10F9200011971296C75CDE4F2883C953D140C85C3B
:10F93000DE4F1882C853D14090E0C85CDE4FE881AA
:10F94000F981C853D1408E2B9F2B0C01FA01609393
:10F950005B0030935700E89511244E5F5F4F6F4F67
:10F960007F4F0EEFE02E0FEFF02ECE0CDF1CC114F8
:10F97000D10499F685E0C05EDE4F088119812A81A5
:10F980003B81C052D140F80120935B008093570027
:10F99000E89507B600FCFDCF81E180935700E8951C
:10F9A00035C0C05EDE4F88819981AA81BB81C0527B
:10F9B000D140B695A795979587957C018601ABE0D8
:10F9C000AA2EB12CAC0EBD1E0BC0D5016D915D01F0
:10F9D000C7010F947FFE0894E11CF11C01501040F8
:10F9E0000115110591F7A60160E070E0440F551F65
:10F9F000661F771FC05EDE4FE880F9800A811B8199
:10FA0000C052D1404E0D5F1D601F711F1A82C05E33
:10FA1000DE4F488359836A837B83C052D1407FC0C5
:10FA2000FA80C55CDE4FF882CB53D140C65CDE4F16
:10FA30001882CA53D1408B81C82EDD24C65CDE4FAC
:10FA400008811981CA53D140C02AD12A1A828981DA
:10FA5000BE016D5F7F4F843121F59601C05EDE4FA0
:10FA6000E880F9800A811B81C052D1400BBFF701A9
:10FA700087919691DB018C9311969C936E5F7F4FDB
:10FA8000D801C7010296A11DB11DC05EDE4F88835B
:10FA90009983AA83BB83C052D14022503040F1F6F3
:10FAA00036C0C05EDE4F288139814A815B81C052F9
:10FAB000D1400894C108D108760100E010E0089414
:10FAC000C11CD11C0894E11CF11C011D111DE20E8A
:10FAD000F31E041F151F21BDBB27A52F942F832FB5
:10FAE00082BD2F5F3F4F4F4F5F4FF89A80B5DB01CC
:10FAF0008D93BD012E153F054007510761F7C05E8C
:10FB0000DE4F288339834A835B83C052D1409601FC
:10FB10002D5F3F4FFB01108204C080EC8A8322E0FE
:10FB200030E08BE18093C6008091C00086FFFCCF5F
:10FB30008091C00080648093C000C15DDE4FF88179
:10FB4000CF52D140F093C6008091C00086FFFCCF19
:10FB50008091C00080648093C000432F3093C60022
:10FB60008091C00086FFFCCF8091C00080648093AC
:10FB7000C000922F2093C6008091C00086FFFCCF6A
:10FB80008091C00080648093C0008EE08093C600A6
:10FB90008091C00086FFFCCF8091C000806480937C
:10FBA000C00065E1C15DDE4FE880CF52D1406E25D7
:10FBB00069276427FE01319610C090819093C6009A
:10FBC0008091C00086FFFCCF31968091C000806498
:10FBD0008093C0006927215030402115310569F715
:10FBE0006093C6008091C00086FFFCCF8091C0006A
:10FBF00080648093C00085B1805885B9772081F4F6
:10FC0000C15DDE4F0881CF52D1400F5FC15DDE4F35
:10FC10000883CF52D14090E0A0E0B0E00D941AF4F8
:10FC200027982F9880E090E020ED37E0F901319798
:10FC3000F1F7019684369105C9F700008091C00064
:10FC40008D7F8093C00081E180935700E895EE2777
:10FC5000FF270994FFCF90E00D941AF497FB092E2B
:10FC600007260AD077FD04D02ED006D000201AF443
:10FC7000709561957F4F0895F6F7909581959F4F08
:10FC80000895A1E21A2EAA1BBB1BFD010DC0AA1FDD
:10FC9000BB1FEE1FFF1FA217B307E407F50720F0F5
:10FCA000A21BB30BE40BF50B661F771F881F991F70
:10FCB0001A9469F760957095809590959B01AC01B9
:10FCC000BD01CF010895AA1BBB1B51E107C0AA1FAC
:10FCD000BB1FA617B70710F0A61BB70B881F991FED
:10FCE0005A95A9F780959095BC01CD010895F99991
:10FCF000FECF92BD81BDF89A992780B50895262F31
:10FD0000F999FECF1FBA92BD81BD20BD0FB6F89400
:0EFD1000FA9AF99A0FBE01960895F894FFCF63
:040000033000E000E9
:00000001FF
