:1000000041C1000070C100006EC100006CC1000061
:100010006AC1000068C1000066C1000064C1000040
:1000200062C1000060C100005EC100005CC1000050
:100030005AC1000058C1000056C1000054C1000060
:1000400052C1000050C100004EC100004CC1000070
:100050004AC1000048C1000046C100000C943209AA
:1000600042C1000061C3000036C300003CC1000073
:100070003AC1000038C1000036C1000034C10000A0
:1000800032C1000030C100002EC100002CC10000B0
:100090002AC1000028C1000026C100007BC3000067
:1000A00022C1000020C100001EC100001CC10000D0
:1000B0001AC1000018C1000016C1000014C10000E0
:1000C00012C1000010C100000EC100000CC10000F0
:1000D0000AC1000008C1000006C1000004C1000000
:1000E00002C1000029062C061B061F062506630612
:1000F000300634063A063E06420648064C065006CE
:10010000630656065A065E0608000000BE922449A1
:10011000123EABAAAA2ABECDCCCC4C3E0000008039
:10012000BEABAAAAAA3E00000000BF000000803FAC
:100130000000000000084178D3BB4387D1133D196C
:100140000E3CC3BD4282AD2B3E68EC8276BED98F99
:10015000E1A93E4C80EFFFBE01C4FF7F3F000000DD
:10016000000000002100240027002A002D0030009C
:10017000330001010000040107010A010000220010
:10018000250028002B002E00310034000201000061
:10019000050108010B0100002000230026002900B2
:1001A0002C002F00320000010000030106010901AC
:1001B00005050505070508080808020202020A0AE3
:1001C0000808040404040101010101010101030301
:1001D000030303030303040707070C0C0C0C0C0CAC
:1001E0000C0C0202020206060606060606060B0BA9
:1001F0000B0B0B0B0B0B01021020200808102040EA
:1002000010204080020102010804020101020408DA
:100210001020408080402010080402018004020168
:1002200080402010080402010804020101020408B1
:1002300010204080010204081020408000000A0BBA
:1002400002090C0D0E080703040100000000000065
:10025000000000000000000000000000000000009E
:10026000000000000000000012111000000000005B
:10027000000000000000000000000000000000007E
:100280000000941311241FBECFEFD1E2DEBFCDBF1B
:1002900000E00CBF12E0A0E0B2E0E8E9FDE200E01F
:1002A0000BBF02C007900D92AA36B107D9F724E020
:1002B000AAE6B2E001C01D92A830B207E1F711E052
:1002C000C2E4D1E000E006C021970109802FFE01C1
:1002D0000E94BE16C134D10780E00807A9F70E942A
:1002E0007C090C94CA168CCECF92DF92EF92FF92CB
:1002F0000F931F93CF93DF936C017A018B01C0E0C2
:10030000D0E0CE15DF0581F0D8016D918D01D601C9
:10031000ED91FC910190F081E02DC6011995892B9A
:1003200011F02196EECF7E01C701DF91CF911F9191
:100330000F91FF90EF90DF90CF900895FC01538DC7
:10034000448D252F30E0842F90E0821B930B5417AF
:1003500010F0CF96089501970895FC01918D828D3C
:10036000981761F0828DDF01A80FB11D5D968C9109
:10037000928D9F5F9F73928F90E008958FEF9FEF14
:100380000895FC01918D828D981731F0828DE80FD0
:10039000F11D858D90E008958FEF9FEF0895FC018A
:1003A000918D228D892F90E0805C9F4F821B910957
:1003B0008F739927089584E493E0F1DF21E0892B7E
:1003C00009F420E0822F0895FC01848DDF01A80F3D
:1003D000B11DA35ABF4F2C91848D90E001968F736D
:1003E0009927848FA689B7892C93A089B1898C918C
:1003F000837080648C93938D848D981306C00288DB
:10040000F389E02D80818F7D80830895EF92FF92A4
:100410000F931F93CF93DF93EC0181E0888F9B8D27
:100420008C8D981305C0E889F989808185FD25C0E8
:10043000F62E0B8D10E00F5F1F4F0F731127E02E6C
:100440008C8DE8120BC00FB607FCFACFE889F9894A
:10045000808185FFF5CFCE01B7DFF2CF8B8DFE0116
:10046000E80FF11DE35AFF4FF0829FB7F8940B8F0E
:10047000EA89FB89808180620AC09FB7F894EE897F
:10048000FF896083E889F989808183708064808333
:100490009FBF81E090E0DF91CF911F910F91FF907E
:1004A000EF900895CF93DF93EC01888D8823C1F0FE
:1004B000EA89FB89808185FD05C0A889B9898C916D
:1004C00086FD0EC00FB607FCF5CF808185FFF2CF09
:1004D000A889B9898C9185FFEDCFCE0175DFE8CF72
:1004E000DF91CF91089580E090E0892B19F063DFD0
:1004F000811125C080E090E0892B41F080E090E000
:10050000892B21F00E94000081111CC080E090E046
:10051000892B41F080E090E0892B21F00E940000BF
:10052000811113C080E090E0892BA1F080E090E081
:10053000892B81F00E94000081110AC008950E9459
:100540000000D8CF0E940000E1CF0E940000EACF57
:100550000C940000089585ED8093BC008091BC0050
:1005600084FDFCCF10921F0308954091CE02262FE8
:1005700030E0240F311D21323105DCF420911F03BE
:100580002430C9F4FC0180E090E0861758F43091E3
:10059000CE022191DC01A255BD4FA30FB11D2C93BA
:1005A0000196F3CF8091CE02680F6093CE0280E077
:1005B000089581E0089582E00895089508950895CA
:1005C000E0916F0280916E02E81730F4F0E0E2579C
:1005D000FD4F808190E008958FEF9FEF08959091F7
:1005E0006F0280916E02981750F4E92FF0E0E25705
:1005F000FD4F208130E09F5F90936F0202C02FEF8C
:100600003FEFC901089580916E0290E020916F0242
:10061000821B91090895CF92DF92EF92FF920F9380
:100620001F93CF93DF937C01CB018A01209120039C
:10063000222389F0EB016B01C40ED51ECC15DD051C
:1006400061F06991D701ED91FC910190F081E02D6D
:10065000C7011995F3CF642F88DFC801DF91CF91CF
:100660001F910F91FF90EF90DF90CF900895CF935F
:10067000DF931F92CDB7DEB7698320912003222339
:10068000D1F020914303203240F021E030E0FC0122
:100690003383228380E090E014C080912103E82F0F
:1006A000F0E0EE5DFC4F998190838F5F8093210392
:1006B0008093430304C061E0CE01019656DF81E0E0
:1006C00090E00F90DF91CF910895089580E090E041
:1006D00008950E94C6161F920F920FB60F92112412
:1006E0000BB60F922F933F934F935F936F937F932C
:1006F0008F939F93AF93BF93EF93FF9384E493E023
:1007000063DEFF91EF91BF91AF919F918F917F91A8
:100710006F915F914F913F912F910F900BBE0F9072
:100720000FBE0F901F9018951F920F920FB60F9249
:1007300011240BB60F922F938F939F93EF93FF93F8
:10074000E0915403F09155038081E0915A03F091B8
:100750005B0382FD12C0908180915D038F5F8F7378
:1007600020915E03821751F0E0915D03F0E0EC5BB5
:10077000FC4F958F80935D0301C08081FF91EF91C5
:100780009F918F912F910F900BBE0F900FBE0F90E6
:100790001F9018951F920F920FB60F9211240BB64F
:1007A0000F922F933F934F935F936F937F938F930A
:1007B0009F93AF93BF93EF93FF938091B900887F8E
:1007C000803609F49CC068F5883209F45BC090F467
:1007D000803109F454C038F4882309F4F6C0883015
:1007E00009F44DC0F5C0883109F44CC0803209F4D9
:1007F0005DC0EEC0803409F468C048F4803309F469
:1008000055C0883309F0E4C080931D03D8C08035FB
:1008100009F44FC0883509F45DC0883409F0D8C0A8
:10082000D6C0883909F4C7C0A8F4883709F467C06E
:1008300038F4883609F463C0803709F460C0C8C052
:10084000883809F4B8C0803909F45FC0803809F0ED
:10085000BFC05BC0803B09F486C038F4803A09F41D
:1008600066C0883A09F47FC0B3C0803C09F4A7C0D1
:10087000883C09F4A4C0883B09F48AC0A9C08091CF
:10088000FA0210C090911C0380911B03981770F519
:10089000E0911C0381E08E0F80931C03F0E0E55093
:1008A000FD4F80818093BB0085EC86C080931D0343
:1008B0008EC0E0911C0381E08E0F80931C03809119
:1008C000BB00F0E0E550FD4F808390911C038091C8
:1008D0001B036EC0E0911C0381E08E0F80931C030C
:1008E0008091BB00F0E0E550FD4F808380911E03B6
:1008F00081116DC081E08093F90284EA61C083E0D8
:1009000080931F031092F002CFCF8091F0028032CB
:1009100008F051C0E091F00281E08E0F8093F00268
:100920008091BB00F0E0E053FD4F8083BDCF85ECAC
:100930008093BC0010921F038091F002803230F44B
:10094000E091F002F0E0E053FD4F10826091F00280
:1009500070E0E0916A02F0916B0280ED92E01995EF
:100960001092F00235C084E080931F031092CF02F2
:100970001092CE02E0916C02F0916D021995809177
:10098000CE02811105C081E08093CE021092AE02AA
:10099000E091CF0281E08E0F8093CF02F0E0E2552C
:1009A000FD4F80818093BB009091CF028091CE0259
:1009B000981708F479CF85E88093BC0009C085ECCE
:1009C0008093BC0010921F0303C010921D03C3DD6F
:1009D000FF91EF91BF91AF919F918F917F916F9117
:1009E0005F914F913F912F910F900BBE0F900FBED3
:1009F0000F901F9018958F929F92AF92BF92CF92B7
:100A0000DF92EF92FF9280917B00877F80937B0043
:100A100080E480937C0080917A00806480937A00E7
:100A200080917A0086FDFCCF6091780080917900FA
:100A300070E0782B072E000C880B990B0E94F514A0
:100A40002AE038E240EA5BE30E94EE159B01AC012C
:100A500060E070E088E492E40E945A1420E030E004
:100A600040E251E40E94F11320E030E04AE754E410
:100A70000E94EE150E94AE156B017C019B01AC013A
:100A80000E94EE15A70196010E94EE1526EB36EAAC
:100A900049E254E30E94EE154B015C012BE83BE474
:100AA0004AE759E3C701B6010E94EE152CE234E48F
:100AB00047E85AE30E94F2139B01AC01C501B4015F
:100AC0000E94F2139B01AC0160E070E080E89FE3BC
:100AD0000E945A1423E333E948E853E40E94F113D7
:100AE0006B017C0182E492E014D180910602909126
:100AF00007020197D1F5C701B6015CD182E592E00A
:100B000008D186E592E005D1C701B6010E94C21462
:100B10006B017C01EAE0F0E0CB01BF010E94881686
:100B20009C01CB01BF010E948816FC01E25FFD4FD2
:100B3000808190E09093EE038093ED03F901E25FF2
:100B4000FD4F808190E09093F0038093EF0383E664
:100B500090E09093F4038093F30389E390E0909303
:100B6000F6038093F5034BD24EC08091060290911C
:100B70000702029709F049C026E636E646EE5FE333
:100B8000C701B6010E94EE1520E030E040E052E4DB
:100B90000E94F2134B015C010E94C2146B017C01A4
:100BA000EAE0F0E0CB01BF010E9488169C01CB0176
:100BB000BF010E948816FC01E25FFD4F808190E03A
:100BC0009093EE038093ED03F901E25FFD4F808186
:100BD00090E09093F0038093EF0383E690E090938E
:100BE000F4038093F30381E790E09093F6038093FE
:100BF000F50305D2C501B401DDD089E592E089D0C5
:100C000086E592E086D0C60100C0FF90EF90DF90AD
:100C1000CF90BF90AF909F908F90089590E0FC018F
:100C20003197E231F10508F04EC08827EE58FF4FAA
:100C30008F4F0C94BE16809180008F7703C08091F7
:100C400080008F7D80938000089580918000877F51
:100C5000F9CF84B58F7702C084B58F7D84BD0895A8
:100C60008091B0008F7703C08091B0008F7D80931A
:100C7000B0000895809190008F7707C08091900018
:100C80008F7D03C080919000877F809390000895AE
:100C90008091A0008F7707C08091A0008F7D03C056
:100CA0008091A000877F8093A0000895809120010B
:100CB0008F7707C0809120018F7D03C08091200134
:100CC000877F8093200108953FB7F8948091F502C3
:100CD0009091F602A091F702B091F80226B5A89B78
:100CE00005C02F3F19F00196A11DB11D3FBFBA2FBE
:100CF000A92F982F8827820F911DA11DB11DBC011E
:100D0000CD0142E0660F771F881F991F4A95D1F7E2
:100D10000895009761F0FC0101900020E9F73197F8
:100D2000AF01481B590BBC0184E493E0DDCA80E0AD
:100D300090E008958F929F92AF92BF920F931F936E
:100D4000CF93DF93CDB7DEB7A1970FB6F894DEBF90
:100D50000FBECDBF19A2423008F44AE08E010F5DEC
:100D60001F4F842E912CA12CB12CA50194010E941F
:100D70009C16E62FB901CA0101501109EA3014F49A
:100D8000E05D01C0E95CD801EC93232B242B252BDB
:100D900061F7C801BEDFA1960FB6F894DEBF0FBEA3
:100DA000CDBFDF91CF911F910F91BF90AF909F90DA
:100DB0008F9008954F925F926F927F928F929F9241
:100DC000AF92BF92CF92DF92EF92FF926B017C01C4
:100DD0009B01AC010E945116882319F08DE592E029
:100DE00027C046015701E894B7F82FEF3FEF4FE7D0
:100DF0005FE7C501B4010E94511681110DC02FEFAC
:100E00003FEF4FE75FE7C501B4010E945614181683
:100E10001CF481E692E00CC02FEF3FEF4FE75FE458
:100E2000C701B6010E94A51518167CF485E692E06C
:100E3000FF90EF90DF90CF90BF90AF909F908F90FA
:100E40007F906F905F904F9064CF2FEF3FEF4FE711
:100E50005FECC701B6010E94561487FDE7CF20E082
:100E600030E0A901C701B6010E94561487FF0AC0ED
:100E70006DE284E493E0CADA5C01F7FAF094F7F8E3
:100E8000F09402C0A12CB12C2AE037ED43EA5BE3D9
:100E9000C701B6010E94F2132B013C010E94C71446
:100EA0006B017C010E94F3149B01AC01C301B201F0
:100EB0000E94F1132B013C014AE0C701B6013ADF61
:100EC0007C01EA0CFB1C6EE284E493E09FDAE80EFE
:100ED000F91E20E030E040E251E4C301B2010E947B
:100EE000EE152B013C010E94C7144B01A12CB12C23
:100EF0004AE0C501B4011EDFE80EF91EC501B401C8
:100F00000E94F3149B01AC01C301B2010E94F113D2
:100F100020E030E040E251E40E94EE150E94C71448
:100F200080E090E04AE006DF8E0D9F1DFF90EF907D
:100F3000DF90CF90BF90AF909F908F907F906F90F9
:100F40005F904F90089530914303313208F04BC0C9
:100F500080911F038111FCCF9091420322E02093E6
:100F60001F0321E020931E032FEF20931D031092F7
:100F70001C0330931B03E2E2F3E0ABEFB2E020E0AE
:100F8000321721F041914D932F5FFACF1092FA0260
:100F90002091FA02990F922B9093FA029091F90204
:100FA000913061F41092F9029091FA029093BB0093
:100FB0009091BC0093FDF8CF95EC01C095EE909315
:100FC000BC0090911F039230E1F390911D039F3F6D
:100FD00079F080911D03803241F080911D038033B0
:100FE00031F084E005C081E003C082E001C083E00D
:100FF00010922103109243031092200308950F933F
:101000001F93CF93DF938091FD0391E09093200392
:1010100080934203109221031092430360E081EE1B
:1010200093E025DBCDEED3E08E01688181EE93E085
:101030001EDB2296F801618181EE93E018DBF3E07C
:10104000CD3FDF0789F7DF91CF911F910F917BCFC4
:101050009091FD0321E0209320039093420310928E
:10106000210310924303843008F080E0682F70E081
:10107000660F771F616881EE93E0F9DA64CFEDEED9
:10108000F3E01192119283E0ED3FF807D1F7089554
:101090009091FD0321E0209320039093420310924E
:1010A000210310924303803108F08FE0682F606EB7
:1010B00081EE93E0DCDA47CFCF93DF93282F30E047
:1010C000F901E45CFD4F8491F901EA50FE4FD4919F
:1010D000F901E055FE4FC491CC2389F081119EDDCA
:1010E000EC2FF0E0EE0FFF1FEA56FE4FA591B491F2
:1010F000EC91ED2381E090E021F480E002C080E0FB
:1011000090E0DF91CF9108951F93CF93DF93282F25
:1011100030E0F901E45CFD4F8491F901EA50FE4FA3
:10112000D491F901E055FE4FC491CC23B9F0162FAC
:10113000811174DDEC2FF0E0EE0FFF1FE458FE4F3D
:10114000A591B4919FB7F894111104C08C91D095DA
:10115000D82302C0EC91DE2BDC939FBFDF91CF91AF
:101160001F910895CF93DF9390E0FC01EA50FE4F6A
:101170002491FC01E055FE4F8491882361F190E0B9
:10118000880F991FFC01EE59FE4FC591D491FC01C7
:10119000E458FE4FA591B491611109C09FB7F8942E
:1011A0008881209582238883EC912E230BC06230A6
:1011B00061F49FB7F8948881322F30958323888318
:1011C000EC912E2B2C939FBF06C08FB7F894E8812B
:1011D0002E2B28838FBFDF91CF9108958F929F92FE
:1011E000AF92BF92CF92DF92EF92FF926B017C01A0
:1011F0006BDD4B015C01C114D104E104F104E9F0A1
:1012000063DDDC01CB0188199909AA09BB09883E75
:101210009340A105B10578F321E0C21AD108E10895
:10122000F10888EE880E83E0981EA11CB11CC11441
:10123000D104E104F10421F7DECFFF90EF90DF90BD
:10124000CF90BF90AF909F908F9008952FB7F89454
:101250006091F1027091F2028091F3029091F40298
:101260002FBF08951F920F920FB60F9211242F9344
:101270003F938F939F93AF93BF938091F10290918F
:10128000F202A091F302B091F4023091070423E03E
:10129000230F2D3720F40196A11DB11D05C026E8AE
:1012A000230F0296A11DB11D209307048093F10224
:1012B0009093F202A093F302B093F4028091F502AE
:1012C0009091F602A091F702B091F8020196A11D4B
:1012D000B11D8093F5029093F602A093F702B093AC
:1012E000F802BF91AF919F918F913F912F910F90F5
:1012F0000FBE0F901F901895CF93DF931F921F92F0
:10130000CDB7DEB7789484B5826084BD84B5816042
:1013100084BD85B5826085BD85B5816085BD8091C0
:101320006E00816080936E00109281008091810038
:101330008260809381008091810081608093810030
:10134000809180008160809380008091B1008460F2
:101350008093B1008091B00081608093B000809153
:1013600091008260809391008091910081608093D0
:101370009100809190008160809390008091A10005
:1013800082608093A1008091A10081608093A10080
:101390008091A00081608093A000809121018260F3
:1013A00080932101809121018160809321018091AE
:1013B000200181608093200180917A008460809375
:1013C0007A0080917A00826080937A0080917A001E
:1013D000816080937A0080917A00806880937A009F
:1013E0001092C100E0915403F091550382E0808394
:1013F000E0915003F09151031082E0915203F0917B
:10140000530380E1808310925C03E0915803F091D4
:10141000590386E08083E0915603F0915703808161
:1014200080618083E0915603F0915703808188604A
:101430008083E0915603F091570380818068808318
:10144000E0915603F091570380818F7D808362E0A5
:1014500088E288DE62E084E285DE62E08AE282DEA3
:1014600060E086E37FDE60E087E37CDE61E08EE1C2
:1014700079DE61E08DE276DE61E08EE273DE61E0CE
:101480008FE170DE61E08AE16DDE61E086E16ADEB7
:1014900061E088E167DE61E080E064DE61E080E0D9
:1014A00061DE61E08AE130DE61E088E12DDE61E04D
:1014B00086E12ADE80E78093FD0310926F0210928E
:1014C0006E02109221031092430310921F0321E039
:1014D00020931E031092F90261E084E115DE61E0C1
:1014E00085E112DE8091B9008E7F8093B9008091F2
:1014F000B9008D7F8093B90088E48093B80085E4BB
:101500008093BC008DED92E090936D0280936C020D
:101510008EED92E090936B0280936A028091FD03BE
:1015200031E0309320038093420310922103109204
:10153000430361E281EE93E09AD805DDA0DD5FDD33
:1015400080E086DD8FE0A4DD56DA03E610E089E373
:10155000482E512C91E7692E712C78DE6B017C01AD
:101560008091880290918902A0918A02B0918B02A9
:10157000A7019601281B390B4A0B5B0BDA01C90145
:1015800088389341A105B10508F425C25FDE20919A
:101590008402309185024091860250918702621B3D
:1015A000730B840B950B28EE33E040E050E00E9473
:1015B0009C16CA01B9014AE0BDDBC0928802D092F4
:1015C0008902E0928A02F0928B0215DABC01990F2F
:1015D000880B990B0E94F5146B017C018091060227
:1015E00090910702019709F005C120917402309192
:1015F00075024091760250917702C701B6010E94B0
:10160000F11320E030E0A9010E94A51587FD04C078
:1016100081E08093710224C02091740230917502A0
:101620004091760250917702C701B6010E94F113F2
:1016300020E030E040EA50EC0E94561487FF03C0DF
:10164000109271020DC061E08DE28CDD60E08DE2F0
:101650005BDD61E08EE286DD60E08EE255DDBBC1E0
:1016600080917102882309F461C080917002811118
:1016700024C061E08DE276DD61E08DE245DD61E070
:101680008EE270DD60E08EE23FDD209174023091E9
:1016900075024091760250917702C701B6010E940F
:1016A000F11320E030E040E85FEB0E945614811116
:1016B0003DC081E08093700239C080917002882320
:1016C000A9F161E08DE24EDD60E08DE21DDD61E0BB
:1016D0008EE248DD60E08EE217DD209174023091E9
:1016E00075024091760250917702C701B6010E94BF
:1016F000F11320E030E040E85FE30E9456148823B5
:1017000009F49FC7209174023091750240917602CE
:1017100050917702C701B6010E94F11320E030E03A
:10172000A9010E94A51587FD01C08BC78091710298
:10173000811160C080917002882319F161E08DE20F
:1017400011DD61E08DE2E0DC61E08EE20BDD60E066
:101750008EE2DADC209174023091750240917602BB
:1017600050917702C701B6010E94F11320E030E0EA
:1017700040E85FE30E94561481113CC01092700251
:1017800039C080917002811135C061E08DE2EADCE0
:1017900060E08DE2B9DC61E08EE2E4DC60E08EE2E4
:1017A000B3DC209174023091750240917602509121
:1017B0007702C701B6010E94F11320E030E040E853
:1017C0005FEB0E945614882309F43EC720917402EF
:1017D000309175024091760250917702C701B601AF
:1017E0000E94F11320E030E040EA50EC0E945614D1
:1017F00087FD2AC78091060290910702029709F09F
:10180000EAC0209100023091010240910202509101
:101810000302C701B601E5D720E030E0A9010E942C
:10182000A51587FD04C081E08093710215C0209149
:101830000002309101024091020250910302C7015F
:10184000B601CFD720E030E040E251EC0E945614C0
:1018500087FFF9CE1092710280917102882309F4FA
:101860005CC080917002811123C061E08DE27ADC5E
:1018700061E08DE249DC61E08EE274DC60E08EE2E2
:1018800043DC20910002309101024091020250910C
:101890000302C701B601A5D720E030E040E85FEBC6
:1018A0000E945614811139C081E08093700235C0C6
:1018B00080917002882389F161E08DE253DC60E061
:1018C0008DE222DC61E08EE24DDC60E08EE21CDC29
:1018D00020910002309101024091020250910302D6
:1018E000C701B6017ED720E030E040E85FE3DED7F5
:1018F000882309F4ADC62091000230910102409185
:10190000020250910302C701B6016BD720E030E01C
:10191000A9010E94A51587FF9BC6809171028111C4
:101920005AC080917002882309F161E08DE21ADCCF
:1019300061E08DE2E9DB61E08EE214DC60E08EE2E2
:10194000E3DB2091000230910102409102025091AC
:101950000302C701B60145D720E030E040E85FE36D
:10196000A5D7811138C01092700235C080917002E5
:10197000811131C061E08DE2F5DB60E08DE2C4DB16
:1019800061E08EE2EFDB60E08EE2BEDB20910002E0
:10199000309101024091020250910302C701B60149
:1019A00020D720E030E040E85FEB80D7882309F4BF
:1019B00052C62091000230910102409102025091E2
:1019C0000302C701B6010DD720E030E040EA50EC39
:1019D0006DD787FD40C684E26FDB892B09F027C6EF
:1019E00035DC6B017C01222423943324339441E0C1
:1019F0004A8351E0598384E25FDB892B09F045C0BB
:101A000025DCDC01CB018C199D09AE09BF09893E9B
:101A10009340A105B10570F43981332391F12FDB97
:101A2000EEDA46E850E05093F0034093EF03E7DA34
:101A3000198227C00BDCDC01CB018C199D09AE0992
:101A4000BF09813D9740A105B10508F008C6FEDB3E
:101A5000DC01CB018C199D09AE09BF09893E934079
:101A6000A105B10508F4FBC54A81442351F007DB09
:101A7000C6DA4BED50E05093F0034093EF03BFDA2A
:101A80001A82E4DB4B015C01B6CFD501C4018C198D
:101A90009D09AE09BF09893E33E09307A105B10551
:101AA00008F02FC26AEF70E080E090E097DBE7DAA1
:101AB00082E0CEDAA4DA80910602909107020197C3
:101AC00079F560917402709175028091760290911F
:101AD000770258D7CB016AE070E00E9488169C011B
:101AE000CB016AE070E00E948816FC01E25FFD4FC6
:101AF000808190E09093EE038093ED03F901E25F23
:101B0000FD4F808190E09093F0038093EF0310935A
:101B1000F4030093F3035092F6034092F50334C0AC
:101B20008091060290910702029779F56091000278
:101B300070910102809102029091030223D7CB01A0
:101B40006AE070E00E9488169C01CB016AE070E0B8
:101B50000E948816FC01E25FFD4F808190E0909327
:101B6000EE038093ED03F901E25FFD4F808190E089
:101B70009093F0038093EF031093F4030093F30327
:101B80007092F6036092F5033ADA84E295DA0197EF
:101B900009F040C588E290DA909383028093820234
:101BA0008AE28ADA90938102809380028091820295
:101BB00090918302892B09F0E6C020918202309136
:101BC000830280910A0290910B022817390789F04D
:101BD0003DDB60937C0270937D0280937E02909344
:101BE0007F02809182029091830290930B028093F6
:101BF0000A022CDBC0907C02D0907D02E0907E0235
:101C0000F0907F026C197D098E099F09ECD620E0C7
:101C100030E040E05FE399D718160CF0B4C0809133
:101C2000060290910702019709F054C06091740276
:101C300070917502809176029091770220E030E0F9
:101C400040EA52E433D6882309F49DC060917402BF
:101C500070917502809176029091770220E030E0D9
:101C600040E85FE3BFD56093740270937502809380
:101C70007602909377026091740270917502809160
:101C80007602909177027ED6CB016AE070E00E94E6
:101C900088169C01CB016AE070E00E948816FC0166
:101CA000E25FFD4F808190E09093EE038093ED031F
:101CB000F901E25FFD4F808190E09093F003809303
:101CC000EF031093F4030093F3035092F603409252
:101CD000F50358C08091060290910702029709F01F
:101CE00052C06091000270910102809102029091B5
:101CF000030220E030E040E353E4D8D5882309F420
:101D000042C06091000270910102809102029091A4
:101D1000030220E030E040E85FE364D56093000216
:101D2000709301028093020290930302609100027B
:101D300070910102809102029091030223D6CB019F
:101D40006AE070E0E5D79C01CB016AE070E0E0D783
:101D5000FC01E25FFD4F808190E09093EE03809361
:101D6000ED03F901E25FFD4F808190E09093F00375
:101D70008093EF031093F4030093F3037092F60340
:101D80006092F5033CD98091800290918102892B69
:101D900009F0B1C08091060290910702019709F005
:101DA00051C0609174027091750280917602909199
:101DB000770220E030E0A90179D5882309F49BC09F
:101DC0006091740270917502809176029091770211
:101DD00020E030E040E85FE304D560937402709344
:101DE00075028093760290937702609174027091ED
:101DF00075028091760290917702C4D5CB016AE09A
:101E000070E086D79C01CB016AE070E081D7FC01CD
:101E1000E25FFD4F808190E09093EE038093ED03AD
:101E2000F901E25FFD4F808190E09093F003809391
:101E3000EF031093F4030093F3035092F6034092E0
:101E4000F50358C08091060290910702029709F0AD
:101E500052C0609100027091010280910202909143
:101E6000030220E030E040E052E420D5882309F46A
:101E700042C0609100027091010280910202909133
:101E8000030220E030E040E85FE3ABD4609300025F
:101E9000709301028093020290930302609100020A
:101EA0007091010280910202909103026BD5CB01E7
:101EB0006AE070E02DD79C01CB016AE070E028D782
:101EC000FC01E25FFD4F808190E09093EE038093F0
:101ED000ED03F901E25FFD4F808190E09093F00304
:101EE0008093EF031093F4030093F3037092F603CF
:101EF0006092F50384D86AEF70E080E090E06ED9DC
:101F000044CEAC01BD01495E534061097109483EB0
:101F100053406105710508F01CC16AEF70E080E074
:101F200090E05CD9ACD882E093D8E0917202F09155
:101F30007302FF27E25FFD4F808190E09093F603EC
:101F40008093F5035CD884E2B7D8019709F062C3A7
:101F500088E2B2D890938302809382028AE2ACD85E
:101F600090938102809380028091820290918302FB
:101F7000892B11F0F12C51C0209182023091830203
:101F800080910A0290910B022817390789F05ED9D7
:101F900060937C0270937D0280937E0290937F0217
:101FA000809182029091830290930B0280930A02A7
:101FB0004DD9C0907C02D0907D02E0907E02F090DE
:101FC0007F026C197D098E099F090DD520E030E054
:101FD00040E05FE3BAD518166CF6809172029091DA
:101FE0007302049739F28091720290917302019604
:101FF0009093730280937202E0917202F0917302E7
:10200000FF27E25FFD4F808190E09093F60380937D
:10201000F5030E94FF07FF24F394809180029091C2
:102020008102892B09F051C02091800230918102F8
:1020300080910802909109022817390789F006D982
:10204000609378027093790280937A0290937B0276
:1020500080918002909181029093090280930802FE
:10206000F5D8209178023091790240917A0250910E
:102070007B02621B730B840B950BB5D420E030E020
:1020800040E05FE362D5181604F5809172029091EA
:102090007302892BD1F080917202909173020197A3
:1020A0009093730280937202E0917202F091730236
:1020B000FF27E25FFD4F808190E09093F6038093CD
:1020C000F5030E94FF07FF24F3946AEF70E080E0BD
:1020D00090E084D8FF2009F436CFE0907202F090AF
:1020E000730261E08AE110D861E088E10DD861E017
:1020F00086E10AD8E114F10441F461E08AE104D8F0
:1021000061E088E101D861E020C031E0E316F1042C
:1021100019F460E08AE11AC042E0E416F10419F40F
:1021200060E088E113C053E0E516F10469F084E053
:10213000E816F10409F007CF60E08AE10E94840804
:1021400060E088E10E94840860E086E10E948408E3
:10215000FACE815D9740A109B109883E9340A1055F
:10216000B10508F019C16AEF70E080E090E036D860
:102170000E943F0882E00E94280880910602909108
:102180000702019749F41093F4030093F30350926C
:10219000F6034092F5030EC080910602909107026B
:1021A000029741F41093F4030093F3037092F60343
:1021B0006092F5030E94FF0784E20E945C08019789
:1021C00009F0B9C088E20E945C0890938302809372
:1021D00082028AE20E945C089093810280938002CE
:1021E0008091820290918302892B09F04AC020914C
:1021F00082023091830280910A0290910B0228178B
:10220000390789F023D860937C0270937D02809314
:102210007E0290937F02809182029091830290933C
:102220000B0280930A0212D8C0907C02D0907D02EB
:10223000E0907E02F0907F026C197D098E099F0963
:10224000D2D320E030E040E05FE37FD41816CCF436
:102250008091060290910702029799F08091060200
:1022600090910702019690930702809306021093C3
:10227000F4030093F3037092F6036092F5030E9457
:10228000FF078091800290918102892B09F04CC058
:102290002091800230918102809108029091090280
:1022A0002817390791F00E942609609378027093ED
:1022B000790280937A0290937B02809180029091C0
:1022C000810290930902809308020E942609C0901F
:1022D0007802D0907902E0907A02F0907B026C193B
:1022E0007D098E099F097FD320E030E040E05FE365
:1022F0002CD41816CCF48091060290910702019715
:1023000099F080910602909107020197909307023D
:10231000809306021093F4030093F3035092F603A4
:102320004092F5030E94FF076AEF70E080E090E0C2
:102330000E94EE0841CF809106029091070201971A
:1023400009F0C9C18091040290910502029709F039
:10235000C2C16091000270910102809102029091CD
:10236000030220E030E040E052E43BD224EE38E3C8
:102370004EE05FE333D460937402709375028093F0
:1023800076029093770280910602909107029093D3
:102390000502809304023EC16AEF70E080E090E0A5
:1023A0000E94EE080E943F0882E00E942808809167
:1023B0000C0290910D026AE070E0AAD4CB016AE0B1
:1023C00070E0A6D49C0180910C0290910D026AE00D
:1023D00070E09ED42115310549F0F901E25FFD4F0F
:1023E000208130E03093F4032093F303FC01E25F9B
:1023F000FD4F808190E09093F6038093F5030E9457
:10240000FF0784E20E945C08019709F003C188E29B
:102410000E945C0890938302809382028AE20E9469
:102420005C08909381028093800280918202909157
:102430008302892B11F0F12C6BC020918202309124
:10244000830280910A0290910B022817390791F0BC
:102450000E94260960937C0270937D0280937E0225
:1024600090937F02809182029091830290930B025D
:1024700080930A020E942609C0907C02D0907D02BF
:10248000E0907E02F0907F026C197D098E099F0911
:10249000AAD220E030E040E05FE357D318165CF6A4
:1024A00080910C0290910D020F9729F280910C02FD
:1024B00090910D02019690930D0280930C028091F1
:1024C0000C0290910D0220910C0230910D026AE0F5
:1024D00070E01ED4CB016AE070E01AD4FC01E25F28
:1024E000FD4F808190E09093F4038093F303C90142
:1024F0006AE070E00DD4FC01E25FFD4F808190E066
:102500009093F6038093F5030E94FF07FF24F39452
:102510008091800290918102892B09F06BC02091FB
:10252000800230918102809108029091090228175F
:10253000390791F00E94260960937802709379021E
:1025400080937A0290937B02809180029091810225
:1025500090930902809308020E9426092091780234
:102560003091790240917A0250917B02621B730B89
:10257000840B950B38D220E030E040E05FE3E5D2F9
:102580001816C4F580910C0290910D02892B91F1DF
:1025900080910C0290910D02019790930D0280930F
:1025A0000C0280910C0290910D0220910C0230914E
:1025B0000D026AE070E0ACD3CB016AE070E0A8D312
:1025C000FC01E25FFD4F808190E09093F4038093E3
:1025D000F303C9016AE070E09BD3FC01E25FFD4FA9
:1025E000808190E09093F6038093F5030E94FF07AB
:1025F000FF24F3946AEF70E080E090E00E94EE0820
:10260000FF2009F4FECE80910C0290910D020E94F1
:102610004808F7CE80E00E9428080E9426096093AF
:10262000840270938502809386029093870264EF00
:1026300071E080E090E00E94EE080E9473020C942A
:10264000AD0A1092700272C881E080937002D2C805
:102650001092700262C981E080937002BCC90E942E
:102660002609DC01CB018C199D09AE09BF09893B04
:102670009B40A105B105F0F40E942609DC01CB01C5
:102680008C199D09AE09BF09813D9740A105B1058F
:1026900088F0332009F4F5C90E943F080E94FF0723
:1026A0008FEC90E09093F0038093EF030E94FF077C
:1026B000312CE7C9222009F4E4C90E943F080E9496
:1026C000FF0726EE30E03093F0032093EF030E94E3
:1026D000FF07212CD6C9809106029091070202972C
:1026E00009F051CE8091040290910502019709F002
:1026F0004ACE609174027091750280917602909139
:10270000770226E636E646EE5FE368D220E030E068
:1027100040E052E467D0609300027093010280931E
:102720000202909303022FCECF93DF93E4E4F3E011
:102730001382128288EE93E0A0E0B0E08483958358
:10274000A683B78322E232E03183208325EC30E098
:102750003587248724EC30E03787268720EC30E06B
:10276000318B208B21EC30E0338B228B22EC30E05C
:10277000358B248B26EC30E0378B268B118E128E16
:10278000138E148EE1EEF3E013821282848395831C
:10279000A683B78384E392E091838083CFEFD3E075
:1027A0008AE190E09983888388E190E09B838A8323
:1027B00086E190E09D838C8381E090E09F838E830F
:1027C00061E08AE10E94B20861E08A810E94B20859
:1027D00061E08C810E94B2081092FE03DF91CF91DC
:1027E00008955058BB27AA270ED075C166D130F086
:1027F0006BD120F031F49F3F11F41EF45BC10EF455
:10280000E095E7FB51C1E92F77D180F3BA17620752
:1028100073078407950718F071F49EF58FC10EF4C5
:10282000E0950B2EBA2FA02D0B01B90190010C01E0
:10283000CA01A0011124FF27591B99F0593F50F4F8
:10284000503E68F11A16F040A22F232F342F442750
:10285000585FF3CF469537952795A795F040539548
:10286000C9F77EF41F16BA0B620B730B840BBAF018
:102870009150A1F0FF0FBB1F661F771F881FC2F783
:102880000EC0BA0F621F731F841F48F48795779597
:102890006795B795F7959E3F08F0B3CF9395880F4E
:1028A00008F09927EE0F979587950895D9D008F4E9
:1028B00081E008950CD00FC107D140F0FED030F078
:1028C00021F45F3F19F0F0C0511139C1F3C014D1A8
:1028D00098F39923C9F35523B1F3951B550BBB27E7
:1028E000AA2762177307840738F09F5F5F4F220F94
:1028F000331F441FAA1FA9F333D00E2E3AF0E0E88D
:1029000030D091505040E695001CCAF729D0FE2FD8
:1029100027D0660F771F881FBB1F2617370748076A
:10292000AB07B0E809F0BB0B802DBF01FF27935820
:102930005F4F2AF09E3F510568F0B6C000C15F3F6F
:10294000ECF3983EDCF3869577956795B795F79508
:102950009F5FC9F7880F911D9695879597F9089500
:10296000E1E0660F771F881FBB1F6217730784079C
:10297000BA0720F0621B730B840BBA0BEE1F88F7AB
:10298000E095089504D06894B111D9C00895BCD0E1
:1029900088F09F5790F0B92F9927B751A0F0D1F048
:1029A000660F771F881F991F1AF0BA95C9F712C0D2
:1029B000B13081F0C3D0B1E00895C0C0672F782F47
:1029C0008827B85F39F0B93FCCF38695779567953E
:1029D000B395D9F73EF490958095709561957F4FAA
:1029E0008F4F9F4F0895E89409C097FB3EF4909550
:1029F0008095709561957F4F8F4F9F4F9923A9F0D8
:102A0000F92F96E9BB279395F69587957795679566
:102A1000B795F111F8CFFAF4BB0F11F460FF1BC0AA
:102A20006F5F7F4F8F4F9F4F16C0882311F096E93D
:102A300011C0772321F09EE8872F762F05C06623EB
:102A400071F096E8862F70E060E02AF09A95660FA4
:102A5000771F881FDAF7880F9695879597F908955D
:102A6000990F0008550FAA0BE0E8FEEF161617069F
:102A7000E807F907C0F012161306E407F50798F007
:102A8000621B730B840B950B39F40A2661F0232B20
:102A9000242B252B21F408950A2609F4A140A6959C
:102AA0008FEF811D811D089597F99F6780E870E081
:102AB00060E008959FEF80EC089500240A941616B4
:102AC000170618060906089500240A94121613061C
:102AD000140605060895092E0394000C11F48823AA
:102AE00052F0BB0F40F4BF2B11F460FF04C06F5FC6
:102AF0007F4F8F4F9F4F089557FD9058440F551F9C
:102B000059F05F3F71F04795880F97FB991F61F06F
:102B10009F3F79F087950895121613061406551FE6
:102B2000F2CF4695F1DF08C0161617061806991F52
:102B3000F1CF86957105610508940895E894BB2747
:102B400066277727CB0197F908958ADF08F48FEF7E
:102B500008950EF0AAC0AECF6894A6CFD5DFC8F313
:102B60009923D1F3C6F3DF93CF931F930F93FF9273
:102B7000C92FDD2788232AF02197660F771F881F2A
:102B8000DAF720E030E040E85FEB9FE3883920F09F
:102B9000803E30F021968F7725DEE8E0F1E003C03B
:102BA00021DEE5E3F1E08FD08B01BE01EC01FB2ECD
:102BB0006F5771097595771F880B990B16DF28E100
:102BC00032E741E35FE316D0AF2D9801AE01FF90ED
:102BD0000F911F91CF91DF9116DE7DCF0BD07BCF70
:102BE0006CDF28F071DF18F0952309F05DCF62CF1C
:102BF0001124A5CF81DFA0F3959FD1F3950F50E06D
:102C0000551F629FF001729FBB27F00DB11D639F9E
:102C1000AA27F00DB11DAA1F649F6627B00DA11D44
:102C2000661F829F2227B00DA11D621F739FB00DEA
:102C3000A11D621F839FA00D611D221F749F33275A
:102C4000A00D611D231F849F600D211D822F762FF3
:102C50006A2F11249F5750408AF0E1F088234AF0F0
:102C6000EE0FFF1FBB1F661F771F881F915050403C
:102C7000A9F79E3F510570F017CF61CF5F3FECF38E
:102C8000983EDCF3869577956795B795F795E79528
:102C90009F5FC1F7FE2B880F911D9695879597F939
:102CA0000895DEDE880B990B08959F3F31F0915017
:102CB00020F4879577956795B795880F911D969520
:102CC000879597F90895DF93CF931F930F93FF9202
:102CD000EF92DF927B018C01689405C0DA2EEF0140
:102CE00089DFFE01E894A591259135914591559193
:102CF000AEF3EF0188DDFE019701A801DA9479F7C0
:102D0000DF90EF90FF900F911F91CF91DF91089589
:102D1000AA1BBB1B51E107C0AA1FBB1FA617B70701
:102D200010F0A61BB70B881F991F5A95A9F780951D
:102D30009095BC01CD010895A1E21A2EAA1BBB1BE0
:102D4000FD010DC0AA1FBB1FEE1FFF1FA217B30777
:102D5000E407F50720F0A21BB30BE40BF50B661F8D
:102D6000771F881F991F1A9469F760957095809551
:102D700090959B01AC01BD01CF010895EE0FFF1F9F
:102D8000881F8BBF0790F691E02D199481E090E0A9
:082D9000F89400C0F894FFCF95
:102D98000000004201000100010001000F003F0691
:102DA8005B4F666D7D077F6F777C395E79710000B8
:102DB8000000060274019E015202CF01AD01C1015B
:102DC8000000000037030B036603DF020303EF0272
:102DD800E00243757272656E742054656D70203D13
:102DE8002000C2B043000D0A00C2B046006E616EFA
:0A2DF80000696E66006F7666000049
:020000023000CC
:10E000000D9489F10D94B2F10D94B2F10D94B2F129
:10E010000D94B2F10D94B2F10D94B2F10D94B2F1F0
:10E020000D94B2F10D94B2F10D94B2F10D94B2F1E0
:10E030000D94B2F10D94B2F10D94B2F10D94B2F1D0
:10E040000D94B2F10D94B2F10D94B2F10D94B2F1C0
:10E050000D94B2F10D94B2F10D94B2F10D94B2F1B0
:10E060000D94B2F10D94B2F10D94B2F10D94B2F1A0
:10E070000D94B2F10D94B2F10D94B2F10D94B2F190
:10E080000D94B2F10D94B2F10D94B2F10D94B2F180
:10E090000D94B2F10D94B2F10D94B2F10D94B2F170
:10E0A0000D94B2F10D94B2F10D94B2F10D94B2F160
:10E0B0000D94B2F10D94B2F10D94B2F10D94B2F150
:10E0C0000D94B2F10D94B2F10D94B2F10D94B2F140
:10E0D0000D94B2F10D94B2F10D94B2F10D94B2F130
:10E0E0000D94B2F141546D656761323536300041AF
:10E0F000726475696E6F206578706C6F72657220DE
:10E1000073746B3530305632206279204D4C530099
:10E11000426F6F746C6F616465723E004875683F52
:10E1200000436F6D70696C6564206F6E203D200048
:10E130004350552054797065202020203D20005FF9
:10E140005F4156525F415243485F5F3D2000415658
:10E1500052204C696243205665723D20004743437C
:10E160002056657273696F6E203D20004350552024
:10E1700049442020202020203D20004C6F7720663D
:10E18000757365202020203D20004869676820665F
:10E190007573652020203D200045787420667573D6
:10E1A00065202020203D20004C6F636B2066757336
:10E1B000652020203D20004D617220203720323024
:10E1C000313300312E362E3800342E332E350056A2
:10E1D00023202020414444522020206F7020636F70
:10E1E00064652020202020696E73747275637469E1
:10E1F0006F6E2061646472202020496E74657272B3
:10E20000757074006E6F20766563746F7200726A49
:10E210006D702020006A6D70200057686174207056
:10E220006F72743A00506F7274206E6F7420737541
:10E2300070706F72746564004D7573742062652030
:10E2400061206C6574746572002000577269747483
:10E25000696E672045450052656164696E672045B7
:10E26000450045452065727220636E743D00504F35
:10E27000525400303D5A65726F2061646472003FF1
:10E280003D43505520737461747300403D454550C3
:10E29000524F4D207465737400423D426C696E6B41
:10E2A000204C454400453D44756D70204545505215
:10E2B0004F4D00463D44756D7020464C415348001B
:10E2C000483D48656C70004C3D4C69737420492F83
:10E2D0004F20506F72747300513D51756974005234
:10E2E0003D44756D702052414D00563D73686F7707
:10E2F00020696E7465727275707420566563746FF0
:10E30000727300593D506F727420626C696E6B00BD
:10E310002A0011241FBECFEFD1E2DEBFCDBF01E046
:10E320000CBF12E0A0E0B2E0EEE1FDEF03E00BBFB6
:10E3300002C007900D92A030B107D9F712E0A0E01B
:10E34000B2E001C01D92AE30B107E1F70F9460F367
:10E350000D948DFE01E20EBF0FEF0DBF11241FBE05
:10E360000D9460F30D9400F020E030E040ED57E0B4
:10E3700005C0FA013197F1F72F5F3F4F2817390792
:10E38000C0F308959C01260F311DC901A0E0B0E043
:10E390002F5F3F4FABBFFC018791882361F08093D3
:10E3A000C6008091C00086FFFCCF8091C0008064D1
:10E3B0008093C000EACF08958DE08093C6008091DD
:10E3C000C00086FFFCCF8091C00080648093C000B5
:10E3D0008AE08093C6008091C00086FFFCCF8091C8
:10E3E000C00080648093C00008950F94C2F10F9420
:10E3F000DCF10895FC019081992359F09093C600B7
:10E400008091C00086FFFCCF8091C0008064809323
:10E41000C0003196992379F70895282F982F929567
:10E420009F70892F805D8A3308F0895F8093C600D2
:10E430008091C00086FFFCCF8091C00080648093F3
:10E44000C000822F8F70982F905D9A3308F0995FEB
:10E450009093C6008091C00086FFFCCF8091C000E1
:10E4600080648093C00008959C01FB01853691056E
:10E470001CF46330710594F0C90164E670E00F94F8
:10E480002EFE605D7F4F6093C6008091C00086FFC6
:10E49000FCCF8091C00080648093C0002B30310598
:10E4A00014F43297B4F0C90164E670E00F942EFEC4
:10E4B0006AE070E00F942EFE605D7F4F6093C600AF
:10E4C0008091C00086FFFCCF8091C0008064809363
:10E4D000C000C9016AE070E00F942EFEC0968093E0
:10E4E000C6008091C00086FFFCCF8091C000806490
:10E4F0008093C00008951F93182F8EE692EE60E07F
:10E500000F94C2F11093C6008091C00086FFFCCF2B
:10E510008091C00080648093C0000F94DCF11F9153
:10E5200008952F923F924F925F926F927F928F92B7
:10E530009F92AF92BF92CF92DF92EF92FF920F9392
:10E540001F93DF93CF93CDB7DEB762970FB6F894E2
:10E55000DEBF0FBECDBF382E622ECA01DB015C01CB
:10E560006D01772420E2222E2E010894411C511CBB
:10E570008BC081E0A81680E0B80681E0C80680E084
:10E58000D80628F0C601AA27BB270F940DF2BB2797
:10E59000AD2D9C2D8B2D0F940DF28A2D0F940DF225
:10E5A0002092C6008091C00086FFFCCF8091C00001
:10E5B00080648093C0009DE29093C6008091C0006B
:10E5C00086FFFCCF8091C00080648093C0002092C1
:10E5D000C6008091C00086FFFCCF8091C00080649F
:10E5E0008093C00019828601750188249924A1E0D6
:10E5F0003A1651F03A1620F0B2E03B1661F409C029
:10E600000BBFF701779007C0C7010F9477FE782EF4
:10E6100002C0F7017080872D0F940DF22092C60082
:10E620008091C00086FFFCCF8091C0008064809301
:10E63000C000872D8052F401EF70F0708F3520F408
:10E64000E40DF51D708204C0E40DF51D8EE280839B
:10E650000894E11CF11C011D111D0894811C911CE2
:10E6600090E18916910409F0C2CF80E190E0A0E02A
:10E67000B0E0A80EB91ECA1EDB1E198AC2010F9493
:10E68000FAF10F94DCF16A94662009F072CF629679
:10E690000FB6F894DEBF0FBECDBFCF91DF911F91B3
:10E6A0000F91FF90EF90DF90CF90BF90AF909F9031
:10E6B0008F907F906F905F904F903F902F90089534
:10E6C0002F923F924F925F926F927F928F929F9282
:10E6D000AF92BF92CF92DF92EF92FF920F931F9370
:10E6E000DF93CF93CDB7DEB7CD53D1400FB6F894BB
:10E6F000DEBF0FBECDBF01E20EBF0FEF0DBF94B75F
:10E70000F894A89514BE80916000886180936000A1
:10E7100010926000789493FF05C0E0910002F091A0
:10E7200001021995279A2F9A8091C00082608093E8
:10E73000C00080E18093C40088E18093C1000000A4
:10E74000EE24FF24870144E0A42EB12CCC24DD2448
:10E7500024C0C5010197F1F70894E11CF11C011DCB
:10E76000111D21E2E2162EE4F20620E0020720E06D
:10E77000120718F031E0C32ED12CC801B70127ECE5
:10E780003BE140E050E00F9441FE611571058105C9
:10E79000910519F485B1805885B98091C00087FD35
:10E7A00003C0C114D104A9F2A6014F5F5F4FC25E3E
:10E7B000DE4F59834883CE51D140C25EDE4F8881FF
:10E7C0009981CE51D140019711F00D9410FEC05D9A
:10E7D000DE4F19821882C053D14060E0C15DDE4F28
:10E7E0001882CF52D14088249924C35DDE4F19820C
:10E7F0001882CD52D140C05EDE4F188219821A8233
:10E800001B82C052D140CE5CDE4F188219821A8220
:10E810001B82C253D140EE24FF2487010BBFF701B6
:10E8200007911691C45CDE4F19830883CC53D14005
:10E830000D940BFEC25EDE4F28813981CE51D1404E
:10E840002130310509F52091C600C25EDE4F1982E4
:10E850001882CE51D14022C02F5F3F4F4F4F5F4FA4
:10E86000213082E138078AE7480780E0580780F0C6
:10E87000C45CDE4FE881F981CC53D140EF5FFF4F9C
:10E8800019F0EE27FF27099420E030E040E050E047
:10E890008091C00087FFE0CF2091C600C35DDE4FAE
:10E8A00048815981CD52D1404F5F5F4FC35DDE4FEC
:10E8B00059834883CD52D140213209F063C64A3092
:10E8C000510508F05FC60894811C911C53E0851621
:10E8D000910409F059C600E010E018C081E280936D
:10E8E000C6008091C00086FFFCCF8091C00080648C
:10E8F0008093C0002F5F3F4F2931310579F70F9486
:10E90000DCF10F5F1F4F0530110519F020E030E0FA
:10E91000E5CF10920A0210920B0210920C02109294
:10E920000D02109206021092070210920802109235
:10E930000902109202021092030210920402109235
:10E9400005028FEE90EE60E00F94F5F180E191EE1C
:10E9500060E00F94C2F18091C00087FFFCCF9091DE
:10E96000C600903608F09F759032B8F09093C600BC
:10E970008091C00086FFFCCF8091C00080648093AE
:10E98000C000A0E2A093C6008091C00086FFFCCF2B
:10E990008091C00080648093C000983409F4D7C18E
:10E9A0009934B8F4923409F459C1933458F490333B
:10E9B00019F1903308F4E3C59F33A1F1903409F0C5
:10E9C000DEC5BDC0953409F470C1963409F0D7C5D1
:10E9D00098C1923509F42BC2933538F49C3409F46C
:10E9E000F5C1913509F0CBC518C2963509F445C279
:10E9F000993509F0C4C567C483E792EE62E00F94CD
:10EA0000F5F110920602109207021092080210927D
:10EA1000090210920A0210920B0210920C0210923C
:10EA20000D0213C18FE792EE62E00F94F5F18FEEC5
:10EA300090EE60E00F94F5F181E291EE60E00F94CA
:10EA4000C2F187EB91EE60E00F94F5F180E391EE77
:10EA500060E00F94C2F184EE90EE60E00F94F5F167
:10EA60008FE391EE60E00F94C2F186E090E061E008
:10EA700070E00F9434F20F94DCF18DE591EE60E0DC
:10EA80000F94C2F189EC91EE60E00F94F5F18EE401
:10EA900091EE60E00F94C2F183EC91EE60E00F9490
:10EAA000F5F18CE691EE60E00F94C2F18EE10F94E7
:10EAB0000DF288E90F940DF281E00F940DF20F949E
:10EAC000DCF18BE791EE60E00F94C2F119E0E0E039
:10EAD000F0E010935700E4918E2F0F940DF20F94F5
:10EAE000DCF18AE891EE60E00F94C2F1E3E0F0E03F
:10EAF00010935700E4918E2F0F940DF20F94DCF1D8
:10EB000089E991EE60E00F94C2F1E2E0F0E0109349
:10EB10005700E4918E2F0F940DF20F94DCF188EAE8
:10EB200091EE60E00F94C2F1E1E0F0E01093570045
:10EB30001491812F0F940DF20F94DCF107CF8BE825
:10EB400092EE62E00F94F5F18BE492EE60E00F94A8
:10EB5000F5F10F94DCF100E010E019C0C8016F2D51
:10EB60000F947FFEFF2031F489E492EE60E00F9471
:10EB7000C2F10BC0F092C6008091C00086FFFCCFAE
:10EB80008091C00080648093C0000F5F1F4FC80158
:10EB900081519F41A0E0B0E0ABBFFC01F790BAE229
:10EBA000FB1621F0E2E000301E07C1F60F94DCF105
:10EBB0000F94DCF187E592EE60E00F94F5F10F948D
:10EBC000DCF1CC24DD2400E010E01EC0C8010F946D
:10EBD00077FEF82E882331F489E492EE60E00F94FA
:10EBE000C2F10BC08093C6008091C00086FFFCCFAD
:10EBF0008091C00080648093C000FE1419F00894D6
:10EC0000C11CD11C0F5F1F4FC80181519F41A0E063
:10EC1000B0E0ABBFFC01E790FAE2EF1621F022E092
:10EC20000030120799F60F94DCF10F94DCF182E6C4
:10EC300092EE60E00F94C2F1C60161E070E00F94C3
:10EC400034F20F94DCF10F94DCF110920202109276
:10EC50000302109204021092050278CE89E992EE26
:10EC600062E00F94F5F1279A2F9A16C02F9880E052
:10EC700090E0E0EDF7E03197F1F7019684369105E9
:10EC8000C1F72F9A80E090E0E0EDF7E03197F1F7DF
:10EC9000019684369105C1F78091C00087FFE6CFC9
:10ECA0008091C00087FFFCCF64C485EA92EE62E0E9
:10ECB0000F94F5F140910202509103026091040219
:10ECC0007091050281E020E10F9491F2809102029F
:10ECD00090910302A0910402B091050280509F4FD1
:10ECE000AF4FBF4F8093020290930302A0930402A0
:10ECF000B093050280509041A040B04008F426CE69
:10ED0000A4CF83EB92EE62E00F94F5F140910602FE
:10ED100050910702609108027091090280E020E1A1
:10ED20000F9491F28091060290910702A09108023F
:10ED3000B091090280509F4FAF4FBF4F80930602A2
:10ED400090930702A0930802B0930902FFCD80ECD4
:10ED500092EE62E00F94F5F183E792EE60E00F949B
:10ED6000F5F18FE792EE60E00F94F5F18BE892EE0B
:10ED700060E00F94F5F189E992EE60E00F94F5F10F
:10ED800085EA92EE60E00F94F5F183EB92EE60E09D
:10ED90000F94F5F180EC92EE60E00F94F5F187ECC2
:10EDA00092EE60E00F94F5F188ED92EE60E00F9442
:10EDB000F5F18FED92EE60E00F94F5F18AEE92EEB0
:10EDC00060E00F94F5F183E093EEBDCD87EC92EE19
:10EDD00062E00F94F5F181E40F947BF282E40F94EA
:10EDE0007BF283E40F947BF284E40F947BF285E45E
:10EDF0000F947BF286E40F947BF287E40F947BF20E
:10EE000088E40F947BF28AE40F947BF28BE40F94F6
:10EE10007BF28CE40F947BF299CD88ED92EE62E068
:10EE20000F94F5F1772473948824992409C48FED05
:10EE300092EE62E00F94F5F140910A0250910B02BC
:10EE400060910C0270910D0282E020E10F9491F22A
:10EE500080910A0290910B02A0910C02B0910D02D8
:10EE600080509F4FAF4FBF4F80930A0290930B0289
:10EE7000A0930C02B0930D0269CD8AEE92EE62E08F
:10EE80000F94F5F184EE90EE60E00F94F5F18FECC5
:10EE900091EE60E00F94F5F1662477244301CC5D98
:10EEA000DE4F19821882C452D140D401C301B695F5
:10EEB000A79597958795CA5DDE4F88839983AA8326
:10EEC000BB83C652D140CC5DDE4FA881B981C4520C
:10EED000D1401196CC5DDE4FB983A883C452D14096
:10EEE000CD0162E070E00F9434F2B0E2B093C6005E
:10EEF0008091C00086FFFCCF8091C0008064809329
:10EF0000C000EDE2E093C6008091C00086FFFCCF18
:10EF10008091C00080648093C000F0E2F093C6004E
:10EF20008091C00086FFFCCF8091C00080648093F8
:10EF3000C000CA5DDE4FE880F9800A811B81C6529D
:10EF4000D140BB27A12F902F8F2D0F940DF2CA5DBA
:10EF5000DE4F8881C652D1400F940DF2B0E2FB2EF5
:10EF6000F092C6008091C00086FFFCCF8091C00067
:10EF700080648093C0000DE30093C6008091C000C0
:10EF800086FFFCCF8091C00080648093C00010E2B7
:10EF90001093C6008091C00086FFFCCF8091C00016
:10EFA00080648093C0008BBEF3012791C65DDE4F65
:10EFB0002883CA52D140A22EBB24CC24DD2408943D
:10EFC000611C711C811C911C8BBEF3018791282E42
:10EFD0003324442455240894611C711C811C911C09
:10EFE0008BBEF3013791C55DDE4F3883CB52D140E4
:10EFF0000894611C711C811C911C8BBEF30147910C
:10F00000C45DDE4F4883CC52D140ADEFEA2EAFEF66
:10F01000FA2EAFEF0A2FAFEF1A2F6E0C7F1C801E57
:10F02000911E142D032DF22CEE24EA0CFB1C0C1D5A
:10F030001D1D0F940DF220E22093C6008091C000A8
:10F0400086FFFCCF8091C00080648093C000C65DC5
:10F05000DE4F8881CA52D1400F940DF230E23093D6
:10F06000C6008091C00086FFFCCF8091C000806404
:10F070008093C000C45DDE4F8881CC52D1400F9494
:10F080000DF240E24093C6008091C00086FFFCCFA5
:10F090008091C00080648093C000C55DDE4F888190
:10F0A000CB52D1400F940DF250E25093C6008091A4
:10F0B000C00086FFFCCF8091C00080648093C000B8
:10F0C0008FEFE8168FEFF80680E0080780E018075A
:10F0D00031F484E092EE60E00F94C2F1DFC0D80119
:10F0E000C7018070907CA070B0708050904CA040A0
:10F0F000B040D1F52FEF3FE340E050E0E222F322B1
:10F1000004231523CA5DDE4FA880B980CA80DB8046
:10F11000C652D140AE0CBF1CC01ED11EAA0CBB1CD7
:10F12000CC1CDD1C8EE092EE60E00F94C2F1BB2798
:10F13000A12F902F8F2D0F940DF28E2D0F940DF285
:10F1400030E23093C6008091C00086FFFCCF8091F2
:10F15000C00080648093C0004EE34093C60080915D
:10F16000C00086FFFCCF87C08EE09EEFA0E0B0E03D
:10F17000E822F9220A231B239CE0E91694E9F90608
:10F1800090E0090790E0190709F088C0C45DDE4FE0
:10F19000A881CC52D140EA2EFF2400E010E0102FCD
:10F1A0000F2DFE2CEE24C55DDE4FB881CB52D14031
:10F1B000EB0EF11C011D111DD601C501817090706F
:10F1C000A070B070DC0199278827E80EF91E0A1F8D
:10F1D0001B1F20EF30E040E050E0A222B322C42207
:10F1E000D52241E1AA0CBB1CCC1CDD1C4A95D1F7F1
:10F1F000EA0CFB1C0C1D1D1D81E090E0A0E0B0E0BE
:10F20000282239224A225B2235E1220C331C441C7D
:10F21000551C3A95D1F7E20CF31C041D151D57013E
:10F220006801AA0CBB1CCC1CDD1C85E192EE60E0E1
:10F230000F94C2F1C801AA27BB270F940DF2BB2778
:10F24000A12F902F8F2D0F940DF28E2D0F940DF274
:10F2500090E29093C6008091C00086FFFCCF809121
:10F26000C00080648093C000AEE3A093C60080918C
:10F27000C00086FFFCCF8091C00080648093C000F6
:10F28000C601AA27BB270F940DF2BB27AD2D9C2DDD
:10F290008B2D0F940DF28A2D0F940DF20F94DCF14B
:10F2A000CC5DDE4FE881F981C452D140F99709F471
:10F2B0004DCBF4E0EF2EF12C012D112D6E0C7F1CA7
:10F2C000801E911EF2CD83E093EE62E00F94F5F183
:10F2D0008AE192EE60E00F94C2F18091C00087FF56
:10F2E000FCCF1091C6001F751093C6008091C0001E
:10F2F00086FFFCCF8091C00080648093C0000F9493
:10F30000DCF1812F81548A3108F036C1163409F4BA
:10F3100095C0173490F4133409F44EC0143430F40B
:10F320001134F1F0123409F01DC130C0143409F465
:10F3300059C0153409F016C16BC01A3409F4C4C0A1
:10F340001B3438F4173409F48FC0183409F00AC19B
:10F35000A1C01B3409F4D2C01C3409F003C1E8C0B9
:10F360008FEF81B90DC082B1809582B980E090E0C5
:10F37000E0EDF7E03197F1F70196883C9105C1F790
:10F380008091C00087FFEFCF12B8EFC08FEF84B934
:10F390000DC085B1809585B980E090E0E0EDF7E0A3
:10F3A0003197F1F70196883C9105C1F78091C00033
:10F3B00087FFEFCF15B8D9C08FEF87B90DC088B1DF
:10F3C000809588B980E090E0E0EDF7E03197F1F7C3
:10F3D0000196883C9105C1F78091C00087FFEFCF6F
:10F3E00018B8C3C08FEF8AB90DC08BB180958BB9A7
:10F3F00080E090E0E0EDF7E03197F1F70196883C8E
:10F400009105C1F78091C00087FFEFCF1BB8ADC059
:10F410008FEF8DB90DC08EB180958EB980E090E0F0
:10F42000E0EDF7E03197F1F70196883C9105C1F7DF
:10F430008091C00087FFEFCF1EB897C08FEF80BBD1
:10F440000DC081B3809581BB80E090E0E0EDF7E0F6
:10F450003197F1F70196883C9105C1F78091C00082
:10F4600087FFEFCF11BA81C08FEF83BB0DC084B38C
:10F47000809584BB80E090E0E0EDF7E03197F1F714
:10F480000196883C9105C1F78091C00087FFEFCFBE
:10F4900014BA6BC08FEF809301010FC080910201FD
:10F4A00080958093020180E090E0E0EDF7E03197F5
:10F4B000F1F70196883C9105C1F78091C00087FF64
:10F4C000EDCF1092020151C08FEF809304010FC065
:10F4D0008091050180958093050180E090E0E0ED4A
:10F4E000F7E03197F1F70196883C9105C1F78091DB
:10F4F000C00087FFEDCF1092050137C08FEF8093DA
:10F5000007010FC08091080180958093080180E079
:10F5100090E0E0EDF7E03197F1F70196883C910536
:10F52000C1F78091C00087FFEDCF109208011DC088
:10F530008FEF80930A010FC080910B01809580931B
:10F540000B0180E090E0E0EDF7E03197F1F70196F4
:10F55000883C9105C1F78091C00087FFEDCF1092E4
:10F560000B0103C085E292EEEEC98091C00087FFD7
:10F57000FCCF8091C600EAC988E392EEE4C98CE131
:10F5800091EEE1C988249924933011F1943028F444
:10F59000913089F09230B8F408C0953061F195301F
:10F5A000F0F0963009F048C043C02B3109F042C951
:10F5B00091E06BE13FC96227C15DDE4F2883CF52E6
:10F5C000D14092E037C9B22FA0E0622793E032C960
:10F5D000822F90E0A82BB92B622794E02BC92E3004
:10F5E00009F039C3622795E0C05DDE4F19821882A9
:10F5F000C053D1401FC9E1E0F0E0EC0FFD1FC05D3A
:10F60000DE4F08811981C053D140E00FF11F2083E4
:10F610000F5F1F4FC05DDE4F19830883C053D14079
:10F6200062270A171B0709F005C9D80196E002C92D
:10F63000261709F010C303C0973009F0FBC87724E0
:10F640009981933109F412C19431C8F4963009F4C8
:10F65000D8C0973050F4923009F406C1933009F4C1
:10F660006DC0913009F059C253C0913109F477C08F
:10F67000923108F0BBC0903109F04FC2F5C098310B
:10F6800009F487C0993150F4953109F4EFC09531F0
:10F6900008F4C6C1963109F040C2C2C19A3109F4DA
:10F6A0006CC09A3108F491C09B3109F45BC09D3164
:10F6B00009F033C29D81903359F48F81882311F46E
:10F6C0009EE11CC0813011F091E018C098E916C08D
:10F6D000892F807591F0903539F4E0E0F0E089E011
:10F6E0008093570094910AC0983539F4E3E0F0E034
:10F6F00089E080935700949101C090E01A821B82A8
:10F700008D818C831D829E831F8227E030E009C299
:10F710001A8288E08B8381E48C8386E58D8382E581
:10F720008E8389E48F8383E5888780E589878FE5E9
:10F730008A8782E38B872BE030E0F3C18A818139AD
:10F7400041F0823941F0803911F48FE005C080E04A
:10F7500003C082E001C08AE01A828B8344C0772410
:10F76000739482C08D81882311F48EE12CC0813086
:10F7700011F081E028C088E926C01A82E1E0F0E0BB
:10F7800089E08093570084918B831C8224E030E0D1
:10F79000C8C18B81803589F48C81883039F4E2E0EE
:10F7A000F0E089E08093570084910DC0E0E0F0E044
:10F7B00089E080935700849106C0E3E0F0E089E09F
:10F7C0008093570084911A82DFCF8D81836C99E0FA
:10F7D000E1E0F0E0082E90935700E89507B600FCB2
:10F7E000FDCF1A821B8223E030E09BC180EC8A832C
:10F7F000CE5CDE4F188219821A821B82C253D1401E
:10F800008EC18A8190E0A0E0B0E0582F44273327D2
:10F8100022278B8190E0A0E0B0E0DC0199278827C7
:10F82000282B392B4A2B5B2B8D8190E0A0E0B0E098
:10F83000282B392B4A2B5B2B8C8190E0A0E0B0E089
:10F84000BA2FA92F982F8827282B392B4A2B5B2BCF
:10F85000220F331F441F551FC05EDE4F288339839C
:10F860004A835B83C052D1401A8259C13A81C95C34
:10F87000DE4F3883C753D140CA5CDE4F1882C6536F
:10F88000D1408B81C82EDD24CA5CDE4F488159816E
:10F89000C653D140C42AD52A933109F082C0CE5C28
:10F8A000DE4F88819981AA81BB81C253D1408050AB
:10F8B000904CA340B04030F583E0CE5CDE4FE88052
:10F8C000F9800A811B81C253D140F70100935B008C
:10F8D00080935700E89507B600FCFDCFCE5CDE4F65
:10F8E000088119812A813B81C253D14000501F4FAA
:10F8F0002F4F3F4FCE5CDE4F088319832A833B8313
:10F90000C253D140C05EDE4F488159816A817B81FC
:10F91000C052D140DE011B9631E08C9111962C91A2
:10F9200011971296C75CDE4F2883C953D140C85C3B
:10F93000DE4F1882C853D14090E0C85CDE4FE881AA
:10F94000F981C853D1408E2B9F2B0C01FA01609393
:10F950005B0030935700E89511244E5F5F4F6F4F67
:10F960007F4F0EEFE02E0FEFF02ECE0CDF1CC114F8
:10F97000D10499F685E0C05EDE4F088119812A81A5
:10F980003B81C052D140F80120935B008093570027
:10F99000E89507B600FCFDCF81E180935700E8951C
:10F9A00035C0C05EDE4F88819981AA81BB81C0527B
:10F9B000D140B695A795979587957C018601ABE0D8
:10F9C000AA2EB12CAC0EBD1E0BC0D5016D915D01F0
:10F9D000C7010F947FFE0894E11CF11C01501040F8
:10F9E0000115110591F7A60160E070E0440F551F65
:10F9F000661F771FC05EDE4FE880F9800A811B8199
:10FA0000C052D1404E0D5F1D601F711F1A82C05E33
:10FA1000DE4F488359836A837B83C052D1407FC0C5
:10FA2000FA80C55CDE4FF882CB53D140C65CDE4F16
:10FA30001882CA53D1408B81C82EDD24C65CDE4FAC
:10FA400008811981CA53D140C02AD12A1A828981DA
:10FA5000BE016D5F7F4F843121F59601C05EDE4FA0
:10FA6000E880F9800A811B81C052D1400BBFF701A9
:10FA700087919691DB018C9311969C936E5F7F4FDB
:10FA8000D801C7010296A11DB11DC05EDE4F88835B
:10FA90009983AA83BB83C052D14022503040F1F6F3
:10FAA00036C0C05EDE4F288139814A815B81C052F9
:10FAB000D1400894C108D108760100E010E0089414
:10FAC000C11CD11C0894E11CF11C011D111DE20E8A
:10FAD000F31E041F151F21BDBB27A52F942F832FB5
:10FAE00082BD2F5F3F4F4F4F5F4FF89A80B5DB01CC
:10FAF0008D93BD012E153F054007510761F7C05E8C
:10FB0000DE4F288339834A835B83C052D1409601FC
:10FB10002D5F3F4FFB01108204C080EC8A8322E0FE
:10FB200030E08BE18093C6008091C00086FFFCCF5F
:10FB30008091C00080648093C000C15DDE4FF88179
:10FB4000CF52D140F093C6008091C00086FFFCCF19
:10FB50008091C00080648093C000432F3093C60022
:10FB60008091C00086FFFCCF8091C00080648093AC
:10FB7000C000922F2093C6008091C00086FFFCCF6A
:10FB80008091C00080648093C0008EE08093C600A6
:10FB90008091C00086FFFCCF8091C000806480937C
:10FBA000C00065E1C15DDE4FE880CF52D1406E25D7
:10FBB00069276427FE01319610C090819093C6009A
:10FBC0008091C00086FFFCCF31968091C000806498
:10FBD0008093C0006927215030402115310569F715
:10FBE0006093C6008091C00086FFFCCF8091C0006A
:10FBF00080648093C00085B1805885B9772081F4F6
:10FC0000C15DDE4F0881CF52D1400F5FC15DDE4F35
:10FC10000883CF52D14090E0A0E0B0E00D941AF4F8
:10FC200027982F9880E090E020ED37E0F901319798
:10FC3000F1F7019684369105C9F700008091C00064
:10FC40008D7F8093C00081E180935700E895EE2777
:10FC5000FF270994FFCF90E00D941AF497FB092E2B
:10FC600007260AD077FD04D02ED006D000201AF443
:10FC7000709561957F4F0895F6F7909581959F4F08
:10FC80000895A1E21A2EAA1BBB1BFD010DC0AA1FDD
:10FC9000BB1FEE1FFF1FA217B307E407F50720F0F5
:10FCA000A21BB30BE40BF50B661F771F881F991F70
:10FCB0001A9469F760957095809590959B01AC01B9
:10FCC000BD01CF010895AA1BBB1B51E107C0AA1FAC
:10FCD000BB1FA617B70710F0A61BB70B881F991FED
:10FCE0005A95A9F780959095BC01CD010895F99991
:10FCF000FECF92BD81BDF89A992780B50895262F31
:10FD0000F999FECF1FBA92BD81BD20BD0FB6F89400
:0EFD1000FA9AF99A0FBE01960895F894FFCF63
:040000033000E000E9
:00000001FF
