:1000000041C1000070C100006EC100006CC1000061
:100010006AC1000068C1000066C1000064C1000040
:1000200062C1000060C100005EC100005CC1000050
:100030005AC1000058C1000056C1000054C1000060
:1000400052C1000050C100004EC100004CC1000070
:100050004AC1000048C1000046C100000C943209AA
:1000600042C1000061C3000036C300003CC1000073
:100070003AC1000038C1000036C1000034C10000A0
:1000800032C1000030C100002EC100002CC10000B0
:100090002AC1000028C1000026C100007BC3000067
:1000A00022C1000020C100001EC100001CC10000D0
:1000B0001AC1000018C1000016C1000014C10000E0
:1000C00012C1000010C100000EC100000CC10000F0
:1000D0000AC1000008C1000006C1000004C1000000
:1000E00002C1000029062C061B061F062506630612
:1000F000300634063A063E06420648064C065006CE
:10010000630656065A065E0608000000BE922449A1
:10011000123EABAAAA2ABECDCCCC4C3E0000008039
:10012000BEABAAAAAA3E00000000BF000000803FAC
:100130000000000000084178D3BB4387D1133D196C
:100140000E3CC3BD4282AD2B3E68EC8276BED98F99
:10015000E1A93E4C80EFFFBE01C4FF7F3F000000DD
:10016000000000002100240027002A002D0030009C
:10017000330001010000040107010A010000220010
:10018000250028002B002E00310034000201000061
:10019000050108010B0100002000230026002900B2
:1001A0002C002F00320000010000030106010901AC
:1001B00005050505070508080808020202020A0AE3
:1001C0000808040404040101010101010101030301
:1001D000030303030303040707070C0C0C0C0C0CAC
:1001E0000C0C0202020206060606060606060B0BA9
:1001F0000B0B0B0B0B0B01021020200808102040EA
:1002000010204080020102010804020101020408DA
:100210001020408080402010080402018004020168
:1002200080402010080402010804020101020408B1
:1002300010204080010204081020408000000A0BBA
:1002400002090C0D0E080703040100000000000065
:10025000000000000000000000000000000000009E
:10026000000000000000000012111000000000005B
:10027000000000000000000000000000000000007E
:100280000000FC1211241FBECFEFD1E2DEBFCDBFB4
:1002900000E00CBF12E0A0E0B2E0E8E6FCE200E023
:1002A0000BBF02C007900D92AA36B107D9F724E020
:1002B000AAE6B2E001C01D92A830B207E1F711E052
:1002C000C2E4D1E000E006C021970109802FFE01C1
:1002D0000E942616C134D10780E00807A9F70E94C2
:1002E0007C090C9432168CCECF92DF92EF92FF9263
:1002F0000F931F93CF93DF936C017A018B01C0E0C2
:10030000D0E0CE15DF0581F0D8016D918D01D601C9
:10031000ED91FC910190F081E02DC6011995892B9A
:1003200011F02196EECF7E01C701DF91CF911F9191
:100330000F91FF90EF90DF90CF900895FC01538DC7
:10034000448D252F30E0842F90E0821B930B5417AF
:1003500010F0CF96089501970895FC01918D828D3C
:10036000981761F0828DDF01A80FB11D5D968C9109
:10037000928D9F5F9F73928F90E008958FEF9FEF14
:100380000895FC01918D828D981731F0828DE80FD0
:10039000F11D858D90E008958FEF9FEF0895FC018A
:1003A000918D228D892F90E0805C9F4F821B910957
:1003B0008F739927089584E493E0F1DF21E0892B7E
:1003C00009F420E0822F0895FC01848DDF01A80F3D
:1003D000B11DA35ABF4F2C91848D90E001968F736D
:1003E0009927848FA689B7892C93A089B1898C918C
:1003F000837080648C93938D848D981306C00288DB
:10040000F389E02D80818F7D80830895EF92FF92A4
:100410000F931F93CF93DF93EC0181E0888F9B8D27
:100420008C8D981305C0E889F989808185FD25C0E8
:10043000F62E0B8D10E00F5F1F4F0F731127E02E6C
:100440008C8DE8120BC00FB607FCFACFE889F9894A
:10045000808185FFF5CFCE01B7DFF2CF8B8DFE0116
:10046000E80FF11DE35AFF4FF0829FB7F8940B8F0E
:10047000EA89FB89808180620AC09FB7F894EE897F
:10048000FF896083E889F989808183708064808333
:100490009FBF81E090E0DF91CF911F910F91FF907E
:1004A000EF900895CF93DF93EC01888D8823C1F0FE
:1004B000EA89FB89808185FD05C0A889B9898C916D
:1004C00086FD0EC00FB607FCF5CF808185FFF2CF09
:1004D000A889B9898C9185FFEDCFCE0175DFE8CF72
:1004E000DF91CF91089580E090E0892B19F063DFD0
:1004F000811125C080E090E0892B41F080E090E000
:10050000892B21F00E94000081111CC080E090E046
:10051000892B41F080E090E0892B21F00E940000BF
:10052000811113C080E090E0892BA1F080E090E081
:10053000892B81F00E94000081110AC008950E9459
:100540000000D8CF0E940000E1CF0E940000EACF57
:100550000C940000089585ED8093BC008091BC0050
:1005600084FDFCCF10921F0308954091CE02262FE8
:1005700030E0240F311D21323105DCF420911F03BE
:100580002430C9F4FC0180E090E0861758F43091E3
:10059000CE022191DC01A255BD4FA30FB11D2C93BA
:1005A0000196F3CF8091CE02680F6093CE0280E077
:1005B000089581E0089582E00895089508950895CA
:1005C000E0916F0280916E02E81730F4F0E0E2579C
:1005D000FD4F808190E008958FEF9FEF08959091F7
:1005E0006F0280916E02981750F4E92FF0E0E25705
:1005F000FD4F208130E09F5F90936F0202C02FEF8C
:100600003FEFC901089580916E0290E020916F0242
:10061000821B91090895CF92DF92EF92FF920F9380
:100620001F93CF93DF937C01CB018A01209120039C
:10063000222389F0EB016B01C40ED51ECC15DD051C
:1006400061F06991D701ED91FC910190F081E02D6D
:10065000C7011995F3CF642F88DFC801DF91CF91CF
:100660001F910F91FF90EF90DF90CF900895CF935F
:10067000DF931F92CDB7DEB7698320912003222339
:10068000D1F020914303203240F021E030E0FC0122
:100690003383228380E090E014C080912103E82F0F
:1006A000F0E0EE5DFC4F998190838F5F8093210392
:1006B0008093430304C061E0CE01019656DF81E0E0
:1006C00090E00F90DF91CF910895089580E090E041
:1006D00008950E942E161F920F920FB60F921124AA
:1006E0000BB60F922F933F934F935F936F937F932C
:1006F0008F939F93AF93BF93EF93FF9384E493E023
:1007000063DEFF91EF91BF91AF919F918F917F91A8
:100710006F915F914F913F912F910F900BBE0F9072
:100720000FBE0F901F9018951F920F920FB60F9249
:1007300011240BB60F922F938F939F93EF93FF93F8
:10074000E0915403F09155038081E0915A03F091B8
:100750005B0382FD12C0908180915D038F5F8F7378
:1007600020915E03821751F0E0915D03F0E0EC5BB5
:10077000FC4F958F80935D0301C08081FF91EF91C5
:100780009F918F912F910F900BBE0F900FBE0F90E6
:100790001F9018951F920F920FB60F9211240BB64F
:1007A0000F922F933F934F935F936F937F938F930A
:1007B0009F93AF93BF93EF93FF938091B900887F8E
:1007C000803609F49CC068F5883209F45BC090F467
:1007D000803109F454C038F4882309F4F6C0883015
:1007E00009F44DC0F5C0883109F44CC0803209F4D9
:1007F0005DC0EEC0803409F468C048F4803309F469
:1008000055C0883309F0E4C080931D03D8C08035FB
:1008100009F44FC0883509F45DC0883409F0D8C0A8
:10082000D6C0883909F4C7C0A8F4883709F467C06E
:1008300038F4883609F463C0803709F460C0C8C052
:10084000883809F4B8C0803909F45FC0803809F0ED
:10085000BFC05BC0803B09F486C038F4803A09F41D
:1008600066C0883A09F47FC0B3C0803C09F4A7C0D1
:10087000883C09F4A4C0883B09F48AC0A9C08091CF
:10088000FA0210C090911C0380911B03981770F519
:10089000E0911C0381E08E0F80931C03F0E0E55093
:1008A000FD4F80818093BB0085EC86C080931D0343
:1008B0008EC0E0911C0381E08E0F80931C03809119
:1008C000BB00F0E0E550FD4F808390911C038091C8
:1008D0001B036EC0E0911C0381E08E0F80931C030C
:1008E0008091BB00F0E0E550FD4F808380911E03B6
:1008F00081116DC081E08093F90284EA61C083E0D8
:1009000080931F031092F002CFCF8091F0028032CB
:1009100008F051C0E091F00281E08E0F8093F00268
:100920008091BB00F0E0E053FD4F8083BDCF85ECAC
:100930008093BC0010921F038091F002803230F44B
:10094000E091F002F0E0E053FD4F10826091F00280
:1009500070E0E0916A02F0916B0280ED92E01995EF
:100960001092F00235C084E080931F031092CF02F2
:100970001092CE02E0916C02F0916D021995809177
:10098000CE02811105C081E08093CE021092AE02AA
:10099000E091CF0281E08E0F8093CF02F0E0E2552C
:1009A000FD4F80818093BB009091CF028091CE0259
:1009B000981708F479CF85E88093BC0009C085ECCE
:1009C0008093BC0010921F0303C010921D03C3DD6F
:1009D000FF91EF91BF91AF919F918F917F916F9117
:1009E0005F914F913F912F910F900BBE0F900FBED3
:1009F0000F901F9018958F929F92AF92BF92CF92B7
:100A0000DF92EF92FF9280917B00877F80937B0043
:100A100080E480937C0080917A00806480937A00E7
:100A200080917A0086FDFCCF6091780080917900FA
:100A300070E0782B072E000C880B990B0E945D1438
:100A40002AE038E240EA5BE30E9456159B01AC01C4
:100A500060E070E088E492E40E94C21320E030E09D
:100A600040E251E40E94591320E030E04AE754E4A8
:100A70000E9456150E9416156B017C019B01AC016A
:100A80000E945615A70196010E94561526EB36EADC
:100A900049E254E30E9456154B015C012BE83BE40C
:100AA0004AE759E3C701B6010E9456152CE234E427
:100AB00047E85AE30E945A139B01AC01C501B401F7
:100AC0000E945A139B01AC0160E070E080E89FE354
:100AD0000E94C21323E333E948E853E40E94591308
:100AE0006B017C0182E492E014D180910602909126
:100AF00007020197D1F5C701B6015CD182E592E00A
:100B000008D186E592E005D1C701B6010E942A14FA
:100B10006B017C01EAE0F0E0CB01BF010E94F0151F
:100B20009C01CB01BF010E94F015FC01E25FFD4F6B
:100B3000808190E09093EE038093ED03F901E25FF2
:100B4000FD4F808190E09093F0038093EF0383E664
:100B500090E09093F4038093F30389E390E0909303
:100B6000F6038093F5034BD24EC08091060290911C
:100B70000702029709F049C026E636E646EE5FE333
:100B8000C701B6010E94561520E030E040E052E473
:100B90000E945A134B015C010E942A146B017C01D4
:100BA000EAE0F0E0CB01BF010E94F0159C01CB010F
:100BB000BF010E94F015FC01E25FFD4F808190E0D3
:100BC0009093EE038093ED03F901E25FFD4F808186
:100BD00090E09093F0038093EF0383E690E090938E
:100BE000F4038093F30381E790E09093F6038093FE
:100BF000F50305D2C501B401DDD089E592E089D0C5
:100C000086E592E086D0C60100C0FF90EF90DF90AD
:100C1000CF90BF90AF909F908F90089590E0FC018F
:100C20003197E231F10508F04EC08827EE58FF4FAA
:100C30008F4F0C942616809180008F7703C080918F
:100C400080008F7D80938000089580918000877F51
:100C5000F9CF84B58F7702C084B58F7D84BD0895A8
:100C60008091B0008F7703C08091B0008F7D80931A
:100C7000B0000895809190008F7707C08091900018
:100C80008F7D03C080919000877F809390000895AE
:100C90008091A0008F7707C08091A0008F7D03C056
:100CA0008091A000877F8093A0000895809120010B
:100CB0008F7707C0809120018F7D03C08091200134
:100CC000877F8093200108953FB7F8948091F502C3
:100CD0009091F602A091F702B091F80226B5A89B78
:100CE00005C02F3F19F00196A11DB11D3FBFBA2FBE
:100CF000A92F982F8827820F911DA11DB11DBC011E
:100D0000CD0142E0660F771F881F991F4A95D1F7E2
:100D10000895009761F0FC0101900020E9F73197F8
:100D2000AF01481B590BBC0184E493E0DDCA80E0AD
:100D300090E008958F929F92AF92BF920F931F936E
:100D4000CF93DF93CDB7DEB7A1970FB6F894DEBF90
:100D50000FBECDBF19A2423008F44AE08E010F5DEC
:100D60001F4F842E912CA12CB12CA50194010E941F
:100D70000416E62FB901CA0101501109EA3014F432
:100D8000E05D01C0E95CD801EC93232B242B252BDB
:100D900061F7C801BEDFA1960FB6F894DEBF0FBEA3
:100DA000CDBFDF91CF911F910F91BF90AF909F90DA
:100DB0008F9008954F925F926F927F928F929F9241
:100DC000AF92BF92CF92DF92EF92FF926B017C01C4
:100DD0009B01AC010E94B915882319F08DE592E0C2
:100DE00027C046015701E894B7F82FEF3FEF4FE7D0
:100DF0005FE7C501B4010E94B91581110DC02FEF45
:100E00003FEF4FE75FE7C501B4010E94BE1318161C
:100E10001CF481E692E00CC02FEF3FEF4FE75FE458
:100E2000C701B6010E940D1518167CF485E692E004
:100E3000FF90EF90DF90CF90BF90AF909F908F90FA
:100E40007F906F905F904F9064CF2FEF3FEF4FE711
:100E50005FECC701B6010E94BE1387FDE7CF20E01B
:100E600030E0A901C701B6010E94BE1387FF0AC086
:100E70006DE284E493E0CADA5C01F7FAF094F7F8E3
:100E8000F09402C0A12CB12C2AE037ED43EA5BE3D9
:100E9000C701B6010E945A132B013C010E942F1476
:100EA0006B017C010E945B149B01AC01C301B20188
:100EB0000E9459132B013C014AE0C701B6013ADFF9
:100EC0007C01EA0CFB1C6EE284E493E09FDAE80EFE
:100ED000F91E20E030E040E251E4C301B2010E947B
:100EE00056152B013C010E942F144B01A12CB12C53
:100EF0004AE0C501B4011EDFE80EF91EC501B401C8
:100F00000E945B149B01AC01C301B2010E94591302
:100F100020E030E040E251E40E9456150E942F1478
:100F200080E090E04AE006DF8E0D9F1DFF90EF907D
:100F3000DF90CF90BF90AF909F908F907F906F90F9
:100F40005F904F90089530914303313208F04BC0C9
:100F500080911F038111FCCF9091420322E02093E6
:100F60001F0321E020931E032FEF20931D031092F7
:100F70001C0330931B03E2E2F3E0ABEFB2E020E0AE
:100F8000321721F041914D932F5FFACF1092FA0260
:100F90002091FA02990F922B9093FA029091F90204
:100FA000913061F41092F9029091FA029093BB0093
:100FB0009091BC0093FDF8CF95EC01C095EE909315
:100FC000BC0090911F039230E1F390911D039F3F6D
:100FD00079F080911D03803241F080911D038033B0
:100FE00031F084E005C081E003C082E001C083E00D
:100FF00010922103109243031092200308950F933F
:101000001F93CF93DF938091FD0391E09093200392
:1010100080934203109221031092430360E081EE1B
:1010200093E025DBCDEED3E08E01688181EE93E085
:101030001EDB2296F801618181EE93E018DBF3E07C
:10104000CD3FDF0789F7DF91CF911F910F917BCFC4
:101050009091FD0321E0209320039093420310928E
:10106000210310924303843008F080E0682F70E081
:10107000660F771F616881EE93E0F9DA64CFEDEED9
:10108000F3E01192119283E0ED3FF807D1F7089554
:101090009091FD0321E0209320039093420310924E
:1010A000210310924303803108F08FE0682F606EB7
:1010B00081EE93E0DCDA47CFCF93DF93282F30E047
:1010C000F901E45CFD4F8491F901EA50FE4FD4919F
:1010D000F901E055FE4FC491CC2389F081119EDDCA
:1010E000EC2FF0E0EE0FFF1FEA56FE4FA591B491F2
:1010F000EC91ED2381E090E021F480E002C080E0FB
:1011000090E0DF91CF9108951F93CF93DF93282F25
:1011100030E0F901E45CFD4F8491F901EA50FE4FA3
:10112000D491F901E055FE4FC491CC23B9F0162FAC
:10113000811174DDEC2FF0E0EE0FFF1FE458FE4F3D
:10114000A591B4919FB7F894111104C08C91D095DA
:10115000D82302C0EC91DE2BDC939FBFDF91CF91AF
:101160001F910895CF93DF9390E0FC01EA50FE4F6A
:101170002491FC01E055FE4F8491882361F190E0B9
:10118000880F991FFC01EE59FE4FC591D491FC01C7
:10119000E458FE4FA591B491611109C09FB7F8942E
:1011A0008881209582238883EC912E230BC06230A6
:1011B00061F49FB7F8948881322F30958323888318
:1011C000EC912E2B2C939FBF06C08FB7F894E8812B
:1011D0002E2B28838FBFDF91CF9108958F929F92FE
:1011E000AF92BF92CF92DF92EF92FF926B017C01A0
:1011F0006BDD4B015C01C114D104E104F104E9F0A1
:1012000063DDDC01CB0188199909AA09BB09883E75
:101210009340A105B10578F321E0C21AD108E10895
:10122000F10888EE880E83E0981EA11CB11CC11441
:10123000D104E104F10421F7DECFFF90EF90DF90BD
:10124000CF90BF90AF909F908F9008952FB7F89454
:101250006091F1027091F2028091F3029091F40298
:101260002FBF08951F920F920FB60F9211242F9344
:101270003F938F939F93AF93BF938091F10290918F
:10128000F202A091F302B091F4023091070423E03E
:10129000230F2D3720F40196A11DB11D05C026E8AE
:1012A000230F0296A11DB11D209307048093F10224
:1012B0009093F202A093F302B093F4028091F502AE
:1012C0009091F602A091F702B091F8020196A11D4B
:1012D000B11D8093F5029093F602A093F702B093AC
:1012E000F802BF91AF919F918F913F912F910F90F5
:1012F0000FBE0F901F901895CF93DF931F921F92F0
:10130000CDB7DEB7789484B5826084BD84B5816042
:1013100084BD85B5826085BD85B5816085BD8091C0
:101320006E00816080936E00109281008091810038
:101330008260809381008091810081608093810030
:10134000809180008160809380008091B1008460F2
:101350008093B1008091B00081608093B000809153
:1013600091008260809391008091910081608093D0
:101370009100809190008160809390008091A10005
:1013800082608093A1008091A10081608093A10080
:101390008091A00081608093A000809121018260F3
:1013A00080932101809121018160809321018091AE
:1013B000200181608093200180917A008460809375
:1013C0007A0080917A00826080937A0080917A001E
:1013D000816080937A0080917A00806880937A009F
:1013E0001092C100E0915403F091550382E0808394
:1013F000E0915003F09151031082E0915203F0917B
:10140000530380E1808310925C03E0915803F091D4
:10141000590386E08083E0915603F0915703808161
:1014200080618083E0915603F0915703808188604A
:101430008083E0915603F091570380818068808318
:10144000E0915603F091570380818F7D808362E0A5
:1014500088E288DE62E084E285DE62E08AE282DEA3
:1014600060E086E37FDE60E087E37CDE61E08EE1C2
:1014700079DE61E08DE276DE61E08EE273DE61E0CE
:101480008FE170DE61E08AE16DDE61E086E16ADEB7
:1014900061E088E167DE61E080E064DE61E080E0D9
:1014A00061DE61E08AE130DE61E088E12DDE61E04D
:1014B00086E12ADE80E78093FD0310926F0210928E
:1014C0006E02109221031092430310921F0321E039
:1014D00020931E031092F90261E084E115DE61E0C1
:1014E00085E112DE8091B9008E7F8093B9008091F2
:1014F000B9008D7F8093B90088E48093B80085E4BB
:101500008093BC008DED92E090936D0280936C020D
:101510008EED92E090936B0280936A028091FD03BE
:1015200031E0309320038093420310922103109204
:10153000430361E281EE93E09AD805DDA0DD5FDD33
:1015400080E086DD8FE0A4DD56DA03E610E089E373
:10155000482E512C91E7692E712C78DE6B017C01AD
:1015600080918A0290918B02A0918C02B0918D02A1
:10157000A7019601281B390B4A0B5B0BDA01C90145
:10158000883E9340A105B10508F467C15FDE209154
:101590008602309187024091880250918902621B35
:1015A000730B840B950B28EE33E040E050E00E9473
:1015B0000416CA01B9014AE0BDDBC0928A02D0928A
:1015C0008B02E0928C02F0928D0215DABC01990F29
:1015D000880B990B0E945D146B017C0180910602BF
:1015E00090910702019709F0A2C0209174023091F6
:1015F00075024091760250917702C701B6010E94B0
:10160000591320E030E0A9010E940D1587FD04C0A8
:1016100081E08093710216C02091740230917502AE
:101620004091760250917702C701B6010E9459138A
:1016300020E030E040EA50EC0E94BE1387FF0AC071
:101640001092710280917102811111C0809171021A
:1016500081116DC061E08DE285DD60E08DE254DDD9
:1016600061E08EE27FDD60E08EE24EDDF6C08091CB
:101670007002811124C061E08DE274DD61E08DE2D1
:1016800043DD61E08EE26EDD60E08EE23DDD2091C3
:101690007402309175024091760250917702C70131
:1016A000B6010E94591320E030E040E85FEB0E9451
:1016B000BE138111CBCF81E080937002C7CF8091A0
:1016C0007002882309F4C2CF61E08DE24BDD60E057
:1016D0008DE21ADD61E08EE245DD60E08EE214DD30
:1016E00020917402309175024091760250917702F8
:1016F000C701B601DED720E030E040E85FE30E949A
:10170000BE13882309F40DC720917402309175022D
:101710004091760250917702C701B601CAD720E006
:1017200030E0A9010E940D1587FFFBC68FCF809185
:10173000060290910702029709F08FC020910002E3
:10174000309101024091020250910302C701B6019B
:10175000B0D720E030E0A9010E940D1587FD04C03C
:1017600081E08093710214C0209100023091010247
:101770004091020250910302C701B6019AD720E0BE
:1017800030E040E251ECFAD787FF64CF109271024B
:1017900080917102882309F45BC0809170028111ED
:1017A00022C061E08DE2DEDC61E08DE2ADDC61E073
:1017B0008EE2D8DC60E08EE2A7DC2091000230915E
:1017C00001024091020250910302C701B60171D794
:1017D00020E030E040E85FEBD1D7811139C081E0F3
:1017E0008093700235C080917002882389F161E096
:1017F0008DE2B8DC60E08DE287DC61E08EE2B2DC95
:1018000060E08EE281DC2091000230910102409183
:10181000020250910302C701B6014BD720E030E02D
:1018200040E85FE3ABD7882309F47EC6209100022D
:10183000309101024091020250910302C701B601AA
:1018400038D720E030E0A9010E940D1587FF6CC653
:1018500080917102882309F4FDCE84E22DDC892B6E
:1018600009F056C684E228DC9093850280938402B6
:10187000209182023091830280910C0290910D029E
:101880002817390789F0E2DC60937E0270937F02AB
:1018900080938002909381028091820290918302D2
:1018A00090930D0280930C02D1DCC0907E02D09008
:1018B0007F02E0908002F09081026C197D098E0910
:1018C0009F09F9D720E030E040E05FE30E940D156A
:1018D00018160CF01DC6BADC6B017C01332433945E
:1018E0002224239441E04A8351E0598384E2E4DBDB
:1018F000892B09F045C0AADCDC01CB018C199D09BC
:10190000AE09BF09893E9340A105B10570F4398144
:10191000332391F1B4DB73DB46E850E05093F003DE
:101920004093EF036CDB198227C090DCDC01CB0114
:101930008C199D09AE09BF09813D9740A105B105EC
:1019400008F0F5C583DCDC01CB018C199D09AE09DB
:10195000BF09893E9340A105B10508F4E8C54A8155
:10196000442351F08CDB4BDB4BED50E05093F00304
:101970004093EF0344DB1A8269DC4B015C01B6CF74
:10198000D501C4018C199D09AE09BF09893E33E018
:101990009307A105B10508F02FC26AEF70E080E05F
:1019A00090E01CDC6CDB82E053DB29DB80910602DB
:1019B00090910702019779F5609174027091750218
:1019C000809176029091770245D7CB016AE070E072
:1019D0000E94F0159C01CB016AE070E00E94F015B6
:1019E000FC01E25FFD4F808190E09093EE038093D5
:1019F000ED03F901E25FFD4F808190E09093F003E9
:101A00008093EF031093F4030093F3035092F603D3
:101A10004092F50334C0809106029091070202972C
:101A200079F560910002709101028091020290911B
:101A3000030210D7CB016AE070E00E94F0159C0110
:101A4000CB016AE070E00E94F015FC01E25FFD4FFF
:101A5000808190E09093EE038093ED03F901E25FC3
:101A6000FD4F808190E09093F0038093EF031093FB
:101A7000F4030093F3037092F6036092F503BFDA68
:101A800084E21ADB019709F036C588E215DB9093F2
:101A90008302809382028AE20FDB90937D0280931F
:101AA0007C028091820290918302892B09F0E6C02A
:101AB000209182023091830280910C0290910D025C
:101AC0002817390789F0C2DB60937E0270937F028A
:101AD0008093800290938102809182029091830290
:101AE00090930D0280930C02B1DBC0907E02D090E7
:101AF0007F02E0908002F09081026C197D098E09CE
:101B00009F09D9D620E030E040E05FE386D7181681
:101B10000CF0B4C08091060290910702019709F081
:101B200054C0609174027091750280917602909118
:101B3000770220E030E040EA52E420D6882309F41E
:101B40009DC06091740270917502809176029091AF
:101B5000770220E030E040E85FE3ACD560937402A8
:101B6000709375028093760290937702609174026D
:101B70007091750280917602909177026BD6CB01BD
:101B80006AE070E00E94F0159C01CB016AE070E011
:101B90000E94F015FC01E25FFD4F808190E0909380
:101BA000EE038093ED03F901E25FFD4F808190E049
:101BB0009093F0038093EF031093F4030093F303E7
:101BC0005092F6034092F50358C08091060290911E
:101BD0000702029709F052C0609100027091010261
:101BE000809102029091030220E030E040E353E450
:101BF000C5D5882309F442C06091000270910102AA
:101C0000809102029091030220E030E040E85FE31F
:101C100051D5609300027093010280930202909369
:101C20000302609100027091010280910202909182
:101C3000030210D6CB016AE070E0D2D79C01CB0141
:101C40006AE070E0CDD7FC01E25FFD4F808190E05B
:101C50009093EE038093ED03F901E25FFD4F8081E5
:101C600090E09093F0038093EF031093F4030093BC
:101C7000F3037092F6036092F503C1D980917C0260
:101C800090917D02892B09F0B1C08091060290915C
:101C90000702019709F051C06091740270917502BA
:101CA000809176029091770220E030E0A90166D51C
:101CB000882309F49BC06091740270917502809131
:101CC00076029091770220E030E040E85FE3F1D4C3
:101CD00060937402709375028093760290937702FA
:101CE00060917402709175028091760290917702F2
:101CF000B1D5CB016AE070E073D79C01CB016AE0FB
:101D000070E06ED7FC01E25FFD4F808190E0909320
:101D1000EE038093ED03F901E25FFD4F808190E0D7
:101D20009093F0038093EF031093F4030093F30375
:101D30005092F6034092F50358C0809106029091AC
:101D40000702029709F052C06091000270910102EF
:101D5000809102029091030220E030E040E052E4E2
:101D60000DD5882309F442C06091000270910102F0
:101D7000809102029091030220E030E040E85FE3AE
:101D800098D46093000270930102809302029093B2
:101D90000302609100027091010280910202909111
:101DA000030258D5CB016AE070E01AD79C01CB0141
:101DB0006AE070E015D7FC01E25FFD4F808190E0A2
:101DC0009093EE038093ED03F901E25FFD4F808174
:101DD00090E09093F0038093EF031093F40300934B
:101DE000F3037092F6036092F50309D96AEF70E08D
:101DF00080E090E0F3D944CEAC01BD01495E534090
:101E000061097109483E53406105710508F017C129
:101E10006AEF70E080E090E0E1D931D982E018D932
:101E2000E0917202F0917302FF27E25FFD4F808123
:101E300090E09093F6038093F503E1D884E23CD9D7
:101E4000019709F058C388E237D9909383028093B1
:101E500082028AE231D990937D0280937C02809144
:101E6000820290918302892B11F0F12C50C02091B5
:101E700082023091830280910C0290910D0228170A
:101E8000390789F0E3D960937E0270937F028093D3
:101E900080029093810280918202909183029093BC
:101EA0000D0280930C02D2D9C0907E02D0907F02A6
:101EB000E0908002F09081026C197D098E099F09E3
:101EC000FAD420E030E040E05FE3A7D518166CF6C6
:101ED0008091720290917302049739F2809172029C
:101EE0009091730201969093730280937202E09135
:101EF0007202F0917302FF27E25FFD4F808190E054
:101F00009093F6038093F5037AD8FF24F39480919D
:101F10007C0290917D02892B09F050C020917C02B7
:101F200030917D02809108029091090228173907AB
:101F300089F08CD9609378027093790280937A0249
:101F400090937B0280917C0290917D029093090294
:101F5000809308027BD920917802309179024091D8
:101F60007A0250917B02621B730B840B950BA3D4F6
:101F700020E030E040E05FE350D51816FCF480919B
:101F8000720290917302892BC9F080917202909134
:101F9000730201979093730280937202E091720230
:101FA000F0917302FF27E25FFD4F808190E09093F4
:101FB000F6038093F50323D8FF24F3946AEF70E0CF
:101FC00080E090E00BD9FF2009F438CFE090720256
:101FD000F090730261E08AE197D861E088E194D8DB
:101FE00061E086E191D8E114F10441F461E08AE115
:101FF0008BD861E088E188D861E01EC031E0E3164B
:10200000F10419F460E08AE118C042E0E416F1043A
:1020100019F460E088E111C053E0E516F10459F0CD
:1020200084E0E816F10409F009CF60E08AE16CD899
:1020300060E088E169D860E086E166D8FFCE815D26
:102040009740A109B109883E9340A105B10508F068
:1020500014C16AEF70E080E090E0C0D810D882E050
:102060000E9428088091060290910702019749F486
:102070001093F4030093F3035092F6034092F50398
:102080000EC08091060290910702029741F41093CE
:10209000F4030093F3037092F6036092F5030E9439
:1020A000FF0784E209D8019709F0B6C088E204D896
:1020B00090938302809382028AE20E945C0890934C
:1020C0007D0280937C028091820290918302892B11
:1020D00009F04AC0209182023091830280910C0263
:1020E00090910D022817390789F0B0D860937E02CD
:1020F00070937F028093800290938102809182028C
:102100009091830290930D0280930C029FD8C0900F
:102110007E02D0907F02E0908002F09081026C19E4
:102120007D098E099F09C7D320E030E040E05FE3DE
:1021300074D41816CCF4809106029091070202978D
:1021400099F0809106029091070201969093070200
:10215000809306021093F4030093F3037092F60346
:102160006092F5030E94FF0780917C0290917D02AE
:10217000892B09F04AC020917C0230917D02809128
:102180000802909109022817390789F05FD86093F7
:1021900078027093790280937A0290937B02809107
:1021A0007C0290917D0290930902809308024ED8A0
:1021B000C0907802D0907902E0907A02F0907B0291
:1021C0006C197D098E099F0976D320E030E040E04C
:1021D0005FE323D41816CCF4809106029091070295
:1021E000019799F0809106029091070201979093D0
:1021F0000702809306021093F4030093F3035092B6
:10220000F6034092F5030E94FF076AEF70E080E05A
:1022100090E00E94EE0845CF80910602909107025F
:10222000019709F0C0C180910402909105020297C4
:1022300009F0B9C16091000270910102809102021F
:102240009091030220E030E040E052E432D224EEEC
:1022500038E34EE05FE32AD4609374027093750212
:102260008093760290937702809106029091070204
:1022700090930502809304023EC16AEF70E080E013
:1022800090E00E94EE080E943F0882E00E94280829
:1022900080910A0290910B026AE070E0A1D4CB0118
:1022A0006AE070E09DD49C0180910A0290910B023B
:1022B0006AE070E095D42115310549F0F901E25F3B
:1022C000FD4F208130E03093F4032093F303FC01B1
:1022D000E25FFD4F808190E09093F6038093F503D9
:1022E0000E94FF0784E20E945C08019709F003C185
:1022F00088E20E945C0890938302809382028AE2C3
:102300000E945C0890937D0280937C0280918202FF
:1023100090918302892B11F0F12C6BC020918202E5
:102320003091830280910C0290910D022817390799
:1023300091F00E94260960937E0270937F02809341
:102340008002909381028091820290918302909307
:102350000D0280930C020E942609C0907E02D0904C
:102360007F02E0908002F09081026C197D098E0955
:102370009F09A1D220E030E040E05FE34ED3181681
:102380005CF680910A0290910B020F9729F28091DE
:102390000A0290910B02019690930B0280930A021D
:1023A00080910A0290910B0220910A0230910B0257
:1023B0006AE070E015D4CB016AE070E011D4FC0152
:1023C000E25FFD4F808190E09093F4038093F303EC
:1023D000C9016AE070E004D4FC01E25FFD4F808136
:1023E00090E09093F6038093F5030E94FF07FF248B
:1023F000F39480917C0290917D02892B09F06BC04F
:1024000020917C0230917D02809108029091090216
:102410002817390791F00E9426096093780270937B
:10242000790280937A0290937B0280917C02909152
:102430007D0290930902809308020E942609209150
:1024400078023091790240917A0250917B02621BAE
:10245000730B840B950B2FD220E030E040E05FE35C
:10246000DCD21816C4F580910A0290910B02892BD8
:1024700091F180910A0290910B02019790930B02C7
:1024800080930A0280910A0290910B0220910A0225
:1024900030910B026AE070E0A3D3CB016AE070E0F8
:1024A0009FD3FC01E25FFD4F808190E09093F403A5
:1024B0008093F303C9016AE070E092D3FC01E25F0C
:1024C000FD4F808190E09093F6038093F5030E9486
:1024D000FF07FF24F3946AEF70E080E090E00E9431
:1024E000EE08FF2009F4FECE80910A0290910B02C3
:1024F0000E944808F7CE80E00E9428080E94260922
:102500006093860270938702809388029093890279
:1025100064EF71E080E090E00E94EE080E94730298
:102520001CC81092700292C81092700291C90E9449
:102530002609DC01CB018C199D09AE09BF09893B35
:102540009B40A105B10568F40E942609DC01CB017E
:102550008C199D09AE09BF09813D9740A105B105C0
:1025600088F4332009F408CA0E943F080E94FF073C
:1025700026EE30E03093F0032093EF030E94FF0734
:10258000312CFAC9222009F4F7C90E943F080E94A1
:10259000FF078FEC90E09093F0038093EF030E948D
:1025A000FF07212CE9C9809106029091070202974A
:1025B00009F05ACE8091040290910502019709F02A
:1025C00053CE609174027091750280917602909161
:1025D000770226E636E646EE5FE368D220E030E09A
:1025E00040E052E467D06093000270930102809350
:1025F00002029093030238CECF93DF93E4E4F3E03A
:102600001382128288EE93E0A0E0B0E08483958389
:10261000A683B78322E232E03183208325EC30E0C9
:102620003587248724EC30E03787268720EC30E09C
:10263000318B208B21EC30E0338B228B22EC30E08D
:10264000358B248B26EC30E0378B268B118E128E47
:10265000138E148EE1EEF3E013821282848395834D
:10266000A683B78384E392E091838083CFEFD3E0A6
:102670008AE190E09983888388E190E09B838A8354
:1026800086E190E09D838C8381E090E09F838E8340
:1026900061E08AE10E94B20861E08A810E94B2088A
:1026A00061E08C810E94B2081092FE03DF91CF910D
:1026B00008955058BB27AA270ED075C166D130F0B7
:1026C0006BD120F031F49F3F11F41EF45BC10EF486
:1026D000E095E7FB51C1E92F77D180F3BA17620784
:1026E00073078407950718F071F49EF58FC10EF4F7
:1026F000E0950B2EBA2FA02D0B01B90190010C0112
:10270000CA01A0011124FF27591B99F0593F50F429
:10271000503E68F11A16F040A22F232F342F442781
:10272000585FF3CF469537952795A795F040539579
:10273000C9F77EF41F16BA0B620B730B840BBAF049
:102740009150A1F0FF0FBB1F661F771F881FC2F7B4
:102750000EC0BA0F621F731F841F48F487957795C8
:102760006795B795F7959E3F08F0B3CF9395880F7F
:1027700008F09927EE0F979587950895D9D008F41A
:1027800081E008950CD00FC107D140F0FED030F0A9
:1027900021F45F3F19F0F0C0511139C1F3C014D1D9
:1027A00098F39923C9F35523B1F3951B550BBB2718
:1027B000AA2762177307840738F09F5F5F4F220FC5
:1027C000331F441FAA1FA9F333D00E2E3AF0E0E8BE
:1027D00030D091505040E695001CCAF729D0FE2F0A
:1027E00027D0660F771F881FBB1F2617370748079C
:1027F000AB07B0E809F0BB0B802DBF01FF27935852
:102800005F4F2AF09E3F510568F0B6C000C15F3FA0
:10281000ECF3983EDCF3869577956795B795F79539
:102820009F5FC9F7880F911D9695879597F9089531
:10283000E1E0660F771F881FBB1F621773078407CD
:10284000BA0720F0621B730B840BBA0BEE1F88F7DC
:10285000E095089504D06894B111D9C00895BCD012
:1028600088F09F5790F0B92F9927B751A0F0D1F079
:10287000660F771F881F991F1AF0BA95C9F712C003
:10288000B13081F0C3D0B1E00895C0C0672F782F78
:102890008827B85F39F0B93FCCF38695779567956F
:1028A000B395D9F73EF490958095709561957F4FDB
:1028B0008F4F9F4F0895E89409C097FB3EF4909581
:1028C0008095709561957F4F8F4F9F4F9923A9F009
:1028D000F92F96E9BB279395F69587957795679598
:1028E000B795F111F8CFFAF4BB0F11F460FF1BC0DC
:1028F0006F5F7F4F8F4F9F4F16C0882311F096E96F
:1029000011C0772321F09EE8872F762F05C066231C
:1029100071F096E8862F70E060E02AF09A95660FD5
:10292000771F881FDAF7880F9695879597F908958E
:10293000990F0008550FAA0BE0E8FEEF16161706D0
:10294000E807F907C0F012161306E407F50798F038
:10295000621B730B840B950B39F40A2661F0232B51
:10296000242B252B21F408950A2609F4A140A695CD
:102970008FEF811D811D089597F99F6780E870E0B2
:1029800060E008959FEF80EC089500240A941616E5
:10299000170618060906089500240A94121613064D
:1029A000140605060895092E0394000C11F48823DB
:1029B00052F0BB0F40F4BF2B11F460FF04C06F5FF7
:1029C0007F4F8F4F9F4F089557FD9058440F551FCD
:1029D00059F05F3F71F04795880F97FB991F61F0A1
:1029E0009F3F79F087950895121613061406551F18
:1029F000F2CF4695F1DF08C0161617061806991F84
:102A0000F1CF86957105610508940895E894BB2778
:102A100066277727CB0197F908958ADF08F48FEFAF
:102A200008950EF0AAC0AECF6894A6CFD5DFC8F344
:102A30009923D1F3C6F3DF93CF931F930F93FF92A4
:102A4000C92FDD2788232AF02197660F771F881F5B
:102A5000DAF720E030E040E85FEB9FE3883920F0D0
:102A6000803E30F021968F7725DEE8E0F1E003C06C
:102A700021DEE5E3F1E08FD08B01BE01EC01FB2EFE
:102A80006F5771097595771F880B990B16DF28E131
:102A900032E741E35FE316D0AF2D9801AE01FF901E
:102AA0000F911F91CF91DF9116DE7DCF0BD07BCFA1
:102AB0006CDF28F071DF18F0952309F05DCF62CF4D
:102AC0001124A5CF81DFA0F3959FD1F3950F50E09E
:102AD000551F629FF001729FBB27F00DB11D639FD0
:102AE000AA27F00DB11DAA1F649F6627B00DA11D76
:102AF000661F829F2227B00DA11D621F739FB00D1C
:102B0000A11D621F839FA00D611D221F749F33278B
:102B1000A00D611D231F849F600D211D822F762F24
:102B20006A2F11249F5750408AF0E1F088234AF021
:102B3000EE0FFF1FBB1F661F771F881F915050406D
:102B4000A9F79E3F510570F017CF61CF5F3FECF3BF
:102B5000983EDCF3869577956795B795F795E79559
:102B60009F5FC1F7FE2B880F911D9695879597F96A
:102B70000895DEDE880B990B08959F3F31F0915048
:102B800020F4879577956795B795880F911D969551
:102B9000879597F90895DF93CF931F930F93FF9233
:102BA000EF92DF927B018C01689405C0DA2EEF0171
:102BB00089DFFE01E894A5912591359145915591C4
:102BC000AEF3EF0188DDFE019701A801DA9479F7F1
:102BD000DF90EF90FF900F911F91CF91DF910895BB
:102BE000AA1BBB1B51E107C0AA1FBB1FA617B70733
:102BF00010F0A61BB70B881F991F5A95A9F780954F
:102C00009095BC01CD010895A1E21A2EAA1BBB1B11
:102C1000FD010DC0AA1FBB1FEE1FFF1FA217B307A8
:102C2000E407F50720F0A21BB30BE40BF50B661FBE
:102C3000771F881F991F1A9469F760957095809582
:102C400090959B01AC01BD01CF010895EE0FFF1FD0
:102C5000881F8BBF0790F691E02D199481E090E0DA
:082C6000F89400C0F894FFCFC6
:102C6800000000420100010001000F0001003F06C2
:102C78005B4F666D7D077F6F777C395E79710000E9
:102C88000000060274019E015202CF01AD01C1018C
:102C98000000000037030B036603DF020303EF02A3
:102CA800E00243757272656E742054656D70203D44
:102CB8002000C2B043000D0A00C2B046006E616E2B
:0A2CC80000696E66006F766600007A
:00000001FF
