:1000000041C1000070C100006EC100006CC1000061
:100010006AC1000068C1000066C1000064C1000040
:1000200062C1000060C100005EC100005CC1000050
:100030005AC1000058C1000056C1000054C1000060
:1000400052C1000050C100004EC100004CC1000070
:100050004AC1000048C1000046C100000C94650977
:1000600042C1000061C3000036C300003CC1000073
:100070003AC1000038C1000036C1000034C10000A0
:1000800032C1000030C100002EC100002CC10000B0
:100090002AC1000028C1000026C100007BC3000067
:1000A00022C1000020C100001EC100001CC10000D0
:1000B0001AC1000018C1000016C1000014C10000E0
:1000C00012C1000010C100000EC100000CC10000F0
:1000D0000AC1000008C1000006C1000004C1000000
:1000E00002C100002506280617061B0621065F062A
:1000F0002C06300636063A063E06440648064C06EE
:100100005F06520656065A0608000000BE922449B1
:10011000123EABAAAA2ABECDCCCC4C3E0000008039
:10012000BEABAAAAAA3E00000000BF000000803FAC
:100130000000000000084178D3BB4387D1133D196C
:100140000E3CC3BD4282AD2B3E68EC8276BED98F99
:10015000E1A93E4C80EFFFBE01C4FF7F3F000000DD
:10016000000000002100240027002A002D0030009C
:10017000330001010000040107010A010000220010
:10018000250028002B002E00310034000201000061
:10019000050108010B0100002000230026002900B2
:1001A0002C002F00320000010000030106010901AC
:1001B00005050505070508080808020202020A0AE3
:1001C0000808040404040101010101010101030301
:1001D000030303030303040707070C0C0C0C0C0CAC
:1001E0000C0C0202020206060606060606060B0BA9
:1001F0000B0B0B0B0B0B01021020200808102040EA
:1002000010204080020102010804020101020408DA
:100210001020408080402010080402018004020168
:1002200080402010080402010804020101020408B1
:1002300010204080010204081020408000000A0BBA
:1002400002090C0D0E080703040100000000000065
:10025000000000000000000000000000000000009E
:10026000000000000000000012111000000000005B
:10027000000000000000000000000000000000007E
:1002800000009B1211241FBECFEFD1E2DEBFCDBF15
:1002900000E00CBF12E0A0E0B2E0E6EAFBE200E022
:1002A0000BBF02C007900D92AE3AB107D9F724E018
:1002B000AEEAB2E001C01D92A834B207E1F711E046
:1002C000C2E4D1E000E006C021970109802FFE01C1
:1002D0000E94C515C134D10780E00807A9F70E9424
:1002E000AF090C94D1158CCECF92DF92EF92FF9292
:1002F0000F931F93CF93DF936C017A018B01C0E0C2
:10030000D0E0CE15DF0581F0D8016D918D01D601C9
:10031000ED91FC910190F081E02DC6011995892B9A
:1003200011F02196EECF7E01C701DF91CF911F9191
:100330000F91FF90EF90DF90CF900895FC01538DC7
:10034000448D252F30E0842F90E0821B930B5417AF
:1003500010F0CF96089501970895FC01918D828D3C
:10036000981761F0828DDF01A80FB11D5D968C9109
:10037000928D9F5F9F73928F90E008958FEF9FEF14
:100380000895FC01918D828D981731F0828DE80FD0
:10039000F11D858D90E008958FEF9FEF0895FC018A
:1003A000918D228D892F90E0805C9F4F821B910957
:1003B0008F739927089584E893E0F1DF21E0892B7A
:1003C00009F420E0822F0895FC01848DDF01A80F3D
:1003D000B11DA35ABF4F2C91848D90E001968F736D
:1003E0009927848FA689B7892C93A089B1898C918C
:1003F000837080648C93938D848D981306C00288DB
:10040000F389E02D80818F7D80830895EF92FF92A4
:100410000F931F93CF93DF93EC0181E0888F9B8D27
:100420008C8D981305C0E889F989808185FD25C0E8
:10043000F62E0B8D10E00F5F1F4F0F731127E02E6C
:100440008C8DE8120BC00FB607FCFACFE889F9894A
:10045000808185FFF5CFCE01B7DFF2CF8B8DFE0116
:10046000E80FF11DE35AFF4FF0829FB7F8940B8F0E
:10047000EA89FB89808180620AC09FB7F894EE897F
:10048000FF896083E889F989808183708064808333
:100490009FBF81E090E0DF91CF911F910F91FF907E
:1004A000EF900895CF93DF93EC01888D8823C1F0FE
:1004B000EA89FB89808185FD05C0A889B9898C916D
:1004C00086FD0EC00FB607FCF5CF808185FFF2CF09
:1004D000A889B9898C9185FFEDCFCE0175DFE8CF72
:1004E000DF91CF91089580E090E0892B19F063DFD0
:1004F000811125C080E090E0892B41F080E090E000
:10050000892B21F00E94000081111CC080E090E046
:10051000892B41F080E090E0892B21F00E940000BF
:10052000811113C080E090E0892BA1F080E090E081
:10053000892B81F00E94000081110AC008950E9459
:100540000000D8CF0E940000E1CF0E940000EACF57
:100550000C940000089585ED8093BC008091BC0050
:1005600084FDFCCF10925F03089540910E03262F67
:1005700030E0240F311D21323105DCF420915F037E
:100580002430C9F4FC0180E090E0861758F43091E3
:100590000E032191DC01A251BD4FA30FB11D2C937D
:1005A0000196F3CF80910E03680F60930E0380E0F5
:1005B000089581E0089582E00895089508950895CA
:1005C000E091B3028091B202E81730F4F0E0E25318
:1005D000FD4F808190E008958FEF9FEF08959091F7
:1005E000B3028091B202981750F4E92FF0E0E25381
:1005F000FD4F208130E09F5F9093B30202C02FEF48
:100600003FEFC90108958091B20290E02091B302BA
:10061000821B91090895CF92DF92EF92FF920F9380
:100620001F93CF93DF937C01CB018A01209160035C
:10063000222389F0EB016B01C40ED51ECC15DD051C
:1006400061F06991D701ED91FC910190F081E02D6D
:10065000C7011995F3CF642F88DFC801DF91CF91CF
:100660001F910F91FF90EF90DF90CF900895CF935F
:10067000DF931F92CDB7DEB76983209160032223F9
:10068000D1F020918303203240F021E030E0FC01E2
:100690003383228380E090E014C080916103E82FCF
:1006A000F0E0EE59FC4F998190838F5F8093610356
:1006B0008093830304C061E0CE01019656DF81E0A0
:1006C00090E00F90DF91CF910895089580E090E041
:1006D00008950E94CD151F920F920FB60F9211240C
:1006E0000BB60F922F933F934F935F936F937F932C
:1006F0008F939F93AF93BF93EF93FF9384E893E01F
:1007000063DEFF91EF91BF91AF919F918F917F91A8
:100710006F915F914F913F912F910F900BBE0F9072
:100720000FBE0F901F9018951F920F920FB60F9249
:1007300011240BB60F922F938F939F93EF93FF93F8
:10074000E0919403F09195038081E0919A03F091F8
:100750009B0382FD12C0908180919D038F5F8F73F8
:1007600020919E03821751F0E0919D03F0E0EC5739
:10077000FC4F958F80939D0301C08081FF91EF9185
:100780009F918F912F910F900BBE0F900FBE0F90E6
:100790001F9018951F920F920FB60F9211240BB64F
:1007A0000F922F933F934F935F936F937F938F930A
:1007B0009F93AF93BF93EF93FF938091B900887F8E
:1007C000803609F49CC068F5883209F45BC090F467
:1007D000803109F454C038F4882309F4F6C0883015
:1007E00009F44DC0F5C0883109F44CC0803209F4D9
:1007F0005DC0EEC0803409F468C048F4803309F469
:1008000055C0883309F0E4C080935D03D8C08035BB
:1008100009F44FC0883509F45DC0883409F0D8C0A8
:10082000D6C0883909F4C7C0A8F4883709F467C06E
:1008300038F4883609F463C0803709F460C0C8C052
:10084000883809F4B8C0803909F45FC0803809F0ED
:10085000BFC05BC0803B09F486C038F4803A09F41D
:1008600066C0883A09F47FC0B3C0803C09F4A7C0D1
:10087000883C09F4A4C0883B09F48AC0A9C08091CF
:100880003A0310C090915C0380915B03981770F558
:10089000E0915C0381E08E0F80935C03F0E0E55C07
:1008A000FC4F80818093BB0085EC86C080935D0304
:1008B0008EC0E0915C0381E08E0F80935C03809199
:1008C000BB00F0E0E55CFC4F808390915C0380917D
:1008D0005B036EC0E0915C0381E08E0F80935C034C
:1008E0008091BB00F0E0E55CFC4F808380915E036B
:1008F00081116DC081E08093390384EA61C083E097
:1009000080935F0310923003CFCF80913003803209
:1009100008F051C0E091300381E08E0F80933003E6
:100920008091BB00F0E0E05FFC4F8083BDCF85ECA1
:100930008093BC0010925F0380913003803230F4CA
:10094000E0913003F0E0E05FFC4F108260913003F3
:1009500070E0E091AE02F091AF0280E193E0199572
:100960001092300335C084E080935F0310920F0330
:1009700010920E03E091B002F091B10219958091AE
:100980000E03811105C081E080930E031092EE02E8
:10099000E0910F0381E08E0F80930F03F0E0E251AE
:1009A000FD4F80818093BB0090910F0380910E03D7
:1009B000981708F479CF85E88093BC0009C085ECCE
:1009C0008093BC0010925F0303C010925D03C3DDEF
:1009D000FF91EF91BF91AF919F918F917F916F9117
:1009E0005F914F913F912F910F900BBE0F900FBED3
:1009F0000F901F9018958F929F92AF92BF92CF92B7
:100A0000DF92EF92FF9280917B00877F80937B0043
:100A100080E480937C0080917A00806480937A00E7
:100A200080917A0086FDFCCF6091780080917900FA
:100A300070E0782B072E000C880B990B0E94FC139A
:100A40002AE038E240EA5BE30E94F5149B01AC0126
:100A500060E070E088E492E40E94611320E030E0FE
:100A600040E251E40E94F81220E030E04AE754E40A
:100A70000E94F5140E94B5146B017C019B01AC012E
:100A80000E94F514A70196010E94F51426EB36EAA0
:100A900049E254E30E94F5144B015C012BE83BE46E
:100AA0004AE759E3C701B6010E94F5142CE234E489
:100AB00047E85AE30E94F9129B01AC01C501B40159
:100AC0000E94F9129B01AC0160E070E080E89FE3B6
:100AD0000E94611323E333E948E853E40E94F812CB
:100AE0006B017C018EE892E010D180910802909118
:100AF00009020197C1F542E0C701B60163D18AE856
:100B000092E054D1C701B6010E94C9136B017C0168
:100B1000EAE0F0E0CB01BF010E948F159C01CB0100
:100B2000BF010E948F15FC01E45FFD4F808190E0C2
:100B300090932E0480932D04F901E45FFD4F808192
:100B400090E09093300480932F0483E690E090939C
:100B500034048093330489E390E0909336048093C7
:100B6000350459D24CC08091080290910902029735
:100B700009F047C026E636E646EE5FE3C701B60158
:100B80000E94F51420E030E040E052E40E94F912A7
:100B90004B015C010E94C9136B017C01EAE0F0E0AB
:100BA000CB01BF010E948F159C01CB01BF010E94A8
:100BB0008F15FC01E45FFD4F808190E090932E043F
:100BC00080932D04F901E45FFD4F808190E09093C4
:100BD000300480932F0483E690E090933404809354
:100BE000330481E790E0909336048093350413D268
:100BF00042E0C501B401E6D086E892E0D7D0C60154
:100C000000C0FF90EF90DF90CF90BF90AF909F908B
:100C10008F90089590E0FC013197E231F10508F0E2
:100C20004EC08827EE58FF4F8F4F0C94C51580910A
:100C300080008F7703C0809180008F7D809380003B
:100C4000089580918000877FF9CF84B58F7702C0A7
:100C500084B58F7D84BD08958091B0008F7703C0E7
:100C60008091B0008F7D8093B000089580919000B6
:100C70008F7707C0809190008F7D03C08091900096
:100C8000877F8093900008958091A0008F7707C0A0
:100C90008091A0008F7D03C08091A000877F80930A
:100CA000A0000895809120018F7707C080912001D6
:100CB0008F7D03C080912001877F8093200108955C
:100CC0003FB7F8948091350390913603A091370394
:100CD000B091380326B5A89B05C02F3F19F00196A7
:100CE000A11DB11D3FBFBA2FA92F982F8827820FB2
:100CF000911DA11DB11DBC01CD0142E0660F771F02
:100D0000881F991F4A95D1F70895009761F0FC015B
:100D100001900020E9F73197AF01481B590BBC0146
:100D200084E893E0E1CA80E090E008958F929F927A
:100D3000AF92BF920F931F93CF93DF93CDB7DEB7E0
:100D4000A1970FB6F894DEBF0FBECDBF19A24230F7
:100D500008F44AE08E010F5D1F4F842E912CA12CC8
:100D6000B12CA50194010E94A315E62FB901CA0177
:100D700001501109EA3014F4E05D01C0E95CD801CA
:100D8000EC93232B242B252B61F7C801BEDFA19602
:100D90000FB6F894DEBF0FBECDBFDF91CF911F918C
:100DA0000F91BF90AF909F908F900895CF93DF9356
:100DB000ACDFEC018EE992E0A8DF8C0F9D1FDF9184
:100DC000CF9108958F929F92AF92BF92CF92DF9270
:100DD000EF92FF920F931F93CF93DF936B017C01F0
:100DE000142F9B01AC010E945815882319F081EA49
:100DF00092E027C046015701E894B7F82FEF3FEF84
:100E00004FE75FE7C501B4010E94581581110DC07D
:100E10002FEF3FEF4FE75FE7C501B4010E945D137D
:100E200018161CF485EA92E00CC02FEF3FEF4FE755
:100E30005FE4C701B6010E94AC1418167CF489EA7D
:100E400092E0DF91CF911F910F91FF90EF90DF9093
:100E5000CF90BF90AF909F908F9057CF2FEF3FEFE5
:100E60004FE75FECC701B6010E945D1387FDE7CF36
:100E700020E030E0A901C701B6010E945D1387FFA1
:100E80000AC06DE284E893E0C1DAEC01F7FAF0946D
:100E9000F7F8F09402C0C0E0D0E000E060E070E05D
:100EA00080E09FE3101741F020E030E040E251E4A1
:100EB0000E9461130F5FF6CFA70196010E94F912FD
:100EC0006B017C010E94CE134B015C014AE02EDFD6
:100ED000C80FD91F1123A9F1C501B4010E94FA134B
:100EE0009B01AC01C701B6010E94F8126B017C01A5
:100EF0006EE284E893E08ADAC80FD91F20E030E080
:100F000040E251E4C701B6010E94F5144B015C01B7
:100F10000E94CE136B01E12CF12C4AE0C701B6010F
:100F200005DFC80FD91FC701B6010E94FA139B0144
:100F3000AC01C501B4010E94F8126B017C01115093
:100F4000E9F6CE01DF91CF911F910F91FF90EF90C5
:100F5000DF90CF90BF90AF909F908F900895309189
:100F60008303313208F04BC080915F038111FCCFC5
:100F70009091820322E020935F0321E020935E039F
:100F80002FEF20935D0310925C0330935B03E2E646
:100F9000F3E0ABE3B3E020E0321721F041914D9351
:100FA0002F5FFACF10923A0320913A03990F922BB8
:100FB00090933A0390913903913061F41092390380
:100FC00090913A039093BB009091BC0093FDF8CFB1
:100FD00095EC01C095EE9093BC0090915F03923028
:100FE000E1F390915D039F3F79F080915D03803242
:100FF00041F080915D03803331F084E005C081E0F1
:1010000003C082E001C083E0109261031092830369
:101010001092600308950F931F93CF93DF938091F5
:101020003D0491E0909360038093820310926103EA
:101030001092830360E081E294E019DBCDE2D4E01A
:101040008E01688181E294E012DB2296F8016181D1
:1010500081E294E00CDBF4E0CD33DF0789F7DF9128
:10106000CF911F910F917BCFCF93DF9340E0AADE0A
:10107000EC018EE992E049DE8C0F9D1FDF91CF914C
:10108000089590913D0421E02093600390938203A2
:101090001092610310928303843008F080E0682F7F
:1010A00070E0660F771F616881E294E0E0DA57CF65
:1010B000EDE2F4E01192119284E0ED33F807D1F7FC
:1010C0000895CF92DF92EF92FF92CF93DF936C015E
:1010D000990FEE08FF08F7FE11C06DE284E893E077
:1010E00095D9EC0166277727CB016C197D098E090C
:1010F0009F094AE01BDEC80FD91F05C04AE0C7019F
:10110000B60114DEEC018EE992E0FFDD8C0F9D1F2D
:10111000DF91CF91FF90EF90DF90CF900895CF9324
:10112000DF93282F30E0F901E45CFD4F8491F90151
:10113000EA50FE4FD491F901E055FE4FC491CC2303
:1011400089F0811167DDEC2FF0E0EE0FFF1FEA560A
:10115000FE4FA591B491EC91ED2381E090E021F454
:1011600080E002C080E090E0DF91CF9108951F936E
:10117000CF93DF93282F30E0F901E45CFD4F849199
:10118000F901EA50FE4FD491F901E055FE4FC491A8
:10119000CC23B9F0162F81113DDDEC2FF0E0EE0FDE
:1011A000FF1FE458FE4FA591B4919FB7F894111119
:1011B00004C08C91D095D82302C0EC91DE2BDC9337
:1011C0009FBFDF91CF911F910895CF93DF9390E060
:1011D000FC01EA50FE4F2491FC01E055FE4F849142
:1011E000882361F190E0880F991FFC01EE59FE4FB2
:1011F000C591D491FC01E458FE4FA591B4916111C1
:1012000009C09FB7F8948881209582238883EC9148
:101210002E230BC0623061F49FB7F8948881322F7F
:10122000309583238883EC912E2B2C939FBF06C08F
:101230008FB7F894E8812E2B28838FBFDF91CF9151
:1012400008958F929F92AF92BF92CF92DF92EF92CA
:10125000FF926B017C0134DD4B015C01C114D104B0
:10126000E104F104E9F02CDDDC01CB0188199909D6
:10127000AA09BB09883E9340A105B10578F321E096
:10128000C21AD108E108F10888EE880E83E0981EA2
:10129000A11CB11CC114D104E104F10421F7DECF7B
:1012A000FF90EF90DF90CF90BF90AF909F908F9086
:1012B00008952FB7F89460913103709132038091B3
:1012C0003303909134032FBF08951F920F920FB6EE
:1012D0000F9211242F933F938F939F93AF93BF93BC
:1012E0008091310390913203A0913303B091340384
:1012F0003091470423E0230F2D3720F40196A11DE0
:10130000B11D05C026E8230F0296A11DB11D209333
:1013100047048093310390933203A0933303B09337
:1013200034038091350390913603A0913703B09137
:1013300038030196A11DB11D8093350390933603A8
:10134000A0933703B0933803BF91AF919F918F91D2
:101350003F912F910F900FBE0F901F901895CF9334
:10136000DF9300D01F92CDB7DEB7789484B582604A
:1013700084BD84B5816084BD85B5826085BD85B539
:10138000816085BD80916E00816080936E001092B7
:101390008100809181008260809381008091810032
:1013A00081608093810080918000816080938000C3
:1013B0008091B10084608093B1008091B000816021
:1013C0008093B00080919100826080939100809121
:1013D0009100816080939100809190008160809362
:1013E00090008091A10082608093A1008091A10073
:1013F00081608093A1008091A00081608093A00013
:10140000809121018260809321018091210181607E
:10141000809321018091200181608093200180913F
:101420007A00846080937A0080917A008260809351
:101430007A0080917A00816080937A0080917A00AE
:10144000806880937A001092C100E0919403F0913B
:10145000950382E08083E0919003F09191031082E4
:10146000E0919203F091930380E1808310929C03BA
:10147000E0919803F091990386E08083E0919603D0
:10148000F0919703808180618083E0919603F091D1
:101490009703808188608083E0919603F0919703A1
:1014A000808180688083E0919603F091970380812A
:1014B0008F7D808362E088E288DE62E084E285DE00
:1014C00062E08AE282DE60E086E37FDE60E087E35E
:1014D0007CDE61E08EE179DE61E08DE276DE61E066
:1014E0008EE273DE61E08FE170DE61E08AE16DDE45
:1014F00061E086E16ADE61E088E167DE61E080E06C
:1015000064DE61E080E061DE61E08AE130DE61E0BE
:1015100088E12DDE61E086E12ADE80E780933D04EC
:101520001092B3021092B2021092610310928303E0
:1015300010925F0321E020935E031092390361E073
:1015400084E115DE61E085E112DE8091B9008E7FD5
:101550008093B9008091B9008D7F8093B90088E4B1
:101560008093B80085E48093BC008DED92E0909369
:10157000B1028093B0028EED92E09093AF0280931F
:10158000AE0280913D0431E030936003809382038A
:10159000109261031092830361E281E294E067D8C4
:1015A000DEDC86DD38DD80E06CDD80913D0441E0ED
:1015B000409360038093820310926103109283032F
:1015C0006FEE81E294E053D8CADC15DA03E610E04E
:1015D00099E3692E712C2BED222E312C36E8432E07
:1015E000512C67DEC090C802D090C902E090CA02B8
:1015F000F090CB029B01AC012C193D094E095F090B
:1016000069017A0138E8C31633E1D306E104F10435
:1016100008F40AC26093C8027093C9028093CA0298
:101620009093CB02E8D9BC01990F880B990B0E94CB
:10163000FC136B017C0180910802909109020197D3
:1016400009F0FFC02091B8023091B9024091BA026E
:101650005091BB02C701B601CBD720E030E0A90111
:101660000E94AC1487FD06C081E08093B50280E43F
:1016700092E017C02091B8023091B9024091BA02AD
:101680005091BB02C701B601B3D720E030E040EA79
:1016900050EC0E945D1387FF0BC01092B50288E4E6
:1016A00092E084DB8091B502882309F46CC010C0FD
:1016B00061E08DE28ADD60E08DE259DD61E08EE27D
:1016C00084DD60E08EE253DD80E592E06FDBACC14B
:1016D0008091B402811122C061E08DE276DD61E08B
:1016E0008DE245DD61E08EE270DD60E08EE23FDD9F
:1016F0002091B8023091B9024091BA025091BB02D8
:10170000C701B60175D720E030E040E85FEBD5D7E0
:10171000811139C081E08093B40235C08091B40258
:10172000882389F161E08DE250DD60E08DE21FDD0C
:1017300061E08EE24ADD60E08EE219DD2091B802C0
:101740003091B9024091BA025091BB02C701B60173
:101750004FD720E030E040E85FE3AFD7882309F4BB
:101760006DC62091B8023091B9024091BA025091F1
:10177000BB02C701B6013CD720E030E0A9010E94BE
:10178000AC1487FF5BC68091B50281115AC080916D
:10179000B402882309F161E08DE217DD61E08DE29A
:1017A000E6DC61E08EE211DD60E08EE2E0DC2091BB
:1017B000B8023091B9024091BA025091BB02C70100
:1017C000B60116D720E030E040E85FE376D781111C
:1017D00038C01092B40235C08091B402811131C07A
:1017E00061E08DE2F2DC60E08DE2C1DC61E08EE27E
:1017F000ECDC60E08EE2BBDC2091B8023091B902F3
:101800004091BA025091BB02C701B601F1D620E067
:1018100030E040E85FEB51D7882309F412C62091ED
:10182000B8023091B9024091BA025091BB02C7018F
:10183000B601DED620E030E040EA50EC3ED787FD2E
:1018400000C68091080290910902029709F0ECC04D
:101850002091000230910102409102025091030256
:10186000C701B601C5D620E030E0A9010E94AC1442
:1018700087FD06C081E08093B50280E492E016C047
:101880002091000230910102409102025091030226
:10189000C701B601ADD620E030E040E251EC0DD7F3
:1018A00087FF06CF1092B50288E492E07FDA80913C
:1018B000B502882309F45AC08091B402811122C074
:1018C00061E08DE282DC61E08DE251DC61E08EE27C
:1018D0007CDC60E08EE24BDC209100023091010262
:1018E0004091020250910302C701B60181D620E067
:1018F00030E040E85FEBE1D6811138C081E08093B1
:10190000B40234C08091B402882381F161E08DE299
:101910005CDC60E08DE22BDC61E08EE256DC60E0B6
:101920008EE225DC209100023091010240910202FA
:1019300050910302C701B6015BD620E030E040E8D9
:101940005FE3BBD6882309F480C520910002309163
:1019500001024091020250910302C701B60148D62C
:1019600020E030E0A901F8D787FF6FC58091B5026C
:1019700081115AC08091B402882309F161E08DE29F
:1019800024DC61E08DE2F3DB61E08EE21EDC60E0EE
:101990008EE2EDDB209100023091010240910202C3
:1019A00050910302C701B60123D620E030E040E8A1
:1019B0005FE383D6811138C01092B40235C08091A4
:1019C000B402811131C061E08DE2FFDB60E08DE2A5
:1019D000CEDB61E08EE2F9DB60E08EE2C8DB2091D5
:1019E0000002309101024091020250910302C701AE
:1019F000B601FED520E030E040E85FEB5ED68823FC
:101A000009F426C5209100023091010240910202A2
:101A100050910302C701B601EBD520E030E040EA67
:101A200050EC4BD687FD14C584E279DB892B09F095
:101A3000FCC484E592E0BAD93CDC6B017C0141E056
:101A40004C8351E05B8381E08A8391E0998384E257
:101A500066DB892B09F047C02CDCDC01CB018C193B
:101A60009D09AE09BF09813D9740A105B10578F4F4
:101A700039813323A1F189E592E098D919DBCBDADA
:101A80005092300440922F04C6DA198228C011DC2B
:101A9000DC01CB018C199D09AE09BF09813A9F4039
:101AA000A105B10508F0D8C404DCDC01CB018C1918
:101AB0009D09AE09BF09813D9740A105B10508F414
:101AC000CBC44A81442359F082E692E06FD9F0DA20
:101AD000A2DA3092300420922F049DDA1A82E9DBD8
:101AE0004B015C01B4CFD501C4018C199D09AE092D
:101AF000BF09893E23E09207A105B10508F053C252
:101B000068EE73E080E090E09CDBD2DA82E0B9DA44
:101B100082DA8091080290910902019789F560911B
:101B2000B8027091B9028091BA029091BB0231D68D
:101B3000CB016AE070E0F3D79C01CB016AE070E072
:101B4000EED7FC01E45FFD4F808190E090932E047E
:101B500080932D04F901E45FFD4F808190E0909324
:101B6000300480932F041093340400933304709254
:101B70003604609235044FDA81E7E82EF12C53C029
:101B800080910802909109020297B1F760910002DA
:101B9000709101028091020290910302FAD5CB016B
:101BA0006AE070E0BCD79C01CB016AE070E0B7D777
:101BB000FC01E45FFD4F808190E090932E048093C0
:101BC0002D04F901E45FFD4F808190E09093300493
:101BD00080932F04109334040093330481E790E042
:101BE0009093360480933504C6CF88E298DA9093B8
:101BF000C7028093C6028AE292DA9093C50280936C
:101C0000C4028091C6029091C702892B89F080910D
:101C1000C4029091C502892B09F401C16AEF70E0FA
:101C200080E090E00EDB84E27ADA0197F1F2F8C30B
:101C30002091C6023091C70280910A0290910B0256
:101C40002817390789F035DB6093C0027093C10211
:101C50008093C2029093C3028091C6029091C70202
:101C600090930B0280930A0224DB2091C0023091F2
:101C7000C1024091C2025091C302621B730B840BDC
:101C8000950BB8D520E030E040E05FE365D618164C
:101C90000CF0BDCF8091080290910902019709F0E4
:101CA0005BC06091B8027091B9028091BA029091C4
:101CB000BB0220E030E040EA52E4FFD4882309F47C
:101CC000A6CF6091B8027091B9028091BA0290914A
:101CD000BB0220E030E040E85FE38BD46093B802C1
:101CE0007093B9028093BA029093BB026091B802DC
:101CF0007091B9028091BA029091BB02B5D96091FE
:101D0000B8027091B9028091BA029091BB0241D59C
:101D1000CB016AE070E003D79C01CB016AE070E080
:101D2000FED6FC01E45FFD4F808190E090932E048D
:101D300080932D04F901E45FFD4F808190E0909342
:101D4000300480932F041093340400933304709272
:101D500036046092350461C08091080290910902B6
:101D6000029709F054CF60910002709101028091B6
:101D700002029091030220E030E040E353E49DD45E
:101D8000882309F444CF6091000270910102809190
:101D900002029091030220E030E040E85FE329D4A2
:101DA00060930002709301028093020290930302F9
:101DB00060910002709101028091020290910302F1
:101DC00053D96091000270910102809102029091BA
:101DD0000302DFD4CB016AE070E0A1D69C01CB0105
:101DE0006AE070E09CD6FC01E45FFD4F808190E0EA
:101DF00090932E0480932D04F901E45FFD4F8081C0
:101E000090E09093300480932F0410933404009357
:101E10003304F0923604E0923504FDD8F8CE809178
:101E2000080290910902019709F05AC06091B80226
:101E30007091B9028091BA029091BB0220E030E02B
:101E4000A9013BD4882309F4E9CE6091B8027091CE
:101E5000B9028091BA029091BB0220E030E040E8E4
:101E60005FE3C6D36093B8027093B9028093BA025D
:101E70009093BB026091B8027091B9028091BA024E
:101E80009091BB02F1D86091B8027091B902809133
:101E9000BA029091BB027DD4CB016AE070E03FD6DC
:101EA0009C01CB016AE070E03AD6FC01E45FFD4F93
:101EB000808190E090932E0480932D04F901E45FDB
:101EC000FD4F808190E09093300480932F04109315
:101ED000340400933304709236046092350461C078
:101EE0008091080290910902029709F097CE6091C3
:101EF000000270910102809102029091030220E0A1
:101F000030E040E052E4D9D3882309F487CE6091D1
:101F1000000270910102809102029091030220E080
:101F200030E040E85FE364D3609300027093010205
:101F3000809302029093030260910002709101026B
:101F400080910202909103028FD8609100027091FB
:101F5000010280910202909103021BD4CB016AE03E
:101F600070E0DDD59C01CB016AE070E0D8D5FC01C2
:101F7000E45FFD4F808190E090932E0480932D04C8
:101F8000F901E45FFD4F808190E0909330048093ED
:101F90002F041093340400933304F0923604E0923B
:101FA000350439D83BCEAC01BD01495E53406109CF
:101FB0007109483B5B406105710508F02DC168EE71
:101FC00073E080E090E03DD973D882E05AD8E09188
:101FD000B602F091B702FF27E45FFD4F808190E0E9
:101FE000909336048093350416D884E298D80197EC
:101FF00009F016C288E293D89093C7028093C60274
:102000008AE28DD89093C5028093C4028091C60263
:102010009091C702892B11F0F12C57C02091C60274
:102020003091C70280910A0290910B02281739075C
:1020300089F03FD96093C0027093C1028093C202BD
:102040009093C3028091C6029091C70290930B02B5
:1020500080930A022ED9C090C002D090C102E090B5
:10206000C202F090C3026C197D098E099F09C2D388
:1020700020E030E040E05FE36FD418166CF680910A
:10208000B6029091B702049739F28091B60290910E
:10209000B70201969093B7028093B602E091B60220
:1020A000F091B702FF27E45FFD4F808190E09093AD
:1020B0003604809335040E940B088091B6029091FB
:1020C000B7020E946108FF24F3948091C4029091AA
:1020D000C502892B09F057C02091C4023091C50276
:1020E00080910602909107022817390789F0E1D8FC
:1020F0006093BC027093BD028093BE029093BF02B6
:102100008091C4029091C5029093070280930602C9
:10211000D0D82091BC023091BD024091BE025091B6
:10212000BF02621B730B840B950B64D320E030E07D
:1021300040E05FE311D4181634F58091B602909117
:10214000B702892B01F18091B6029091B7020197F5
:102150009093B7028093B602E091B602F091B70275
:10216000FF27E45FFD4F808190E0909336048093D9
:1021700035040E940B088091B6029091B7020E942C
:102180006108FF24F3946AEF70E080E090E059D892
:10219000FF2009F42ACFE090B602F090B70261E088
:1021A0008AE10E94B70861E088E10E94B70861E017
:1021B00086E10E94B708E114F10451F461E08AE17C
:1021C0000E94B70861E088E10E94B70861E020C082
:1021D00041E0E416F10419F460E08AE11AC052E02B
:1021E000E516F10419F460E088E113C083E0E81615
:1021F000F10469F094E0E916F10409F0F6CE60E02C
:102200008AE10E94B70860E088E10E94B70860E0B8
:1022100086E10E94B708E9CE815A9F40A109B10921
:10222000803D9740A105B10508F0F4C068EE73E069
:1022300080E090E006D864EF71E080E090E001D8A3
:1022400082E00E9441080E940B0884E20E948F08ED
:10225000019709F0AEC088E20E948F089093C702F0
:102260008093C6028AE20E948F089093C5028093F1
:10227000C4028091C6029091C702892B09F045C023
:102280002091C6023091C70280910A0290910B0200
:102290002817390789F00DD86093C0027093C102E6
:1022A0008093C2029093C3028091C6029091C702AC
:1022B00090930B0280930A020E945909C090C002B9
:1022C000D090C102E090C202F090C3026C197D0967
:1022D0008E099F098FD220E030E040E05FE33CD3DD
:1022E00018169CF48091080290910902029769F0F7
:1022F00080910802909109020196909309028093BF
:10230000080286E892E00E94D6068091C40290916D
:10231000C502892B09F046C02091C4023091C50244
:1023200080910602909107022817390791F00E94C8
:1023300059096093BC027093BD028093BE029093D2
:10234000BF028091C4029091C502909307028093CE
:1023500006020E945909C090BC02D090BD02E090D4
:10236000BE02F090BF026C197D098E099F0942D20E
:1023700020E030E040E05FE3EFD218169CF480915B
:10238000080290910902019769F0809108029091EA
:102390000902019790930902809308028AE892E06B
:1023A0000E94D6066AEF70E080E090E00E9421096A
:1023B0004CCF8091080290910902019709F092C0D8
:1023C0008091040290910502029709F08BC0609100
:1023D000000270910102809102029091030220E0BC
:1023E00030E040E052E404D124EE38E34EE05FE315
:1023F000FCD26093B8027093B9028093BA029093B2
:10240000BB0280910802909109029093050280938B
:10241000040206C068EE73E080E090E00E942109AB
:1024200080E00E9441080E94590964EF71E080E059
:1024300090E00E9421090E947302D3C81092B40256
:10244000A2C981E08093B402FCC91092B4028ECA82
:1024500081E08093B402E8CA0E945909DC01CB01F3
:102460008C199D09AE09BF0981379741A105B105B6
:1024700018F50E945909DC01CB018C199D09AE09A0
:10248000BF09813A9F40A105B105B0F05B8155239A
:1024900009F425CB8DE692E00E94D6060E945808EA
:1024A0000E940B084FEC50E05093300440932F04EF
:1024B0000E940B081B8213CB8C81882309F40FCB5D
:1024C00087E792E00E94D6060E9458080E940B08F7
:1024D00086EE90E09093300480932F040E940B08C6
:1024E0001C82FDCA8091080290910902029709F0AE
:1024F00088CF8091040290910502019709F081CF65
:102500006091B8027091B9028091BA029091BB02B9
:1025100026E636E646EE5FE368D220E030E040E0B3
:1025200052E467D06093000270930102809302022C
:102530009093030266CFCF93DF93E4E8F3E0138236
:10254000128288EE93E0A0E0B0E084839583A683B6
:10255000B78320E232E03183208325EC30E03587F9
:10256000248724EC30E03787268720EC30E0318B5D
:10257000208B21EC30E0338B228B22EC30E0358B4A
:10258000248B26EC30E0378B268B118E128E138E27
:10259000148EE1E2F4E01382128284839583A68391
:1025A000B78382E392E091838083CFE3D4E08AE132
:1025B00090E09983888388E190E09B838A8386E119
:1025C00090E09D838C8381E090E09F838E8361E027
:1025D0008AE10E94E50861E08A810E94E50861E0E5
:1025E0008C810E94E50810923E04DF91CF910895FE
:1025F0005058BB27AA270ED075C166D130F06BD1D9
:1026000020F031F49F3F11F41EF45BC10EF4E0950D
:10261000E7FB51C1E92F77D180F3BA17620773073F
:102620008407950718F071F49EF58FC10EF4E095BC
:102630000B2EBA2FA02D0B01B90190010C01CA017C
:10264000A0011124FF27591B99F0593F50F4503E27
:1026500068F11A16F040A22F232F342F4427585F19
:10266000F3CF469537952795A795F0405395C9F731
:102670007EF41F16BA0B620B730B840BBAF09150E9
:10268000A1F0FF0FBB1F661F771F881FC2F70EC088
:10269000BA0F621F731F841F48F48795779567955B
:1026A000B795F7959E3F08F0B3CF9395880F08F044
:1026B0009927EE0F979587950895D9D008F481E072
:1026C00008950CD00FC107D140F0FED030F021F4B6
:1026D0005F3F19F0F0C0511139C1F3C014D198F324
:1026E0009923C9F35523B1F3951B550BBB27AA2793
:1026F00062177307840738F09F5F5F4F220F331F05
:10270000441FAA1FA9F333D00E2E3AF0E0E830D0D0
:1027100091505040E695001CCAF729D0FE2F27D0D3
:10272000660F771F881FBB1F261737074807AB07A1
:10273000B0E809F0BB0B802DBF01FF2793585F4F16
:102740002AF09E3F510568F0B6C000C15F3FECF330
:10275000983EDCF3869577956795B795F7959F5FDB
:10276000C9F7880F911D9695879597F90895E1E02F
:10277000660F771F881FBB1F621773078407BA078E
:1027800020F0621B730B840BBA0BEE1F88F7E095E9
:10279000089504D06894B111D9C00895BCD088F0D0
:1027A0009F5790F0B92F9927B751A0F0D1F0660F3D
:1027B000771F881F991F1AF0BA95C9F712C0B13058
:1027C00081F0C3D0B1E00895C0C0672F782F88276B
:1027D000B85F39F0B93FCCF3869577956795B39597
:1027E000D9F73EF490958095709561957F4F8F4F06
:1027F0009F4F0895E89409C097FB3EF4909580950B
:10280000709561957F4F8F4F9F4F9923A9F0F92FB6
:1028100096E9BB279395F695879577956795B79534
:10282000F111F8CFFAF4BB0F11F460FF1BC06F5F1A
:102830007F4F8F4F9F4F16C0882311F096E911C02C
:10284000772321F09EE8872F762F05C0662371F04D
:1028500096E8862F70E060E02AF09A95660F771F61
:10286000881FDAF7880F9695879597F90895990F3D
:102870000008550FAA0BE0E8FEEF16161706E8074A
:10288000F907C0F012161306E407F50798F0621B6B
:10289000730B840B950B39F40A2661F0232B242B40
:1028A000252B21F408950A2609F4A140A6958FEF5F
:1028B000811D811D089597F99F6780E870E060E0B1
:1028C00008959FEF80EC089500240A9416161706C9
:1028D00018060906089500240A9412161306140611
:1028E00005060895092E0394000C11F4882352F074
:1028F000BB0F40F4BF2B11F460FF04C06F5F7F4F2C
:102900008F4F9F4F089557FD9058440F551F59F012
:102910005F3F71F04795880F97FB991F61F09F3FCC
:1029200079F087950895121613061406551FF2CFF5
:102930004695F1DF08C0161617061806991FF1CF45
:1029400086957105610508940895E894BB2766276C
:102950007727CB0197F908958ADF08F48FEF089560
:102960000EF0AAC0AECF6894A6CFD5DFC8F39923E6
:10297000D1F3C6F3DF93CF931F930F93FF92C92F29
:10298000DD2788232AF02197660F771F881FDAF743
:1029900020E030E040E85FEB9FE3883920F0803EA4
:1029A00030F021968F7725DEE8E0F1E003C021DEEC
:1029B000E5E3F1E08FD08B01BE01EC01FB2E6F57F8
:1029C00071097595771F880B990B16DF28E132E79F
:1029D00041E35FE316D0AF2D9801AE01FF900F9158
:1029E0001F91CF91DF9116DE7DCF0BD07BCF6CDFB7
:1029F00028F071DF18F0952309F05DCF62CF112424
:102A0000A5CF81DFA0F3959FD1F3950F50E0551F1F
:102A1000629FF001729FBB27F00DB11D639FAA2733
:102A2000F00DB11DAA1F649F6627B00DA11D661F82
:102A3000829F2227B00DA11D621F739FB00DA11DA3
:102A4000621F839FA00D611D221F749F3327A00D5D
:102A5000611D231F849F600D211D822F762F6A2FF9
:102A600011249F5750408AF0E1F088234AF0EE0F7E
:102A7000FF1FBB1F661F771F881F91505040A9F78B
:102A80009E3F510570F017CF61CF5F3FECF3983E4A
:102A9000DCF3869577956795B795F795E7959F5FF2
:102AA000C1F7FE2B880F911D9695879597F908958C
:102AB000DEDE880B990B08959F3F31F0915020F492
:102AC000879577956795B795880F911D969587950A
:102AD00097F90895DF93CF931F930F93FF92EF928F
:102AE000DF927B018C01689405C0DA2EEF0189DF4B
:102AF000FE01E894A5912591359145915591AEF34C
:102B0000EF0188DDFE019701A801DA9479F7DF90E3
:102B1000EF90FF900F911F91CF91DF910895AA1B25
:102B2000BB1B51E107C0AA1FBB1FA617B70710F0B8
:102B3000A61BB70B881F991F5A95A9F780959095EA
:102B4000BC01CD010895A1E21A2EAA1BBB1BFD01F9
:102B50000DC0AA1FBB1FEE1FFF1FA217B307E4077C
:102B6000F50720F0A21BB30BE40BF50B661F771FD4
:102B7000881F991F1A9469F76095709580959095B4
:102B80009B01AC01BD01CF010895EE0FFF1F881F0F
:102B90008BBF0790F691E02D199481E090E0F894B6
:062BA00000C0F894FFCF15
:102BA6000000004201000100010001003F065B4FEA
:102BB600666D7D077F6F777C395E79710000000056
:102BC600060274019E015202CF01AD01C10100004F
:102BD600000037030B036603DF020303EF02E00284
:102BE600436F6F6C696E670048656174696E670054
:102BF6004F6666004D656E75005365742054656DAD
:102C06007000536574204C6967687473005365746B
:102C160020556E6974730053657420427269676843
:102C2600746E65737300C2B04600C2B0430043754C
:102C36007272656E742054656D70203D20000D0A19
:0E2C4600006E616E00696E66006F76660000BB
:020000023000CC
:10E000000D9489F10D94B2F10D94B2F10D94B2F129
:10E010000D94B2F10D94B2F10D94B2F10D94B2F1F0
:10E020000D94B2F10D94B2F10D94B2F10D94B2F1E0
:10E030000D94B2F10D94B2F10D94B2F10D94B2F1D0
:10E040000D94B2F10D94B2F10D94B2F10D94B2F1C0
:10E050000D94B2F10D94B2F10D94B2F10D94B2F1B0
:10E060000D94B2F10D94B2F10D94B2F10D94B2F1A0
:10E070000D94B2F10D94B2F10D94B2F10D94B2F190
:10E080000D94B2F10D94B2F10D94B2F10D94B2F180
:10E090000D94B2F10D94B2F10D94B2F10D94B2F170
:10E0A0000D94B2F10D94B2F10D94B2F10D94B2F160
:10E0B0000D94B2F10D94B2F10D94B2F10D94B2F150
:10E0C0000D94B2F10D94B2F10D94B2F10D94B2F140
:10E0D0000D94B2F10D94B2F10D94B2F10D94B2F130
:10E0E0000D94B2F141546D656761323536300041AF
:10E0F000726475696E6F206578706C6F72657220DE
:10E1000073746B3530305632206279204D4C530099
:10E11000426F6F746C6F616465723E004875683F52
:10E1200000436F6D70696C6564206F6E203D200048
:10E130004350552054797065202020203D20005FF9
:10E140005F4156525F415243485F5F3D2000415658
:10E1500052204C696243205665723D20004743437C
:10E160002056657273696F6E203D20004350552024
:10E1700049442020202020203D20004C6F7720663D
:10E18000757365202020203D20004869676820665F
:10E190007573652020203D200045787420667573D6
:10E1A00065202020203D20004C6F636B2066757336
:10E1B000652020203D20004D617220203720323024
:10E1C000313300312E362E3800342E332E350056A2
:10E1D00023202020414444522020206F7020636F70
:10E1E00064652020202020696E73747275637469E1
:10E1F0006F6E2061646472202020496E74657272B3
:10E20000757074006E6F20766563746F7200726A49
:10E210006D702020006A6D70200057686174207056
:10E220006F72743A00506F7274206E6F7420737541
:10E2300070706F72746564004D7573742062652030
:10E2400061206C6574746572002000577269747483
:10E25000696E672045450052656164696E672045B7
:10E26000450045452065727220636E743D00504F35
:10E27000525400303D5A65726F2061646472003FF1
:10E280003D43505520737461747300403D454550C3
:10E29000524F4D207465737400423D426C696E6B41
:10E2A000204C454400453D44756D70204545505215
:10E2B0004F4D00463D44756D7020464C415348001B
:10E2C000483D48656C70004C3D4C69737420492F83
:10E2D0004F20506F72747300513D51756974005234
:10E2E0003D44756D702052414D00563D73686F7707
:10E2F00020696E7465727275707420566563746FF0
:10E30000727300593D506F727420626C696E6B00BD
:10E310002A0011241FBECFEFD1E2DEBFCDBF01E046
:10E320000CBF12E0A0E0B2E0EEE1FDEF03E00BBFB6
:10E3300002C007900D92A030B107D9F712E0A0E01B
:10E34000B2E001C01D92AE30B107E1F70F9460F367
:10E350000D948DFE01E20EBF0FEF0DBF11241FBE05
:10E360000D9460F30D9400F020E030E040ED57E0B4
:10E3700005C0FA013197F1F72F5F3F4F2817390792
:10E38000C0F308959C01260F311DC901A0E0B0E043
:10E390002F5F3F4FABBFFC018791882361F08093D3
:10E3A000C6008091C00086FFFCCF8091C0008064D1
:10E3B0008093C000EACF08958DE08093C6008091DD
:10E3C000C00086FFFCCF8091C00080648093C000B5
:10E3D0008AE08093C6008091C00086FFFCCF8091C8
:10E3E000C00080648093C00008950F94C2F10F9420
:10E3F000DCF10895FC019081992359F09093C600B7
:10E400008091C00086FFFCCF8091C0008064809323
:10E41000C0003196992379F70895282F982F929567
:10E420009F70892F805D8A3308F0895F8093C600D2
:10E430008091C00086FFFCCF8091C00080648093F3
:10E44000C000822F8F70982F905D9A3308F0995FEB
:10E450009093C6008091C00086FFFCCF8091C000E1
:10E4600080648093C00008959C01FB01853691056E
:10E470001CF46330710594F0C90164E670E00F94F8
:10E480002EFE605D7F4F6093C6008091C00086FFC6
:10E49000FCCF8091C00080648093C0002B30310598
:10E4A00014F43297B4F0C90164E670E00F942EFEC4
:10E4B0006AE070E00F942EFE605D7F4F6093C600AF
:10E4C0008091C00086FFFCCF8091C0008064809363
:10E4D000C000C9016AE070E00F942EFEC0968093E0
:10E4E000C6008091C00086FFFCCF8091C000806490
:10E4F0008093C00008951F93182F8EE692EE60E07F
:10E500000F94C2F11093C6008091C00086FFFCCF2B
:10E510008091C00080648093C0000F94DCF11F9153
:10E5200008952F923F924F925F926F927F928F92B7
:10E530009F92AF92BF92CF92DF92EF92FF920F9392
:10E540001F93DF93CF93CDB7DEB762970FB6F894E2
:10E55000DEBF0FBECDBF382E622ECA01DB015C01CB
:10E560006D01772420E2222E2E010894411C511CBB
:10E570008BC081E0A81680E0B80681E0C80680E084
:10E58000D80628F0C601AA27BB270F940DF2BB2797
:10E59000AD2D9C2D8B2D0F940DF28A2D0F940DF225
:10E5A0002092C6008091C00086FFFCCF8091C00001
:10E5B00080648093C0009DE29093C6008091C0006B
:10E5C00086FFFCCF8091C00080648093C0002092C1
:10E5D000C6008091C00086FFFCCF8091C00080649F
:10E5E0008093C00019828601750188249924A1E0D6
:10E5F0003A1651F03A1620F0B2E03B1661F409C029
:10E600000BBFF701779007C0C7010F9477FE782EF4
:10E6100002C0F7017080872D0F940DF22092C60082
:10E620008091C00086FFFCCF8091C0008064809301
:10E63000C000872D8052F401EF70F0708F3520F408
:10E64000E40DF51D708204C0E40DF51D8EE280839B
:10E650000894E11CF11C011D111D0894811C911CE2
:10E6600090E18916910409F0C2CF80E190E0A0E02A
:10E67000B0E0A80EB91ECA1EDB1E198AC2010F9493
:10E68000FAF10F94DCF16A94662009F072CF629679
:10E690000FB6F894DEBF0FBECDBFCF91DF911F91B3
:10E6A0000F91FF90EF90DF90CF90BF90AF909F9031
:10E6B0008F907F906F905F904F903F902F90089534
:10E6C0002F923F924F925F926F927F928F929F9282
:10E6D000AF92BF92CF92DF92EF92FF920F931F9370
:10E6E000DF93CF93CDB7DEB7CD53D1400FB6F894BB
:10E6F000DEBF0FBECDBF01E20EBF0FEF0DBF94B75F
:10E70000F894A89514BE80916000886180936000A1
:10E7100010926000789493FF05C0E0910002F091A0
:10E7200001021995279A2F9A8091C00082608093E8
:10E73000C00080E18093C40088E18093C1000000A4
:10E74000EE24FF24870144E0A42EB12CCC24DD2448
:10E7500024C0C5010197F1F70894E11CF11C011DCB
:10E76000111D21E2E2162EE4F20620E0020720E06D
:10E77000120718F031E0C32ED12CC801B70127ECE5
:10E780003BE140E050E00F9441FE611571058105C9
:10E79000910519F485B1805885B98091C00087FD35
:10E7A00003C0C114D104A9F2A6014F5F5F4FC25E3E
:10E7B000DE4F59834883CE51D140C25EDE4F8881FF
:10E7C0009981CE51D140019711F00D9410FEC05D9A
:10E7D000DE4F19821882C053D14060E0C15DDE4F28
:10E7E0001882CF52D14088249924C35DDE4F19820C
:10E7F0001882CD52D140C05EDE4F188219821A8233
:10E800001B82C052D140CE5CDE4F188219821A8220
:10E810001B82C253D140EE24FF2487010BBFF701B6
:10E8200007911691C45CDE4F19830883CC53D14005
:10E830000D940BFEC25EDE4F28813981CE51D1404E
:10E840002130310509F52091C600C25EDE4F1982E4
:10E850001882CE51D14022C02F5F3F4F4F4F5F4FA4
:10E86000213082E138078AE7480780E0580780F0C6
:10E87000C45CDE4FE881F981CC53D140EF5FFF4F9C
:10E8800019F0EE27FF27099420E030E040E050E047
:10E890008091C00087FFE0CF2091C600C35DDE4FAE
:10E8A00048815981CD52D1404F5F5F4FC35DDE4FEC
:10E8B00059834883CD52D140213209F063C64A3092
:10E8C000510508F05FC60894811C911C53E0851621
:10E8D000910409F059C600E010E018C081E280936D
:10E8E000C6008091C00086FFFCCF8091C00080648C
:10E8F0008093C0002F5F3F4F2931310579F70F9486
:10E90000DCF10F5F1F4F0530110519F020E030E0FA
:10E91000E5CF10920A0210920B0210920C02109294
:10E920000D02109206021092070210920802109235
:10E930000902109202021092030210920402109235
:10E9400005028FEE90EE60E00F94F5F180E191EE1C
:10E9500060E00F94C2F18091C00087FFFCCF9091DE
:10E96000C600903608F09F759032B8F09093C600BC
:10E970008091C00086FFFCCF8091C00080648093AE
:10E98000C000A0E2A093C6008091C00086FFFCCF2B
:10E990008091C00080648093C000983409F4D7C18E
:10E9A0009934B8F4923409F459C1933458F490333B
:10E9B00019F1903308F4E3C59F33A1F1903409F0C5
:10E9C000DEC5BDC0953409F470C1963409F0D7C5D1
:10E9D00098C1923509F42BC2933538F49C3409F46C
:10E9E000F5C1913509F0CBC518C2963509F445C279
:10E9F000993509F0C4C567C483E792EE62E00F94CD
:10EA0000F5F110920602109207021092080210927D
:10EA1000090210920A0210920B0210920C0210923C
:10EA20000D0213C18FE792EE62E00F94F5F18FEEC5
:10EA300090EE60E00F94F5F181E291EE60E00F94CA
:10EA4000C2F187EB91EE60E00F94F5F180E391EE77
:10EA500060E00F94C2F184EE90EE60E00F94F5F167
:10EA60008FE391EE60E00F94C2F186E090E061E008
:10EA700070E00F9434F20F94DCF18DE591EE60E0DC
:10EA80000F94C2F189EC91EE60E00F94F5F18EE401
:10EA900091EE60E00F94C2F183EC91EE60E00F9490
:10EAA000F5F18CE691EE60E00F94C2F18EE10F94E7
:10EAB0000DF288E90F940DF281E00F940DF20F949E
:10EAC000DCF18BE791EE60E00F94C2F119E0E0E039
:10EAD000F0E010935700E4918E2F0F940DF20F94F5
:10EAE000DCF18AE891EE60E00F94C2F1E3E0F0E03F
:10EAF00010935700E4918E2F0F940DF20F94DCF1D8
:10EB000089E991EE60E00F94C2F1E2E0F0E0109349
:10EB10005700E4918E2F0F940DF20F94DCF188EAE8
:10EB200091EE60E00F94C2F1E1E0F0E01093570045
:10EB30001491812F0F940DF20F94DCF107CF8BE825
:10EB400092EE62E00F94F5F18BE492EE60E00F94A8
:10EB5000F5F10F94DCF100E010E019C0C8016F2D51
:10EB60000F947FFEFF2031F489E492EE60E00F9471
:10EB7000C2F10BC0F092C6008091C00086FFFCCFAE
:10EB80008091C00080648093C0000F5F1F4FC80158
:10EB900081519F41A0E0B0E0ABBFFC01F790BAE229
:10EBA000FB1621F0E2E000301E07C1F60F94DCF105
:10EBB0000F94DCF187E592EE60E00F94F5F10F948D
:10EBC000DCF1CC24DD2400E010E01EC0C8010F946D
:10EBD00077FEF82E882331F489E492EE60E00F94FA
:10EBE000C2F10BC08093C6008091C00086FFFCCFAD
:10EBF0008091C00080648093C000FE1419F00894D6
:10EC0000C11CD11C0F5F1F4FC80181519F41A0E063
:10EC1000B0E0ABBFFC01E790FAE2EF1621F022E092
:10EC20000030120799F60F94DCF10F94DCF182E6C4
:10EC300092EE60E00F94C2F1C60161E070E00F94C3
:10EC400034F20F94DCF10F94DCF110920202109276
:10EC50000302109204021092050278CE89E992EE26
:10EC600062E00F94F5F1279A2F9A16C02F9880E052
:10EC700090E0E0EDF7E03197F1F7019684369105E9
:10EC8000C1F72F9A80E090E0E0EDF7E03197F1F7DF
:10EC9000019684369105C1F78091C00087FFE6CFC9
:10ECA0008091C00087FFFCCF64C485EA92EE62E0E9
:10ECB0000F94F5F140910202509103026091040219
:10ECC0007091050281E020E10F9491F2809102029F
:10ECD00090910302A0910402B091050280509F4FD1
:10ECE000AF4FBF4F8093020290930302A0930402A0
:10ECF000B093050280509041A040B04008F426CE69
:10ED0000A4CF83EB92EE62E00F94F5F140910602FE
:10ED100050910702609108027091090280E020E1A1
:10ED20000F9491F28091060290910702A09108023F
:10ED3000B091090280509F4FAF4FBF4F80930602A2
:10ED400090930702A0930802B0930902FFCD80ECD4
:10ED500092EE62E00F94F5F183E792EE60E00F949B
:10ED6000F5F18FE792EE60E00F94F5F18BE892EE0B
:10ED700060E00F94F5F189E992EE60E00F94F5F10F
:10ED800085EA92EE60E00F94F5F183EB92EE60E09D
:10ED90000F94F5F180EC92EE60E00F94F5F187ECC2
:10EDA00092EE60E00F94F5F188ED92EE60E00F9442
:10EDB000F5F18FED92EE60E00F94F5F18AEE92EEB0
:10EDC00060E00F94F5F183E093EEBDCD87EC92EE19
:10EDD00062E00F94F5F181E40F947BF282E40F94EA
:10EDE0007BF283E40F947BF284E40F947BF285E45E
:10EDF0000F947BF286E40F947BF287E40F947BF20E
:10EE000088E40F947BF28AE40F947BF28BE40F94F6
:10EE10007BF28CE40F947BF299CD88ED92EE62E068
:10EE20000F94F5F1772473948824992409C48FED05
:10EE300092EE62E00F94F5F140910A0250910B02BC
:10EE400060910C0270910D0282E020E10F9491F22A
:10EE500080910A0290910B02A0910C02B0910D02D8
:10EE600080509F4FAF4FBF4F80930A0290930B0289
:10EE7000A0930C02B0930D0269CD8AEE92EE62E08F
:10EE80000F94F5F184EE90EE60E00F94F5F18FECC5
:10EE900091EE60E00F94F5F1662477244301CC5D98
:10EEA000DE4F19821882C452D140D401C301B695F5
:10EEB000A79597958795CA5DDE4F88839983AA8326
:10EEC000BB83C652D140CC5DDE4FA881B981C4520C
:10EED000D1401196CC5DDE4FB983A883C452D14096
:10EEE000CD0162E070E00F9434F2B0E2B093C6005E
:10EEF0008091C00086FFFCCF8091C0008064809329
:10EF0000C000EDE2E093C6008091C00086FFFCCF18
:10EF10008091C00080648093C000F0E2F093C6004E
:10EF20008091C00086FFFCCF8091C00080648093F8
:10EF3000C000CA5DDE4FE880F9800A811B81C6529D
:10EF4000D140BB27A12F902F8F2D0F940DF2CA5DBA
:10EF5000DE4F8881C652D1400F940DF2B0E2FB2EF5
:10EF6000F092C6008091C00086FFFCCF8091C00067
:10EF700080648093C0000DE30093C6008091C000C0
:10EF800086FFFCCF8091C00080648093C00010E2B7
:10EF90001093C6008091C00086FFFCCF8091C00016
:10EFA00080648093C0008BBEF3012791C65DDE4F65
:10EFB0002883CA52D140A22EBB24CC24DD2408943D
:10EFC000611C711C811C911C8BBEF3018791282E42
:10EFD0003324442455240894611C711C811C911C09
:10EFE0008BBEF3013791C55DDE4F3883CB52D140E4
:10EFF0000894611C711C811C911C8BBEF30147910C
:10F00000C45DDE4F4883CC52D140ADEFEA2EAFEF66
:10F01000FA2EAFEF0A2FAFEF1A2F6E0C7F1C801E57
:10F02000911E142D032DF22CEE24EA0CFB1C0C1D5A
:10F030001D1D0F940DF220E22093C6008091C000A8
:10F0400086FFFCCF8091C00080648093C000C65DC5
:10F05000DE4F8881CA52D1400F940DF230E23093D6
:10F06000C6008091C00086FFFCCF8091C000806404
:10F070008093C000C45DDE4F8881CC52D1400F9494
:10F080000DF240E24093C6008091C00086FFFCCFA5
:10F090008091C00080648093C000C55DDE4F888190
:10F0A000CB52D1400F940DF250E25093C6008091A4
:10F0B000C00086FFFCCF8091C00080648093C000B8
:10F0C0008FEFE8168FEFF80680E0080780E018075A
:10F0D00031F484E092EE60E00F94C2F1DFC0D80119
:10F0E000C7018070907CA070B0708050904CA040A0
:10F0F000B040D1F52FEF3FE340E050E0E222F322B1
:10F1000004231523CA5DDE4FA880B980CA80DB8046
:10F11000C652D140AE0CBF1CC01ED11EAA0CBB1CD7
:10F12000CC1CDD1C8EE092EE60E00F94C2F1BB2798
:10F13000A12F902F8F2D0F940DF28E2D0F940DF285
:10F1400030E23093C6008091C00086FFFCCF8091F2
:10F15000C00080648093C0004EE34093C60080915D
:10F16000C00086FFFCCF87C08EE09EEFA0E0B0E03D
:10F17000E822F9220A231B239CE0E91694E9F90608
:10F1800090E0090790E0190709F088C0C45DDE4FE0
:10F19000A881CC52D140EA2EFF2400E010E0102FCD
:10F1A0000F2DFE2CEE24C55DDE4FB881CB52D14031
:10F1B000EB0EF11C011D111DD601C501817090706F
:10F1C000A070B070DC0199278827E80EF91E0A1F8D
:10F1D0001B1F20EF30E040E050E0A222B322C42207
:10F1E000D52241E1AA0CBB1CCC1CDD1C4A95D1F7F1
:10F1F000EA0CFB1C0C1D1D1D81E090E0A0E0B0E0BE
:10F20000282239224A225B2235E1220C331C441C7D
:10F21000551C3A95D1F7E20CF31C041D151D57013E
:10F220006801AA0CBB1CCC1CDD1C85E192EE60E0E1
:10F230000F94C2F1C801AA27BB270F940DF2BB2778
:10F24000A12F902F8F2D0F940DF28E2D0F940DF274
:10F2500090E29093C6008091C00086FFFCCF809121
:10F26000C00080648093C000AEE3A093C60080918C
:10F27000C00086FFFCCF8091C00080648093C000F6
:10F28000C601AA27BB270F940DF2BB27AD2D9C2DDD
:10F290008B2D0F940DF28A2D0F940DF20F94DCF14B
:10F2A000CC5DDE4FE881F981C452D140F99709F471
:10F2B0004DCBF4E0EF2EF12C012D112D6E0C7F1CA7
:10F2C000801E911EF2CD83E093EE62E00F94F5F183
:10F2D0008AE192EE60E00F94C2F18091C00087FF56
:10F2E000FCCF1091C6001F751093C6008091C0001E
:10F2F00086FFFCCF8091C00080648093C0000F9493
:10F30000DCF1812F81548A3108F036C1163409F4BA
:10F3100095C0173490F4133409F44EC0143430F40B
:10F320001134F1F0123409F01DC130C0143409F465
:10F3300059C0153409F016C16BC01A3409F4C4C0A1
:10F340001B3438F4173409F48FC0183409F00AC19B
:10F35000A1C01B3409F4D2C01C3409F003C1E8C0B9
:10F360008FEF81B90DC082B1809582B980E090E0C5
:10F37000E0EDF7E03197F1F70196883C9105C1F790
:10F380008091C00087FFEFCF12B8EFC08FEF84B934
:10F390000DC085B1809585B980E090E0E0EDF7E0A3
:10F3A0003197F1F70196883C9105C1F78091C00033
:10F3B00087FFEFCF15B8D9C08FEF87B90DC088B1DF
:10F3C000809588B980E090E0E0EDF7E03197F1F7C3
:10F3D0000196883C9105C1F78091C00087FFEFCF6F
:10F3E00018B8C3C08FEF8AB90DC08BB180958BB9A7
:10F3F00080E090E0E0EDF7E03197F1F70196883C8E
:10F400009105C1F78091C00087FFEFCF1BB8ADC059
:10F410008FEF8DB90DC08EB180958EB980E090E0F0
:10F42000E0EDF7E03197F1F70196883C9105C1F7DF
:10F430008091C00087FFEFCF1EB897C08FEF80BBD1
:10F440000DC081B3809581BB80E090E0E0EDF7E0F6
:10F450003197F1F70196883C9105C1F78091C00082
:10F4600087FFEFCF11BA81C08FEF83BB0DC084B38C
:10F47000809584BB80E090E0E0EDF7E03197F1F714
:10F480000196883C9105C1F78091C00087FFEFCFBE
:10F4900014BA6BC08FEF809301010FC080910201FD
:10F4A00080958093020180E090E0E0EDF7E03197F5
:10F4B000F1F70196883C9105C1F78091C00087FF64
:10F4C000EDCF1092020151C08FEF809304010FC065
:10F4D0008091050180958093050180E090E0E0ED4A
:10F4E000F7E03197F1F70196883C9105C1F78091DB
:10F4F000C00087FFEDCF1092050137C08FEF8093DA
:10F5000007010FC08091080180958093080180E079
:10F5100090E0E0EDF7E03197F1F70196883C910536
:10F52000C1F78091C00087FFEDCF109208011DC088
:10F530008FEF80930A010FC080910B01809580931B
:10F540000B0180E090E0E0EDF7E03197F1F70196F4
:10F55000883C9105C1F78091C00087FFEDCF1092E4
:10F560000B0103C085E292EEEEC98091C00087FFD7
:10F57000FCCF8091C600EAC988E392EEE4C98CE131
:10F5800091EEE1C988249924933011F1943028F444
:10F59000913089F09230B8F408C0953061F195301F
:10F5A000F0F0963009F048C043C02B3109F042C951
:10F5B00091E06BE13FC96227C15DDE4F2883CF52E6
:10F5C000D14092E037C9B22FA0E0622793E032C960
:10F5D000822F90E0A82BB92B622794E02BC92E3004
:10F5E00009F039C3622795E0C05DDE4F19821882A9
:10F5F000C053D1401FC9E1E0F0E0EC0FFD1FC05D3A
:10F60000DE4F08811981C053D140E00FF11F2083E4
:10F610000F5F1F4FC05DDE4F19830883C053D14079
:10F6200062270A171B0709F005C9D80196E002C92D
:10F63000261709F010C303C0973009F0FBC87724E0
:10F640009981933109F412C19431C8F4963009F4C8
:10F65000D8C0973050F4923009F406C1933009F4C1
:10F660006DC0913009F059C253C0913109F477C08F
:10F67000923108F0BBC0903109F04FC2F5C098310B
:10F6800009F487C0993150F4953109F4EFC09531F0
:10F6900008F4C6C1963109F040C2C2C19A3109F4DA
:10F6A0006CC09A3108F491C09B3109F45BC09D3164
:10F6B00009F033C29D81903359F48F81882311F46E
:10F6C0009EE11CC0813011F091E018C098E916C08D
:10F6D000892F807591F0903539F4E0E0F0E089E011
:10F6E0008093570094910AC0983539F4E3E0F0E034
:10F6F00089E080935700949101C090E01A821B82A8
:10F700008D818C831D829E831F8227E030E009C299
:10F710001A8288E08B8381E48C8386E58D8382E581
:10F720008E8389E48F8383E5888780E589878FE5E9
:10F730008A8782E38B872BE030E0F3C18A818139AD
:10F7400041F0823941F0803911F48FE005C080E04A
:10F7500003C082E001C08AE01A828B8344C0772410
:10F76000739482C08D81882311F48EE12CC0813086
:10F7700011F081E028C088E926C01A82E1E0F0E0BB
:10F7800089E08093570084918B831C8224E030E0D1
:10F79000C8C18B81803589F48C81883039F4E2E0EE
:10F7A000F0E089E08093570084910DC0E0E0F0E044
:10F7B00089E080935700849106C0E3E0F0E089E09F
:10F7C0008093570084911A82DFCF8D81836C99E0FA
:10F7D000E1E0F0E0082E90935700E89507B600FCB2
:10F7E000FDCF1A821B8223E030E09BC180EC8A832C
:10F7F000CE5CDE4F188219821A821B82C253D1401E
:10F800008EC18A8190E0A0E0B0E0582F44273327D2
:10F8100022278B8190E0A0E0B0E0DC0199278827C7
:10F82000282B392B4A2B5B2B8D8190E0A0E0B0E098
:10F83000282B392B4A2B5B2B8C8190E0A0E0B0E089
:10F84000BA2FA92F982F8827282B392B4A2B5B2BCF
:10F85000220F331F441F551FC05EDE4F288339839C
:10F860004A835B83C052D1401A8259C13A81C95C34
:10F87000DE4F3883C753D140CA5CDE4F1882C6536F
:10F88000D1408B81C82EDD24CA5CDE4F488159816E
:10F89000C653D140C42AD52A933109F082C0CE5C28
:10F8A000DE4F88819981AA81BB81C253D1408050AB
:10F8B000904CA340B04030F583E0CE5CDE4FE88052
:10F8C000F9800A811B81C253D140F70100935B008C
:10F8D00080935700E89507B600FCFDCFCE5CDE4F65
:10F8E000088119812A813B81C253D14000501F4FAA
:10F8F0002F4F3F4FCE5CDE4F088319832A833B8313
:10F90000C253D140C05EDE4F488159816A817B81FC
:10F91000C052D140DE011B9631E08C9111962C91A2
:10F9200011971296C75CDE4F2883C953D140C85C3B
:10F93000DE4F1882C853D14090E0C85CDE4FE881AA
:10F94000F981C853D1408E2B9F2B0C01FA01609393
:10F950005B0030935700E89511244E5F5F4F6F4F67
:10F960007F4F0EEFE02E0FEFF02ECE0CDF1CC114F8
:10F97000D10499F685E0C05EDE4F088119812A81A5
:10F980003B81C052D140F80120935B008093570027
:10F99000E89507B600FCFDCF81E180935700E8951C
:10F9A00035C0C05EDE4F88819981AA81BB81C0527B
:10F9B000D140B695A795979587957C018601ABE0D8
:10F9C000AA2EB12CAC0EBD1E0BC0D5016D915D01F0
:10F9D000C7010F947FFE0894E11CF11C01501040F8
:10F9E0000115110591F7A60160E070E0440F551F65
:10F9F000661F771FC05EDE4FE880F9800A811B8199
:10FA0000C052D1404E0D5F1D601F711F1A82C05E33
:10FA1000DE4F488359836A837B83C052D1407FC0C5
:10FA2000FA80C55CDE4FF882CB53D140C65CDE4F16
:10FA30001882CA53D1408B81C82EDD24C65CDE4FAC
:10FA400008811981CA53D140C02AD12A1A828981DA
:10FA5000BE016D5F7F4F843121F59601C05EDE4FA0
:10FA6000E880F9800A811B81C052D1400BBFF701A9
:10FA700087919691DB018C9311969C936E5F7F4FDB
:10FA8000D801C7010296A11DB11DC05EDE4F88835B
:10FA90009983AA83BB83C052D14022503040F1F6F3
:10FAA00036C0C05EDE4F288139814A815B81C052F9
:10FAB000D1400894C108D108760100E010E0089414
:10FAC000C11CD11C0894E11CF11C011D111DE20E8A
:10FAD000F31E041F151F21BDBB27A52F942F832FB5
:10FAE00082BD2F5F3F4F4F4F5F4FF89A80B5DB01CC
:10FAF0008D93BD012E153F054007510761F7C05E8C
:10FB0000DE4F288339834A835B83C052D1409601FC
:10FB10002D5F3F4FFB01108204C080EC8A8322E0FE
:10FB200030E08BE18093C6008091C00086FFFCCF5F
:10FB30008091C00080648093C000C15DDE4FF88179
:10FB4000CF52D140F093C6008091C00086FFFCCF19
:10FB50008091C00080648093C000432F3093C60022
:10FB60008091C00086FFFCCF8091C00080648093AC
:10FB7000C000922F2093C6008091C00086FFFCCF6A
:10FB80008091C00080648093C0008EE08093C600A6
:10FB90008091C00086FFFCCF8091C000806480937C
:10FBA000C00065E1C15DDE4FE880CF52D1406E25D7
:10FBB00069276427FE01319610C090819093C6009A
:10FBC0008091C00086FFFCCF31968091C000806498
:10FBD0008093C0006927215030402115310569F715
:10FBE0006093C6008091C00086FFFCCF8091C0006A
:10FBF00080648093C00085B1805885B9772081F4F6
:10FC0000C15DDE4F0881CF52D1400F5FC15DDE4F35
:10FC10000883CF52D14090E0A0E0B0E00D941AF4F8
:10FC200027982F9880E090E020ED37E0F901319798
:10FC3000F1F7019684369105C9F700008091C00064
:10FC40008D7F8093C00081E180935700E895EE2777
:10FC5000FF270994FFCF90E00D941AF497FB092E2B
:10FC600007260AD077FD04D02ED006D000201AF443
:10FC7000709561957F4F0895F6F7909581959F4F08
:10FC80000895A1E21A2EAA1BBB1BFD010DC0AA1FDD
:10FC9000BB1FEE1FFF1FA217B307E407F50720F0F5
:10FCA000A21BB30BE40BF50B661F771F881F991F70
:10FCB0001A9469F760957095809590959B01AC01B9
:10FCC000BD01CF010895AA1BBB1B51E107C0AA1FAC
:10FCD000BB1FA617B70710F0A61BB70B881F991FED
:10FCE0005A95A9F780959095BC01CD010895F99991
:10FCF000FECF92BD81BDF89A992780B50895262F31
:10FD0000F999FECF1FBA92BD81BD20BD0FB6F89400
:0EFD1000FA9AF99A0FBE01960895F894FFCF63
:040000033000E000E9
:00000001FF
