:1000000041C100006FC100006DC100006BC1000064
:1000100069C1000067C1000065C1000063C1000044
:1000200061C100005FC100005DC100005BC1000054
:1000300059C1000057C1000055C1000053C1000064
:1000400051C100004FC100004DC100004BC1000074
:1000500049C1000047C1000045C10000FAC30000CB
:1000600041C1000000C60000D5C500003BC1000032
:1000700039C1000037C1000035C1000033C10000A4
:1000800031C100002FC100002DC100002BC10000B4
:1000900029C1000027C1000025C100001AC60000C8
:1000A00021C100001FC100001DC100001BC10000D4
:1000B00019C1000017C1000015C1000013C10000E4
:1000C00011C100000FC100000DC100000BC10000F4
:1000D00009C1000007C1000005C1000003C1000004
:1000E00001C100008E019101800184018A01C801D3
:1000F000950199019F01A301A701AD01B101B501CE
:10010000C801BB01BF01C30108000000BE92244921
:10011000123EABAAAA2ABECDCCCC4C3E0000008039
:10012000BEABAAAAAA3E00000000BF000000803FAC
:100130000000000000084178D3BB4387D1133D196C
:100140000E3CC3BD4282AD2B3E68EC8276BED98F99
:10015000E1A93E4C80EFFFBE01C4FF7F3F000000DD
:10016000000000002100240027002A002D0030009C
:10017000330001010000040107010A010000220010
:10018000250028002B002E00310034000201000061
:10019000050108010B0100002000230026002900B2
:1001A0002C002F00320000010000030106010901AC
:1001B00005050505070508080808020202020A0AE3
:1001C0000808040404040101010101010101030301
:1001D000030303030303040707070C0C0C0C0C0CAC
:1001E0000C0C0202020206060606060606060B0BA9
:1001F0000B0B0B0B0B0B01021020200808102040EA
:1002000010204080020102010804020101020408DA
:100210001020408080402010080402018004020168
:1002200080402010080402010804020101020408B1
:1002300010204080010204081020408000000A0BBA
:1002400002090C0D0E080703040100000000000065
:10025000000000000000000000000000000000009E
:10026000000000000000000012111000000000005B
:10027000000000000000000000000000000000007E
:100280000000580C11241FBECFEFD1E2DEBFCDBF5E
:1002900000E00CBF12E0A0E0B2E0E8EFFEE100E019
:1002A0000BBF02C007900D92A837B107D9F723E022
:1002B000A8E7B2E001C01D92A53CB207E1F711E04A
:1002C000C2E4D1E000E006C021970109802FFE01C1
:1002D0000E946E0FC134D10780E00807A9F726D627
:1002E0000C947A0F8DCE90E0FC013197E231F1054C
:1002F00008F04EC08827EE58FF4F8F4F0C946E0FBA
:10030000809180008F7703C0809180008F7D8093E3
:100310008000089580918000877FF9CF84B58F7722
:1003200002C084B58F7D84BD08958091B0008F7721
:1003300003C08091B0008F7D8093B00008958091BC
:1003400090008F7707C0809190008F7D03C08091CF
:100350009000877F8093900008958091A0008F7710
:1003600007C08091A0008F7D03C08091A000877F8F
:100370008093A0000895809120018F7707C080911D
:1003800020018F7D03C080912001877F8093200111
:1003900008953FB7F8948091300390913103A09174
:1003A0003203B091330326B5A89B05C02F3F19F047
:1003B0000196A11DB11D3FBFBA2FA92F982F8827E5
:1003C000820F911DA11DB11DBC01CD0142E0660F40
:1003D000771F881F991F4A95D1F70895009761F0FC
:1003E000FC0101900020E9F73197AF01481B590B40
:1003F000BC018EE892E077C280E090E008958F9291
:100400009F92AF92BF920F931F93CF93DF93CDB77D
:10041000DEB7A1970FB6F894DEBF0FBECDBF19A20D
:10042000423008F44AE08E010F5D1F4F842E912C5C
:10043000A12CB12CA50194010E944C0FE62FB9010B
:10044000CA0101501109EA3014F4E05D01C0E95C11
:10045000D801EC93232B242B252B61F7C801BEDF99
:10046000A1960FB6F894DEBF0FBECDBFDF91CF913E
:100470001F910F91BF90AF909F908F900895CF9351
:10048000DF93ACDFEC0189E692E0A8DF8C0F9D1FC3
:10049000DF91CF9108958F929F92AF92BF92CF92AA
:1004A000DF92EF92FF920F931F93CF93DF936B0135
:1004B0007C01142F9B01AC010E94150F882319F0B9
:1004C0008CE692E027C046015701E894B7F82FEF79
:1004D0003FEF4FE75FE7C501B4010E94150F81119F
:1004E0000DC02FEF3FEF4FE75FE7C501B4010E945A
:1004F0001A0D18161CF480E792E00CC02FEF3FEFA6
:100500004FE75FE4C701B6010E94690E18167CF43C
:1005100084E792E0DF91CF911F910F91FF90EF90D0
:10052000DF90CF90BF90AF909F908F9057CF2FEFDD
:100530003FEF4FE75FECC701B6010E941A0D87FD40
:10054000E7CF20E030E0A901C701B6010E941A0DF3
:1005500087FF0AC06DE28EE892E057D2EC01F7FA0D
:10056000F094F7F8F09402C0C0E0D0E000E060E062
:1005700070E080E09FE3101741F020E030E040E2BF
:1005800051E40E941E0D0F5FF6CFA70196010E9455
:10059000B60C6B017C010E948B0D4B015C014AE0A3
:1005A0002EDFC80FD91F1123A9F1C501B4010E9484
:1005B000B70D9B01AC01C701B6010E94B50C6B01E0
:1005C0007C016EE28EE892E020D2C80FD91F20E0B5
:1005D00030E040E251E4C701B6010E94B20E4B0187
:1005E0005C010E948B0D6B01E12CF12C4AE0C701EC
:1005F000B60105DFC80FD91FC701B6010E94B70DAC
:100600009B01AC01C501B4010E94B50C6B017C01DA
:100610001150E9F6CE01DF91CF911F910F91FF901C
:10062000EF90DF90CF90BF90AF909F908F90089504
:10063000CF93DF9340E02FDFEC0189E692E0CEDE3E
:100640008C0F9D1FDF91CF910895CF92DF92EF9293
:10065000FF92CF93DF936C01990FEE08FF08F7FE2E
:1006600011C06DE28EE892E0D0D1EC0166277727C9
:10067000CB016C197D098E099F094AE0C0DEC80FC5
:10068000D91F05C04AE0C701B601B9DEEC0189E611
:1006900092E0A4DE8C0F9D1FDF91CF91FF90EF9031
:1006A000DF90CF900895CF93DF93282F30E0F901AA
:1006B000E45CFD4F8491F901EA50FE4FD491F901B9
:1006C000E055FE4FC491CC2389F081110CDEEC2F54
:1006D000F0E0EE0FFF1FEA56FE4FA591B491EC91AA
:1006E000ED2381E090E021F480E002C080E090E022
:1006F000DF91CF9108951F93CF93DF93282F30E0A0
:10070000F901E45CFD4F8491F901EA50FE4FD49168
:10071000F901E055FE4FC491CC23B9F0162F811199
:10072000E2DDEC2FF0E0EE0FFF1FE458FE4FA59145
:10073000B4919FB7F894111104C08C91D095D8232F
:1007400002C0EC91DE2BDC939FBFDF91CF911F9114
:100750000895CF93DF9390E0FC01EA50FE4F24917F
:10076000FC01E055FE4F8491882361F190E0880FF1
:10077000991FFC01EE59FE4FC591D491FC01E4583C
:10078000FE4FA591B491611109C09FB7F89488817B
:10079000209582238883EC912E230BC0623061F474
:1007A0009FB7F8948881322F309583238883EC910A
:1007B0002E2B2C939FBF06C08FB7F894E8812E2B69
:1007C00028838FBFDF91CF9108958F929F92AF9230
:1007D000BF92CF92DF92EF92FF926B017C01D9DD45
:1007E0004B015C01C114D104E104F104E9F0D1DD55
:1007F000DC01CB0188199909AA09BB09883E9340FD
:10080000A105B10578F321E0C21AD108E108F10889
:1008100088EE880E83E0981EA11CB11CC114D1047F
:10082000E104F10421F7DECFFF90EF90DF90CF904D
:10083000BF90AF909F908F9008952FB7F8946091DC
:100840002C0370912D0380912E0390912F032FBFC5
:1008500008951F920F920FB60F9211242F933F937A
:100860008F939F93AF93BF9380912C0390912D030F
:10087000A0912E03B0912F0330912B0323E0230F7F
:100880002D3720F40196A11DB11D05C026E8230FC8
:100890000296A11DB11D20932B0380932C039093EE
:1008A0002D03A0932E03B0932F03809130039091DA
:1008B0003103A0913203B09133030196A11DB11D04
:1008C0008093300390933103A0933203B0933303AA
:1008D000BF91AF919F918F913F912F910F900FBE3C
:1008E0000F901F901895CF92DF92EF92FF920F9387
:1008F0001F93CF93DF936C017A018B01C0E0D0E0AE
:10090000CE15DF0581F0D8016D918D01D601ED91F5
:10091000FC910190F081E02DC6011995892B11F011
:100920002196EECF7E01C701DF91CF911F910F91EC
:10093000FF90EF90DF90CF900895FC01538D448D90
:10094000252F30E0842F90E0821B930B541710F07A
:10095000CF96089501970895FC01918D828D981787
:1009600061F0828DDF01A80FB11D5D968C91928D93
:100970009F5F9F73928F90E008958FEF9FEF089590
:10098000FC01918D828D981731F0828DE80FF11D59
:10099000858D90E008958FEF9FEF0895FC01918D74
:1009A000228D892F90E0805C9F4F821B91098F736D
:1009B000992708958EE892E0F1DF21E0892B09F470
:1009C00020E0822F0895FC01848DDF01A80FB11D66
:1009D000A35ABF4F2C91848D90E001968F73992775
:1009E000848FA689B7892C93A089B1898C91837053
:1009F00080648C93938D848D981306C00288F3894C
:100A0000E02D80818F7D80830895EF92FF920F9378
:100A10001F93CF93DF93EC0181E0888F9B8D8C8DAA
:100A2000981305C0E889F989808185FD25C0F62ED7
:100A30000B8D10E00F5F1F4F0F731127E02E8C8D71
:100A4000E8120BC00FB607FCFACFE889F98980815C
:100A500085FFF5CFCE01B7DFF2CF8B8DFE01E80F1A
:100A6000F11DE35AFF4FF0829FB7F8940B8FEA898C
:100A7000FB89808180620AC09FB7F894EE89FF8964
:100A80006083E889F98980818370806480839FBF57
:100A900081E090E0DF91CF911F910F91FF90EF9057
:100AA0000895CF93DF93EC01888D8823C1F0EA8904
:100AB000FB89808185FD05C0A889B9898C9186FD57
:100AC0000EC00FB607FCF5CF808185FFF2CFA88955
:100AD000B9898C9185FFEDCFCE0175DFE8CFDF912D
:100AE000CF91089580E090E0892B19F063DF8111A8
:100AF00025C080E090E0892B41F080E090E0892BD8
:100B000021F00E94000081111CC080E090E0892B40
:100B100041F080E090E0892B21F00E9400008111DB
:100B200013C080E090E0892BA1F080E090E0892B59
:100B300081F00E94000081110AC008950E94000007
:100B4000D8CF0E940000E1CF0E940000EACF0C94B1
:100B50000000089585ED8093BC008091BC0084FD69
:100B6000FCCF10929F03089540917B03262F30E025
:100B7000240F311D21323105DCF420919F032430F4
:100B8000C9F4FC0180E090E0861758F430917B03B3
:100B90002191DC01A55ABC4FA30FB11D2C930196E6
:100BA000F3CF80917B03680F60937B0380E008950F
:100BB00081E0089582E0089508958FEF9FEF0895F2
:100BC0008FEF9FEF089580915A0390E09195819562
:100BD00091090895CF93DF93CB01EA01642FC4DF1D
:100BE000CE01DF91CF910895CF93DF931F92CDB7C0
:100BF000DEB7698361E0CE010196B6DF81E090E067
:100C00000F90DF91CF910895089580E090E00895CE
:100C10000E94760F1F920F920FB60F9211240BB6FF
:100C20000F922F933F934F935F936F937F938F9385
:100C30009F93AF93BF93EF93FF938EE892E0C3DE51
:100C4000FF91EF91BF91AF919F918F917F916F91A4
:100C50005F914F913F912F910F900BBE0F900FBE60
:100C60000F901F9018951F920F920FB60F9211249C
:100C70000BB60F922F938F939F93EF93FF93E09177
:100C80009E02F0919F028081E091A402F091A50262
:100C900082FD12C090818091A7028F5F8F73209197
:100CA000A802821751F0E091A702F0E0E257FD4F51
:100CB000958F8093A70201C08081FF91EF919F9152
:100CC0008F912F910F900BBE0F900FBE0F901F9022
:100CD00018951F920F920FB60F9211240BB60F9218
:100CE0002F933F934F935F936F937F938F939F9334
:100CF000AF93BF93EF93FF938091B900887F8036C5
:100D000009F49CC068F5883209F45BC090F4803126
:100D100009F454C038F4882309F4F2C0883009F487
:100D20004DC0F1C0883109F44CC0803209F45DC077
:100D3000EAC0803409F468C048F4803309F455C02F
:100D4000883309F0E0C080939E03D4C0803509F455
:100D50004FC0883509F45DC0883409F0D4C0D2C0D2
:100D6000883909F4C3C0A8F4883709F467C038F497
:100D7000883609F463C0803709F460C0C4C088387D
:100D800009F4B4C0803909F45FC0803809F0BBC0F1
:100D90005BC0803B09F484C038F4803A09F466C033
:100DA000883A09F47DC0AFC0803C09F4A3C0883CF8
:100DB00009F4A0C0883B09F486C0A5C08091C40393
:100DC00010C09091C3038091C203981770F5E09111
:100DD000C30381E08E0F8093C303F0E0EE55FC4F18
:100DE00080818093BB0085EC82C080939E038AC083
:100DF000E091C30381E08E0F8093C3038091BB0019
:100E0000F0E0EE55FC4F80839091C3038091C203C4
:100E10006AC0E091C30381E08E0F8093C303809189
:100E2000BB00F0E0EE55FC4F80838091A10381115F
:100E300069C081E08093A00384EA5DC083E0809371
:100E40009F0310929D03CFCF80919D03803208F0C5
:100E50004DC0E0919D0381E08E0F80939D038091B2
:100E6000BB00F0E0E358FC4F8083BDCF85EC80935E
:100E7000BC0010929F0380919D03803230F4E0917A
:100E80009D03F0E0E358FC4F108260919D0370E0F9
:100E90008DE793E0E0E0F0E0199510929D0333C0F8
:100EA00084E080939F0310927C0310927B03E0E028
:100EB000F0E0199580917B03811105C081E080935A
:100EC0007B0310925B03E0917C0381E08E0F8093A3
:100ED0007C03F0E0E55AFC4F80818093BB00909149
:100EE0007C0380917B03981708F47DCF85E880937D
:100EF000BC0009C085EC8093BC0010929F0303C026
:100F000010929E0327DEFF91EF91BF91AF919F91C9
:100F10008F917F916F915F914F913F912F910F90A2
:100F20000BBE0F900FBE0F901F901895789484B54C
:100F3000826084BD84B5816084BD85B5826085BDD5
:100F400085B5816085BD80916E00816080936E0063
:100F50001092810080918100826080938100809155
:100F60008100816080938100809180008160809306
:100F700080008091B10084608093B1008091B000C6
:100F800081608093B0008091910082608093910095
:100F900080919100816080939100809190008160A8
:100FA000809390008091A10082608093A100809145
:100FB000A10081608093A1008091A0008160809356
:100FC000A000809121018260809321018091210104
:100FD00081608093210180912001816080932001B4
:100FE00080917A00846080937A0080917A00826098
:100FF00080937A0080917A00816080937A0080915A
:101000007A00806880937A001092C100E0919E027D
:10101000F0919F0282E08083E0919A02F0919B021E
:101020001082E0919C02F0919D0280E180831092F9
:10103000A602E091A202F091A30286E08083E091F3
:10104000A002F091A102808180618083E091A002E2
:10105000F091A102808188608083E091A002F091EC
:10106000A102808180688083E091A002F091A102BA
:1010700080818F7D808362E088E26BDB62E084E2C6
:1010800068DB62E08AE265DB60E086E362DB60E009
:1010900087E35FDB61E08EE15CDB61E08DE259DBE1
:1010A00061E08EE256DB61E08FE153DB61E08AE1D3
:1010B00050DB61E086E14DDB61E088E14ADB61E025
:1010C00080E047DB61E080E044DB61E08AE113DB44
:1010D00061E088E110DB61E086E10DDB10E4ADDB6F
:1010E00046D520918A0230918B0240918C0250911A
:1010F0008D023BD420E030E04AE754E49FD442E044
:10110000CAD980917B00877F80937B0010937C00FD
:1011100080917A00806480937A0080917A0086FDC5
:10112000FCCF6091780020917900862F90E0BC017F
:10113000722B072E000C880B990B1BD52AE038E286
:1011400040EA5BE30FD69B01AC0160E070E088E40D
:1011500092E474D420E030E040E251E406D420E090
:1011600030E04AE754E4FED5BDD54B015C019B015C
:10117000AC01F8D5A5019401F5D526EB36EA49E294
:1011800054E3F0D52B013C012BE83BE44AE759E35B
:10119000C501B401E7D52CE234E447E85AE3E6D3CD
:1011A0009B01AC01C301B201E1D39B01AC0160E042
:1011B00070E080E89FE342D423E333E948E853E456
:1011C000D4D34B015C018EE292E008D980910602F3
:1011D00090910702029799F426E636E646EE5FE321
:1011E000C501B401BFD520E030E040E052E4BED3F9
:1011F0004B015C0142E04FD98EE392E00CC080913C
:10120000060290910702019759F442E0C501B4012A
:1012100042D982E492E033D9C501B40177D4EB011D
:10122000BE010D2E000C880B990BA3D44B015C0161
:101230008091060290910702019709F040C0209129
:1012400078023091790240917A0250917B02C50177
:10125000B4018BD320E030E040E85FE33AD51816C4
:101260002CF461E08DE275DA61E022C060917802D1
:101270007091790280917A0290917B02A50194018C
:1012800074D320E030E040EA50E423D561E0181642
:1012900064F48DE25EDA60E08DE22DDA61E08EE2E8
:1012A00058DA61E08EE227DA33C08DE252DA60E08C
:1012B0008DE221DA61E08EE24CDA60E0F3CF8091DA
:1012C000060290910702029719F5209100023091D1
:1012D00001024091020250910302C501B40145D3BD
:1012E00020E030E040EA50E4F4D418160CF4B9CF12
:1012F00060910002709101028091020290910302BC
:10130000A501940132D320E030E040E251E4BDCFAA
:1013100084E2C9D9892B09F0C3C286E492E0AFD830
:101320008CDA4B015C0184E2BED9892B21F485DA89
:101330006B017C01F8CFD701C60188199909AA0968
:10134000BB09893E23E09207A105B10508F024C13D
:101350008BE492E094D864EF71E080E090E035DABD
:1013600068EE73E080E090E030DA84E29CD9019787
:1013700009F08BC288E297D95C019093890280932F
:1013800088028AE290D99093870280938602AB28E4
:1013900009F090C08091080290910902892B69F0B0
:1013A0004CDA60938202709383028093840290935C
:1013B000850210920902109208023FDA80908202A0
:1013C00090908302A0908402B090850268197909F8
:1013D0008A099B09CCD320E030E040E05FE379D478
:1013E00018160CF067C080910602909107020197D1
:1013F00071F5609178027091790280917A029091F2
:101400007B0220E030E040EA52E414D3882309F460
:1014100051C0609178027091790280917A02909126
:101420007B0220E030E040E85FE3A0D260937802E6
:101430007093790280937A0290937B026091780294
:101440007091790280917A0290917B0232C08091F2
:10145000060290910702029769F56091000270916F
:101460000102809102029091030220E030E040E30B
:1014700053E4E0D28823F1F0609100027091010200
:10148000809102029091030220E030E040E85FE3A7
:101490006DD26093000270930102809302029093D8
:1014A000030260910002709101028091020290910A
:1014B0000302BED88091860290918702892B09F0A1
:1014C00066C08091060290910702019769F56091CC
:1014D00078027091790280917A0290917B0220E0EB
:1014E00030E0A901A7D2882309F451C060917802A5
:1014F0007091790280917A0290917B0220E030E035
:1015000040E85FE332D2609378027093790280936F
:101510007A0290937B0260917802709179028091B7
:101520007A0290917B0232C080910602909107026C
:10153000029769F5609100027091010280910202A8
:101540009091030220E030E040E052E473D288231F
:10155000F1F060910002709101028091020290917D
:10156000030220E030E040E85FE3FFD16093000237
:101570007093010280930202909303026091000233
:1015800070910102809102029091030251D86AEF9A
:1015900070E080E090E0E8CE895E9340A109B10957
:1015A000883B9B40A105B10508F0CCC084E592E0E2
:1015B0000E943F0264EF71E080E090E006D984E28F
:1015C00072D8019709F061C188E26DD85C019093EF
:1015D0008902809388028AE266D89093870280937A
:1015E0008602AB2809F03DC0809108029091090263
:1015F000892B69F022D960938202709383028093D1
:10160000840290938502109209021092080215D963
:101610008090820290908302A0908402B090850214
:10162000681979098A099B09A2D220E030E040E0DC
:101630005FE34FD31816ACF480917C0290917D0249
:10164000039779F080917C0290917D0201969093AE
:101650007D0280937C0280917C0290917D020E94A9
:1016600025038091860290918702892B09F03DC065
:101670008091040290910502892B69F0DED8609375
:101680007E0270937F028093800290938102109279
:10169000050210920402D1D880907E0290907F02C1
:1016A000A0908002B0908102681979098A099B098B
:1016B0005ED220E030E040E05FE30BD31816ACF4DC
:1016C00080917C0290917D02019779F080917C025B
:1016D00090917D02019790937D0280937C0280918E
:1016E0007C0290917D020E9425036AEF70E080E009
:1016F00090E06BD8A0907C02B0907D0261E08AE11E
:101700000E947B0361E088E10E947B0361E086E147
:101710000E947B0381E0A816B10419F460E08AE11D
:101720000EC022E0A216B10419F460E088E107C0FF
:1017300083E0A816B10409F042CF60E086E10E9480
:101740007B033DCF8FE592E00E943F0264EF71E0A2
:1017500080E090E03AD884E20E945303019709F0B8
:1017600094C088E20E9453035C01909389028093A5
:1017700088028AE20E945303909387028093860234
:10178000AB2809F03BC08091080290910902892B97
:1017900069F053D86093820270938302809384022D
:1017A00090938502109209021092080246D8809008
:1017B000820290908302A0908402B0908502681902
:1017C00079098A099B09D3D120E030E040E05FE34A
:1017D00080D218169CF4809106029091070202971D
:1017E00069F080910602909107020196909307029A
:1017F000809306028EE392E00E943F02809186026F
:1018000090918702892B09F03BC08091040290914E
:101810000502892B69F011D860937E0270937F02D4
:10182000809380029093810210920502109204022C
:1018300004D880907E0290907F02A0908002B090A9
:101840008102681979098A099B0991D120E030E069
:1018500040E05FE33ED218169CF48091060290911E
:101860000702019769F080910602909107020197A3
:10187000909307028093060282E492E00E943F0266
:101880006AEF70E080E090E065CF0E941D046FD1A8
:1018900060938A0270938B0280938C0290938D02E6
:1018A00068EE73E080E090E00E94E5031BD917CC5E
:1018B000CF93DF93EEE8F2E01382128288EE93E09A
:1018C000A0E0B0E084839583A683B7832EE032E066
:1018D0003183208325EC30E03587248724EC30E009
:1018E0003787268720EC30E0318B208B21EC30E0ED
:1018F000338B228B22EC30E0358B248B26EC30E0CE
:10190000378B268B118E128E138E148EE4E3F3E048
:101910001382128284839583A683B78380E292E048
:1019200091838083C2E5D3E08AE190E09983888344
:1019300088E190E09B838A8386E190E09D838C839D
:1019400081E090E09F838E8361E08AE10E94A90399
:1019500061E08A810E94A90361E08C810E94A90351
:1019600010925103DF91CF9108955058BB27AA27B9
:101970000ED075C166D130F06BD120F031F49F3FAD
:1019800011F41EF45BC10EF4E095E7FB51C1E92FA1
:1019900077D180F3BA17620773078407950718F0A9
:1019A00071F49EF58FC10EF4E0950B2EBA2FA02D89
:1019B0000B01B90190010C01CA01A0011124FF27FC
:1019C000591B99F0593F50F4503E68F11A16F040F7
:1019D000A22F232F342F4427585FF3CF46953795F6
:1019E0002795A795F0405395C9F77EF41F16BA0BBB
:1019F000620B730B840BBAF09150A1F0FF0FBB1F69
:101A0000661F771F881FC2F70EC0BA0F621F731FB1
:101A1000841F48F4879577956795B795F7959E3F0E
:101A200008F0B3CF9395880F08F09927EE0F97959C
:101A300087950895D9D008F481E008950CD00FC19E
:101A400007D140F0FED030F021F45F3F19F0F0C034
:101A5000511139C1F3C014D198F39923C9F3552317
:101A6000B1F3951B550BBB27AA2762177307840791
:101A700038F09F5F5F4F220F331F441FAA1FA9F347
:101A800033D00E2E3AF0E0E830D091505040E69539
:101A9000001CCAF729D0FE2F27D0660F771F881F9A
:101AA000BB1F261737074807AB07B0E809F0BB0B89
:101AB000802DBF01FF2793585F4F2AF09E3F5105AD
:101AC00068F0B6C000C15F3FECF3983EDCF386954A
:101AD00077956795B795F7959F5FC9F7880F911D23
:101AE0009695879597F90895E1E0660F771F881F0F
:101AF000BB1F621773078407BA0720F0621B730BC2
:101B0000840BBA0BEE1F88F7E095089504D0689413
:101B1000B111D9C00895BCD088F09F5790F0B92F6B
:101B20009927B751A0F0D1F0660F771F881F991F32
:101B30001AF0BA95C9F712C0B13081F0C3D0B1E044
:101B40000895C0C0672F782F8827B85F39F0B93F54
:101B5000CCF3869577956795B395D9F73EF4909534
:101B60008095709561957F4F8F4F9F4F0895E894B2
:101B700009C097FB3EF490958095709561957F4FD5
:101B80008F4F9F4F9923A9F0F92F96E9BB27939583
:101B9000F695879577956795B795F111F8CFFAF493
:101BA000BB0F11F460FF1BC06F5F7F4F8F4F9F4FC4
:101BB00016C0882311F096E911C0772321F09EE822
:101BC000872F762F05C0662371F096E8862F70E088
:101BD00060E02AF09A95660F771F881FDAF7880F62
:101BE0009695879597F90895990F0008550FAA0BB8
:101BF000E0E8FEEF16161706E807F907C0F0121620
:101C00001306E407F50798F0621B730B840B950B22
:101C100039F40A2661F0232B242B252B21F4089577
:101C20000A2609F4A140A6958FEF811D811D089514
:101C300097F99F6780E870E060E008959FEF80EC7F
:101C4000089500240A941616170618060906089522
:101C500000240A9412161306140605060895092E88
:101C60000394000C11F4882352F0BB0F40F4BF2BF7
:101C700011F460FF04C06F5F7F4F8F4F9F4F089537
:101C800057FD9058440F551F59F05F3F71F047952D
:101C9000880F97FB991F61F09F3F79F08795089512
:101CA000121613061406551FF2CF4695F1DF08C031
:101CB000161617061806991FF1CF8695710561054E
:101CC00008940895E894BB2766277727CB0197F9F6
:101CD00008958ADF08F48FEF08950EF0AAC0AECF02
:101CE0006894A6CFD5DFC8F39923D1F3C6F3DF9369
:101CF000CF931F930F93FF92C92FDD2788232AF0DC
:101D00002197660F771F881FDAF720E030E040E860
:101D10005FEB9FE3883920F0803E30F021968F778B
:101D200025DEE8E0F1E003C021DEE5E3F1E08FD05D
:101D30008B01BE01EC01FB2E6F5771097595771F62
:101D4000880B990B16DF28E132E741E35FE316D0F9
:101D5000AF2D9801AE01FF900F911F91CF91DF91B0
:101D600016DE7DCF0BD07BCF6CDF28F071DF18F053
:101D7000952309F05DCF62CF1124A5CF81DFA0F3B9
:101D8000959FD1F3950F50E0551F629FF001729F10
:101D9000BB27F00DB11D639FAA27F00DB11DAA1F2F
:101DA000649F6627B00DA11D661F829F2227B00D7C
:101DB000A11D621F739FB00DA11D621F839FA00D07
:101DC000611D221F749F3327A00D611D231F849F57
:101DD000600D211D822F762F6A2F11249F575040AE
:101DE0008AF0E1F088234AF0EE0FFF1FBB1F661F49
:101DF000771F881F91505040A9F79E3F510570F002
:101E000017CF61CF5F3FECF3983EDCF38695779573
:101E10006795B795F795E7959F5FC1F7FE2B880FFC
:101E2000911D9695879597F90895DEDE880B990B9D
:101E300008959F3F31F0915020F4879577956795ED
:101E4000B795880F911D9695879597F90895DF931B
:101E5000CF931F930F93FF92EF92DF927B018C0140
:101E6000689405C0DA2EEF0189DFFE01E894A591A0
:101E70002591359145915591AEF3EF0188DDFE0135
:101E80009701A801DA9479F7DF90EF90FF900F9116
:101E90001F91CF91DF910895A1E21A2EAA1BBB1BBF
:101EA000FD010DC0AA1FBB1FEE1FFF1FA217B30726
:101EB000E407F50720F0A21BB30BE40BF50B661F3C
:101EC000771F881F991F1A9469F760957095809500
:101ED00090959B01AC01BD01CF010895EE0FFF1F4E
:101EE000881F8BBF0790F691E02D199481E090E058
:081EF000F89400C0F894FFCF44
:101EF800000000420100010001000000000005058B
:101F080073049D045105CE04AC04C0040000000015
:101F1800F405EA050506DC05E305E005DD0543757E
:101F28007272656E742054656D70203D2000C2B0D9
:101F38004600C2B043004D656E7500536574205469
:101F4800656D7000536574204C696768747300533D
:101F5800657420556E697473000D0A006E616E0019
:081F6800696E66006F766600E9
:020000023000CC
:10E000000D9489F10D94B2F10D94B2F10D94B2F129
:10E010000D94B2F10D94B2F10D94B2F10D94B2F1F0
:10E020000D94B2F10D94B2F10D94B2F10D94B2F1E0
:10E030000D94B2F10D94B2F10D94B2F10D94B2F1D0
:10E040000D94B2F10D94B2F10D94B2F10D94B2F1C0
:10E050000D94B2F10D94B2F10D94B2F10D94B2F1B0
:10E060000D94B2F10D94B2F10D94B2F10D94B2F1A0
:10E070000D94B2F10D94B2F10D94B2F10D94B2F190
:10E080000D94B2F10D94B2F10D94B2F10D94B2F180
:10E090000D94B2F10D94B2F10D94B2F10D94B2F170
:10E0A0000D94B2F10D94B2F10D94B2F10D94B2F160
:10E0B0000D94B2F10D94B2F10D94B2F10D94B2F150
:10E0C0000D94B2F10D94B2F10D94B2F10D94B2F140
:10E0D0000D94B2F10D94B2F10D94B2F10D94B2F130
:10E0E0000D94B2F141546D656761323536300041AF
:10E0F000726475696E6F206578706C6F72657220DE
:10E1000073746B3530305632206279204D4C530099
:10E11000426F6F746C6F616465723E004875683F52
:10E1200000436F6D70696C6564206F6E203D200048
:10E130004350552054797065202020203D20005FF9
:10E140005F4156525F415243485F5F3D2000415658
:10E1500052204C696243205665723D20004743437C
:10E160002056657273696F6E203D20004350552024
:10E1700049442020202020203D20004C6F7720663D
:10E18000757365202020203D20004869676820665F
:10E190007573652020203D200045787420667573D6
:10E1A00065202020203D20004C6F636B2066757336
:10E1B000652020203D20004D617220203720323024
:10E1C000313300312E362E3800342E332E350056A2
:10E1D00023202020414444522020206F7020636F70
:10E1E00064652020202020696E73747275637469E1
:10E1F0006F6E2061646472202020496E74657272B3
:10E20000757074006E6F20766563746F7200726A49
:10E210006D702020006A6D70200057686174207056
:10E220006F72743A00506F7274206E6F7420737541
:10E2300070706F72746564004D7573742062652030
:10E2400061206C6574746572002000577269747483
:10E25000696E672045450052656164696E672045B7
:10E26000450045452065727220636E743D00504F35
:10E27000525400303D5A65726F2061646472003FF1
:10E280003D43505520737461747300403D454550C3
:10E29000524F4D207465737400423D426C696E6B41
:10E2A000204C454400453D44756D70204545505215
:10E2B0004F4D00463D44756D7020464C415348001B
:10E2C000483D48656C70004C3D4C69737420492F83
:10E2D0004F20506F72747300513D51756974005234
:10E2E0003D44756D702052414D00563D73686F7707
:10E2F00020696E7465727275707420566563746FF0
:10E30000727300593D506F727420626C696E6B00BD
:10E310002A0011241FBECFEFD1E2DEBFCDBF01E046
:10E320000CBF12E0A0E0B2E0EEE1FDEF03E00BBFB6
:10E3300002C007900D92A030B107D9F712E0A0E01B
:10E34000B2E001C01D92AE30B107E1F70F9460F367
:10E350000D948DFE01E20EBF0FEF0DBF11241FBE05
:10E360000D9460F30D9400F020E030E040ED57E0B4
:10E3700005C0FA013197F1F72F5F3F4F2817390792
:10E38000C0F308959C01260F311DC901A0E0B0E043
:10E390002F5F3F4FABBFFC018791882361F08093D3
:10E3A000C6008091C00086FFFCCF8091C0008064D1
:10E3B0008093C000EACF08958DE08093C6008091DD
:10E3C000C00086FFFCCF8091C00080648093C000B5
:10E3D0008AE08093C6008091C00086FFFCCF8091C8
:10E3E000C00080648093C00008950F94C2F10F9420
:10E3F000DCF10895FC019081992359F09093C600B7
:10E400008091C00086FFFCCF8091C0008064809323
:10E41000C0003196992379F70895282F982F929567
:10E420009F70892F805D8A3308F0895F8093C600D2
:10E430008091C00086FFFCCF8091C00080648093F3
:10E44000C000822F8F70982F905D9A3308F0995FEB
:10E450009093C6008091C00086FFFCCF8091C000E1
:10E4600080648093C00008959C01FB01853691056E
:10E470001CF46330710594F0C90164E670E00F94F8
:10E480002EFE605D7F4F6093C6008091C00086FFC6
:10E49000FCCF8091C00080648093C0002B30310598
:10E4A00014F43297B4F0C90164E670E00F942EFEC4
:10E4B0006AE070E00F942EFE605D7F4F6093C600AF
:10E4C0008091C00086FFFCCF8091C0008064809363
:10E4D000C000C9016AE070E00F942EFEC0968093E0
:10E4E000C6008091C00086FFFCCF8091C000806490
:10E4F0008093C00008951F93182F8EE692EE60E07F
:10E500000F94C2F11093C6008091C00086FFFCCF2B
:10E510008091C00080648093C0000F94DCF11F9153
:10E5200008952F923F924F925F926F927F928F92B7
:10E530009F92AF92BF92CF92DF92EF92FF920F9392
:10E540001F93DF93CF93CDB7DEB762970FB6F894E2
:10E55000DEBF0FBECDBF382E622ECA01DB015C01CB
:10E560006D01772420E2222E2E010894411C511CBB
:10E570008BC081E0A81680E0B80681E0C80680E084
:10E58000D80628F0C601AA27BB270F940DF2BB2797
:10E59000AD2D9C2D8B2D0F940DF28A2D0F940DF225
:10E5A0002092C6008091C00086FFFCCF8091C00001
:10E5B00080648093C0009DE29093C6008091C0006B
:10E5C00086FFFCCF8091C00080648093C0002092C1
:10E5D000C6008091C00086FFFCCF8091C00080649F
:10E5E0008093C00019828601750188249924A1E0D6
:10E5F0003A1651F03A1620F0B2E03B1661F409C029
:10E600000BBFF701779007C0C7010F9477FE782EF4
:10E6100002C0F7017080872D0F940DF22092C60082
:10E620008091C00086FFFCCF8091C0008064809301
:10E63000C000872D8052F401EF70F0708F3520F408
:10E64000E40DF51D708204C0E40DF51D8EE280839B
:10E650000894E11CF11C011D111D0894811C911CE2
:10E6600090E18916910409F0C2CF80E190E0A0E02A
:10E67000B0E0A80EB91ECA1EDB1E198AC2010F9493
:10E68000FAF10F94DCF16A94662009F072CF629679
:10E690000FB6F894DEBF0FBECDBFCF91DF911F91B3
:10E6A0000F91FF90EF90DF90CF90BF90AF909F9031
:10E6B0008F907F906F905F904F903F902F90089534
:10E6C0002F923F924F925F926F927F928F929F9282
:10E6D000AF92BF92CF92DF92EF92FF920F931F9370
:10E6E000DF93CF93CDB7DEB7CD53D1400FB6F894BB
:10E6F000DEBF0FBECDBF01E20EBF0FEF0DBF94B75F
:10E70000F894A89514BE80916000886180936000A1
:10E7100010926000789493FF05C0E0910002F091A0
:10E7200001021995279A2F9A8091C00082608093E8
:10E73000C00080E18093C40088E18093C1000000A4
:10E74000EE24FF24870144E0A42EB12CCC24DD2448
:10E7500024C0C5010197F1F70894E11CF11C011DCB
:10E76000111D21E2E2162EE4F20620E0020720E06D
:10E77000120718F031E0C32ED12CC801B70127ECE5
:10E780003BE140E050E00F9441FE611571058105C9
:10E79000910519F485B1805885B98091C00087FD35
:10E7A00003C0C114D104A9F2A6014F5F5F4FC25E3E
:10E7B000DE4F59834883CE51D140C25EDE4F8881FF
:10E7C0009981CE51D140019711F00D9410FEC05D9A
:10E7D000DE4F19821882C053D14060E0C15DDE4F28
:10E7E0001882CF52D14088249924C35DDE4F19820C
:10E7F0001882CD52D140C05EDE4F188219821A8233
:10E800001B82C052D140CE5CDE4F188219821A8220
:10E810001B82C253D140EE24FF2487010BBFF701B6
:10E8200007911691C45CDE4F19830883CC53D14005
:10E830000D940BFEC25EDE4F28813981CE51D1404E
:10E840002130310509F52091C600C25EDE4F1982E4
:10E850001882CE51D14022C02F5F3F4F4F4F5F4FA4
:10E86000213082E138078AE7480780E0580780F0C6
:10E87000C45CDE4FE881F981CC53D140EF5FFF4F9C
:10E8800019F0EE27FF27099420E030E040E050E047
:10E890008091C00087FFE0CF2091C600C35DDE4FAE
:10E8A00048815981CD52D1404F5F5F4FC35DDE4FEC
:10E8B00059834883CD52D140213209F063C64A3092
:10E8C000510508F05FC60894811C911C53E0851621
:10E8D000910409F059C600E010E018C081E280936D
:10E8E000C6008091C00086FFFCCF8091C00080648C
:10E8F0008093C0002F5F3F4F2931310579F70F9486
:10E90000DCF10F5F1F4F0530110519F020E030E0FA
:10E91000E5CF10920A0210920B0210920C02109294
:10E920000D02109206021092070210920802109235
:10E930000902109202021092030210920402109235
:10E9400005028FEE90EE60E00F94F5F180E191EE1C
:10E9500060E00F94C2F18091C00087FFFCCF9091DE
:10E96000C600903608F09F759032B8F09093C600BC
:10E970008091C00086FFFCCF8091C00080648093AE
:10E98000C000A0E2A093C6008091C00086FFFCCF2B
:10E990008091C00080648093C000983409F4D7C18E
:10E9A0009934B8F4923409F459C1933458F490333B
:10E9B00019F1903308F4E3C59F33A1F1903409F0C5
:10E9C000DEC5BDC0953409F470C1963409F0D7C5D1
:10E9D00098C1923509F42BC2933538F49C3409F46C
:10E9E000F5C1913509F0CBC518C2963509F445C279
:10E9F000993509F0C4C567C483E792EE62E00F94CD
:10EA0000F5F110920602109207021092080210927D
:10EA1000090210920A0210920B0210920C0210923C
:10EA20000D0213C18FE792EE62E00F94F5F18FEEC5
:10EA300090EE60E00F94F5F181E291EE60E00F94CA
:10EA4000C2F187EB91EE60E00F94F5F180E391EE77
:10EA500060E00F94C2F184EE90EE60E00F94F5F167
:10EA60008FE391EE60E00F94C2F186E090E061E008
:10EA700070E00F9434F20F94DCF18DE591EE60E0DC
:10EA80000F94C2F189EC91EE60E00F94F5F18EE401
:10EA900091EE60E00F94C2F183EC91EE60E00F9490
:10EAA000F5F18CE691EE60E00F94C2F18EE10F94E7
:10EAB0000DF288E90F940DF281E00F940DF20F949E
:10EAC000DCF18BE791EE60E00F94C2F119E0E0E039
:10EAD000F0E010935700E4918E2F0F940DF20F94F5
:10EAE000DCF18AE891EE60E00F94C2F1E3E0F0E03F
:10EAF00010935700E4918E2F0F940DF20F94DCF1D8
:10EB000089E991EE60E00F94C2F1E2E0F0E0109349
:10EB10005700E4918E2F0F940DF20F94DCF188EAE8
:10EB200091EE60E00F94C2F1E1E0F0E01093570045
:10EB30001491812F0F940DF20F94DCF107CF8BE825
:10EB400092EE62E00F94F5F18BE492EE60E00F94A8
:10EB5000F5F10F94DCF100E010E019C0C8016F2D51
:10EB60000F947FFEFF2031F489E492EE60E00F9471
:10EB7000C2F10BC0F092C6008091C00086FFFCCFAE
:10EB80008091C00080648093C0000F5F1F4FC80158
:10EB900081519F41A0E0B0E0ABBFFC01F790BAE229
:10EBA000FB1621F0E2E000301E07C1F60F94DCF105
:10EBB0000F94DCF187E592EE60E00F94F5F10F948D
:10EBC000DCF1CC24DD2400E010E01EC0C8010F946D
:10EBD00077FEF82E882331F489E492EE60E00F94FA
:10EBE000C2F10BC08093C6008091C00086FFFCCFAD
:10EBF0008091C00080648093C000FE1419F00894D6
:10EC0000C11CD11C0F5F1F4FC80181519F41A0E063
:10EC1000B0E0ABBFFC01E790FAE2EF1621F022E092
:10EC20000030120799F60F94DCF10F94DCF182E6C4
:10EC300092EE60E00F94C2F1C60161E070E00F94C3
:10EC400034F20F94DCF10F94DCF110920202109276
:10EC50000302109204021092050278CE89E992EE26
:10EC600062E00F94F5F1279A2F9A16C02F9880E052
:10EC700090E0E0EDF7E03197F1F7019684369105E9
:10EC8000C1F72F9A80E090E0E0EDF7E03197F1F7DF
:10EC9000019684369105C1F78091C00087FFE6CFC9
:10ECA0008091C00087FFFCCF64C485EA92EE62E0E9
:10ECB0000F94F5F140910202509103026091040219
:10ECC0007091050281E020E10F9491F2809102029F
:10ECD00090910302A0910402B091050280509F4FD1
:10ECE000AF4FBF4F8093020290930302A0930402A0
:10ECF000B093050280509041A040B04008F426CE69
:10ED0000A4CF83EB92EE62E00F94F5F140910602FE
:10ED100050910702609108027091090280E020E1A1
:10ED20000F9491F28091060290910702A09108023F
:10ED3000B091090280509F4FAF4FBF4F80930602A2
:10ED400090930702A0930802B0930902FFCD80ECD4
:10ED500092EE62E00F94F5F183E792EE60E00F949B
:10ED6000F5F18FE792EE60E00F94F5F18BE892EE0B
:10ED700060E00F94F5F189E992EE60E00F94F5F10F
:10ED800085EA92EE60E00F94F5F183EB92EE60E09D
:10ED90000F94F5F180EC92EE60E00F94F5F187ECC2
:10EDA00092EE60E00F94F5F188ED92EE60E00F9442
:10EDB000F5F18FED92EE60E00F94F5F18AEE92EEB0
:10EDC00060E00F94F5F183E093EEBDCD87EC92EE19
:10EDD00062E00F94F5F181E40F947BF282E40F94EA
:10EDE0007BF283E40F947BF284E40F947BF285E45E
:10EDF0000F947BF286E40F947BF287E40F947BF20E
:10EE000088E40F947BF28AE40F947BF28BE40F94F6
:10EE10007BF28CE40F947BF299CD88ED92EE62E068
:10EE20000F94F5F1772473948824992409C48FED05
:10EE300092EE62E00F94F5F140910A0250910B02BC
:10EE400060910C0270910D0282E020E10F9491F22A
:10EE500080910A0290910B02A0910C02B0910D02D8
:10EE600080509F4FAF4FBF4F80930A0290930B0289
:10EE7000A0930C02B0930D0269CD8AEE92EE62E08F
:10EE80000F94F5F184EE90EE60E00F94F5F18FECC5
:10EE900091EE60E00F94F5F1662477244301CC5D98
:10EEA000DE4F19821882C452D140D401C301B695F5
:10EEB000A79597958795CA5DDE4F88839983AA8326
:10EEC000BB83C652D140CC5DDE4FA881B981C4520C
:10EED000D1401196CC5DDE4FB983A883C452D14096
:10EEE000CD0162E070E00F9434F2B0E2B093C6005E
:10EEF0008091C00086FFFCCF8091C0008064809329
:10EF0000C000EDE2E093C6008091C00086FFFCCF18
:10EF10008091C00080648093C000F0E2F093C6004E
:10EF20008091C00086FFFCCF8091C00080648093F8
:10EF3000C000CA5DDE4FE880F9800A811B81C6529D
:10EF4000D140BB27A12F902F8F2D0F940DF2CA5DBA
:10EF5000DE4F8881C652D1400F940DF2B0E2FB2EF5
:10EF6000F092C6008091C00086FFFCCF8091C00067
:10EF700080648093C0000DE30093C6008091C000C0
:10EF800086FFFCCF8091C00080648093C00010E2B7
:10EF90001093C6008091C00086FFFCCF8091C00016
:10EFA00080648093C0008BBEF3012791C65DDE4F65
:10EFB0002883CA52D140A22EBB24CC24DD2408943D
:10EFC000611C711C811C911C8BBEF3018791282E42
:10EFD0003324442455240894611C711C811C911C09
:10EFE0008BBEF3013791C55DDE4F3883CB52D140E4
:10EFF0000894611C711C811C911C8BBEF30147910C
:10F00000C45DDE4F4883CC52D140ADEFEA2EAFEF66
:10F01000FA2EAFEF0A2FAFEF1A2F6E0C7F1C801E57
:10F02000911E142D032DF22CEE24EA0CFB1C0C1D5A
:10F030001D1D0F940DF220E22093C6008091C000A8
:10F0400086FFFCCF8091C00080648093C000C65DC5
:10F05000DE4F8881CA52D1400F940DF230E23093D6
:10F06000C6008091C00086FFFCCF8091C000806404
:10F070008093C000C45DDE4F8881CC52D1400F9494
:10F080000DF240E24093C6008091C00086FFFCCFA5
:10F090008091C00080648093C000C55DDE4F888190
:10F0A000CB52D1400F940DF250E25093C6008091A4
:10F0B000C00086FFFCCF8091C00080648093C000B8
:10F0C0008FEFE8168FEFF80680E0080780E018075A
:10F0D00031F484E092EE60E00F94C2F1DFC0D80119
:10F0E000C7018070907CA070B0708050904CA040A0
:10F0F000B040D1F52FEF3FE340E050E0E222F322B1
:10F1000004231523CA5DDE4FA880B980CA80DB8046
:10F11000C652D140AE0CBF1CC01ED11EAA0CBB1CD7
:10F12000CC1CDD1C8EE092EE60E00F94C2F1BB2798
:10F13000A12F902F8F2D0F940DF28E2D0F940DF285
:10F1400030E23093C6008091C00086FFFCCF8091F2
:10F15000C00080648093C0004EE34093C60080915D
:10F16000C00086FFFCCF87C08EE09EEFA0E0B0E03D
:10F17000E822F9220A231B239CE0E91694E9F90608
:10F1800090E0090790E0190709F088C0C45DDE4FE0
:10F19000A881CC52D140EA2EFF2400E010E0102FCD
:10F1A0000F2DFE2CEE24C55DDE4FB881CB52D14031
:10F1B000EB0EF11C011D111DD601C501817090706F
:10F1C000A070B070DC0199278827E80EF91E0A1F8D
:10F1D0001B1F20EF30E040E050E0A222B322C42207
:10F1E000D52241E1AA0CBB1CCC1CDD1C4A95D1F7F1
:10F1F000EA0CFB1C0C1D1D1D81E090E0A0E0B0E0BE
:10F20000282239224A225B2235E1220C331C441C7D
:10F21000551C3A95D1F7E20CF31C041D151D57013E
:10F220006801AA0CBB1CCC1CDD1C85E192EE60E0E1
:10F230000F94C2F1C801AA27BB270F940DF2BB2778
:10F24000A12F902F8F2D0F940DF28E2D0F940DF274
:10F2500090E29093C6008091C00086FFFCCF809121
:10F26000C00080648093C000AEE3A093C60080918C
:10F27000C00086FFFCCF8091C00080648093C000F6
:10F28000C601AA27BB270F940DF2BB27AD2D9C2DDD
:10F290008B2D0F940DF28A2D0F940DF20F94DCF14B
:10F2A000CC5DDE4FE881F981C452D140F99709F471
:10F2B0004DCBF4E0EF2EF12C012D112D6E0C7F1CA7
:10F2C000801E911EF2CD83E093EE62E00F94F5F183
:10F2D0008AE192EE60E00F94C2F18091C00087FF56
:10F2E000FCCF1091C6001F751093C6008091C0001E
:10F2F00086FFFCCF8091C00080648093C0000F9493
:10F30000DCF1812F81548A3108F036C1163409F4BA
:10F3100095C0173490F4133409F44EC0143430F40B
:10F320001134F1F0123409F01DC130C0143409F465
:10F3300059C0153409F016C16BC01A3409F4C4C0A1
:10F340001B3438F4173409F48FC0183409F00AC19B
:10F35000A1C01B3409F4D2C01C3409F003C1E8C0B9
:10F360008FEF81B90DC082B1809582B980E090E0C5
:10F37000E0EDF7E03197F1F70196883C9105C1F790
:10F380008091C00087FFEFCF12B8EFC08FEF84B934
:10F390000DC085B1809585B980E090E0E0EDF7E0A3
:10F3A0003197F1F70196883C9105C1F78091C00033
:10F3B00087FFEFCF15B8D9C08FEF87B90DC088B1DF
:10F3C000809588B980E090E0E0EDF7E03197F1F7C3
:10F3D0000196883C9105C1F78091C00087FFEFCF6F
:10F3E00018B8C3C08FEF8AB90DC08BB180958BB9A7
:10F3F00080E090E0E0EDF7E03197F1F70196883C8E
:10F400009105C1F78091C00087FFEFCF1BB8ADC059
:10F410008FEF8DB90DC08EB180958EB980E090E0F0
:10F42000E0EDF7E03197F1F70196883C9105C1F7DF
:10F430008091C00087FFEFCF1EB897C08FEF80BBD1
:10F440000DC081B3809581BB80E090E0E0EDF7E0F6
:10F450003197F1F70196883C9105C1F78091C00082
:10F4600087FFEFCF11BA81C08FEF83BB0DC084B38C
:10F47000809584BB80E090E0E0EDF7E03197F1F714
:10F480000196883C9105C1F78091C00087FFEFCFBE
:10F4900014BA6BC08FEF809301010FC080910201FD
:10F4A00080958093020180E090E0E0EDF7E03197F5
:10F4B000F1F70196883C9105C1F78091C00087FF64
:10F4C000EDCF1092020151C08FEF809304010FC065
:10F4D0008091050180958093050180E090E0E0ED4A
:10F4E000F7E03197F1F70196883C9105C1F78091DB
:10F4F000C00087FFEDCF1092050137C08FEF8093DA
:10F5000007010FC08091080180958093080180E079
:10F5100090E0E0EDF7E03197F1F70196883C910536
:10F52000C1F78091C00087FFEDCF109208011DC088
:10F530008FEF80930A010FC080910B01809580931B
:10F540000B0180E090E0E0EDF7E03197F1F70196F4
:10F55000883C9105C1F78091C00087FFEDCF1092E4
:10F560000B0103C085E292EEEEC98091C00087FFD7
:10F57000FCCF8091C600EAC988E392EEE4C98CE131
:10F5800091EEE1C988249924933011F1943028F444
:10F59000913089F09230B8F408C0953061F195301F
:10F5A000F0F0963009F048C043C02B3109F042C951
:10F5B00091E06BE13FC96227C15DDE4F2883CF52E6
:10F5C000D14092E037C9B22FA0E0622793E032C960
:10F5D000822F90E0A82BB92B622794E02BC92E3004
:10F5E00009F039C3622795E0C05DDE4F19821882A9
:10F5F000C053D1401FC9E1E0F0E0EC0FFD1FC05D3A
:10F60000DE4F08811981C053D140E00FF11F2083E4
:10F610000F5F1F4FC05DDE4F19830883C053D14079
:10F6200062270A171B0709F005C9D80196E002C92D
:10F63000261709F010C303C0973009F0FBC87724E0
:10F640009981933109F412C19431C8F4963009F4C8
:10F65000D8C0973050F4923009F406C1933009F4C1
:10F660006DC0913009F059C253C0913109F477C08F
:10F67000923108F0BBC0903109F04FC2F5C098310B
:10F6800009F487C0993150F4953109F4EFC09531F0
:10F6900008F4C6C1963109F040C2C2C19A3109F4DA
:10F6A0006CC09A3108F491C09B3109F45BC09D3164
:10F6B00009F033C29D81903359F48F81882311F46E
:10F6C0009EE11CC0813011F091E018C098E916C08D
:10F6D000892F807591F0903539F4E0E0F0E089E011
:10F6E0008093570094910AC0983539F4E3E0F0E034
:10F6F00089E080935700949101C090E01A821B82A8
:10F700008D818C831D829E831F8227E030E009C299
:10F710001A8288E08B8381E48C8386E58D8382E581
:10F720008E8389E48F8383E5888780E589878FE5E9
:10F730008A8782E38B872BE030E0F3C18A818139AD
:10F7400041F0823941F0803911F48FE005C080E04A
:10F7500003C082E001C08AE01A828B8344C0772410
:10F76000739482C08D81882311F48EE12CC0813086
:10F7700011F081E028C088E926C01A82E1E0F0E0BB
:10F7800089E08093570084918B831C8224E030E0D1
:10F79000C8C18B81803589F48C81883039F4E2E0EE
:10F7A000F0E089E08093570084910DC0E0E0F0E044
:10F7B00089E080935700849106C0E3E0F0E089E09F
:10F7C0008093570084911A82DFCF8D81836C99E0FA
:10F7D000E1E0F0E0082E90935700E89507B600FCB2
:10F7E000FDCF1A821B8223E030E09BC180EC8A832C
:10F7F000CE5CDE4F188219821A821B82C253D1401E
:10F800008EC18A8190E0A0E0B0E0582F44273327D2
:10F8100022278B8190E0A0E0B0E0DC0199278827C7
:10F82000282B392B4A2B5B2B8D8190E0A0E0B0E098
:10F83000282B392B4A2B5B2B8C8190E0A0E0B0E089
:10F84000BA2FA92F982F8827282B392B4A2B5B2BCF
:10F85000220F331F441F551FC05EDE4F288339839C
:10F860004A835B83C052D1401A8259C13A81C95C34
:10F87000DE4F3883C753D140CA5CDE4F1882C6536F
:10F88000D1408B81C82EDD24CA5CDE4F488159816E
:10F89000C653D140C42AD52A933109F082C0CE5C28
:10F8A000DE4F88819981AA81BB81C253D1408050AB
:10F8B000904CA340B04030F583E0CE5CDE4FE88052
:10F8C000F9800A811B81C253D140F70100935B008C
:10F8D00080935700E89507B600FCFDCFCE5CDE4F65
:10F8E000088119812A813B81C253D14000501F4FAA
:10F8F0002F4F3F4FCE5CDE4F088319832A833B8313
:10F90000C253D140C05EDE4F488159816A817B81FC
:10F91000C052D140DE011B9631E08C9111962C91A2
:10F9200011971296C75CDE4F2883C953D140C85C3B
:10F93000DE4F1882C853D14090E0C85CDE4FE881AA
:10F94000F981C853D1408E2B9F2B0C01FA01609393
:10F950005B0030935700E89511244E5F5F4F6F4F67
:10F960007F4F0EEFE02E0FEFF02ECE0CDF1CC114F8
:10F97000D10499F685E0C05EDE4F088119812A81A5
:10F980003B81C052D140F80120935B008093570027
:10F99000E89507B600FCFDCF81E180935700E8951C
:10F9A00035C0C05EDE4F88819981AA81BB81C0527B
:10F9B000D140B695A795979587957C018601ABE0D8
:10F9C000AA2EB12CAC0EBD1E0BC0D5016D915D01F0
:10F9D000C7010F947FFE0894E11CF11C01501040F8
:10F9E0000115110591F7A60160E070E0440F551F65
:10F9F000661F771FC05EDE4FE880F9800A811B8199
:10FA0000C052D1404E0D5F1D601F711F1A82C05E33
:10FA1000DE4F488359836A837B83C052D1407FC0C5
:10FA2000FA80C55CDE4FF882CB53D140C65CDE4F16
:10FA30001882CA53D1408B81C82EDD24C65CDE4FAC
:10FA400008811981CA53D140C02AD12A1A828981DA
:10FA5000BE016D5F7F4F843121F59601C05EDE4FA0
:10FA6000E880F9800A811B81C052D1400BBFF701A9
:10FA700087919691DB018C9311969C936E5F7F4FDB
:10FA8000D801C7010296A11DB11DC05EDE4F88835B
:10FA90009983AA83BB83C052D14022503040F1F6F3
:10FAA00036C0C05EDE4F288139814A815B81C052F9
:10FAB000D1400894C108D108760100E010E0089414
:10FAC000C11CD11C0894E11CF11C011D111DE20E8A
:10FAD000F31E041F151F21BDBB27A52F942F832FB5
:10FAE00082BD2F5F3F4F4F4F5F4FF89A80B5DB01CC
:10FAF0008D93BD012E153F054007510761F7C05E8C
:10FB0000DE4F288339834A835B83C052D1409601FC
:10FB10002D5F3F4FFB01108204C080EC8A8322E0FE
:10FB200030E08BE18093C6008091C00086FFFCCF5F
:10FB30008091C00080648093C000C15DDE4FF88179
:10FB4000CF52D140F093C6008091C00086FFFCCF19
:10FB50008091C00080648093C000432F3093C60022
:10FB60008091C00086FFFCCF8091C00080648093AC
:10FB7000C000922F2093C6008091C00086FFFCCF6A
:10FB80008091C00080648093C0008EE08093C600A6
:10FB90008091C00086FFFCCF8091C000806480937C
:10FBA000C00065E1C15DDE4FE880CF52D1406E25D7
:10FBB00069276427FE01319610C090819093C6009A
:10FBC0008091C00086FFFCCF31968091C000806498
:10FBD0008093C0006927215030402115310569F715
:10FBE0006093C6008091C00086FFFCCF8091C0006A
:10FBF00080648093C00085B1805885B9772081F4F6
:10FC0000C15DDE4F0881CF52D1400F5FC15DDE4F35
:10FC10000883CF52D14090E0A0E0B0E00D941AF4F8
:10FC200027982F9880E090E020ED37E0F901319798
:10FC3000F1F7019684369105C9F700008091C00064
:10FC40008D7F8093C00081E180935700E895EE2777
:10FC5000FF270994FFCF90E00D941AF497FB092E2B
:10FC600007260AD077FD04D02ED006D000201AF443
:10FC7000709561957F4F0895F6F7909581959F4F08
:10FC80000895A1E21A2EAA1BBB1BFD010DC0AA1FDD
:10FC9000BB1FEE1FFF1FA217B307E407F50720F0F5
:10FCA000A21BB30BE40BF50B661F771F881F991F70
:10FCB0001A9469F760957095809590959B01AC01B9
:10FCC000BD01CF010895AA1BBB1B51E107C0AA1FAC
:10FCD000BB1FA617B70710F0A61BB70B881F991FED
:10FCE0005A95A9F780959095BC01CD010895F99991
:10FCF000FECF92BD81BDF89A992780B50895262F31
:10FD0000F999FECF1FBA92BD81BD20BD0FB6F89400
:0EFD1000FA9AF99A0FBE01960895F894FFCF63
:040000033000E000E9
:00000001FF
