:1000000041C1000070C100006EC100006CC1000061
:100010006AC1000068C1000066C1000064C1000040
:1000200062C1000060C100005EC100005CC1000050
:100030005AC1000058C1000056C1000054C1000060
:1000400052C1000050C100004EC100004CC1000070
:100050004AC1000048C1000046C100000C94790963
:1000600042C10000D0C60000A5C600003CC100008F
:100070003AC1000038C1000036C1000034C10000A0
:1000800032C1000030C100002EC100002CC10000B0
:100090002AC1000028C1000026C10000EAC60000F5
:1000A00022C1000020C100001EC100001CC10000D0
:1000B0001AC1000018C1000016C1000014C10000E0
:1000C00012C1000010C100000EC100000CC10000F0
:1000D0000AC1000008C1000006C1000004C1000000
:1000E00002C100008F019201810185018B01C901CC
:1000F00096019A01A001A401A801AE01B201B601C6
:10010000C901BC01C001C40108000000BE9224491D
:10011000123EABAAAA2ABECDCCCC4C3E0000008039
:10012000BEABAAAAAA3E00000000BF000000803FAC
:100130000000000000084178D3BB4387D1133D196C
:100140000E3CC3BD4282AD2B3E68EC8276BED98F99
:10015000E1A93E4C80EFFFBE01C4FF7F3F000000DD
:10016000000000002100240027002A002D0030009C
:10017000330001010000040107010A010000220010
:10018000250028002B002E00310034000201000061
:10019000050108010B0100002000230026002900B2
:1001A0002C002F00320000010000030106010901AC
:1001B00005050505070508080808020202020A0AE3
:1001C0000808040404040101010101010101030301
:1001D000030303030303040707070C0C0C0C0C0CAC
:1001E0000C0C0202020206060606060606060B0BA9
:1001F0000B0B0B0B0B0B01021020200808102040EA
:1002000010204080020102010804020101020408DA
:100210001020408080402010080402018004020168
:1002200080402010080402010804020101020408B1
:1002300010204080010204081020408000000A0BBA
:1002400002090C0D0E080703040100000000000065
:10025000000000000000000000000000000000009E
:10026000000000000000000012111000000000005B
:10027000000000000000000000000000000000007E
:100280000000CF1411241FBECFEFD1E2DEBFCDBFDF
:1002900000E00CBF13E0A0E0B2E0EEE0F0E300E02D
:1002A0000BBF02C007900D92AA33B107D9F724E023
:1002B000AAE3B3E001C01D92A43DB207E1F711E04B
:1002C000C2E4D1E000E006C021970109802FFE01C1
:1002D0000E94F917C134D10780E00807A9F70E94EE
:1002E000C3090C9405188CCE90E0FC013197E231E3
:1002F000F10508F04EC08827EE58FF4F8F4F0C9441
:10030000F917809180008F7703C0809180008F7DE6
:1003100080938000089580918000877FF9CF84B515
:100320008F7702C084B58F7D84BD08958091B00021
:100330008F7703C08091B0008F7D8093B0000895C7
:10034000809190008F7707C0809190008F7D03C0CF
:1003500080919000877F8093900008958091A00005
:100360008F7707C08091A0008F7D03C08091A0008F
:10037000877F8093A0000895809120018F7707C028
:10038000809120018F7D03C080912001877F809321
:10039000200108953FB7F89480915E0390915F0328
:1003A000A0916003B091610326B5A89B05C02F3FC3
:1003B00019F00196A11DB11D3FBFBA2FA92F982F8B
:1003C0008827820F911DA11DB11DBC01CD0142E006
:1003D000660F771F881F991F4A95D1F708950097D8
:1003E00061F0FC0101900020E9F73197AF01481B53
:1003F000590BBC018DEA93E0E6C280E090E00895DD
:100400008F929F92AF92BF920F931F93CF93DF93E0
:10041000CDB7DEB7A1970FB6F894DEBF0FBECDBF44
:1004200019A2423008F44AE08E010F5D1F4F842E5E
:10043000912CA12CB12CA50194010E94D717E62F75
:10044000B901CA0101501109EA3014F4E05D01C09C
:10045000E95CD801EC93232B242B252B61F7C801F1
:10046000BEDFA1960FB6F894DEBF0FBECDBFDF9101
:10047000CF911F910F91BF90AF909F908F90089553
:10048000CF93DF93ACDFEC018AE193E0A8DF8C0F20
:100490009D1FDF91CF9108958F929F92AF92BF924F
:1004A000CF92DF92EF92FF920F931F93CF93DF9340
:1004B0006B017C01142F9B01AC010E948C178823D7
:1004C00019F08DE193E027C046015701E894B7F891
:1004D0002FEF3FEF4FE75FE7C501B4010E948C1794
:1004E00081110DC02FEF3FEF4FE75FE7C501B4016A
:1004F0000E94911518161CF481E293E00CC02FEFB6
:100500003FEF4FE75FE4C701B6010E94E0161816FF
:100510007CF485E293E0DF91CF911F910F91FF90E2
:10052000EF90DF90CF90BF90AF909F908F9057CF7C
:100530002FEF3FEF4FE75FECC701B6010E94911527
:1005400087FDE7CF20E030E0A901C701B6010E9496
:10055000911587FF0AC06DE28DEA93E0C6D2EC01E7
:10056000F7FAF094F7F8F09402C0C0E0D0E000E0B1
:1005700060E070E080E09FE3101741F020E030E0A1
:1005800040E251E40E9495150F5FF6CFA701960156
:100590000E942D156B017C010E9402164B015C012B
:1005A0004AE02EDFC80FD91F1123A9F1C501B401FC
:1005B0000E942E169B01AC01C701B6010E942C15AA
:1005C0006B017C016EE28DEA93E08FD2C80FD91FD8
:1005D00020E030E040E251E4C701B6010E94291753
:1005E0004B015C010E9402166B01E12CF12C4AE0E8
:1005F000C701B60105DFC80FD91FC701B6010E94A8
:100600002E169B01AC01C501B4010E942C156B0193
:100610007C011150E9F6CE01DF91CF911F910F912E
:10062000FF90EF90DF90CF90BF90AF909F908F9012
:1006300008953091AC03313208F04BC080918803AB
:100640008111FCCF9091AB0322E02093880321E03D
:10065000209387032FEF2093860310928503309316
:100660008403EBE8F3E0A4E6B3E020E0321721F0E6
:1006700041914D932F5FFACF109263032091630352
:10068000990F922B9093630390916203913061F4E0
:1006900010926203909163039093BB009091BC0011
:1006A00093FDF8CF95EC01C095EE9093BC0090912E
:1006B00088039230E1F3909186039F3F79F0809117
:1006C0008603803241F080918603803331F084E0EC
:1006D00005C081E003C082E001C083E010928A037C
:1006E0001092AC031092890308950F931F93CF9338
:1006F000DF938091660491E0909389038093AB032C
:1007000010928A031092AC0360E08AE494E01ED356
:10071000C6E5D4E08E0168818AE494E017D322967E
:10072000F80161818AE494E011D3F4E0C636DF0772
:1007300089F7DF91CF911F910F917BCFCF93DF93FB
:1007400040E0AADEEC018AE193E049DE8C0F9D1FB8
:10075000DF91CF9108959091660421E02093890361
:100760009093AB0310928A031092AC03843008F08C
:1007700080E0682F70E0660F771F61688AE494E07C
:10078000E5D257CFE6E5F4E01192119284E0E63627
:10079000F807D1F70895CF92DF92EF92FF92CF93AF
:1007A000DF936C01990FEE08FF08F7FE11C06DE2B0
:1007B0008DEA93E09AD1EC0166277727CB016C197B
:1007C0007D098E099F094AE01BDEC80FD91F05C0AD
:1007D0004AE0C701B60114DEEC018AE193E0FFDDD7
:1007E0008C0F9D1FDF91CF91FF90EF90DF90CF9006
:1007F00008959091660421E0209389039093AB03C0
:1008000010928A031092AC03803108F08FE0682FB9
:10081000606E8AE494E09AD20CCFCF93DF93282FB6
:1008200030E0F901E45CFD4F8491F901EA50FE4F9C
:10083000D491F901E055FE4FC491CC2389F0811188
:1008400053DDEC2FF0E0EE0FFF1FEA56FE4FA591AF
:10085000B491EC91ED2381E090E021F480E002C0BE
:1008600080E090E0DF91CF9108951F93CF93DF93C5
:10087000282F30E0F901E45CFD4F8491F901EA5042
:10088000FE4FD491F901E055FE4FC491CC23B9F04D
:10089000162F811129DDEC2FF0E0EE0FFF1FE45839
:1008A000FE4FA591B4919FB7F894111104C08C919B
:1008B000D095D82302C0EC91DE2BDC939FBFDF9153
:1008C000CF911F910895CF93DF9390E0FC01EA5000
:1008D000FE4F2491FC01E055FE4F8491882361F185
:1008E00090E0880F991FFC01EE59FE4FC591D491FD
:1008F000FC01E458FE4FA591B491611109C09FB766
:10090000F8948881209582238883EC912E230BC054
:10091000623061F49FB7F8948881322F3095832339
:100920008883EC912E2B2C939FBF06C08FB7F89431
:10093000E8812E2B28838FBFDF91CF9108958F926E
:100940009F92AF92BF92CF92DF92EF92FF926B0194
:100950007C0120DD4B015C01C114D104E104F104F0
:10096000E9F018DDDC01CB0188199909AA09BB0956
:10097000883E9340A105B10578F321E0C21AD10861
:10098000E108F10888EE880E83E0981EA11CB11CD6
:10099000C114D104E104F10421F7DECFFF90EF9000
:1009A000DF90CF90BF90AF909F908F9008952FB71A
:1009B000F89460915A0370915B0380915C0390916D
:1009C0005D032FBF0895CF92DF92EF92FF920F93B6
:1009D0001F93CF93DF936C017A018B01C0E0D0E0CD
:1009E000CE15DF0581F0D8016D918D01D601ED9115
:1009F000FC910190F081E02DC6011995892B11F031
:100A00002196EECF7E01C701DF91CF911F910F910B
:100A1000FF90EF90DF90CF900895FC01538D448DAF
:100A2000252F30E0842F90E0821B930B541710F099
:100A3000CF96089501970895FC01918D828D9817A6
:100A400061F0828DDF01A80FB11D5D968C91928DB2
:100A50009F5F9F73928F90E008958FEF9FEF0895AF
:100A6000FC01918D828D981731F0828DE80FF11D78
:100A7000858D90E008958FEF9FEF0895FC01918D93
:100A8000228D892F90E0805C9F4F821B91098F738C
:100A9000992708958DEA93E0F1DF21E0892B09F48D
:100AA00020E0822F0895FC01848DDF01A80FB11D85
:100AB000A35ABF4F2C91848D90E001968F73992794
:100AC000848FA689B7892C93A089B1898C91837072
:100AD00080648C93938D848D981306C00288F3896B
:100AE000E02D80818F7D80830895EF92FF920F9398
:100AF0001F93CF93DF93EC0181E0888F9B8D8C8DCA
:100B0000981305C0E889F989808185FD25C0F62EF6
:100B10000B8D10E00F5F1F4F0F731127E02E8C8D90
:100B2000E8120BC00FB607FCFACFE889F98980817B
:100B300085FFF5CFCE01B7DFF2CF8B8DFE01E80F39
:100B4000F11DE35AFF4FF0829FB7F8940B8FEA89AB
:100B5000FB89808180620AC09FB7F894EE89FF8983
:100B60006083E889F98980818370806480839FBF76
:100B700081E090E0DF91CF911F910F91FF90EF9076
:100B80000895CF93DF93EC01888D8823C1F0EA8923
:100B9000FB89808185FD05C0A889B9898C9186FD76
:100BA0000EC00FB607FCF5CF808185FFF2CFA88974
:100BB000B9898C9185FFEDCFCE0175DFE8CFDF914C
:100BC000CF91089580E090E0892B19F063DF8111C7
:100BD00025C080E090E0892B41F080E090E0892BF7
:100BE00021F00E94000081111CC080E090E0892B60
:100BF00041F080E090E0892B21F00E9400008111FB
:100C000013C080E090E0892BA1F080E090E0892B78
:100C100081F00E94000081110AC008950E94000026
:100C2000D8CF0E940000E1CF0E940000EACF0C94D0
:100C30000000089585ED8093BC008091BC0084FD88
:100C4000FCCF1092880308954091B004262F30E025
:100C5000240F311D21323105DCF42091880324302A
:100C6000C9F4FC0180E090E0861758F43091B0049C
:100C70002191DC01A057BB4FA30FB11D2C9301960E
:100C8000F3CF8091B004680F6093B00480E00895C2
:100C900081E0089582E00895089508950895E0910F
:100CA0003F0380913E03E81730F4F0E0E059FB4F3A
:100CB000808190E008958FEF9FEF089590913F031A
:100CC00080913E03981750F4E92FF0E0E059FB4F74
:100CD000208130E09F5F90933F0302C02FEF3FEFF2
:100CE000C901089580913E0390E020913F03821B4B
:100CF00091090895CF92DF92EF92FF920F931F9385
:100D0000CF93DF937C01CB018A01209189032223B9
:100D100089F0EB016B01C40ED51ECC15DD0561F029
:100D20006991D701ED91FC910190F081E02DC7010F
:100D30001995F3CF642F88DFC801DF91CF911F9100
:100D40000F91FF90EF90DF90CF900895CF93DF93B6
:100D50001F92CDB7DEB76983209189032223D1F09A
:100D60002091AC03203240F021E030E0FC013383DD
:100D7000228380E090E014C080918A03E82FF0E0A5
:100D8000E557FC4F998190838F5F80938A0380930E
:100D9000AC0304C061E0CE01019656DF81E090E033
:100DA0000F90DF91CF910895089580E090E008952D
:100DB0000E9401181F920F920FB60F9211240BB6CA
:100DC0000F922F933F934F935F936F937F938F93E4
:100DD0009F93AF93BF93EF93FF938DEA93E063DE0E
:100DE000FF91EF91BF91AF919F918F917F916F9103
:100DF0005F914F913F912F910F900BBE0F900FBEBF
:100E00000F901F9018951F920F920FB60F921124FA
:100E10000BB60F922F938F939F93EF93FF93E091D5
:100E2000BD03F091BE038081E091C303F091C40340
:100E300082FD12C090818091C6038F5F8F732091D5
:100E4000C703821751F0E091C603F0E0E355FC4F71
:100E5000958F8093C60301C08081FF91EF919F9190
:100E60008F912F910F900BBE0F900FBE0F901F9080
:100E700018951F920F920FB60F9211240BB60F9276
:100E80002F933F934F935F936F937F938F939F9392
:100E9000AF93BF93EF93FF938091B900887F803623
:100EA00009F49CC068F5883209F45BC090F4803185
:100EB00009F454C038F4882309F4F6C0883009F4E2
:100EC0004DC0F5C0883109F44CC0803209F45DC0D2
:100ED000EEC0803409F468C048F4803309F455C08A
:100EE000883309F0E4C080938603D8C0803509F4C4
:100EF0004FC0883509F45DC0883409F0D8C0D6C029
:100F0000883909F4C7C0A8F4883709F467C038F4F1
:100F1000883609F463C0803709F460C0C8C08838D7
:100F200009F4B8C0803909F45FC0803809F0BFC047
:100F30005BC0803B09F486C038F4803A09F466C08F
:100F4000883A09F47FC0B3C0803C09F4A7C0883C4C
:100F500009F4A4C0883B09F48AC0A9C08091630346
:100F600010C09091850380918403981770F5E091EB
:100F7000850381E08E0F80938503F0E0EC59FC4FF0
:100F800080818093BB0085EC86C0809386038EC0F1
:100F9000E091850381E08E0F809385038091BB00F3
:100FA000F0E0EC59FC4F808390918503809184039D
:100FB0006EC0E091850381E08E0F80938503809160
:100FC000BB00F0E0EC59FC4F8083809187038111D6
:100FD0006DC081E08093620384EA61C083E0809306
:100FE00088031092D204CFCF8091D204803208F0CF
:100FF00051C0E091D20481E08E0F8093D2048091A1
:10100000BB00F0E0EE54FB4F8083BDCF85EC8093B6
:10101000BC00109288038091D204803230F4E091B9
:10102000D204F0E0EE54FB4F10826091D20470E0E5
:10103000E0913A03F0913B0382EB94E01995109212
:10104000D20435C084E0809388031092B1041092DA
:10105000B004E0913C03F0913D0319958091B004F8
:10106000811105C081E08093B00410929004E0915A
:10107000B10481E08E0F8093B104F0E0E057FB4FA4
:1010800080818093BB009091B1048091B004981747
:1010900008F479CF85E88093BC0009C085EC809383
:1010A000BC001092880303C010928603C3DDFF9139
:1010B000EF91BF91AF919F918F917F916F915F91D0
:1010C0004F913F912F910F900BBE0F900FBE0F903D
:1010D0001F9018958F929F92AF92BF92CF92DF92FE
:1010E000EF92FF9280917B00877F80937B0080E46A
:1010F00080937C0080917A00806480937A00809154
:101100007A0086FDFCCF609178008091790070E0D4
:10111000782B072E000C880B990B0E9430162AE0C2
:1011200038E240EA5BE30E9429179B01AC0160E0D2
:1011300070E088E492E40E94951520E030E040E2FF
:1011400051E40E942C1520E030E04AE754E40E946C
:1011500029170E94E9166B017C019B01AC010E94DA
:101160002917A70196010E94291726EB36EA49E2C2
:1011700054E30E9429174B015C012BE83BE44AE74A
:1011800059E3C701B6010E9429172CE234E447E86D
:101190005AE30E942D159B01AC01C501B4010E94C8
:1011A0002D159B01AC0160E070E080E89FE30E9498
:1011B000951523E333E948E853E40E942C156B01AD
:1011C0007C0189E293E00BD980910602909107029D
:1011D0000197C1F542E0C701B6015ED986E193E00F
:1011E0004FD9C701B6010E94FD156B017C01EAE0F1
:1011F000F0E0CB01BF010E94C3179C01CB01BF01EE
:101200000E94C317FC01E25FFD4F808190E0909344
:10121000570480935604F901E25FFD4F808190E00E
:10122000909359048093580483E690E090935D0472
:1012300080935C0489E390E090935F0480935E0464
:1012400054DA4CC08091060290910702029709F08F
:1012500047C026E636E646EE5FE3C701B6010E94C8
:10126000291720E030E040E052E40E942D154B01A8
:101270005C010E94FD156B017C01EAE0F0E0CB010E
:10128000BF010E94C3179C01CB01BF010E94C3177D
:10129000FC01E25FFD4F808190E0909357048093C2
:1012A0005604F901E25FFD4F808190E0909359046C
:1012B0008093580483E690E090935D0480935C04EF
:1012C00081E790E090935F0480935E040EDA42E041
:1012D000C501B401E1D882E193E0D2D8C60100C0D3
:1012E000FF90EF90DF90CF90BF90AF909F908F9046
:1012F00008951F920F920FB60F9211242F933F93D0
:101300008F939F93AF93BF9380915A0390915B0308
:10131000A0915C03B0915D033091D30423E0230FCF
:101320002D3720F40196A11DB11D05C026E8230F1D
:101330000296A11DB11D2093D30480935A0390936C
:101340005B03A0935C03B0935D0380915E03909177
:101350005F03A0916003B09161030196A11DB11DCF
:1013600080935E0390935F03A0936003B093610347
:10137000BF91AF919F918F913F912F910F900FBE91
:101380000F901F901895CF93DF9300D01F92CDB789
:10139000DEB7789484B5826084BD84B5816084BDF5
:1013A00085B5826085BD85B5816085BD80916E0003
:1013B000816080936E001092810080918100826034
:1013C0008093810080918100816080938100809171
:1013D00080008160809380008091B1008460809360
:1013E000B1008091B00081608093B0008091910045
:1013F0008260809391008091910081608093910040
:10140000809190008160809390008091A100826023
:101410008093A1008091A10081608093A1008091C0
:10142000A00081608093A000809121018260809360
:10143000210180912101816080932101809120010F
:1014400081608093200180917A00846080937A008B
:1014500080917A00826080937A0080917A00816026
:1014600080937A0080917A00806880937A0010924D
:10147000C100E091BD03F091BE0382E08083E09162
:10148000B903F091BA031082E091BB03F091BC0361
:1014900080E180831092C503E091C103F091C20303
:1014A00086E08083E091BF03F091C003808180617A
:1014B0008083E091BF03F091C003808188608083C6
:1014C000E091BF03F091C003808180688083E09148
:1014D000BF03F091C00380818F7D808362E088E24A
:1014E000F2D962E084E2EFD962E08AE2ECD960E00E
:1014F00086E3E9D960E087E3E6D961E08EE1E3D9EC
:1015000061E08DE2E0D961E08EE2DDD961E08FE15A
:10151000DAD961E08AE1D7D961E086E1D4D961E026
:1015200088E1D1D961E080E0CED961E080E0CBD91B
:1015300061E08AE19AD961E088E197D961E086E1CA
:1015400094D980E78093660410923F0310923E0383
:1015500010928A031092AC031092880321E020932A
:1015600087031092620361E084E17FD961E085E145
:101570007CD98091B9008E7F8093B9008091B900A9
:101580008D7F8093B90088E48093B80085E48093D0
:10159000BC008CE496E090933D0380933C038DE483
:1015A00096E090933B0380933A038091660431E088
:1015B000309389038093AB0310928A031092AC039B
:1015C00061E28AE494E0C2DB34D8DCD88ED880E0D3
:1015D000C2D88FE00ED97EDD03E610E099E3492EF4
:1015E000512C21E7622E712CE2D9C0905603D09085
:1015F0005703E0905803F09059039B01AC012C195C
:101600003D094E095F0969017A0138E8C31633E1E3
:10161000D306E104F10408F450C2609356037093BA
:101620005703809358039093590354DDBC01990FDD
:10163000880B990B0E9430166B017C018091060289
:1016400090910702019709F01DC120914403309148
:1016500045034091460350914703C701B6010E94DC
:101660002C1520E030E0A9010E94E01687FD06C09D
:1016700081E08093410382E492E016C0209144030C
:10168000309145034091460350914703C701B6018D
:101690000E942C1520E030E040EA50EC0E949115A9
:1016A00087FF0AC08AE492E00E94400280914103D1
:1016B000882309F47AC00FC061E08DE204D960E0AC
:1016C0008DE2D3D861E08EE2FED860E08EE2CDD824
:1016D00082E592E0F0C180914003811126C061E073
:1016E0008DE2F1D861E08DE2C0D861E08EE2EBD806
:1016F00060E08EE2BAD820914403309145034091D6
:10170000460350914703C701B6010E942C1520E003
:1017100030E040E85FEB0E949115811103C081E049
:101720008093400386E592E03EC080914003882389
:1017300009F43BC061E08DE2C6D860E08DE295D847
:1017400061E08EE2C0D860E08EE28FD82091440341
:10175000309145034091460350914703C701B601BC
:101760000E942C1520E030E040E85FE30E949115D4
:10177000882311F40C9443142091440330914503C1
:101780004091460350914703C701B6010E942C15B2
:1017900020E030E0A9010E94E01687FD02C00C9411
:1017A000431481E792E00E9440028091410381113D
:1017B00069C080914003882329F161E08DE283D8DC
:1017C00061E08DE252D861E08EE27DD860E08EE289
:1017D0004CD82091440330914503409146035091E9
:1017E0004703C701B6010E942C1520E030E040E815
:1017F0005FE30E949115811102C0109240038FE8AF
:1018000092E03EC08091400381113CC061E08DE2D6
:101810005AD860E08DE229D861E08EE254D860E0C9
:101820008EE223D820914403309145034091460332
:1018300050914703C701B6010E942C1520E030E00B
:1018400040E85FEB0E949115882311F40C94471433
:101850002091440330914503409146035091470342
:10186000C701B6010E942C1520E030E040EA50ECA0
:101870000E94911587FF02C00C94471489EA92E0F8
:101880000E9440028091060290910702029709F09F
:1018900014C1209100023091010240910202509146
:1018A0000302C701B6010E942C1520E030E0A90117
:1018B0000E94E01687FD06C081E08093410382E428
:1018C00092E016C020910002309101024091020284
:1018D00050910302C701B6010E942C1520E030E0B0
:1018E00040E251EC0E94911587FFE6CE8AE492E037
:1018F0000E94400280914103882309F46EC08091C8
:10190000400381112AC061E08DE20E94630461E01E
:101910008DE20E94350461E08EE20E94630460E083
:101920008EE20E9435042091000230910102409124
:10193000020250910302C701B6010E942C1520E05B
:1019400030E040E85FEB0E949115811103C081E017
:101950008093400386E592E03EC080914003882357
:10196000E1F161E08DE20E94630460E08DE20E949B
:10197000350461E08EE20E94630460E08EE20E9422
:1019800035042091000230910102409102025091F1
:101990000302C701B6010E942C1520E030E040E8A8
:1019A0005FE30E949115882309F476C72091000215
:1019B000309101024091020250910302C701B60129
:1019C0000E942C1520E030E0A9010E94E01687FF5C
:1019D00063C781E792E00E94400280914103811138
:1019E0006CC080914003882349F161E08DE20E9440
:1019F000630461E08DE20E94350461E08EE20E94A2
:101A0000630460E08EE20E94350420910002309170
:101A100001024091020250910302C701B6010E94E7
:101A20002C1520E030E040E85FE30E949115811121
:101A300002C01092400387EC92E03DC080914003C9
:101A400081113BC061E08DE20E94630460E08DE2A1
:101A50000E94350461E08EE20E94630460E08EE241
:101A60000E9435042091000230910102409102024F
:101A700050910302C701B601EFD720E030E040E803
:101A80005FEB0E949115882309F409C72091000299
:101A9000309101024091020250910302C701B60148
:101AA000DBD720E030E040EA50EC0E94911587FD42
:101AB000F6C689EA92E00E94400284E20E940D0488
:101AC000892B09F0D6C684E20E940D049093550339
:101AD00080935403209152033091530380910C0260
:101AE00090910D022817390791F00E94D704609356
:101AF0004E0370934F038093500390935103809152
:101B000052039091530390930D0280930C020E9414
:101B1000D704C0904E03D0904F03E0905003F09054
:101B200051036C197D098E099F090E942E1620E031
:101B300030E040E05FE30E94E01618160CF099C612
:101B400080EE92E00E9440020E94D7046B017C016B
:101B500041E04C8351E05B8381E08A8391E099838B
:101B600086E8282E312C84E20E940D04892B09F08E
:101B700056C00E94D704DC01CB018C199D09AE0927
:101B8000BF09893E9340A105B105A0F439813323F3
:101B900009F440C085EE92E00E9440020E94C20318
:101BA0000E94750330925904209258040E947503D4
:101BB000198230C00E94D704DC01CB018C199D0929
:101BC000AE09BF09813D9740A105B10508F06BC67C
:101BD0000E94D704DC01CB018C199D09AE09BF0915
:101BE000893E9340A105B10508F45DC63A813323CF
:101BF00089F08EEE92E00E9440020E94C2030E9491
:101C000075038BED90E090935904809358040E94E3
:101C100075031A820E94D7044B015C01A4CFD50141
:101C2000C4018C199D09AE09BF09893E23E09207C2
:101C3000A105B10508F067C26AEF70E080E090E0AE
:101C40000E949F040E94C20382E00E94AB030E9494
:101C500075038091060290910702019779F56091D2
:101C60004403709145038091460390914703C5D783
:101C7000CB016AE070E00E94C3179C01CB016AE0CF
:101C800070E00E94C317FC01E25FFD4F808190E08D
:101C90009093570480935604F901E25FFD4F8081D1
:101CA00090E0909359048093580410935D0400933E
:101CB0005C0450925F0440925E0434C0809106023E
:101CC00090910702029781F56091000270910102E4
:101CD000809102029091030290D7CB016AE070E0FC
:101CE0000E94C3179C01CB016AE070E00E94C317F9
:101CF000FC01E25FFD4F808190E090935704809358
:101D00005604F901E25FFD4F808190E09093590401
:101D10008093580410935D0400935C0470925F04F8
:101D200060925E040E94750384E20E940D04019794
:101D300009F09AC588E20E940D04909353038093A2
:101D400052038AE20E940D0490934D0380934C034A
:101D50008091520390915303892B09F000C1209187
:101D600052033091530380910C0290910D02281779
:101D7000390791F00E94D70460934E0370934F038C
:101D80008093500390935103809152039091530399
:101D900090930D0280930C020E94D704C0904E03D2
:101DA000D0904F03E0905003F09051036C197D09DF
:101DB0008E099F0953D720E030E040E05FE30E94A6
:101DC000E01618160CF0CBC0809106029091070225
:101DD000019709F05EC060914403709145038091C2
:101DE00046039091470320E030E040EA52E499D660
:101DF000882309F4B4C06091440370914503809135
:101E000046039091470320E030E040E85FE325D6A9
:101E10006093440370934503809346039093470374
:101E2000609144037091450380914603909147036C
:101E30000E949E0360914403709145038091460384
:101E400090914703DAD6CB016AE070E00E94C31795
:101E50009C01CB016AE070E00E94C317FC01E25FC5
:101E6000FD4F808190E09093570480935604F901D0
:101E7000E25FFD4F808190E0909359048093580475
:101E800010935D0400935C0450925F0440925E04E2
:101E900064C08091060290910702029709F05FC02A
:101EA0006091000270910102809102029091030200
:101EB00020E030E040E353E434D6882309F44FC0F7
:101EC00060910002709101028091020290910302E0
:101ED00020E030E040E85FE3C0D5609300027093FB
:101EE00001028093020290930302609100027091BC
:101EF000010280910202909103020E949E03609170
:101F0000000270910102809102029091030275D645
:101F1000CB016AE070E00E94C3179C01CB016AE02C
:101F200070E00E94C317FC01E25FFD4F808190E0EA
:101F30009093570480935604F901E25FFD4F80812E
:101F400090E0909359048093580410935D0400939B
:101F50005C0470925F0460925E040E94750380913D
:101F60004C0390914D03892B09F0C6C08091060265
:101F700090910702019709F05BC060914403709152
:101F80004503809146039091470320E030E0A9018A
:101F9000C8D5882309F4B0C060914403709145030B
:101FA000809146039091470320E030E040E85FE3F2
:101FB00053D56093440370934503809346039093F5
:101FC00047036091440370914503809146039091CB
:101FD00047030E949E0360914403709145038091E2
:101FE00046039091470309D6CB016AE070E0CBD756
:101FF0009C01CB016AE070E0C6D7FC01E25FFD4FB7
:10200000808190E09093570480935604F901E25F39
:10201000FD4F808190E09093590480935804109371
:102020005D0400935C0450925F0440925E0462C0C1
:102030008091060290910702029709F05DC06091BD
:10204000000270910102809102029091030220E04F
:1020500030E040E052E465D5882309F44DC060913A
:10206000000270910102809102029091030220E02F
:1020700030E040E85FE3F0D4609300027093010227
:10208000809302029093030260910002709101021A
:1020900080910202909103020E949E0360910002CF
:1020A000709101028091020290910302A6D5CB01AA
:1020B0006AE070E068D79C01CB016AE070E063D70A
:1020C000FC01E25FFD4F808190E090935704809384
:1020D0005604F901E25FFD4F808190E0909359042E
:1020E0008093580410935D0400935C0470925F0425
:1020F00060925E040E9475036AEF70E080E090E0F9
:102100000E949F0411CEAC01BD01495E534061099C
:102110007109483E53406105710508F039C16AEF05
:1021200070E080E090E00E949F040E94C20382E081
:102130000E94AB03E0914203F0914303FF27E25F6B
:10214000FD4F808190E090935F0480935E040E9435
:10215000750384E20E940D04019709F085C388E2AB
:102160000E940D0490935303809352038AE20E94CD
:102170000D0490934D0380934C03809152039091F2
:102180005303892B11F0F12C59C020915203309147
:10219000530380910C0290910D022817390791F09A
:1021A0000E94D70460934E0370934F0380935003B3
:1021B00090935103809152039091530390930D0299
:1021C00080930C020E94D704C0904E03D0904F031E
:1021D000E0905003F09051036C197D098E099F091E
:1021E0003DD520E030E040E05FE3EAD518165CF62C
:1021F0008091420390914303049729F28091420316
:102200009091430301969093430380934203E0919E
:102210004203F0914303FF27E25FFD4F808190E08E
:1022200090935F0480935E040E9475038091420343
:10223000909143030E94CB03FF24F39480914C03BD
:1022400090914D03892B09F059C020914C03309196
:102250004D0380910802909109022817390791F0E7
:102260000E94D704609348037093490380934A0304
:1022700090934B0380914C0390914D0390930902EE
:10228000809308020E94D7042091480330914903AB
:1022900040914A0350914B03621B730B840B950BC7
:1022A000DDD420E030E040E05FE38AD5181634F555
:1022B0008091420390914303892B01F18091420365
:1022C0009091430301979093430380934203E091DD
:1022D0004203F0914303FF27E25FFD4F808190E0CE
:1022E00090935F0480935E040E9475038091420383
:1022F000909143030E94CB03FF24F3946AEF70E0B4
:1023000080E090E00E949F04FF2009F422CFE0903B
:102310004203F090430361E08AE10E94350461E0EA
:1023200088E10E94350461E086E10E943504E114F1
:10233000F10451F461E08AE10E94350461E088E132
:102340000E94350461E020C041E0E416F10419F474
:1023500060E08AE11AC052E0E516F10419F460E089
:1023600088E113C083E0E816F10469F094E0E9160F
:10237000F10409F0EECE60E08AE10E94350460E0ED
:1023800088E10E94350460E086E10E943504E1CED8
:10239000815D9740A109B109883E9340A105B1052F
:1023A00008F002C16AEF70E080E090E00E949F04B4
:1023B0000E94C20382E00E94AB03809106029091CA
:1023C0000702019749F410935D0400935C04509256
:1023D0005F0440925E040EC0809106029091070255
:1023E000029741F410935D0400935C0470925F04C3
:1023F00060925E040E94750384E20E940D040197BE
:1024000009F0C3C088E20E940D04909353038093A7
:1024100052038AE20E940D0490934D0380934C0373
:102420008091520390915303892B09F050C0209161
:1024300052033091530380910C0290910D022817A2
:10244000390791F00E94D70460934E0370934F03B5
:1024500080935003909351038091520390915303C2
:1024600090930D0280930C020E94D704C0904E03FB
:10247000D0904F03E0905003F09051036C197D0908
:102480008E099F09EBD320E030E040E05FE398D471
:102490001816ECF480910602909107020297B9F0A9
:1024A0008091060290910702019690930702809313
:1024B000060282E193E00E94400210935D040093C3
:1024C0005C0470925F0460925E040E9475038091C8
:1024D0004C0390914D03892B09F050C020914C037F
:1024E00030914D0380910802909109022817390715
:1024F00091F00E94D704609348037093490380933E
:102500004A0390934B0380914C0390914D03909319
:102510000902809308020E94D704C0904803D0901B
:102520004903E0904A03F0904B036C197D098E0932
:102530009F0994D320E030E040E05FE341D41816D7
:10254000ECF480910602909107020197B9F0809116
:10255000060290910702019790930702809306026A
:1025600086E193E00E94400210935D0400935C04B6
:1025700050925F0440925E040E9475036AEF70E01F
:1025800080E090E00E949F0437CF809106029091F6
:102590000702019709F053C180910402909105024E
:1025A000029709F04CC1C5C16AEF70E080E090E08D
:1025B0000E949F040E94C20382E00E94AB038091AC
:1025C0000A0290910B026AE070E0DDD4CB016AE070
:1025D00070E0D9D49C0180910A0290910B026AE0CC
:1025E00070E0D1D42115310549F0F901E25FFD4FCA
:1025F000208130E030935D0420935C04FC01E25FB5
:10260000FD4F808190E090935F0480935E040E9470
:10261000750384E20E940D04019709F025C188E248
:102620000E940D0490935303809352038AE20E9408
:102630000D0490934D0380934C038091520390912D
:102640005303892B11F0F12C71C02091520330916A
:10265000530380910C0290910D022817390791F0D5
:102660000E94D70460934E0370934F0380935003EE
:1026700090935103809152039091530390930D02D4
:1026800080930C020E94D704C0904E03D0904F0359
:10269000E0905003F09051036C197D098E099F0959
:1026A000DDD220E030E040E05FE38AD318165CF62C
:1026B00080910A0290910B020F9729F280910A02F1
:1026C00090910B02019690930B0280930A028091E5
:1026D0000A0290910B0220910A0230910B026AE0EB
:1026E00070E051D4CB016AE070E04DD4FC01E25FB0
:1026F000FD4F808190E090935D0480935C04C9015C
:102700006AE070E040D4FC01E25FFD4F808190E020
:1027100090935F0480935E040E94750380910A0287
:1027200090910B020E94CB03FF24F39480914C0301
:1027300090914D03892B09F072C020914C03309188
:102740004D0380910802909109022817390791F0F2
:102750000E94D704609348037093490380934A030F
:1027600090934B0380914C0390914D0390930902F9
:10277000809308020E94D7042091480330914903B6
:1027800040914A0350914B03621B730B840B950BD2
:1027900065D220E030E040E05FE312D318160CF081
:1027A0003EC080910A0290910B02892BC1F1809169
:1027B0000A0290910B02019790930B0280930A02F8
:1027C00080910A0290910B0220910A0230910B0233
:1027D0006AE070E0D8D3CB016AE070E0D4D3FC01AA
:1027E000E25FFD4F808190E090935D0480935C04F4
:1027F000C9016AE070E0C7D3FC01E25FFD4F808150
:1028000090E090935F0480935E040E947503809132
:102810000A0290910B020E94CB03FF24F3946AEF0B
:1028200070E080E090E00E949F04FF2009F4F1CE68
:1028300080910A0290910B020E94F903EACE8091E6
:10284000060290910702029739F480910402909158
:102850000502019709F488C0809106029091070251
:10286000909305028093040280E00E94AB030E94D3
:10287000D70464EF71E080E090E00E949F040E9422
:10288000E2050C94F40A109240030C94D10B81E001
:10289000809340030C943E0C109240039AC881E050
:1028A0008093400306C90E94D704DC01CB018C1938
:1028B0009D09AE09BF09893B9B40A105B10518F5EB
:1028C0000E94D704DC01CB018C199D09AE09BF0918
:1028D000813D9740A105B105B0F05B81552309F416
:1028E00099C989EF92E00E9440020E94C2030E94AF
:1028F00075034FEC50E050935904409358040E94E4
:1029000075031B8287C98C81882309F483C983E0FE
:1029100093E00E9440020E94C2030E94750386EE6B
:1029200090E090935904809358040E9475031C8290
:1029300071C9609100027091010280910202909130
:10294000030220E030E040E052E486D024EE38E399
:102950004EE05FE37ED2609344037093450380931F
:1029600046039093470378CF6091440370914503E9
:10297000809146039091470326E636E646EE5FE3F4
:1029800068D220E030E040E052E467D0609300027B
:102990007093010280930202909303025DCFCF9364
:1029A000DF93EDEAF3E01382128288EE93E0A0E079
:1029B000B0E084839583A683B78322E232E031833B
:1029C000208325EC30E03587248724EC30E03787FE
:1029D000268720EC30E0318B208B21EC30E0338BEC
:1029E000228B22EC30E0358B248B26EC30E0378BC9
:1029F000268B118E128E138E148EEAE4F4E013826D
:102A0000128284839583A683B78384E392E09183C3
:102A10008083C8E6D4E08AE190E09983888388E1E6
:102A200090E09B838A8386E190E09D838C8381E0A4
:102A300090E09F838E8361E08AE10E94630461E0FD
:102A40008A810E94630461E08C810E946304109279
:102A50006704DF91CF9108955058BB27AA270ED065
:102A600075C166D130F06BD120F031F49F3F11F485
:102A70001EF45BC10EF4E095E7FB51C1E92F77D15D
:102A800080F3BA17620773078407950718F071F48B
:102A90009EF58FC10EF4E0950B2EBA2FA02D0B01E1
:102AA000B90190010C01CA01A0011124FF27591B93
:102AB00099F0593F50F4503E68F11A16F040A22F99
:102AC000232F342F4427585FF3CF4695379527950A
:102AD000A795F0405395C9F77EF41F16BA0B620B09
:102AE000730B840BBAF09150A1F0FF0FBB1F661F50
:102AF000771F881FC2F70EC0BA0F621F731F841F93
:102B000048F4879577956795B795F7959E3F08F0B8
:102B1000B3CF9395880F08F09927EE0F9795879577
:102B20000895D9D008F481E008950CD00FC107D1E1
:102B300040F0FED030F021F45F3F19F0F0C05111A9
:102B400039C1F3C014D198F39923C9F35523B1F3D4
:102B5000951B550BBB27AA2762177307840738F00C
:102B60009F5F5F4F220F331F441FAA1FA9F333D06B
:102B70000E2E3AF0E0E830D091505040E695001C1F
:102B8000CAF729D0FE2F27D0660F771F881FBB1FDB
:102B9000261737074807AB07B0E809F0BB0B802DB5
:102BA000BF01FF2793585F4F2AF09E3F510568F001
:102BB000B6C000C15F3FECF3983EDCF38695779595
:102BC0006795B795F7959F5FC9F7880F911D969503
:102BD000879597F90895E1E0660F771F881FBB1F5F
:102BE000621773078407BA0720F0621B730B840B0C
:102BF000BA0BEE1F88F7E095089504D06894B111E0
:102C0000D9C00895BCD088F09F5790F0B92F99276C
:102C1000B751A0F0D1F0660F771F881F991F1AF0E7
:102C2000BA95C9F712C0B13081F0C3D0B1E00895B0
:102C3000C0C0672F782F8827B85F39F0B93FCCF331
:102C4000869577956795B395D9F73EF490958095DD
:102C5000709561957F4F8F4F9F4F0895E89409C0FD
:102C600097FB3EF490958095709561957F4F8F4FBF
:102C70009F4F9923A9F0F92F96E9BB279395F695D5
:102C8000879577956795B795F111F8CFFAF4BB0F53
:102C900011F460FF1BC06F5F7F4F8F4F9F4F16C0B7
:102CA000882311F096E911C0772321F09EE8872F41
:102CB000762F05C0662371F096E8862F70E060E0FD
:102CC0002AF09A95660F771F881FDAF7880F969576
:102CD000879597F90895990F0008550FAA0BE0E81A
:102CE000FEEF16161706E807F907C0F012161306CE
:102CF000E407F50798F0621B730B840B950B39F40E
:102D00000A2661F0232B242B252B21F408950A2673
:102D100009F4A140A6958FEF811D811D089597F9B3
:102D20009F6780E870E060E008959FEF80EC089571
:102D300000240A941616170618060906089500249A
:102D40000A9412161306140605060895092E039414
:102D5000000C11F4882352F0BB0F40F4BF2B11F488
:102D600060FF04C06F5F7F4F8F4F9F4F089557FDE7
:102D70009058440F551F59F05F3F71F04795880FE9
:102D800097FB991F61F09F3F79F087950895121680
:102D900013061406551FF2CF4695F1DF08C016162C
:102DA00017061806991FF1CF8695710561050894DD
:102DB0000895E894BB2766277727CB0197F90895F4
:102DC0008ADF08F48FEF08950EF0AAC0AECF6894A2
:102DD000A6CFD5DFC8F39923D1F3C6F3DF93CF9302
:102DE0001F930F93FF92C92FDD2788232AF0219785
:102DF000660F771F881FDAF720E030E040E85FEBCE
:102E00009FE3883920F0803E30F021968F7725DED1
:102E1000E8E0F1E003C021DEE5E3F1E08FD08B01D3
:102E2000BE01EC01FB2E6F5771097595771F880B5A
:102E3000990B16DF28E132E741E35FE316D0AF2DAF
:102E40009801AE01FF900F911F91CF91DF9116DE97
:102E50007DCF0BD07BCF6CDF28F071DF18F095238E
:102E600009F05DCF62CF1124A5CF81DFA0F3959F3C
:102E7000D1F3950F50E0551F629FF001729FBB2761
:102E8000F00DB11D639FAA27F00DB11DAA1F649F0D
:102E90006627B00DA11D661F829F2227B00DA11DC0
:102EA000621F739FB00DA11D621F839FA00D611D46
:102EB000221F749F3327A00D611D231F849F600D67
:102EC000211D822F762F6A2F11249F5750408AF0A0
:102ED000E1F088234AF0EE0FFF1FBB1F661F771F2C
:102EE000881F91505040A9F79E3F510570F017CFB1
:102EF00061CF5F3FECF3983EDCF38695779567955D
:102F0000B795F795E7959F5FC1F7FE2B880F911D49
:102F10009695879597F90895DEDE880B990B0895AD
:102F20009F3F31F0915020F4879577956795B7953D
:102F3000880F911D9695879597F90895DF93CF9304
:102F40001F930F93FF92EF92DF927B018C016894A5
:102F500005C0DA2EEF0189DFFE01E894A5912591E5
:102F6000359145915591AEF3EF0188DDFE01970152
:102F7000A801DA9479F7DF90EF90FF900F911F91FD
:102F8000CF91DF910895AA1BBB1B51E107C0AA1F77
:102F9000BB1FA617B70710F0A61BB70B881F991FFA
:102FA0005A95A9F780959095BC01CD010895A1E2AD
:102FB0001A2EAA1BBB1BFD010DC0AA1FBB1FEE1FB3
:102FC000FF1FA217B307E407F50720F0A21BB30BFE
:102FD000E40BF50B661F771F881F991F1A9469F77A
:102FE00060957095809590959B01AC01BD01CF01D6
:102FF0000895EE0FFF1F881F8BBF0790F691E02DFD
:0E300000199481E090E0F89400C0F894FFCF9E
:10300E00000000420100010001000F0001003F0618
:10301E005B4F666D7D077F6F777C395E797100003F
:10302E0000007505E3040D05C1053E051C053005C0
:10303E0000000000A6067A06D5064E0672065E064B
:10304E004F06436F6F6C696E670048656174696EF9
:10305E0067004F666600436F6F6C696E6720446F42
:10306E00776E20746F20536574706F696E742D3196
:10307E00005475726E696E67204F666620756E74A9
:10308E00696C20536574706F696E74202B31004823
:10309E00656174696E6720757020746F2053657456
:1030AE00706F696E74202B31005475726E696E6785
:1030BE00204F666620756E74696C20536574706F50
:1030CE00696E74202D310048656174696E672075D4
:1030DE007020746F20536574706F696E742B31009D
:1030EE004D656E75005365742054656D70005365A3
:1030FE0074204C69676874730053657420556E694B
:10310E00747300536574204272696768746E6573D8
:10311E007300C2B04600C2B043000D0A006E616E6D
:10312E0000696E66006F76660043757272656E7426
:0A313E002054656D70203D20000054
:020000023000CC
:10E000000D9489F10D94B2F10D94B2F10D94B2F129
:10E010000D94B2F10D94B2F10D94B2F10D94B2F1F0
:10E020000D94B2F10D94B2F10D94B2F10D94B2F1E0
:10E030000D94B2F10D94B2F10D94B2F10D94B2F1D0
:10E040000D94B2F10D94B2F10D94B2F10D94B2F1C0
:10E050000D94B2F10D94B2F10D94B2F10D94B2F1B0
:10E060000D94B2F10D94B2F10D94B2F10D94B2F1A0
:10E070000D94B2F10D94B2F10D94B2F10D94B2F190
:10E080000D94B2F10D94B2F10D94B2F10D94B2F180
:10E090000D94B2F10D94B2F10D94B2F10D94B2F170
:10E0A0000D94B2F10D94B2F10D94B2F10D94B2F160
:10E0B0000D94B2F10D94B2F10D94B2F10D94B2F150
:10E0C0000D94B2F10D94B2F10D94B2F10D94B2F140
:10E0D0000D94B2F10D94B2F10D94B2F10D94B2F130
:10E0E0000D94B2F141546D656761323536300041AF
:10E0F000726475696E6F206578706C6F72657220DE
:10E1000073746B3530305632206279204D4C530099
:10E11000426F6F746C6F616465723E004875683F52
:10E1200000436F6D70696C6564206F6E203D200048
:10E130004350552054797065202020203D20005FF9
:10E140005F4156525F415243485F5F3D2000415658
:10E1500052204C696243205665723D20004743437C
:10E160002056657273696F6E203D20004350552024
:10E1700049442020202020203D20004C6F7720663D
:10E18000757365202020203D20004869676820665F
:10E190007573652020203D200045787420667573D6
:10E1A00065202020203D20004C6F636B2066757336
:10E1B000652020203D20004D617220203720323024
:10E1C000313300312E362E3800342E332E350056A2
:10E1D00023202020414444522020206F7020636F70
:10E1E00064652020202020696E73747275637469E1
:10E1F0006F6E2061646472202020496E74657272B3
:10E20000757074006E6F20766563746F7200726A49
:10E210006D702020006A6D70200057686174207056
:10E220006F72743A00506F7274206E6F7420737541
:10E2300070706F72746564004D7573742062652030
:10E2400061206C6574746572002000577269747483
:10E25000696E672045450052656164696E672045B7
:10E26000450045452065727220636E743D00504F35
:10E27000525400303D5A65726F2061646472003FF1
:10E280003D43505520737461747300403D454550C3
:10E29000524F4D207465737400423D426C696E6B41
:10E2A000204C454400453D44756D70204545505215
:10E2B0004F4D00463D44756D7020464C415348001B
:10E2C000483D48656C70004C3D4C69737420492F83
:10E2D0004F20506F72747300513D51756974005234
:10E2E0003D44756D702052414D00563D73686F7707
:10E2F00020696E7465727275707420566563746FF0
:10E30000727300593D506F727420626C696E6B00BD
:10E310002A0011241FBECFEFD1E2DEBFCDBF01E046
:10E320000CBF12E0A0E0B2E0EEE1FDEF03E00BBFB6
:10E3300002C007900D92A030B107D9F712E0A0E01B
:10E34000B2E001C01D92AE30B107E1F70F9460F367
:10E350000D948DFE01E20EBF0FEF0DBF11241FBE05
:10E360000D9460F30D9400F020E030E040ED57E0B4
:10E3700005C0FA013197F1F72F5F3F4F2817390792
:10E38000C0F308959C01260F311DC901A0E0B0E043
:10E390002F5F3F4FABBFFC018791882361F08093D3
:10E3A000C6008091C00086FFFCCF8091C0008064D1
:10E3B0008093C000EACF08958DE08093C6008091DD
:10E3C000C00086FFFCCF8091C00080648093C000B5
:10E3D0008AE08093C6008091C00086FFFCCF8091C8
:10E3E000C00080648093C00008950F94C2F10F9420
:10E3F000DCF10895FC019081992359F09093C600B7
:10E400008091C00086FFFCCF8091C0008064809323
:10E41000C0003196992379F70895282F982F929567
:10E420009F70892F805D8A3308F0895F8093C600D2
:10E430008091C00086FFFCCF8091C00080648093F3
:10E44000C000822F8F70982F905D9A3308F0995FEB
:10E450009093C6008091C00086FFFCCF8091C000E1
:10E4600080648093C00008959C01FB01853691056E
:10E470001CF46330710594F0C90164E670E00F94F8
:10E480002EFE605D7F4F6093C6008091C00086FFC6
:10E49000FCCF8091C00080648093C0002B30310598
:10E4A00014F43297B4F0C90164E670E00F942EFEC4
:10E4B0006AE070E00F942EFE605D7F4F6093C600AF
:10E4C0008091C00086FFFCCF8091C0008064809363
:10E4D000C000C9016AE070E00F942EFEC0968093E0
:10E4E000C6008091C00086FFFCCF8091C000806490
:10E4F0008093C00008951F93182F8EE692EE60E07F
:10E500000F94C2F11093C6008091C00086FFFCCF2B
:10E510008091C00080648093C0000F94DCF11F9153
:10E5200008952F923F924F925F926F927F928F92B7
:10E530009F92AF92BF92CF92DF92EF92FF920F9392
:10E540001F93DF93CF93CDB7DEB762970FB6F894E2
:10E55000DEBF0FBECDBF382E622ECA01DB015C01CB
:10E560006D01772420E2222E2E010894411C511CBB
:10E570008BC081E0A81680E0B80681E0C80680E084
:10E58000D80628F0C601AA27BB270F940DF2BB2797
:10E59000AD2D9C2D8B2D0F940DF28A2D0F940DF225
:10E5A0002092C6008091C00086FFFCCF8091C00001
:10E5B00080648093C0009DE29093C6008091C0006B
:10E5C00086FFFCCF8091C00080648093C0002092C1
:10E5D000C6008091C00086FFFCCF8091C00080649F
:10E5E0008093C00019828601750188249924A1E0D6
:10E5F0003A1651F03A1620F0B2E03B1661F409C029
:10E600000BBFF701779007C0C7010F9477FE782EF4
:10E6100002C0F7017080872D0F940DF22092C60082
:10E620008091C00086FFFCCF8091C0008064809301
:10E63000C000872D8052F401EF70F0708F3520F408
:10E64000E40DF51D708204C0E40DF51D8EE280839B
:10E650000894E11CF11C011D111D0894811C911CE2
:10E6600090E18916910409F0C2CF80E190E0A0E02A
:10E67000B0E0A80EB91ECA1EDB1E198AC2010F9493
:10E68000FAF10F94DCF16A94662009F072CF629679
:10E690000FB6F894DEBF0FBECDBFCF91DF911F91B3
:10E6A0000F91FF90EF90DF90CF90BF90AF909F9031
:10E6B0008F907F906F905F904F903F902F90089534
:10E6C0002F923F924F925F926F927F928F929F9282
:10E6D000AF92BF92CF92DF92EF92FF920F931F9370
:10E6E000DF93CF93CDB7DEB7CD53D1400FB6F894BB
:10E6F000DEBF0FBECDBF01E20EBF0FEF0DBF94B75F
:10E70000F894A89514BE80916000886180936000A1
:10E7100010926000789493FF05C0E0910002F091A0
:10E7200001021995279A2F9A8091C00082608093E8
:10E73000C00080E18093C40088E18093C1000000A4
:10E74000EE24FF24870144E0A42EB12CCC24DD2448
:10E7500024C0C5010197F1F70894E11CF11C011DCB
:10E76000111D21E2E2162EE4F20620E0020720E06D
:10E77000120718F031E0C32ED12CC801B70127ECE5
:10E780003BE140E050E00F9441FE611571058105C9
:10E79000910519F485B1805885B98091C00087FD35
:10E7A00003C0C114D104A9F2A6014F5F5F4FC25E3E
:10E7B000DE4F59834883CE51D140C25EDE4F8881FF
:10E7C0009981CE51D140019711F00D9410FEC05D9A
:10E7D000DE4F19821882C053D14060E0C15DDE4F28
:10E7E0001882CF52D14088249924C35DDE4F19820C
:10E7F0001882CD52D140C05EDE4F188219821A8233
:10E800001B82C052D140CE5CDE4F188219821A8220
:10E810001B82C253D140EE24FF2487010BBFF701B6
:10E8200007911691C45CDE4F19830883CC53D14005
:10E830000D940BFEC25EDE4F28813981CE51D1404E
:10E840002130310509F52091C600C25EDE4F1982E4
:10E850001882CE51D14022C02F5F3F4F4F4F5F4FA4
:10E86000213082E138078AE7480780E0580780F0C6
:10E87000C45CDE4FE881F981CC53D140EF5FFF4F9C
:10E8800019F0EE27FF27099420E030E040E050E047
:10E890008091C00087FFE0CF2091C600C35DDE4FAE
:10E8A00048815981CD52D1404F5F5F4FC35DDE4FEC
:10E8B00059834883CD52D140213209F063C64A3092
:10E8C000510508F05FC60894811C911C53E0851621
:10E8D000910409F059C600E010E018C081E280936D
:10E8E000C6008091C00086FFFCCF8091C00080648C
:10E8F0008093C0002F5F3F4F2931310579F70F9486
:10E90000DCF10F5F1F4F0530110519F020E030E0FA
:10E91000E5CF10920A0210920B0210920C02109294
:10E920000D02109206021092070210920802109235
:10E930000902109202021092030210920402109235
:10E9400005028FEE90EE60E00F94F5F180E191EE1C
:10E9500060E00F94C2F18091C00087FFFCCF9091DE
:10E96000C600903608F09F759032B8F09093C600BC
:10E970008091C00086FFFCCF8091C00080648093AE
:10E98000C000A0E2A093C6008091C00086FFFCCF2B
:10E990008091C00080648093C000983409F4D7C18E
:10E9A0009934B8F4923409F459C1933458F490333B
:10E9B00019F1903308F4E3C59F33A1F1903409F0C5
:10E9C000DEC5BDC0953409F470C1963409F0D7C5D1
:10E9D00098C1923509F42BC2933538F49C3409F46C
:10E9E000F5C1913509F0CBC518C2963509F445C279
:10E9F000993509F0C4C567C483E792EE62E00F94CD
:10EA0000F5F110920602109207021092080210927D
:10EA1000090210920A0210920B0210920C0210923C
:10EA20000D0213C18FE792EE62E00F94F5F18FEEC5
:10EA300090EE60E00F94F5F181E291EE60E00F94CA
:10EA4000C2F187EB91EE60E00F94F5F180E391EE77
:10EA500060E00F94C2F184EE90EE60E00F94F5F167
:10EA60008FE391EE60E00F94C2F186E090E061E008
:10EA700070E00F9434F20F94DCF18DE591EE60E0DC
:10EA80000F94C2F189EC91EE60E00F94F5F18EE401
:10EA900091EE60E00F94C2F183EC91EE60E00F9490
:10EAA000F5F18CE691EE60E00F94C2F18EE10F94E7
:10EAB0000DF288E90F940DF281E00F940DF20F949E
:10EAC000DCF18BE791EE60E00F94C2F119E0E0E039
:10EAD000F0E010935700E4918E2F0F940DF20F94F5
:10EAE000DCF18AE891EE60E00F94C2F1E3E0F0E03F
:10EAF00010935700E4918E2F0F940DF20F94DCF1D8
:10EB000089E991EE60E00F94C2F1E2E0F0E0109349
:10EB10005700E4918E2F0F940DF20F94DCF188EAE8
:10EB200091EE60E00F94C2F1E1E0F0E01093570045
:10EB30001491812F0F940DF20F94DCF107CF8BE825
:10EB400092EE62E00F94F5F18BE492EE60E00F94A8
:10EB5000F5F10F94DCF100E010E019C0C8016F2D51
:10EB60000F947FFEFF2031F489E492EE60E00F9471
:10EB7000C2F10BC0F092C6008091C00086FFFCCFAE
:10EB80008091C00080648093C0000F5F1F4FC80158
:10EB900081519F41A0E0B0E0ABBFFC01F790BAE229
:10EBA000FB1621F0E2E000301E07C1F60F94DCF105
:10EBB0000F94DCF187E592EE60E00F94F5F10F948D
:10EBC000DCF1CC24DD2400E010E01EC0C8010F946D
:10EBD00077FEF82E882331F489E492EE60E00F94FA
:10EBE000C2F10BC08093C6008091C00086FFFCCFAD
:10EBF0008091C00080648093C000FE1419F00894D6
:10EC0000C11CD11C0F5F1F4FC80181519F41A0E063
:10EC1000B0E0ABBFFC01E790FAE2EF1621F022E092
:10EC20000030120799F60F94DCF10F94DCF182E6C4
:10EC300092EE60E00F94C2F1C60161E070E00F94C3
:10EC400034F20F94DCF10F94DCF110920202109276
:10EC50000302109204021092050278CE89E992EE26
:10EC600062E00F94F5F1279A2F9A16C02F9880E052
:10EC700090E0E0EDF7E03197F1F7019684369105E9
:10EC8000C1F72F9A80E090E0E0EDF7E03197F1F7DF
:10EC9000019684369105C1F78091C00087FFE6CFC9
:10ECA0008091C00087FFFCCF64C485EA92EE62E0E9
:10ECB0000F94F5F140910202509103026091040219
:10ECC0007091050281E020E10F9491F2809102029F
:10ECD00090910302A0910402B091050280509F4FD1
:10ECE000AF4FBF4F8093020290930302A0930402A0
:10ECF000B093050280509041A040B04008F426CE69
:10ED0000A4CF83EB92EE62E00F94F5F140910602FE
:10ED100050910702609108027091090280E020E1A1
:10ED20000F9491F28091060290910702A09108023F
:10ED3000B091090280509F4FAF4FBF4F80930602A2
:10ED400090930702A0930802B0930902FFCD80ECD4
:10ED500092EE62E00F94F5F183E792EE60E00F949B
:10ED6000F5F18FE792EE60E00F94F5F18BE892EE0B
:10ED700060E00F94F5F189E992EE60E00F94F5F10F
:10ED800085EA92EE60E00F94F5F183EB92EE60E09D
:10ED90000F94F5F180EC92EE60E00F94F5F187ECC2
:10EDA00092EE60E00F94F5F188ED92EE60E00F9442
:10EDB000F5F18FED92EE60E00F94F5F18AEE92EEB0
:10EDC00060E00F94F5F183E093EEBDCD87EC92EE19
:10EDD00062E00F94F5F181E40F947BF282E40F94EA
:10EDE0007BF283E40F947BF284E40F947BF285E45E
:10EDF0000F947BF286E40F947BF287E40F947BF20E
:10EE000088E40F947BF28AE40F947BF28BE40F94F6
:10EE10007BF28CE40F947BF299CD88ED92EE62E068
:10EE20000F94F5F1772473948824992409C48FED05
:10EE300092EE62E00F94F5F140910A0250910B02BC
:10EE400060910C0270910D0282E020E10F9491F22A
:10EE500080910A0290910B02A0910C02B0910D02D8
:10EE600080509F4FAF4FBF4F80930A0290930B0289
:10EE7000A0930C02B0930D0269CD8AEE92EE62E08F
:10EE80000F94F5F184EE90EE60E00F94F5F18FECC5
:10EE900091EE60E00F94F5F1662477244301CC5D98
:10EEA000DE4F19821882C452D140D401C301B695F5
:10EEB000A79597958795CA5DDE4F88839983AA8326
:10EEC000BB83C652D140CC5DDE4FA881B981C4520C
:10EED000D1401196CC5DDE4FB983A883C452D14096
:10EEE000CD0162E070E00F9434F2B0E2B093C6005E
:10EEF0008091C00086FFFCCF8091C0008064809329
:10EF0000C000EDE2E093C6008091C00086FFFCCF18
:10EF10008091C00080648093C000F0E2F093C6004E
:10EF20008091C00086FFFCCF8091C00080648093F8
:10EF3000C000CA5DDE4FE880F9800A811B81C6529D
:10EF4000D140BB27A12F902F8F2D0F940DF2CA5DBA
:10EF5000DE4F8881C652D1400F940DF2B0E2FB2EF5
:10EF6000F092C6008091C00086FFFCCF8091C00067
:10EF700080648093C0000DE30093C6008091C000C0
:10EF800086FFFCCF8091C00080648093C00010E2B7
:10EF90001093C6008091C00086FFFCCF8091C00016
:10EFA00080648093C0008BBEF3012791C65DDE4F65
:10EFB0002883CA52D140A22EBB24CC24DD2408943D
:10EFC000611C711C811C911C8BBEF3018791282E42
:10EFD0003324442455240894611C711C811C911C09
:10EFE0008BBEF3013791C55DDE4F3883CB52D140E4
:10EFF0000894611C711C811C911C8BBEF30147910C
:10F00000C45DDE4F4883CC52D140ADEFEA2EAFEF66
:10F01000FA2EAFEF0A2FAFEF1A2F6E0C7F1C801E57
:10F02000911E142D032DF22CEE24EA0CFB1C0C1D5A
:10F030001D1D0F940DF220E22093C6008091C000A8
:10F0400086FFFCCF8091C00080648093C000C65DC5
:10F05000DE4F8881CA52D1400F940DF230E23093D6
:10F06000C6008091C00086FFFCCF8091C000806404
:10F070008093C000C45DDE4F8881CC52D1400F9494
:10F080000DF240E24093C6008091C00086FFFCCFA5
:10F090008091C00080648093C000C55DDE4F888190
:10F0A000CB52D1400F940DF250E25093C6008091A4
:10F0B000C00086FFFCCF8091C00080648093C000B8
:10F0C0008FEFE8168FEFF80680E0080780E018075A
:10F0D00031F484E092EE60E00F94C2F1DFC0D80119
:10F0E000C7018070907CA070B0708050904CA040A0
:10F0F000B040D1F52FEF3FE340E050E0E222F322B1
:10F1000004231523CA5DDE4FA880B980CA80DB8046
:10F11000C652D140AE0CBF1CC01ED11EAA0CBB1CD7
:10F12000CC1CDD1C8EE092EE60E00F94C2F1BB2798
:10F13000A12F902F8F2D0F940DF28E2D0F940DF285
:10F1400030E23093C6008091C00086FFFCCF8091F2
:10F15000C00080648093C0004EE34093C60080915D
:10F16000C00086FFFCCF87C08EE09EEFA0E0B0E03D
:10F17000E822F9220A231B239CE0E91694E9F90608
:10F1800090E0090790E0190709F088C0C45DDE4FE0
:10F19000A881CC52D140EA2EFF2400E010E0102FCD
:10F1A0000F2DFE2CEE24C55DDE4FB881CB52D14031
:10F1B000EB0EF11C011D111DD601C501817090706F
:10F1C000A070B070DC0199278827E80EF91E0A1F8D
:10F1D0001B1F20EF30E040E050E0A222B322C42207
:10F1E000D52241E1AA0CBB1CCC1CDD1C4A95D1F7F1
:10F1F000EA0CFB1C0C1D1D1D81E090E0A0E0B0E0BE
:10F20000282239224A225B2235E1220C331C441C7D
:10F21000551C3A95D1F7E20CF31C041D151D57013E
:10F220006801AA0CBB1CCC1CDD1C85E192EE60E0E1
:10F230000F94C2F1C801AA27BB270F940DF2BB2778
:10F24000A12F902F8F2D0F940DF28E2D0F940DF274
:10F2500090E29093C6008091C00086FFFCCF809121
:10F26000C00080648093C000AEE3A093C60080918C
:10F27000C00086FFFCCF8091C00080648093C000F6
:10F28000C601AA27BB270F940DF2BB27AD2D9C2DDD
:10F290008B2D0F940DF28A2D0F940DF20F94DCF14B
:10F2A000CC5DDE4FE881F981C452D140F99709F471
:10F2B0004DCBF4E0EF2EF12C012D112D6E0C7F1CA7
:10F2C000801E911EF2CD83E093EE62E00F94F5F183
:10F2D0008AE192EE60E00F94C2F18091C00087FF56
:10F2E000FCCF1091C6001F751093C6008091C0001E
:10F2F00086FFFCCF8091C00080648093C0000F9493
:10F30000DCF1812F81548A3108F036C1163409F4BA
:10F3100095C0173490F4133409F44EC0143430F40B
:10F320001134F1F0123409F01DC130C0143409F465
:10F3300059C0153409F016C16BC01A3409F4C4C0A1
:10F340001B3438F4173409F48FC0183409F00AC19B
:10F35000A1C01B3409F4D2C01C3409F003C1E8C0B9
:10F360008FEF81B90DC082B1809582B980E090E0C5
:10F37000E0EDF7E03197F1F70196883C9105C1F790
:10F380008091C00087FFEFCF12B8EFC08FEF84B934
:10F390000DC085B1809585B980E090E0E0EDF7E0A3
:10F3A0003197F1F70196883C9105C1F78091C00033
:10F3B00087FFEFCF15B8D9C08FEF87B90DC088B1DF
:10F3C000809588B980E090E0E0EDF7E03197F1F7C3
:10F3D0000196883C9105C1F78091C00087FFEFCF6F
:10F3E00018B8C3C08FEF8AB90DC08BB180958BB9A7
:10F3F00080E090E0E0EDF7E03197F1F70196883C8E
:10F400009105C1F78091C00087FFEFCF1BB8ADC059
:10F410008FEF8DB90DC08EB180958EB980E090E0F0
:10F42000E0EDF7E03197F1F70196883C9105C1F7DF
:10F430008091C00087FFEFCF1EB897C08FEF80BBD1
:10F440000DC081B3809581BB80E090E0E0EDF7E0F6
:10F450003197F1F70196883C9105C1F78091C00082
:10F4600087FFEFCF11BA81C08FEF83BB0DC084B38C
:10F47000809584BB80E090E0E0EDF7E03197F1F714
:10F480000196883C9105C1F78091C00087FFEFCFBE
:10F4900014BA6BC08FEF809301010FC080910201FD
:10F4A00080958093020180E090E0E0EDF7E03197F5
:10F4B000F1F70196883C9105C1F78091C00087FF64
:10F4C000EDCF1092020151C08FEF809304010FC065
:10F4D0008091050180958093050180E090E0E0ED4A
:10F4E000F7E03197F1F70196883C9105C1F78091DB
:10F4F000C00087FFEDCF1092050137C08FEF8093DA
:10F5000007010FC08091080180958093080180E079
:10F5100090E0E0EDF7E03197F1F70196883C910536
:10F52000C1F78091C00087FFEDCF109208011DC088
:10F530008FEF80930A010FC080910B01809580931B
:10F540000B0180E090E0E0EDF7E03197F1F70196F4
:10F55000883C9105C1F78091C00087FFEDCF1092E4
:10F560000B0103C085E292EEEEC98091C00087FFD7
:10F57000FCCF8091C600EAC988E392EEE4C98CE131
:10F5800091EEE1C988249924933011F1943028F444
:10F59000913089F09230B8F408C0953061F195301F
:10F5A000F0F0963009F048C043C02B3109F042C951
:10F5B00091E06BE13FC96227C15DDE4F2883CF52E6
:10F5C000D14092E037C9B22FA0E0622793E032C960
:10F5D000822F90E0A82BB92B622794E02BC92E3004
:10F5E00009F039C3622795E0C05DDE4F19821882A9
:10F5F000C053D1401FC9E1E0F0E0EC0FFD1FC05D3A
:10F60000DE4F08811981C053D140E00FF11F2083E4
:10F610000F5F1F4FC05DDE4F19830883C053D14079
:10F6200062270A171B0709F005C9D80196E002C92D
:10F63000261709F010C303C0973009F0FBC87724E0
:10F640009981933109F412C19431C8F4963009F4C8
:10F65000D8C0973050F4923009F406C1933009F4C1
:10F660006DC0913009F059C253C0913109F477C08F
:10F67000923108F0BBC0903109F04FC2F5C098310B
:10F6800009F487C0993150F4953109F4EFC09531F0
:10F6900008F4C6C1963109F040C2C2C19A3109F4DA
:10F6A0006CC09A3108F491C09B3109F45BC09D3164
:10F6B00009F033C29D81903359F48F81882311F46E
:10F6C0009EE11CC0813011F091E018C098E916C08D
:10F6D000892F807591F0903539F4E0E0F0E089E011
:10F6E0008093570094910AC0983539F4E3E0F0E034
:10F6F00089E080935700949101C090E01A821B82A8
:10F700008D818C831D829E831F8227E030E009C299
:10F710001A8288E08B8381E48C8386E58D8382E581
:10F720008E8389E48F8383E5888780E589878FE5E9
:10F730008A8782E38B872BE030E0F3C18A818139AD
:10F7400041F0823941F0803911F48FE005C080E04A
:10F7500003C082E001C08AE01A828B8344C0772410
:10F76000739482C08D81882311F48EE12CC0813086
:10F7700011F081E028C088E926C01A82E1E0F0E0BB
:10F7800089E08093570084918B831C8224E030E0D1
:10F79000C8C18B81803589F48C81883039F4E2E0EE
:10F7A000F0E089E08093570084910DC0E0E0F0E044
:10F7B00089E080935700849106C0E3E0F0E089E09F
:10F7C0008093570084911A82DFCF8D81836C99E0FA
:10F7D000E1E0F0E0082E90935700E89507B600FCB2
:10F7E000FDCF1A821B8223E030E09BC180EC8A832C
:10F7F000CE5CDE4F188219821A821B82C253D1401E
:10F800008EC18A8190E0A0E0B0E0582F44273327D2
:10F8100022278B8190E0A0E0B0E0DC0199278827C7
:10F82000282B392B4A2B5B2B8D8190E0A0E0B0E098
:10F83000282B392B4A2B5B2B8C8190E0A0E0B0E089
:10F84000BA2FA92F982F8827282B392B4A2B5B2BCF
:10F85000220F331F441F551FC05EDE4F288339839C
:10F860004A835B83C052D1401A8259C13A81C95C34
:10F87000DE4F3883C753D140CA5CDE4F1882C6536F
:10F88000D1408B81C82EDD24CA5CDE4F488159816E
:10F89000C653D140C42AD52A933109F082C0CE5C28
:10F8A000DE4F88819981AA81BB81C253D1408050AB
:10F8B000904CA340B04030F583E0CE5CDE4FE88052
:10F8C000F9800A811B81C253D140F70100935B008C
:10F8D00080935700E89507B600FCFDCFCE5CDE4F65
:10F8E000088119812A813B81C253D14000501F4FAA
:10F8F0002F4F3F4FCE5CDE4F088319832A833B8313
:10F90000C253D140C05EDE4F488159816A817B81FC
:10F91000C052D140DE011B9631E08C9111962C91A2
:10F9200011971296C75CDE4F2883C953D140C85C3B
:10F93000DE4F1882C853D14090E0C85CDE4FE881AA
:10F94000F981C853D1408E2B9F2B0C01FA01609393
:10F950005B0030935700E89511244E5F5F4F6F4F67
:10F960007F4F0EEFE02E0FEFF02ECE0CDF1CC114F8
:10F97000D10499F685E0C05EDE4F088119812A81A5
:10F980003B81C052D140F80120935B008093570027
:10F99000E89507B600FCFDCF81E180935700E8951C
:10F9A00035C0C05EDE4F88819981AA81BB81C0527B
:10F9B000D140B695A795979587957C018601ABE0D8
:10F9C000AA2EB12CAC0EBD1E0BC0D5016D915D01F0
:10F9D000C7010F947FFE0894E11CF11C01501040F8
:10F9E0000115110591F7A60160E070E0440F551F65
:10F9F000661F771FC05EDE4FE880F9800A811B8199
:10FA0000C052D1404E0D5F1D601F711F1A82C05E33
:10FA1000DE4F488359836A837B83C052D1407FC0C5
:10FA2000FA80C55CDE4FF882CB53D140C65CDE4F16
:10FA30001882CA53D1408B81C82EDD24C65CDE4FAC
:10FA400008811981CA53D140C02AD12A1A828981DA
:10FA5000BE016D5F7F4F843121F59601C05EDE4FA0
:10FA6000E880F9800A811B81C052D1400BBFF701A9
:10FA700087919691DB018C9311969C936E5F7F4FDB
:10FA8000D801C7010296A11DB11DC05EDE4F88835B
:10FA90009983AA83BB83C052D14022503040F1F6F3
:10FAA00036C0C05EDE4F288139814A815B81C052F9
:10FAB000D1400894C108D108760100E010E0089414
:10FAC000C11CD11C0894E11CF11C011D111DE20E8A
:10FAD000F31E041F151F21BDBB27A52F942F832FB5
:10FAE00082BD2F5F3F4F4F4F5F4FF89A80B5DB01CC
:10FAF0008D93BD012E153F054007510761F7C05E8C
:10FB0000DE4F288339834A835B83C052D1409601FC
:10FB10002D5F3F4FFB01108204C080EC8A8322E0FE
:10FB200030E08BE18093C6008091C00086FFFCCF5F
:10FB30008091C00080648093C000C15DDE4FF88179
:10FB4000CF52D140F093C6008091C00086FFFCCF19
:10FB50008091C00080648093C000432F3093C60022
:10FB60008091C00086FFFCCF8091C00080648093AC
:10FB7000C000922F2093C6008091C00086FFFCCF6A
:10FB80008091C00080648093C0008EE08093C600A6
:10FB90008091C00086FFFCCF8091C000806480937C
:10FBA000C00065E1C15DDE4FE880CF52D1406E25D7
:10FBB00069276427FE01319610C090819093C6009A
:10FBC0008091C00086FFFCCF31968091C000806498
:10FBD0008093C0006927215030402115310569F715
:10FBE0006093C6008091C00086FFFCCF8091C0006A
:10FBF00080648093C00085B1805885B9772081F4F6
:10FC0000C15DDE4F0881CF52D1400F5FC15DDE4F35
:10FC10000883CF52D14090E0A0E0B0E00D941AF4F8
:10FC200027982F9880E090E020ED37E0F901319798
:10FC3000F1F7019684369105C9F700008091C00064
:10FC40008D7F8093C00081E180935700E895EE2777
:10FC5000FF270994FFCF90E00D941AF497FB092E2B
:10FC600007260AD077FD04D02ED006D000201AF443
:10FC7000709561957F4F0895F6F7909581959F4F08
:10FC80000895A1E21A2EAA1BBB1BFD010DC0AA1FDD
:10FC9000BB1FEE1FFF1FA217B307E407F50720F0F5
:10FCA000A21BB30BE40BF50B661F771F881F991F70
:10FCB0001A9469F760957095809590959B01AC01B9
:10FCC000BD01CF010895AA1BBB1B51E107C0AA1FAC
:10FCD000BB1FA617B70710F0A61BB70B881F991FED
:10FCE0005A95A9F780959095BC01CD010895F99991
:10FCF000FECF92BD81BDF89A992780B50895262F31
:10FD0000F999FECF1FBA92BD81BD20BD0FB6F89400
:0EFD1000FA9AF99A0FBE01960895F894FFCF63
:040000033000E000E9
:00000001FF
